:020000040800F2
:1000000088060020CD010008A10500089905000818
:100010009D050008210400088D070008000000006D
:100020000000000000000000000000004906000879
:100030002504000800000000250600083507000818
:10004000E7010008E7010008E7010008E7010008F0
:10005000E7010008E7010008E7010008E7010008E0
:10006000E7010008E7010008E7010008E7010008D0
:10007000E7010008E7010008E7010008E7010008C0
:10008000E7010008E7010008E7010008E7010008B0
:10009000E7010008E7010008E7010008E7010008A0
:1000A000E7010008E7010008E7010008E701000890
:1000B000E7010008E7010008E7010008E701000880
:1000C000E7010008E7010008E7010008E701000870
:1000D000E7010008E7010008E7010008E701000860
:1000E000E7010008E7010008E7010008E701000850
:1000F000E7010008E7010008E7010008E701000840
:10010000E7010008E7010008E7010008E70100082F
:10011000E7010008E7010008E7010008E70100081F
:10012000E7010008E7010008E7010008E70100080F
:1001300000F002F800F03AF80AA090E8000C8244BF
:100140008344AAF10107DA4501D100F02FF8AFF29C
:10015000090EBAE80F0013F0010F18BFFB1A43F0A5
:10016000010318479C0E0000BC0E0000103A24BF8B
:1001700078C878C1FAD8520724BF30C830C144BF0C
:1001800004680C607047000000230024002500264E
:10019000103A28BF78C1FBD8520728BF30C148BFEA
:1001A0000B6070471FB51FBD10B510BD00F033F8D0
:1001B0001146FFF7F7FF00F02AFB00F051F803B4F7
:1001C000FFF7F2FF03BC00F0E3FA000009488047A4
:1001D00009480047FEE7FEE7FEE7FEE7FEE7FEE729
:1001E000FEE7FEE7FEE7FEE704480549054A064B41
:1001F000704700003907000831010008880000201E
:10020000880600208802002088020020704770477E
:10021000704770477047754600F02CF8AE460500F1
:100220006946534620F00700854618B020B5FFF711
:10023000DBFFBDE820404FF000064FF000074FF015
:1002400000084FF0000B21F00701AC46ACE8C009F4
:10025000ACE8C009ACE8C009ACE8C0098D467047FD
:1002600010B50446AFF300802046BDE81040FFF70C
:10027000A6BF0000004870472800002010B500F01D
:1002800035F84FF4FA7000F0ABFA012202210A4867
:1002900000F07DF901220821074800F078F90122D9
:1002A0002021054800F073F9322000F099FA034844
:1002B000008800F07BF810BD001C01400000002009
:1002C00010B54FF4005000F071F810BD70B5054640
:1002D0000E4614463146284600F01EF821460220FC
:1002E00000F052F8FFF7ECFF70BD000008B50121E7
:1002F000802000F099F92A20ADF8000010208DF838
:10030000030003208DF802006946024800F0B0F8AF
:1003100008BD0000001C014070B504460D46B4B98C
:10032000284600F03FF90A2000F05AFA13480088E6
:1003300000F03CF81249098841F4804000F036F89A
:100340001049098841F4804000F030F815E0284653
:1003500000F028F90948008800F028F80A2000F089
:100360003FFA0749098841F4004000F01FF80549A9
:10037000098841F4004000F019F870BD0000002029
:10038000200000202200002070B504460D46022CFB
:1003900008D1284600F038F90349098841F4404063
:1003A00000F004F870BD00002400002070B5044681
:1003B00001220821194800F0EAF80022022117481A
:1003C00000F0E5F800251DE001220821134800F0A7
:1003D000DEF804F4004028B1012220210F4800F08B
:1003E000D6F804E0002220210C4800F0D0F80022CA
:1003F00008210A4800F0CBF84FF6FF7000EA4404E9
:10040000681CC5B2102DDFDB01220221034800F079
:10041000BEF80A2000F0E4F970BD0000001C0140A5
:1004200000BFFEE77047000008B50121482000F03A
:10043000FBF82020ADF8000001208DF8020010200C
:100440008DF803006946084800F012F82020ADF846
:10045000000001208DF8020010208DF8030069468D
:10046000024800F005F808BD000C014000180140EA
:100470002DE9F0410246002500260020002300243B
:10048000002791F803C00CF00F0591F803C00CF0A1
:10049000100CBCF1000F03D091F802C04CEA050526
:1004A00091F800C0BCF1000F31D0146800202BE09F
:1004B0004FF0010C0CFA00F3B1F800C00CEA03068F
:1004C0009E4220D183004FF00F0C0CFA03F7BC437F
:1004D00005FA03FC4CEA040491F803C0BCF1280FB0
:1004E00006D14FF0010C0CFA00FCC2F814C00AE06F
:1004F00091F803C0BCF1480F05D14FF0010C0CFA84
:1005000000FCC2F810C0401C0828D1D31460B1F818
:1005100000C0BCF1FF0F34DD546800202EE000F174
:10052000080C4FF0010808FA0CF3B1F800C00CEA0F
:1005300003069E4221D183004FF00F0C0CFA03F703
:10054000BC4305FA03FC4CEA040491F803C0BCF177
:10055000280F05D100F1080C08FA0CF8C2F8148035
:1005600091F803C0BCF1480F07D100F1080C4FF01F
:10057000010808FA0CF8C2F81080401C0828CED3F5
:100580005460BDE8F08141617047016170470AB174
:10059000016100E04161704700BFFEE700BFFEE778
:1005A000704700002DE9FC5F82460024A1465046BA
:1005B00000F046FC4FF09B41009000F055FC0E49C6
:1005C000019000F07BFB834600F04CFB07460022C5
:1005D0000A4B00F033F9054600F0D8F90446A1466D
:1005E000C9F30D0006490880A146C9F38D300549BD
:1005F0000880BDE8FC9F00008096184B0000E03F9B
:1006000020000020220000200103062291FBF2F1CD
:10061000034A118011460988C1F30B01118070470C
:10062000240000207047000029B1064A9269024365
:10063000044B9A6104E0034A92698243014B9A6138
:100640007047000000100240704710B500F002F83B
:1006500010BD00000CB500200190009033480068E8
:1006600040F480303149086000BF3048006800F431
:10067000003000900198401C0190009818B9019832
:10068000B0F5A06FF1D12948006800F4003010B136
:100690000120009001E0002000900098012843D143
:1006A0002348006840F010002149086008460068AF
:1006B00020F0030008600846006840F0020008606F
:1006C0001A4840681949486008464068486008462A
:1006D000406840F4806048600846406820F47C1020
:1006E00048600846406840F4E810486008460068E2
:1006F00040F08070086000BF0C48006800F0007097
:100700000028F9D00948406820F0030007494860F4
:100710000846406840F00200486000BF0348406857
:1007200000F00C000828F9D10CBD000000100240B8
:10073000002002407047000010B51148006840F0EA
:1007400001000F490860084640680E4908400C49FE
:100750004860084600680C49084009490860084696
:10076000006820F4802008600846406820F4FE00FD
:1007700048604FF41F008860FFF767FF10BD00005E
:10078000001002400000FFF8FFFFF6FE00BFFEE78A
:1007900000BF704710B520210F48FFF7F4FE4FF45B
:1007A0007A7000F01DF820210C48FFF7ECFE4FF4A2
:1007B0007A7000F015F820210748FFF7E6FE4FF4A5
:1007C0007A7000F00DF820210448FFF7DEFE4FF4A8
:1007D0007A7000F005F810BD000C014000180140CF
:1007E00000B5034605E04FF47A7000F005F8581E96
:1007F00083B2002BF7DC00BD142105E000BF4A1EC8
:10080000D1B20029FBD0401E0028F7D17047002448
:10081000FFF70AFEFFF732FD0FE0601CC4B2FFF7DE
:10082000B9FF4FF4FA70FFF7DBFF012C05D102226C
:100830004FF47A710120FFF749FDEEE710B591EA18
:10084000030F48BF83F0004300F12A81841A71EB43
:10085000030C05D2121943EB0C03001B61EB0C01D6
:10086000DFF824E14FEA1154A4EB135C1EEA430FB6
:1008700018BF9EEA445F73D023EA0E03DCF1200E1A
:1008800021EA045143F4801332D322FA0CFE10EB18
:100890000E0023FA0CFE41EB0E01CCF1200E03FA00
:1008A0000EFE10EB0E0051F10001B1F5801FCCF1EE
:1008B000200E32D201EB045112FA0EF2BDE81040C4
:1008C00058BF7047401C38BF5FEA420218BF7047EC
:1008D000002814BF20F0010041F100014FEA41035C
:1008E00013F5001F38BF7047A1F1C04100F0C9B82F
:1008F000012A43EB0302ACF1200CDCF11F0E32BFE6
:100900004FF0000E23FA0CF310EB030041EB0451FF
:10091000B4EB115FD0D0A1EB045101F5801149086F
:100920005FEA300001EB04510ED350F1000038BFF4
:1009300012FA0EFE08D1BDE81040C9E7401C38BFCE
:100940005FEA4202CAD1C3E7BDE810404FEA410363
:1009500013F5001F38BF7047A1F1C04100F091B8F6
:100960009EEA445F08D011EA5E0FBDE8104004BF64
:1009700001F0004100207047BDE8104070B500F064
:1009800032F800BF64FBBE3E0000E0FF4FEA1153A7
:10099000A3F58063D3F11E03A8BFD3F1200C08DBBD
:1009A0004FF0004242EAC12252EA505232FA03F0BA
:1009B000704709420BD4102BC4BF0020704703F5C9
:1009C000787CBCF1FF3F05D04FF0FF3070474FF00F
:1009D0000000704770B500F006F800BF499224800F
:1009E00000207047F0E70EF1020E2EF0030E5EF8C5
:1009F000046B364205D4012A43EB030515F5001FAD
:100A000012D8012841EB010C1CF5001F0CD80ED1A7
:100A10004FEAD17C15F5001F0CEB4C0C0CF1020CCD
:100A200008BF4CEBD37C04E04FF0080C01E04FEA28
:100A3000D37C0CEB4C0526FA05F606F00706B6F15A
:100A4000040C06D20EEB860CBDE870404CF0010C95
:100A50006047DFE80CF0090B02024FF000414FF055
:100A60000000A1F5002170BD19461046012851EB88
:100A7000010418BFD4F5001484BF002001F0004128
:100A800070BD0808A0F500114FEA31017047000061
:100A900010B591EA030F48BF83F000433FF5D6AE8F
:100AA000841A71EB030C07D212198CF0004C43EB43
:100AB0000C03001B61EB0C01DFF8A4E14FEA1154B9
:100AC000A4EB135C1EEA430F18BF9EEA445F00F0DC
:100AD000B08023EA6E03524221EA0451C3EB6E0355
:100AE00038BF5B1EDCF1200E25D322FA0CFE10EB82
:100AF0000E0043FA0CFE41EB0E01CCF1200E03FA7E
:100B00000EFE10EB0E0051F10001CCF1200E29D4A5
:100B100012FA0EF201EB0451BDE8104058BF7047C5
:100B2000401C1CBFB2F1004F704700280CBF491C8D
:100B300020F00100704712EB020E43EB030218BFD6
:100B40004FF0010E4EEA4202ACF1200CDCF11E0E19
:100B500054D943FA0CFE10EB0E0051F1FF31CCF1E9
:100B60001E0ED5D50EF1010E12FA0EFE404141EBDC
:100B7000010101EB445C5FEA5C5C10D910EBDE70B4
:100B800001EB045138BFBEF1004FBDE8104018BF63
:100B9000704700280CBF491C20F00100704730D27C
:100BA0004FEAD42C11F5001124F400641BD0B1FAE3
:100BB00081F20B3AA41AA41ED2F12003914030FA1C
:100BC00003F31943904001EBCC71002C01EB04516D
:100BD000BDE81040A8BF704701F1C0414FF00000D0
:100BE00001F000417047B0FA80F310FA03F100D130
:100BF00010BDE41A173C4805C90AE4E701EB0451AB
:100C000010BD491001EB0451BDE810404FEA30001F
:100C100002E04FF0000170474A0008BF0042F8D0E0
:100C2000B2F5001F28BF704701F000414FF00000EF
:100C300070479EEA445F07D011EA5E0FBDE810409E
:100C400004BF002100207047BDE8104070B5FFF7D9
:100C5000CAFE00BF40DFF63E83F0004110467047F9
:100C60000000E0FF43004FEAD30C4FEA3C0C434046
:100C70001FBF40070CF1605113F0FE4F70471CF08E
:100C8000006F03D100200CF0004170470CF00043CE
:100C900043EA507010B540EACC0000F066F900BF9E
:100CA000000000924FEA0001FFF7EBBE4FF0004159
:100CB0004FF00000A1F50021704700004FF47F0CB9
:100CC0001CEAD0121EBF1CEAD11392EA0C0F93EA61
:100CD0000C0F00F0858090EA010F48BF42F480724B
:100CE00040F4000C41F400002CF07F4120F07F40E4
:100CF00000B58142A2EB03020FF2081CACEB504E90
:100D0000C0F100009EF800E04FEA4E0E00FB0EFC22
:100D100038BF49004FEA2C1C02F5FA020CFB0EF317
:100D20004FEACE1E4FEA112C4FEAC1210EEB635E53
:100D300042EB22420EFB0CFC4FEA1C5300FB03115A
:100D40004FEA112C4FEA01310EFB0CFC4FEADC4C50
:100D500000FB0C11C14228BF09184CEB03335DF8AE
:100D600004EB10EB410143EBC250B2F57C0F38BFEE
:100D7000704729D512F0F00F1CBF00F1C04000F001
:100D800000407047008182838485868788898B8CA8
:100D90008D8E8F919293959697999A9C9D9FA0A2E4
:100DA000A3A5A7A8AAACAEB0B2B3B5B7B9BCBEC034
:100DB000C2C5C7C9CCCED1D4D7D9DCDFE2E6E9ECD5
:100DC000F0F3F7FAFE0000004FEA400C0CF1807CD3
:100DD000BCF17E4F28BF7047B0F1C04000F00BB9A6
:100DE00090EA010F0CEAD11348BF42F480726245C9
:100DF00038BF634507D213F47F0F16D080EA010095
:100E000000F00040704710B500F0AFF8097EFC3EDE
:100E100000F005B880EA010000F00040704780EA69
:100E2000010000F0004000F0E6B812F47F0F04BFAC
:100E30000248704780EA010000F0DDB80000C07F82
:100E4000B0FA80F310FA03F2C3F19D030AD0D9057A
:100E500001EB1220530638BF704700F1010008BFB4
:100E600020F00100704700004FF47F0C1CEAD01204
:100E70001EBF1CEAD11392EA0C0F93EA0C0F00F08C
:100E8000478090EA010F48BF42F480724FF0004C57
:100E90004CEA00204CEA012102EB0302A0FB011303
:100EA000A2F50002002918BF43F001035B0028BF30
:100EB0004FEA330342EB22425FEA132C4CEBC25061
:100EC0002EBFBCEB436FB2F57C0F70474FEA036C4B
:100ED000BCF1004F08BF20F00100B2F57C0F38BF15
:100EE00070470BD582F0FF0212F5803FC8BF7047F4
:100EF00000F1C040D8BF00F00040704700F5000C82
:100F00005FEA4C0C48BF7047B0F1C04000F073B8C6
:100F100090EA010F0CEAD11348BF42F48072624597
:100F200038BF634504D280EA010000F000407047FA
:100F300010B500F01AF800BF8900013E00F007B8B4
:100F400000F009B85FEA410C5FEA1C6C08D080EA47
:100F5000010000F050B85FEA400C5FEA1C6CF6D16B
:100F60004FF00040A0F5800070470EF1020E2EF009
:100F7000030E5EF8044B244204D44FEA4102B2F15E
:100F80007F4F11D84FEA4003B3F17F4F0CD80ED1F9
:100F90004FEAD07CB2F17F4F0CEB4C0C0CF1020C01
:100FA00008BF4CEBD17C04E04FF0080C01E04FEAA5
:100FB000D17C0CEB4C0324FA03F404F00704B4F1E5
:100FC000040C06D20EEB840CBDE810404CF0010C72
:100FD0006047DFE80CF0070802024FF00040A0F580
:100FE000800010BD0846420018BFD2F1807288BF51
:100FF00000F0004010BDFF2141EAD050C00570470D
:101000002010000800000020280000006C010008EB
:101010004810000828000020600600008801000831
:1010200000210000004000800000002000100008A7
:101030000004000200010000800000001000040015
:081040000000000000000000A8
:0400000508000131BD
:00000001FF
