:020000040800F2
:1000000098410020850200088D0200088F02000838
:100010009102000893020008950200080000000009
:10002000000000000000000000000000C9010008FE
:1000300099020008000000001D020008BD19000818
:100040009F0200089F0200089F0200089F0200080C
:100050009F0200089F0200089F0200089F020008FC
:100060009F0200089F0200089F0200089F020008EC
:100070009F0200089F0200089F0200089F020008DC
:100080009F0200089F0200089F0200089F020008CC
:100090009F0200089F0200089F0200089F020008BC
:1000A0009F020008B51A00089F0200089F0200087E
:1000B0009F0200089F0200089F0200089F0200089C
:1000C0009F0200089F0200089F0200089F0200088C
:1000D0009F0200089F0200089F0200089F0200087C
:1000E0009F0200089F0200089F0200089F0200086C
:1000F0009F0200089F0200089F0200089F0200085C
:100100009F0200089F0200089F0200089F0200084B
:100110009F0200089F0200089F0200089F0200083B
:100120009F0200089F0200089F0200089F0200082B
:100130009F0200089F0200089F0200089F0200081B
:100140009F0200089F0200089F0200089F0200080B
:100150009F0200089F0200089F0200089F020008FB
:100160009F0200089F0200089F0200089F020008EB
:100170009F0200089F0200089F0200080000000084
:100180009F0200089F0200089F0200089F020008CB
:100190009F0200089F0200089F0200089F020008BB
:1001A0009F0200089F0200089F0200089F020008AB
:1001B0009F020008DFF80CD000F0D8F80048004794
:1001C000A11B0008984100202B4B19680868B0E873
:1001D000F04F80F30988BFF36F8F4FF0000080F37A
:1001E000118870470000000006480068006880F32E
:1001F000088862B661B6BFF34F8FBFF36F8F00DF21
:1002000000BF00BF08ED00E0DFF80C00016841F41A
:1002100070010160704700BF88ED00E0EFF30980D6
:10022000BFF36F8F144B1A681EF0100F08BF20ED3C
:10023000108A20E9F04F106008B44FF0500080F3AE
:100240001188BFF34F8FBFF36F8F02F01FF84FF08D
:10025000000080F3118808BC19680868B0E8F04F06
:100260001EF0100F08BFB0EC108A80F30988BFF3AE
:100270006F8F704700BF00BF28000020EFF305809C
:10028000704700000648804706480047FEE7FEE743
:10029000FEE7FEE7FEE7FEE7FEE7FEE7FEE7FEE736
:1002A000611A0008B50100082DE9F05F054600203D
:1002B00092469B4688460646814640241BE02846D7
:1002C00041464746224600F041F853465A46C01A76
:1002D000914110D311461846224600F028F82D1AF5
:1002E00067EB01084F4622460120002100F01FF86D
:1002F00017EB00094E41201EA4F10104DFDC484643
:1003000031462A464346BDE8F09F40EA01039B0779
:1003100003D009E008C9121F08C0042AFAD203E07A
:1003200011F8013B00F8013B521EF9D27047202A18
:1003300004DB203A00FA02F1002070479140C2F13C
:10034000200320FA03F3194390407047202A04DB6E
:10035000203A21FA02F00021704721FA02F3D0403E
:10036000C2F120029140084319467047064C074DE0
:1003700006E0E06840F0010394E807009847103475
:10038000AC42F6D3FFF71AFF2C2600084C260008D3
:100390002DE9F84F0446A9480D46844221D0A848CB
:1003A00084421ED0A74884421BD0A748844218D05C
:1003B000A648844215D0A648844212D0A54884425B
:1003C0000FD0A54884420CD0A448844209D0A44848
:1003D000844206D0A348844203D0C321A2A001F0E6
:1003E000DEFB28680104090C01D0000C03D0C421F5
:1003F0009DA001F0D4FB6868F8B101281DD0112838
:100400001BD0022819D0122817D0A649884214D030
:10041000A549884211D0A54988420ED0A4498842F6
:100420000BD0A449884208D0A349884205D00328AC
:1004300003D0C5218CA001F0B2FBA86838B1012817
:1004400005D0022803D0C62187A001F0A8FB002612
:100450004FF0010B0BFA06F02F6882460740574514
:100460007ED16868022801D0122830D1286908B3EB
:1004700009281FD001281DD002281BD0032819D01D
:10048000042817D0052815D0062813D0072811D026
:1004900008280FD00A280DD00B280BD00C2809D023
:1004A0000D2807D00F2805D00E2803D0D7216EA025
:1004B00001F075FBF00804EB8002106A7107CB0EA7
:1004C0000F219940884329699940014311622068AE
:1004D0007200032101FA02F82979914601F0030123
:1004E00020EA080001FA09F1014321606868012847
:1004F00005D0022803D0112801D012281CD1E868A9
:1005000048B1012807D0022805D0032803D0EA21EA
:1005100055A001F044FBA168E86821EA080100FA4F
:1005200009F00843A0606068297920EA0A00C1F355
:100530000011B14001436160E068A96820EA080049
:1005400001FA09F10143E1606868C0006FD55B48BA
:10055000016841F480410160006800F4804000E0DF
:1005600065E00090564826F003010A18D2F8080802
:10057000B1070B0F0F219940884330498C4201D1BC
:1005800000212DE02E498C4201D1012128E02D4986
:100590008C4201D1022123E02B498C4201D103215D
:1005A0001EE02A498C4201D1042119E028498C42DD
:1005B00001D1052114E027498C4201D106210FE029
:1005C00025498C4201D107210AE024498C4201D1FE
:1005D000082105E022498C4201D1092100E00A21CD
:1005E00099400143C2F80818364908686A68B84358
:1005F000D20300D5384308603249091D08686A688B
:10060000B843920300D5384308602E490831086882
:100610006A68B843D20200D53843086029490C31D2
:1006200008686A68B843920200D538430860761CAF
:10063000102EFFF40FAFBDE8F88F0000000002405D
:100640000004024000080240000C0240001002407A
:100650000014024000180240001C0240002002402A
:1006600000240240002802402E2E2F447269766535
:1006700072732F53544D3332463478785F48414C6F
:100680005F4472697665722F5372632F73746D3392
:1006900032663478785F68616C5F6770696F2E636B
:1006A00000000000000011100000211000003110B7
:1006B00000001210000022100000321044380240E6
:1006C00000300140003C014070B515460C00064664
:1006D00004D140F2AF1108A001F061FA45B1012D3B
:1006E00004D04FF4D87104A001F059FAB46170BD80
:1006F0002004B06170BD00002E2E2F447269766513
:1007000072732F53544D3332463478785F48414CDE
:100710005F4472697665722F5372632F73746D3301
:1007200032663478785F68616C5F6770696F2E63DA
:100730000000000001480068704700000000002031
:1007400002480168491C0160704700000000002059
:100750000B4810B5016841F400710160016841F473
:1007600080610160016841F480710160032000F044
:10077000EFF8002000F006F800F03EF8002010BD71
:10078000003C024010B5014688B00022192000F05C
:100790008FF8192000F05CF813480024016841F438
:1007A00000310160006805A900F400300690684639
:1007B00000F042FA00F066FA0C494000B0FBF1F19B
:1007C0000C480B4A491E026040F2E732C0E903249C
:1007D000C0E9011400F002FD10B1012008B010BD05
:1007E000044800F097FDF9E74438024040420F000A
:1007F000004401405C3D002010B5032000F0A8F843
:10080000002211466FF00B0000F052F80022114652
:100810006FF00A0000F04CF8002211466FF009005A
:1008200000F046F800221146501F00F041F8002267
:100830001146101F00F03CF800220F21901E00F01E
:1008400037F800220F21BDE81040501E00F030B8EC
:1008500010B5040003D5CE2106A001F0A0F904F0E4
:100860001F01012088406109890001F1E021C1F8E0
:10087000000110BD2E2E2F447269766572732F53BE
:10088000544D3332463478785F48414C5F44726946
:100890007665722F5372632F73746D3332663478BA
:1008A000785F68616C5F636F727465782E630000B7
:1008B00070B515460C460646102A03D3BA2114A07B
:1008C00001F06DF9102C03D3BB2111A001F067F9E1
:1008D0001E480068C0F30223C3F107022046042A21
:1008E00000D90422191D072901D2002300E0DB1ED4
:1008F000012404FA02F1491E014099409C40641E03
:100900002C4021433046BDE8704001F043B8000060
:100910002E2E2F447269766572732F53544D3332E5
:10092000463478785F48414C5F4472697665722F2F
:100930005372632F73746D3332663478785F6861F5
:100940006C5F636F727465782E6300000CED00E0DD
:1009500010B5044607280BD0062C09D0052C07D06B
:10096000042C05D0032C03D0A22108A001F017F914
:10097000154904F0070208684FF6FF03184040EAE3
:100980000220124A1043086010BD00002E2E2F4492
:100990007269766572732F53544D333246347878CA
:1009A0005F48414C5F4472697665722F5372632FC2
:1009B00073746D3332663478785F68616C5F636F2F
:1009C000727465782E6300000CED00E00000FA05FB
:1009D0002DE9F0470C4605007ED02868401E0E2801
:1009E00004D94FF4107182A001F0D9F814B3012C8E
:1009F00020D0022C1ED0032C1CD0042C1AD0052C85
:100A000018D0062C16D0072C14D0082C12D0092C84
:100A100010D00A2C0ED00B2C0CD00C2C0AD00D2C84
:100A200008D00E2C06D00F2C04D040F2412170A02B
:100A300001F0B5F8DFF8F081D8F80000E7B200F077
:100A40000F00A04207D288F80070D8F8000000F02C
:100A50000F00A04240D12868744E810729D5400775
:100A600003D5306840F4E05030602878000703D5A3
:100A7000306840F460403060A868A0B1802812D08F
:100A8000902810D0A0280ED0B0280CD0C0280AD0B2
:100A9000D02808D0E02806D0F02804D04FF41971EF
:100AA00053A001F07CF83068A96820F0F0000843FA
:100AB00030602878C00743D0DFF870916868A9F1EA
:100AC000080998B1012822D0022824D0032822D076
:100AD00040F26B2146A000E03FE001F060F868685A
:100AE000012814D0022816D0032814D0D9F8000009
:100AF0008007002831DA3068696820F00300084375
:100B00003060FFF717FE814641F2883A11E0D9F8CC
:100B100000008003EDE7D9F800008001E9E700BF9D
:100B2000FFF708FEA0EB0901514502D90320BDE8FB
:100B3000F0873068696800F00C00B0EB810FEFD1EE
:100B4000D8F80010404601F00F01A14207D9077004
:100B5000006800F00F00A04201D00120E7E72878EC
:100B60004FF4805440074FF4A0574FF4C0584FF44F
:100B7000E05914D5E86860B1A0420AD0B84208D064
:100B8000404506D0484504D040F2A92118A001F004
:100B900006F83068E96820F4E050084330602878AF
:100BA000000715D5286960B1A0420AD0B84208D024
:100BB000404506D0484504D04FF42C710CA000F0FD
:100BC000EEFF3068296920F4604040EAC1003060DF
:100BD00000F068F83168164AC1F30311515CC8404F
:100BE000144908600020FFF7CDFD00209FE70000BA
:100BF0002E2E2F447269766572732F53544D333203
:100C0000463478785F48414C5F4472697665722F4C
:100C10005372632F73746D3332663478785F686112
:100C20006C5F7263632E6300003C02400838024030
:100C300008260008680000200F2202600C4A136892
:100C400003F003034360136803F0F0038360136849
:100C500003F4E053C36012684FF4E05303EAD20296
:100C600002610448006800F00F000860704700004F
:100C700008380240003C024001480068704700000C
:100C8000680000200448054900680968044AC1F367
:100C90004231515CC840704768000020083802406B
:100CA00018260008154810B5006810F00C0214480A
:100CB00013D01449042A0FD0082A0ED10F4C241F38
:100CC0002268236802F03F025B0207D52068C0F368
:100CD0008810A0FB010106E0084610BD2168C1F3A1
:100CE0008811A1FB00010023FFF7DEFA2168C1F3A0
:100CF0000141491C4900B0FBF1F010BD0838024029
:100D00000024F40040787D012DE9F84F0446006886
:100D10000F2804D940F60F41F7A000F040FFDFF89C
:100D200014942078A9F1040BC007ABF1040557D047
:100D300060684FF480364FF4A02740B1B04206D02F
:100D4000B84204D040F61441EBA000F028FFD9F8D7
:100D500000104846C1F38101012908D00068C0F3A2
:100D6000810002280AD1DBF80000400206D528687D
:100D7000800335D5606800287AD031E06068B042E1
:100D800003D1286840F480300CE0B842286803D1D1
:100D900040F480202860F4E720F480302860286840
:100DA00020F480202860606868B1FFF7C3FC064625
:100DB00005E000BFFFF7BEFC801B64287DD82868D3
:100DC0008003F7D50CE0FFF7B5FC064605E000BF51
:100DD000FFF7B0FC801B6428F0D828688003F7D4A4
:100DE0002078D54F80074FF0010A4FF000084FD50B
:100DF000E06830B1012804D040F64C41BEA000F0BC
:100E0000CEFE20691F2804D940F64D41BAA000F05B
:100E1000C6FED9F80010484611F00C0F08D0006843
:100E2000C0F3810002280AD1DBF80000400206D49A
:100E30002868800714D5E068012819D110E0E0681F
:100E4000B8B1C7F800A0FFF775FC064605E000BF83
:100E5000FFF770FC801B0228B0D828688007F7D500
:100E60002868216920F0F80040EAC10028600FE0FE
:100E700024E1C7F80080FFF75DFC064605E000BFEF
:100E8000FFF758FC801B022898D828688007F7D401
:100E9000207800072ED5A94E6069D0B1012806D070
:100EA00040F6934194A000F07AFE606988B1C6F8DC
:100EB00000A0FFF73FFC064605E014E1FFF73AFC0F
:100EC000801B022888D89B486C3000688007F5D5C5
:100ED00010E0C6F80080FFF72DFC064605E000BFD5
:100EE000FFF728FC801B0228B6D892486C300068B7
:100EF0008007F5D4207840075FD5A06840B101286D
:100F000006D0052804D040F6BD417BA000F047FE86
:100F100088483830016841F080510160006800F075
:100F2000805000908648016841F480710160FFF7AD
:100F300001FC064605E000BFFFF7FCFB801B022812
:100F40008AD87F480068C005F6D57A4EA068683612
:100F500001280FD00528306810D020F00100306043
:100F6000306820F004003060A068B8B1FFF7E2FB01
:100F700000900FE0306840F00100F4E740F004001A
:100F80003060F7E7FFF7D6FB0099411A41F288304D
:100F9000814297D830688007F4D50EE0FFF7CAFB8E
:100FA000009007E0FFF7C6FB0099411A41F2883034
:100FB000814287D830688007F4D4A06900287CD0AB
:100FC000012809D0022807D040F6F2414AA000F0DB
:100FD000E6FDA0690028F2D0D9F80000C0F3810036
:100FE00002286BD0A069022805D0C7F86080FFF7FF
:100FF000A1FB04467AE0E06938B1B0F5800F04D077
:1010000040F6FB413CA000F0CAFD206A3F2804D90D
:1010100040F6FC4138A000F0C2FD606A3238B0F5FD
:10102000BF7F04D940F6FD4133A000F0B8FDA06AAF
:1010300002280AD0042808D0062806D0082804D0A0
:1010400040F6FE412CA000F0AAFDE06A801E0D28AB
:1010500004D940F6FF4128A000F0A1FD206B801EBE
:10106000052804D94FF4506123A000F098FDC7F87B
:101070006080FFF75FFB064605E000BFFFF75AFB05
:10108000801B02282FD828688001F7D4F4E90701D3
:101090000843E1682B4A490802EB0141A26841EA92
:1010A00082110843217C40EA0160217D40EA017100
:1010B000CBF80010C7F860A001E01AE044E0FFF7A9
:1010C00039FB044605E000BFFFF734FB001B022894
:1010D00009D828688001F7D50BE000BFFFF72AFB8D
:1010E000001B022802D90320BDE8F88F2868800180
:1010F000F4D40020F8E700002E2E2F4472697665A4
:1011000072732F53544D3332463478785F48414CD4
:101110005F4472697665722F5372632F73746D33F7
:1011200032663478785F68616C5F7263635F65789C
:101130002E6300000838024000004742800E4742FC
:10114000007000400000FFFF0120CDE710B54FF018
:10115000E024042809D020B140F2D91105A000F004
:101160001EFD206920F0040002E0206940F0040028
:10117000206110BD2E2E2F447269766572732F5335
:10118000544D3332463478785F48414C5F4472693D
:101190007665722F5372632F73746D3332663478B1
:1011A000785F68616C5F636F727465782E630000AE
:1011B00010B5401EB0F1807F01D3012010BD4FF06B
:1011C000E02460610F21601700F0E4FB0020A061C3
:1011D00007202061002010BD7047704710B5040043
:1011E0004CD03048226882422AD0B2F1804F27D0BA
:1011F0002D48824224D02D48824221D02C48824260
:101200001ED02C4882421BD02B48824218D02B483B
:10121000824215D02A48824212D02A4882420FD0F8
:10122000294882420CD02948824209D0284882426B
:1012300006D02848824203D0D72127A000F0AFFC77
:10124000A06858B1102809D0202807D0402805D020
:10125000602803D0D82120A000F0A1FC206948B16B
:10126000B0F5807F06D0B0F5007F03D0D9211AA059
:1012700000F095FC94F8390010B107E0012010BD92
:10128000002084F83800204600F042F8022084F85C
:101290003900211D206800F013FC012084F839007A
:1012A000002010BD00000140000400400008004084
:1012B000000C0040001000400014004000040140F9
:1012C0000040014000440140004801400018004037
:1012D000001C0040002000402E2E2F4472697665CD
:1012E00072732F53544D3332463478785F48414CF3
:1012F0005F4472697665722F5372632F73746D3316
:1013000032663478785F68616C5F74696D2E630053
:101310007047000010B5044601681D4881422BD07B
:10132000B1F1804F28D01B48814225D01A48814214
:1013300022D01A4881421FD0194881421CD0194836
:10134000814219D01848814216D01848814213D0E2
:101350001748814210D0174881420DD0164881426B
:101360000AD01648814207D01548814204D04FF474
:10137000B17114A000F013FC2068C16841F00101B4
:10138000C1602068016841F001010160002010BDCA
:10139000000001400004004000080040000C004034
:1013A00000100040001400400004014000400140D3
:1013B000004401400048014000180040001C00406B
:1013C000002000402E2E2F447269766572732F53D1
:1013D000544D3332463478785F48414C5F447269EB
:1013E0007665722F5372632F73746D33326634785F
:1013F000785F68616C5F74696D2E6300704770B5CB
:101400000446006801694FF00005C943890715D4F7
:10141000C168C943890711D4E91E01610120207602
:10142000206880698007204602D0FFF7E7FF04E0CC
:1014300000F098F8204600F096F8257620680169BB
:10144000C943490717D4C168C943490713D46FF08A
:1014500004010161022020762068806910F4407F39
:10146000204602D0FFF7CAFF04E000F07BF82046D8
:1014700000F079F8257620680169C943090716D478
:10148000C168C943090712D46FF008010161042043
:1014900020762068C0698007204602D0FFF7AEFFA3
:1014A00004E000F05FF8204600F05DF82576206843
:1014B0000169C943C90617D4C168C943C90613D411
:1014C0006FF010010161082020762068C06910F4D7
:1014D000407F204602D0FFF791FF04E000F042F881
:1014E000204600F040F8257620680169C943C90705
:1014F00008D1C168C943C90704D1891E01612046CA
:1015000000F032F820680169C943090609D4C168AE
:10151000C943090605D46FF0800101612046FFF739
:101520005BFE20680169C943490609D4C168C94303
:10153000490605D46FF040010161204600F01EF815
:1015400020680169C94389060BD4C168C94389066B
:1015500007D46FF0200101612046BDE87040FFF71D
:101560003CBE70BD7047704700680349884201D196
:10157000FFF7E6B8704700000044014070470000E4
:1015800000B585B0142206496846FEF7BEFE00216C
:10159000684600F02CFB0349086005B000BD000060
:1015A000F4250008640000202DE9F04FEC4887B0D6
:1015B0000024016841F010010160016801F0100190
:1015C0000591016841F040010160016801F04001AE
:1015D0000591016841F002010160016801F002011A
:1015E0000591016841F004010160016801F0040106
:1015F0000591016841F001010160016801F00101FC
:101600000591016841F008010160016801F00801DD
:101610000591016841F480710160016801F48071F5
:101620000591016841F020010160016801F020018D
:101630000591016841F480610160016801F48061F5
:101640000591016841F080010160016801F08001AD
:101650000591016841F4007101600068DFF80493AE
:1016600000F40070059000220C214846FFF72CF88A
:1016700000223021BC48FFF727F800220821BB4890
:10168000FFF722F800224021B948FFF71DF8002299
:101690000521B848FFF718F800220821B648FFF7DF
:1016A00013F84FF0300A0225CDF800A0CDE901541F
:1016B0000620CDE9034069464846FEF769FE0C273F
:1016C0004FF001080097CDE901846946484603942C
:1016D000FEF75EFE4FF48440CDE900050326029438
:1016E0000820CDE903606946A148FEF751FE4FF698
:1016F0008370CDE9000502AA694682E8D000484619
:10170000FEF746FE300200901220CDE901084FF0AE
:101710000409CDE9036969469648FEF739FE0820B9
:101720000090CDE901540620CDE903406946914877
:10173000FEF72EFE4FF4F850CDE9000502AA6946E7
:1017400082E8D0008D48FEF723FE802000908C4870
:10175000CDE9010469468748FEF71AFE4020CDE92D
:10176000000502940A20CDE9036069468148FEF72E
:101770000FFE48F23310CDE9000502AA694682E85F
:10178000D0007B48FEF704FE40200090CDE90154D4
:101790000620CDE9034069467348FEF7F9FD4CF297
:1017A0000370CDE9000502AA694682E8D0006E48C0
:1017B000FEF7EEFD4FF4E050CDE9000502940A205B
:1017C000CDE9036069466C48FEF7E2FD40F2FF6038
:1017D000CDE9000502AA694682E8D0006948FEF713
:1017E000D7FD4FF0110BCDF800A0CDE901B469464B
:1017F0005D480394FEF7CCFD4FF63F00CDE90005B0
:1018000002AA694682E8D0005F48FEF7C1FD0820C1
:101810000090CDE901B4694654480394FEF7B8FD41
:1018200002AA694682E8D000CDE900954E48FEF74D
:10183000AFFD4FF60C70CDE9000502AA694682E8BB
:10184000D0005248FEF7A4FD2802CDE90005694604
:1018500002944948FEF79CFD1220CDF800A0CDE986
:101860000108CDE9036969464848FEF791FD8020EB
:101870000090CDE901540620CDE9034069463C487B
:10188000FEF786FD40200090CDE901B46946384856
:101890000394FEF77DFD4FF49860CDE900050294B6
:1018A0000920CDE9036069463748FEF771FD300233
:1018B000CDE9000502940A20CDE90360694632486B
:1018C000FEF766FD02AA694682E8D000CDE90085F0
:1018D0002A48FEF75DFD05200090CDE901846946A8
:1018E00024480394FEF754FD28030090CDE90154E9
:1018F00069461D48CDE90345FEF74AFDCDE9009450
:1019000069461B480294FEF743FD202000901C48C6
:10191000CDE9010469461E48FEF73AFD0D20CDF8D9
:101920000090CDE90360CDE9015469461848FEF7FF
:101930002FFDB002CDE9000502940720CDE9036038
:1019400069460C48FEF724FD08200090CDE901848B
:10195000694609480394FEF71BFD07B0BDE8F08F08
:101960003038024000100240000C024000280240C3
:10197000001802400004024000000240000802403B
:10198000000011100020024000140240001C024020
:10199000002402400907090E002806DA00F00F00B3
:1019A00000F1E02080F8141D704700F1E02080F87D
:1019B00000147047012000F004F9FBE700F00DB9B6
:1019C00030B5254893B00025016841F08051016091
:1019D000006800F0805012902048016841F44041B6
:1019E00001600068022400F4404012900120009041
:1019F000000401908001CDE9064010200890C0202D
:101A0000CDE909040420CDE90B046846FFF77CF911
:101A100000B1FEE70DA90F2081E831004FF4A0507E
:101A200010904FF48050119004210DA8FEF7D0FFC4
:101A300000B1FEE7FFF720F94FF47A71B0FBF1F047
:101A4000FFF7B6FB0420FFF781FB00220F21501E99
:101A5000FEF72EFF13B030BD40380240007000404A
:101A60001048016841F4700101600F48016841F0BD
:101A7000010101600C4A00210832116002680B4B21
:101A80001A400260031D0A4A1A60026822F480228A
:101A9000026005480C300160024958068039086030
:101AA0007047000088ED00E000380240FFFFF6FEBE
:101AB000103000240148FFF7A2BC00005C3D00206C
:101AC000F0B50268234B244D244E254F254C4FF092
:101AD000804C984209D0604507D0A84205D0B0425A
:101AE00003D0B84201D0A04204D122F0700E4A685F
:101AF00042EA0E0298421BD0604519D0A84217D086
:101B0000B04215D0B84213D0A04211D0164DA84211
:101B10000ED0164DA8420BD0154DA84208D0154D39
:101B2000A84205D0144DA84202D0144DA84203D1BA
:101B300022F44075CA682A4302608A68C2620A6851
:101B40008262984201D0A04201D10969016301215A
:101B50004161F0BD00000140000400400008004069
:101B6000000C0040000401400040014000440140DE
:101B70000048014000180040001C004000200040C8
:101B800002E008C8121F08C1002AFAD17047704746
:101B9000002001E001C1121F002AFBD170477047ED
:101BA000FEF7D6FDFFF70CFFFFF7FEFCFFF7E8FCA2
:101BB00000F00EF8FEE701460020842900D0C81C82
:101BC000704710B500B9012000F0FEFA002010BDEA
:101BD00010B500F01FFB002010BD10B500F036FC62
:101BE000012803D0BDE8104000F0EEBB10BD3EB5AB
:101BF00004460D46B0F90800FFF7DDFF02A9CDE964
:101C00000001208A2B4682B2D4E9001000F0F2FBDA
:101C1000012801D000203EBD02983EBD2DE9F041D3
:101C2000184C0F460546E6682068001D00F016FABD
:101C300038B9206890F82C10012088402169814330
:101C40002161681C07D137B12168BDE8F0410E4819
:101C5000091D00F03BBA20683544B5424560216853
:101C600005D2A06BBDE8F041091D00F017BA606B0A
:101C7000091D00F013FAA06A854200D2A562BDE8F2
:101C8000F081000028000020483D00202DE9F041AF
:101C9000054600F027FA2E4CA068401CA060206882
:101CA0002C4F10B1606940B32DE02560A068012879
:101CB00029D1002606EB860007EB800000F0E0F952
:101CC000761C072EF6D323488C3000F0D9F9214832
:101CD000A03000F0D5F91F48B43000F0D1F91D480C
:101CE000C83000F0CDF91B48DC3000F0C9F91948C4
:101CF0008C3060631430A06305E02068E96AC06A34
:101D0000884200D82560606A401C6062E96A012050
:101D1000226988401043206101EB810007EB8000BD
:101D2000291D00F0D3F900F0FDF9606900280CD0FE
:101D30002068E96AC06A884207D207494FF080509C
:101D40000860BFF34F8FBFF36F8FBDE8F0810000D5
:101D5000280000206C3C002004ED00E070B5114E1E
:101D6000114C17E000F08AFA3068B8B100F0E0FBDF
:101D700000F0B8F9F068C568281D00F06FF9A06898
:101D8000401EA0606068401E606000F0CBF92846ED
:101D900000F00CF860680028E4D170BD00F0C8FBCA
:101DA000F8E70000343D00202800002010B504466C
:101DB000006B00F0CBF92046BDE8104000F0C6B93A
:101DC00010484FF47051420706D0C01D0D4920F055
:101DD0000700411AC1F570510B4A00230144C2E9C2
:101DE00000030839103A21F0070111604B600B60C5
:101DF0000B1AC0E9001393604FF000405360D060AD
:101E0000704700006C00002014000020074C4FF0C9
:101E10008056074DFFF7A2FF20680128FAD92E60EF
:101E2000BFF34F8FBFF36F8FF4E700006C3C0020CF
:101E300004ED00E02DE9F0479A46DDE9098481468A
:101E40006FF00303206B03EB82021044089D20F027
:101E50000706700707D0502080F31188BFF34F8F1B
:101E6000BFF36F8FFEE723180A5C83F834200A5C07
:101E700012B1401C1028F6D3002784F84370072DB8
:101E800000D30625E562C4E91157201D00F003F9CF
:101E900004F1180000F0FFF82461C5F10700646246
:101EA000A061E76484F8507052464946304600F01D
:101EB000BFF82060B8F1000F01D0C8F80040BDE8BD
:101EC000F087000030B5114900E011460A688242EF
:101ED000FBD34B685C18844203D1406818444860C7
:101EE000084643681C18944209D1084C103C2468E9
:101EF000A24209D052681A4442600A68126802601D
:101F0000814200D0086030BD0460F9E71400002071
:101F10000648416B096829B1416BC968C9684968BD
:101F2000816270474FF0FF31FAE70000280000207F
:101F300008484068401C4FF0500080F3118804D0DE
:101F4000BFF34F8FBFF36F8FFEE7BFF34F8FBFF32A
:101F50006F8FFEE71C0000202DE9F04105460027A9
:101F600000F08CF9314E306808B9FFF729FFF068AE
:101F700005424BD1C5B3083568070ED005F0070000
:101F8000C0F108000544680707D0502080F311888D
:101F9000BFF34F8FBFF36F8FFEE72DB3706885429D
:101FA00034D82248103001460C6801E020460C4627
:101FB0006168A94202D221680029F7D131688C42B8
:101FC00024D007682168016060680837411B102928
:101FD0000FD96019420708D0502080F31188BFF351
:101FE0004F8FBFF36F8FFEE710E041606560FFF732
:101FF00069FF61687068401A7060B268904200D2F0
:10200000B060F06801430020C4E9000100F090FADC
:10201000780707D0502080F31188BFF34F8FBFF3AC
:102020006F8FFEE73846BDE8F08100000400002015
:1020300010B5031F4FF080741C601B1F21F00101BD
:102040001960191F044B0B6014390A60091F6FF0E7
:10205000020244380A6010BD311F0008D0E9013285
:1020600001699A60D0E901235A604A68824201D12D
:1020700082684A60002202610868401E086070475A
:1020800000F108014FF0FF32C0E90112C1600161A7
:1020900000210160704700210161704730B50B6875
:1020A0005A1C02D000F1080202E0026904E0224654
:1020B000546825689D42FAD953684B6099608A60DC
:1020C000516008610168491C016030BD42684A6086
:1020D00093688B6093685960916008610168491C3E
:1020E00001607047502080F31188BFF34F8FBFF31A
:1020F0006F8F0A494868401C486001280CD1084885
:10210000006810F0FF0F07D0502080F31188BFF354
:102110004F8FBFF36F8FFEE7704700001C00002059
:1021200004ED00E00849486828B1401E486001D12C
:1021300080F311887047502080F31188BFF34F8FD0
:10214000BFF36F8FFEE700001C00002070B5002871
:1021500027D0144DA0F108046168E868014207D156
:10216000502080F31188BFF34F8FBFF36F8FFEE7CE
:1021700022683AB1502080F31188BFF34F8FBFF32C
:102180006F8FFEE78143616000F078F860686968EE
:10219000084468602046FFF795FEBDE8704000F0F7
:1021A000C7B970BD0400002006484FF47A7100687A
:1021B000B0FBF1F14FF0E020491E416107210161C0
:1021C000704700006800002010B5020014D00F48CE
:1021D000006B38B1502080F31188BFF34F8FBFF3ED
:1021E0006F8FFEE700F04AF800211046FFF716FD5A
:1021F00000F09EF9002807D105494FF08050086093
:10220000BFF34F8FBFF36F8F10BD00002800002079
:1022100004ED00E01CB515480024CDE9004023463C
:10222000802213A1144800F0E5F8012809D0401CD1
:102230001AD1502080F31188BFF34F8FBFF36F8FF7
:10224000FEE7502080F31188BFF34F8FBFF36F8FED
:1022500006484FF0FF312C38816201214161C46092
:10226000BDE81C4000F040B81CBD00005400002038
:1022700049444C45000000000D1E00080248016B57
:10228000491C016370470000280000201448016BBE
:1022900011B10121C16170470021C1610169B1FA29
:1022A00081F1C1F11F0101EB81020E4951F8223089
:1022B0006BB101EB820101F108034A6852684A6080
:1022C0009A4201D152684A60D1680160704750203B
:1022D00080F31188BFF34F8FBFF36F8FFEE70000CD
:1022E000280000206C3C00201CB532480168324AAE
:1022F000914207D1502080F31188BFF34F8FBFF375
:102300006F8FFEE700682C49491E884207D1502094
:1023100080F31188BFF34F8FBFF36F8FFEE727491C
:1023200008780190FF20087008788DF800009DF86B
:1023300000009DF8002000F0F000904207D05020EF
:1023400080F31188BFF34F8FBFF36F8FFEE79DF8C7
:1023500000001B4A00F0500010700720906005E05C
:102360009DF800305B008DF80030401E9DF8003075
:102370001B06F5D4000200F4E0609060019808703C
:102380000C482030016841F470010160016841F09F
:1023900070410160FFF708FF00205060FDF734FF37
:1023A0000848016841F040410160FDF71DFF002031
:1023B0001CBD000000ED00E071C20F4100E400E030
:1023C0001C00002034EF00E010B5502080F311888D
:1023D000BFF34F8FBFF36F8F00F046F818B1044979
:1023E0004FF080500860002080F3118810BD00007D
:1023F00004ED00E02DE9FF5F8346DDE90E87994695
:1024000016468A469000FFF7A7FD05001AD0542013
:10241000FFF7A2FD040012D025630021CDE902419F
:10242000CDE900874B46324651465846FFF702FD3C
:102430002046FFF72BFC012004B0BDE8F09F2846A2
:10244000FFF784FE4FF0FF30F6E7000005484169D2
:1024500019B1006B18B100207047012070470220AD
:1024600070470000280000202DE9F0412E4C002785
:10247000206B40B1A069401CA061E06900B1012758
:102480003846BDE8F081E668761CE66013D1606BE3
:10249000006838B1502080F31188BFF34F8FBFF32D
:1024A0006F8FFEE7606BA16B6163A063206A401CC5
:1024B0002062FFF72DFDA06ADFF87080864209D305
:1024C000606B006880B1606BC068C56868688642F0
:1024D0000DD2A0622068C06A00EB800158F821008C
:1024E0000128CAD90127C8E74FF0FF30F1E7281DBE
:1024F000FFF7B4FDA86A18B105F11800FFF7AEFDAB
:10250000E86A0121226981401143216100EB8001C9
:1025100008EB8100291DFFF7D9FDE86A2168C96A27
:102520008842CDD30127CBE7280000206C3C002057
:102530002DE9F0472C4D00242746286B38B1FFF7D2
:10254000D1FD286B401E2863286B40B146E0502027
:1025500080F31188BFF34F8FBFF36F8FFEE7A96839
:10256000224E0120D1B3A6F1B40980463068E8B10B
:10257000F068C46804F11800FFF770FD201DFFF734
:102580006DFDE06A2A6908FA00F11143296100EB48
:10259000800109EB8100211DFFF798FDE06A2968A1
:1025A000C96A8842E2D3C5F81C80DFE70CB1FFF7A7
:1025B000AFFCAC6944B14646FFF756FF00B1EE618F
:1025C000641EF9D10020A861E86938B108490127E3
:1025D00038070860BFF34F8FBFF36F8FFFF7A2FD7F
:1025E0003846BDE8F087000028000020203D00208C
:1025F00004ED00E020260008B519000800000000E6
:10260000000000008000000000000000000000004A
:102610000102030406070809000000000102030488
:1026200064656661756C745461736B004C260008B8
:10263000000000206C000000801B0008B826000885
:102640006C0000202C410000901B000800000000DE
:10265000000000000000000000000000000000007A
:10266000000000000000000000000000AAAAAAAAC2
:10267000000000000000000000000000000000005A
:10268000000000000000000000000000000000004A
:10269000000000000000000000000000000000003A
:1026A000000000000000000000000000000000002A
:0826B000000000000024F4000A
:04000005080001B539
:00000001FF
