:020000040800F2
:100000008806002089010008E7040008DF040008D2
:10001000E3040008D3020008610D0008000000009E
:10002000000000000000000000000000430900087C
:100030007903000800000000790500082D0A000877
:10004000A3010008A3010008A3010008A301000800
:10005000A3010008A3010008A3010008A3010008F0
:10006000A3010008A3010008A3010008A3010008E0
:10007000A3010008A3010008A3010008A3010008D0
:10008000A3010008A3010008A3010008A3010008C0
:10009000A3010008A3010008A3010008A3010008B0
:1000A000A3010008A3010008A3010008A3010008A0
:1000B000A3010008A3010008A3010008A301000890
:1000C000A3010008A3010008A301000871070008AC
:1000D000A3010008850A0008A3010008A301000885
:1000E000A3010008A3010008A301000800F002F822
:1000F00000F03AF80AA090E8000C82448344AAF188
:100100000107DA4501D100F02FF8AFF2090EBAE885
:100110000F0013F0010F18BFFB1A43F0010318473B
:10012000580D0000780D0000103A24BF78C878C13F
:10013000FAD8520724BF30C830C144BF04680C60ED
:10014000704700000023002400250026103A28BF35
:1001500078C1FBD8520728BF30C148BF0B60704739
:100160001FB51FBD10B510BD00F033F81146FFF7E5
:10017000F7FF00F05BFE00F051F803B4FFF7F2FF69
:1001800003BC00F0EFFD0000094880470948004724
:10019000FEE7FEE7FEE7FEE7FEE7FEE7FEE7FEE737
:1001A000FEE7FEE704480549054A064B7047000094
:1001B000310A0008ED0000088800002088060020B1
:1001C00088020020880200207047704770477047FF
:1001D0007047754600F028F8AE460500694653465C
:1001E00020F00700854618B020B5FFF7DBFFBDE81B
:1001F00020404FF000064FF000074FF000084FF08E
:10020000000B21F00701AC46ACE8C009ACE8C0091E
:10021000ACE8C009ACE8C0098D4670470446AFF3AE
:1002200000802046FFF7A9FF004870472400002007
:100230002DE9FC4107460C46154600200090019030
:100240008046002607F00700402141EAC0008DF8F3
:100250000000611CCAB2E8B2694600F049FB012601
:1002600005E01DF8060000EB0828701CC6B2601CF3
:100270008642F6DB4046BDE8FC8170B501240025CE
:1002800000F010F8012000F0B3FD01221146042017
:10029000FFF7CEFFC5B205F00F00042800D0002400
:1002A000204670BD1CB501208DF80000FF208DF8A0
:1002B00001008DF802008DF803008DF804008DF820
:1002C00005008DF8060007226946012000F028FB92
:1002D0001CBD00BFFEE7000070B505460C46164683
:1002E0009DB90FE00121234800F0F5F8304600F0F9
:1002F0007FFD01211F4800F0F0F8304600F078FD46
:10030000601EC4B2002CEDDC32E0012D13D10FE0F1
:100310000221184800F0DFF8304600F069FD0221A4
:10032000144800F0DAF8304600F062FD601EC4B2F6
:10033000002CEDDC1CE0022D1AD117E001210D4844
:1003400000F0C9F802210B4800F0C5F8304600F073
:100350004FFD0121074800F0C0F80221054800F0D8
:10036000BCF8304600F044FD601EC4B2002CE5DC51
:1003700070BD0000000C01407047000008B501216D
:10038000082000F00BF90120ADF800008DF8020004
:1003900010208DF803006946084800F011F802208B
:1003A000ADF8000001208DF8020010208DF8030048
:1003B0006946024800F004F808BD0000000C014046
:1003C0002DE9F041024600250026002000230024EC
:1003D000002791F803C00CF00F0591F803C00CF052
:1003E000100CBCF1000F03D091F802C04CEA0505D7
:1003F00091F800C0BCF1000F31D0146800202BE050
:100400004FF0010C0CFA00F3B1F800C00CEA03063F
:100410009E4220D183004FF00F0C0CFA03F7BC432F
:1004200005FA03FC4CEA040491F803C0BCF1280F60
:1004300006D14FF0010C0CFA00FCC2F814C00AE01F
:1004400091F803C0BCF1480F05D14FF0010C0CFA34
:1004500000FCC2F810C0401C0828D1D31460B1F8C9
:1004600000C0BCF1FF0F34DD546800202EE000F125
:10047000080C4FF0010808FA0CF3B1F800C00CEAC0
:1004800003069E4221D183004FF00F0C0CFA03F7B4
:10049000BC4305FA03FC4CEA040491F803C0BCF128
:1004A000280F05D100F1080C08FA0CF8C2F81480E6
:1004B00091F803C0BCF1480F07D100F1080C4FF0D0
:1004C000010808FA0CF8C2F81080401C0828CED3A6
:1004D0005460BDE8F081416170470161704700BF21
:1004E000FEE700BFFEE7704710B54FF4A06000F0D4
:1004F00039F810BD70B5002100230F22C47804B371
:10050000154C246804F4E064C4F5E064210AC1F1E8
:100510000403CA40447804FA03F184781440214368
:1005200009010E4C0678A155047804F01F0501243A
:10053000AC4005786D11AD0005F1E025C5F800412E
:1005400009E0047804F01F050124AC40044D06784E
:10055000761145F8264070BD0CED00E000E400E0A7
:1005600080E100E002490143024A11607047000047
:100570000000FA050CED00E07047000029B1064AC2
:1005800012690243044B1A6104E0034A1269824370
:10059000014B1A61704700000010024029B1064A61
:1005A00092690243044B9A6104E0034A92698243D0
:1005B000014B9A61704700000010024029B1064AC1
:1005C000D2680243044BDA6004E0034AD2688243F3
:1005D000014BDA60704700000010024030B5002186
:1005E0000022002400232D4D6D6805F00C0121B17F
:1005F000042905D0082923D105E0294D056022E012
:10060000274D05601FE0254D6D6805F47012234DE0
:100610006D6805F48034022505EB92421CB9214D2A
:10062000554305600BE01D4D6D6805F400351DB1A7
:100630001C4D5543056002E0194D5543056002E02D
:10064000174D056000BF00BF144D6D6805F0F00147
:100650000909154D6B5C0568DD4045600F4D6D68FF
:1006600005F4E061090A104D6B5C4568DD4085606A
:100670000A4D6D6805F46051C90A0B4D6B5C456805
:10068000DD40C560054D6D6805F44041890B074D9F
:100690006B5CC568B5FBF3F5056130BD0010024029
:1006A00000127A0000093D000C0000201C00002010
:1006B0001149096821F480310F4A11601146096817
:1006C00021F480211160B0F5803F03D0B0F5802F78
:1006D0000ED106E00849096841F48031064A1160EC
:1006E00007E00549096841F4A021034A116000E0D0
:1006F00000BF00BF704700000010024000B587B087
:1007000001210803FFF74AFF0020ADF808004FF46D
:100710008270ADF80A000020ADF80C000220ADF8A0
:100720000E000120ADF810004002ADF812001020BC
:10073000ADF814000020ADF816000720ADF8180041
:1007400002A90A4800F0B6F823208DF80400002022
:100750008DF8050002208DF8060001208DF80700B5
:1007600001A8FFF7C7FE07B000BD00000030014040
:1007700010B50121044800F07FF8012803D1024898
:1007800000F093F8C4B210BD0030014010B500F085
:1007900045F8FFF7B3FFE0210648FFF79EFE012270
:1007A0006021054800F071F80121034800F058F875
:1007B00010BD0000000801400030014010B50024C9
:1007C00005E0601CC4B2C82C01DD002010BD012171
:1007D000054800F051F80028F3D00024024800F04A
:1007E00064F8C0B2F2E700000030014070B5044682
:1007F000002504E0681CC5B2C82D00DD70BD0221D3
:10080000054800F039F80028F4D0002521460248B8
:1008100000F04EF800BFF1E70030014008B50121BB
:100820000520FFF7BBFEE020ADF8000018208DF892
:10083000030003208DF8020069460848FFF7C0FD59
:100840001020ADF800008DF8030003208DF80200A1
:1008500069460248FFF7B4FD08BD000000080140EA
:1008600021B1028842F04002028004E002884FF683
:10087000BF731A40028070470246002013890B4064
:100880000BB1012000E00020704730B500240023A8
:100890000C110125A540ABB21AB185881D43858096
:1008A00002E085889D43858030BD01468889704778
:1008B0008181704710B50022028802F441520B88F2
:1008C0004C8823438C882343CC8823430C892343BF
:1008D0004C8923438C892343CC8923431A430280C8
:1008E000838B4FF2FF74234083830B8A038210BDF6
:1008F0002DE9F04105460F461446002608E028463B
:10090000FFF774FFFFF75AFF04498855601EC4B211
:10091000002CF4DA0020BDE8F08100002000002067
:1009200070B506460D4614463046FFF75FFF04E0FB
:100930002878FFF75BFF601EC4B2002CF8D10020BE
:1009400070BD704710B500F001F810BD0CB5002067
:10095000019000903348006840F4803031490860CD
:1009600000BF3048006800F4003000900198401C3F
:100970000190009818B90198B0F5A06FF1D12948FD
:10098000006800F4003010B10120009001E0002068
:1009900000900098012843D12348006840F01000DF
:1009A000214908600846006820F0030008600846F6
:1009B000006840F0020008601A4840681949486021
:1009C0000846406848600846406840F480604860D7
:1009D0000846406820F47C1048600846406840F4AF
:1009E000E81048600846006840F08070086000BF6A
:1009F0000C48006800F000700028F9D009484068F1
:100A000020F00300074948600846406840F00200B3
:100A1000486000BF0348406800F00C000828F9D186
:100A20000CBD000000100240002002407047000092
:100A300010B51148006840F001000F4908600846F1
:100A400040680E4908400C494860084600680C4957
:100A50000840094908600846006820F480200860C2
:100A60000846406820F4FE0048604FF41F0088608C
:100A7000FFF768FF10BD0000001002400000FFF803
:100A8000FFFFF6FE10B540F22551094800F06EF860
:100A900068B1074800F026F9C1B204F11400054A14
:100AA0001278815403480078401C0249087010BD38
:100AB000003801400400002021B1828942F4005234
:100AC000828104E082894DF6FF731A40828170476B
:100AD00010B504462048844209D101218803FFF75C
:100AE0006DFD00214FF48040FFF768FD32E01B48A8
:100AF000844209D101214804FFF740FD00214FF451
:100B00000030FFF73BFD25E01548844209D1012163
:100B10008804FFF733FD00214FF48020FFF72EFDFE
:100B200018E01048844209D10121C804FFF726FDCE
:100B300000214FF40020FFF721FD0BE00A4884421A
:100B400008D101210805FFF719FD00214FF480109D
:100B5000FFF714FD10BD00000038014000440040C4
:100B600000480040004C00400050004070B5024674
:100B7000002400230025002040F66A16B14200D16F
:100B800000BFC1F3421501F01F03012606FA03F36B
:100B9000012D02D19689334006E0022D02D1168A3A
:100BA000334001E0968A33400C12012606FA04F421
:100BB0001688344013B10CB1012000E0002070BD54
:100BC000F0B50346002400260025002040F66A17F1
:100BD000B94200D100BF1846C1F3421401F01F060C
:100BE000012707FA06F5012C01D10C3004E0022C94
:100BF00001D1103000E014301AB107682F430760AC
:100C000002E00768AF430760F0BD00002DE9F04740
:100C100086B005460E460024A24600BFA146002726
:100C2000B08900B100BF2F462C8A4CF6FF700440FB
:100C3000F08804432C82AC894EF6F3100440B0884F
:100C400031890843718908430443AC81AC8A4FF66B
:100C5000FF400440B0890443AC8201A8FFF7BEFC0A
:100C60001F48874202D1DDF810A001E0DDF80CA09A
:100C7000A88900F4004040B10AEBCA0000EB0A105A
:100C800031684900B0FBF1F807E00AEBCA0000EB5D
:100C90000A1031688900B0FBF1F86420B8FBF0F06D
:100CA00004012009642101FB1089A88900F4004097
:100CB00040B1322000EBC900B0FBF1F000F00700BA
:100CC000044308E0322000EB09106421B0FBF1F08E
:100CD00000F00F0004432C8106B0BDE8F08700004F
:100CE0000038014001468888C0F3080070470000C2
:100CF00000B585B001218803FFF750FC1748FFF7C6
:100D0000E7FE4FF4E13001900020ADF810000C2018
:100D1000ADF80E000020ADF80C00ADF80A00ADF8FB
:100D2000080001A90D48FFF771FF01210B48FFF7EB
:100D3000C3FE012240F225510848FFF741FF25205C
:100D40008DF8000001208DF803008DF801008DF86A
:100D500002006846FFF7CEFB05B000BD0038014039
:100D600000BFFEE700BF704710B501210F48FFF735
:100D7000B2FB4FF47A7000F03BF802210B48FFF70A
:100D8000AAFB4FF47A7000F033F801210748FFF70F
:100D9000A4FB4FF47A7000F02BF802210348FFF710
:100DA0009CFB4FF47A7000F023F810BD000C01405A
:100DB0004FF0E021096921F004014FF0E0221161B8
:100DC000C21700EB5272C2F3C702074B1A701946E2
:100DD000097801EB4102C2EBC1114FF6FF7202EA42
:100DE000C101024A1180704700000020020000206B
:100DF00001460D4A12884A434FF0E0235A6100220F
:100E00009A6101221A6100BF4FF0E022106900F0E0
:100E100001021AB100F48032002AF5D000224FF00E
:100E2000E0231A619A6170470200002000F019F86F
:100E3000FFF7A4FAFFF75CFFFFF7A8FCFFF71DFA26
:100E40006420FFF7D5FFFFF72DFA6420FFF7D0FFEE
:100E5000C82203210220FFF73FFA01E0FFF784FFD9
:100E6000FCE710B54FF48030FFF722FCFFF73CFBA6
:100E70004820FFF79DFF10BD980E000800000020DD
:100E80002400000028010008BC0E000824000020F7
:100E9000640600004401000800000000000000009B
:100EA000000000000000000001020304010203042E
:0C0EB00006070809020406080000000004
:04000005080000ED02
:00000001FF
