:020000040800F2
:10000000E804002065010008813A0008593A000818
:100010007D3A0008610F0008414C00080000000014
:10002000000000000000000000000000F13D00089A
:100030009D33000800000000093B00087D01000816
:10004000514C00087F0100087F0100087F01000873
:100050007F0100087F0100087F0100083D3400088F
:100060007F0100087F0100087F0100087F01000870
:100070007F0100087F0100087F0100087F01000860
:100080007F0100087F0100087F0100087F01000850
:10009000650F00087F0100087F0100089134000807
:1000A0007F010008054200087F0100087F01000869
:1000B0005D420008CD420008F94200087F010008B7
:1000C0007F0100087F0100087F0100087F01000810
:1000D0007F0100083D4800087F01000859480008DA
:1000E000E53300087F0100087F01000800000000E0
:1000F0000000000000000000000000000000000000
:1001000000000000000000007F0100087F010008DF
:100110007F0100087F0100087F0100087F010008BF
:100120007F0100087F0100087F0100087F010008AF
:100130007F0100087F0100087F0100087F0100089F
:100140007F0100087F0100087F0100087F0100088F
:10015000DFF80CD000F0DCFB0048004795560008A3
:10016000E80400200648804706480047FEE7FEE70F
:10017000FEE7FEE7FEE7FEE7FEE7FEE7FEE7FEE757
:100180006141000851010008F0B480EA0102D40F77
:100190004200B2EB410F02D20246084611464A0025
:1001A00042D0C30DDDB2C1F3C752AD1A202D35DAEE
:1001B000C1F3160141F4000204B15242C5F1200618
:1001C00002FA06F12A411044B3EBD05F23D0C4B148
:1001D000012DA0EBC35009DCF0BC4FF0004202EA55
:1001E000C352DBB200F5000000F0EFBA400000F1AE
:1001F000807000EBC350A0F1807040EAD1704900DC
:1002000009E0490841EAC071A0EBC35000F50000C5
:10021000400800EBC350F0BC00F0CEBA61420122AE
:1002200002EB4101001BF6E7F0BC704781F0004192
:10023000AAE780F00040A7E730B480EA010202F0AC
:10024000004530F0004221F0004013D090B1C30DC2
:10025000D40DC2F31601C0F31600E41A41F40001F4
:1002600040F400027D34914201D3641C00E0490057
:10027000002C02DA30BC002070474FF4000000234D
:10028000914201D3891A034340084FEA4101F7D153
:1002900051B1914202D14FF0004105E002D24FF03E
:1002A000010101E06FF0010103EBC450284430BCB0
:1002B00000F082BA2DE9FE4F804681EA0300C00FAC
:1002C0000C46009021F0004123F00045B8EB0200FD
:1002D000A94105D24046214690461C460B4602469F
:1002E00023F00040104347D0270DC7F30A00C3F3A3
:1002F0000A510290401A019040286BDAC3F31300B0
:1003000040F4801B0098924620B10023D2EB030AF0
:1003100063EB0B0B01985946C0F14002504600F0C8
:100320001AFA06460D4650465946019A00F032FA2E
:1003300010EB08006141002487EA115284EAE77358
:100340001A4340D0009A62B3019A012A4FEA075239
:1003500015DC001B61EB02014FF0004202EA07527C
:10036000CDE90042001C41F5801132462B4600F0D9
:1003700069FA03B0BDE8F08F40462146F9E7001B5B
:1003800061EB0201001C41F5801300185B4120184D
:10039000A2F5001747EB030140EAD570B6196D418D
:1003A00011E06D084FEA360645EAC0754FEA07527C
:1003B000001B61EB0201001C41F5801149084FEA66
:1003C00030000019514132462B4603B0BDE8F04FD2
:1003D00000F029BA0098012240000023D0EB02026D
:1003E00063EBE073009821464FEAE074B8EB00003D
:1003F00061EB0401E9E783F000435BE781F0004132
:1004000058E72DE9FE4F81EA030404F0004421F08F
:10041000004100944FF0000B23F0004350EA010428
:100420005ED052EA03045BD0C3F30A54C1F30A5509
:100430002C44A4F2F3340194A0FB0254C1F3130141
:1004400041F48011C3F3130343F4801301FB02440E
:1004500000FB034E840A970A44EA815447EA835713
:10046000A4FB076802958D0A05FB07854FEA932CCC
:1004700004FB0C542705029D4FEA065847EA16373D
:10048000B5EB08056EEB070C870E920E47EA811755
:1004900042EA8312A7FB0201B6EB0B0164EB0004F6
:1004A0002B0D43EA0C335E1844EB1C50DA465146E0
:1004B000E7FB0201C5F313044FEA0B3343EA14537D
:1004C0004FEA0432019C43EA0603A4F10C040294AF
:1004D000009CCDE900B400F0B5F903B0BDE8F08FA1
:1004E00000200146F9E72DE9F04D81EA030404F00C
:1004F000004B21F0004514464FF0000A23F0004164
:1005000050EA050220D054EA01021DD0C5F30A5773
:100510000246C5F31303C1F31300C1F30A5640F4B6
:10052000801543F48013A7EB0608101BD64608F28B
:10053000FD3873EB050002D308F1010801E09218C1
:100540005B41B8F1000F03DA00200146BDE8F08DF1
:1005500000204FF48011064684460EE0171B73EB13
:10056000050705D3121B63EB050306434CEA010C98
:1005700049084FEA300092185B4150EA0107EDD17B
:1005800052EA030012D082EA040083EA050108431C
:1005900005D0101BAB4106D20122002306E0002249
:1005A0004FF0004302E06FF0010253101AEB060017
:1005B0004CEB085110EB0A0041EB0B01BDE8F04D8C
:1005C00000F031B9C10F80EAE0700844CA079623F1
:1005D000002100F0FAB896230022114600F0F5B889
:1005E00000F0004230F000400AD0C10D01F560710A
:1005F000C0F3160042EA0151C20840071143704798
:10060000002001467047000030B5041E71F100045F
:1006100004DB4FF00044404264EB0101141E73F10F
:10062000000405DB1C464FF00043524263EB040319
:100630008B4208BF824230BD30B5041E71F1000408
:1006400004DB4FF00044404264EB0101141E73F1DF
:10065000000405DB1C464FF00043524263EB0403E9
:10066000994208BF904230BD01F0004330B421F000
:10067000004150EA010206D00A0DA2F56072C1F3F2
:100680001301002A02DC30BC00207047440F44EA0A
:10069000C104C100E01830BC00EBC25000F08CB8BF
:1006A000002801DBC0F10040002901DBC1F100415D
:1006B00081427047002801DBC0F10040002901DBC6
:1006C000C1F100418842704730B50B460146002019
:1006D0002022012409E021FA02F59D4205D303FA04
:1006E00002F5491B04FA02F52844151EA2F1010285
:1006F000F1DC30BD2DE9F05F0546002092469B46B7
:1007000088460646814640241BE028464146474627
:10071000224600F02FF853465A46C01A914110D392
:1007200011461846224600F016F82D1A67EB01080C
:100730004F4622460120002100F00DF817EB00097A
:100740004E41201EA4F10104DFDC484631462A4612
:100750004346BDE8F09F202A04DB203A00FA02F16C
:10076000002070479140C2F1200320FA03F319439F
:1007700090407047202A04DB203A21FA02F0002141
:10078000704721FA02F3D040C2F1200291400843A1
:1007900019467047202A06DBCB17203A41FA02F0AF
:1007A00043EAE07306E041FA02F3D040C2F12002CE
:1007B00091400843194670470029A8BF7047401C64
:1007C000490008BF20F00100704710B4B0FA80FC67
:1007D00000FA0CF050EA010404BF10BC704749B1A4
:1007E000CCF1200421FA04F411FA0CF118BF012114
:1007F00021430843A3EB0C01CB1D4FEA00614FEAF4
:10080000102042BF002010BC704700EBC3501044C2
:100810000029A4BF10BC7047401C490008BF20F04D
:10082000010010BC704710B5141E73F1000408DA03
:10083000401C41F1000192185B411A4301D120F0A4
:10084000010010BD2DE9F04D92469B4611B1B1FA61
:1008500081F202E0B0FA80F220329046FFF77BFF8F
:1008600004460F4640EA0A0041EA0B0153465A4645
:10087000084313D0114653EA010019D0C8F14002D1
:100880005046FFF777FF05460E465046594642460A
:10089000FFF761FF084305D0012004E020463946F8
:1008A000BDE8F08D0020054346EAE0762C4337434F
:1008B0000A986305E40AA0EB08000022FD0A44EA56
:1008C00047540A3002D500200146E9E70105101916
:1008D0006941DDE9084500196941BDE8F04DA2E72D
:1008E000C1F30A52C1F3130140F2FF3341F4801106
:1008F0009A4202DA00200146704740F233439A429E
:10090000A2F2334202DC5242FFF734BFFFF723BFAB
:10091000064C074D06E0E06840F0010394E807004C
:1009200098471034AC42F6D3FFF716FCB8560008CF
:10093000D856000821B1826842F00102826003E0CB
:10094000826822F0010282607047000000B585B025
:100950000121480203F028F9002003F0F9F82148AA
:1009600000F044F800F070F8002000908DF80400CA
:1009700001208DF805004FF46020029000200390C4
:1009800002208DF810006946164800F099F80523FA
:1009900001221146134800F0BBF80523022211463C
:1009A000104800F0B5F801210E48FFF7C3FF0D48CD
:1009B00000F00AF900BF0B4800F077F80028FAD1E0
:1009C000084800F08CF900BF064800F057F80028EE
:1009D000FAD10121034800F077F900200249087399
:1009E00005B000BD00240140D600002010B504462B
:1009F0001248844208D10121401503F0E5F8002196
:100A0000601503F0E1F817E00D48844208D1012198
:100A1000001503F0D9F80021201503F0D5F80BE0FC
:100A20000848844208D10121C80303F0CDF8002111
:100A30004FF4004003F0C8F810BD0000002401404E
:100A400000280140003C014008B50A48FFF7CEFFEE
:100A50000121042003F0A8F80620ADF800000320CF
:100A60008DF8020000208DF803006946024802F06C
:100A7000F7FD08BD002401400008014001460020A8
:100A80008A6802F004020AB1012000E000207047E9
:100A90000146C86C80B270470246002013680B40C4
:100AA0000BB1012000E000207047014600208A6859
:100AB00002F008020AB1012000E0002070470000A7
:100AC00030B502460020002350680F4C20400D79BD
:100AD0000C6844EA05242043506090680B4C204089
:100AE000D1E902542C434D7944EA450420439060F7
:100AF000D06A20F470000C7C641EE4B2234340EA08
:100B00000350D06230BD0000FFFEF0FFFDF7F1FFA3
:100B1000F0B504460D4600200021092D11DDE068E6
:100B2000A5F10A0606EB4607072606FA07F18843F1
:100B3000A5F10A0606EB460603FA06F10843E06053
:100B40000CE0206905EB4507072606FA07F1884304
:100B500005EB450603FA06F108432061072A0FDA80
:100B6000606B561E06EB86071F2606FA07F18843C0
:100B7000561E06EB860605FA06F10843606322E07E
:100B80000D2A0FDA206BD61F06EB86071F2606FA02
:100B900007F18843D61F06EB860605FA06F10843DF
:100BA000206310E0E06AA2F10D0606EB86071F261F
:100BB00006FA07F18843A2F10D0606EB860605FA50
:100BC00006F10843E062F0BD816841F008018160F0
:100BD000704700002DE9F0410025062002F022FEBA
:100BE00005462846FFF7FCFC06462E4A2E4BFFF72B
:100BF0000BFD53D22846FFF7F3FC06462B4A2C4B3D
:100C0000FFF71AFD4AD20025062002F0C3FE054672
:100C10002846FFF7E5FC06464FF06632254BFFF706
:100C2000F3FC39D22846FFF7DBFC06461F4A224B6D
:100C3000FFF702FD30D2012002F0D8F9062002F0C1
:100C40004BFE0025002609E0062002F045FE07467F
:100C50002946FFF799FA0546701CC6B2052EF3DB4C
:100C600016492846FFF7E8FA05462846FFF7B8FC7C
:100C700006460022124BFFF7DFFC09D22846FFF799
:100C8000AFFC0646094A0F4BFFF7BEFC00D2012419
:100C9000002002F0ABF902E0002400E0002420462E
:100CA000BDE8F081CDCCCCCCCCCCF43F9A999999CD
:100CB0009999F13F66661440999913400000A0404D
:100CC0000000F83F9999F93F21B1826842F4A002EF
:100CD000826003E0826822F4A0028260704781682B
:100CE00041F004018160704730B10749096841F45F
:100CF0000001054A116005E00349096821F400017B
:100D0000014A1160704700000824014070B5044694
:100D10000D46012C28D1002623E04FF48041844861
:100D200002F07BFD4FF40041814802F076FD202166
:100D30007F4802F072FD284602F031FB4FF48041FB
:100D40007B4802F06CFD4FF40041794802F067FDEA
:100D50002021774802F063FD284602F020FB701C3A
:100D6000C6B2032ED9DBE1E0022C0ED1610370483C
:100D700002F053FD284602F012FB61036C4802F0BA
:100D80004EFD284602F00BFBD0E0032C10D14FF4AF
:100D90000041674802F041FD284602F000FB4FF495
:100DA0000041634802F03BFD284602F0F8FABDE03E
:100DB000042C28D1002623E04FF480415C4802F047
:100DC0002CFD4FF400415A4802F027FD20215848DD
:100DD00002F023FD284602F0E2FA4FF48041544825
:100DE00002F01DFD4FF40041514802F018FD202192
:100DF0004F4802F014FD284602F0D1FA701CC6B22A
:100E0000032ED9DB92E0052C0ED12021484802F0B8
:100E100004FD284602F0C3FA2021454802F0FFFCF9
:100E2000284602F0BCFA81E0062C10D14FF40041B4
:100E30003F4802F0F2FC284602F0B1FA4FF40041BC
:100E40003B4802F0ECFC284602F0A9FA6EE0072CC1
:100E50005CD1002625E04FF48041354802F0DDFCEE
:100E60004FF40041324802F0D8FC2021304802F013
:100E7000D4FC4FF4967002F092FA4FF480412C4863
:100E800002F0CDFC4FF40041294802F0C8FC2021BB
:100E9000274802F0C4FC4FF4967002F080FA701CF0
:100EA000C6B2032ED7DB002629E04FF47A7002F099
:100EB00076FA4FF480411E4802F0AFFC4FF4004137
:100EC0001B4802F0AAFC2021194802F0A6FC4FF4AE
:100ED0007A7002F064FA4FF48041154802F09FFCEA
:100EE0004FF40041124802F09AFC2021104802F011
:100EF00096FC4FF47A7002F052FA701CC6B2032EC0
:100F0000D3DB4FF47A7002F04AFA0FE0082C0DD1CF
:100F1000E102074802F081FC284602F040FAE102B3
:100F2000034802F07CFC284602F039FA70BD00004C
:100F3000000C014008B50121082002F035FE4CF2FA
:100F40002000ADF8000010208DF8030003208DF87C
:100F500002006946014802F083FB08BD000C014015
:100F600000BFFEE700B585B06A460021034801F0E6
:100F7000A5FB684601F01AF905B000BD0064004009
:100F800070B50025F8484088B0F5005F77DDF64879
:100F9000408842F6FF71884271DA0024F2484088A6
:100FA0006FF40051084412280AD2DFE800F02E3016
:100FB000323436696B9DCFF1F0EFEEEDECEBEAE900
:100FC00000254FF4A660E949086008200873062050
:100FD0000871E5484088001208B1012100E00021B5
:100FE000E2484171E0488178E0488171FF21C17198
:100FF0000021017241728172C17201F03FFCDA4836
:101000000021016041608160EEE00125ECE00125F6
:10101000EAE00125E8E00125E6E0002001F0C6FF56
:10102000D14AD179907902F06BF94FF4A660CF499B
:1010300008600820087301200871CB48408800121E
:1010400008B1012100E00021C8484171C6488178FB
:10105000C6488171FF21C171C3488179C3480172BB
:10106000C148C179C148417200218172C17201F049
:1010700005FCBD480021016041608160B4E0B5E03D
:101080000125B1E0B849887902F090F80446012CB6
:1010900002D1B649087102E00420B44908714FF446
:1010A000A660B249086008200873AF484088001263
:1010B00008B1012100E00021AC484171AA488178C3
:1010C000AA488171FF21C171A7488179A74801729F
:1010D000002141728172C17201F0D0FBA24800214F
:1010E0000160416081607FE09F49887901F0BEFF27
:1010F0000446012C02D19D49087102E004209B495D
:1011000008714FF4A6609949086008200873964852
:101110004088001208B1012100E00021934841718C
:101120009148817891488171FF21C1718E48817900
:101130008E480172002141728172C17201F09EFBE2
:10114000894800210160416081604DE0864AD17983
:10115000907901F0E7FD012C03D10120834908714A
:1011600002E00420814908714FF4A6607F490860BD
:10117000082008737C484088001250B1012109E022
:1011800030E02DE02AE027E024E021E01EE01BE033
:1011900018E0002175484171734881787348817166
:1011A000FF21C1717048817970480172002141723C
:1011B0008172C17201F062FB6B48002101604160E5
:1011C000816011E001250FE001250DE001250BE014
:1011D000012509E0012507E0012505E0012503E0DF
:1011E000012501E0012500BF00BFD8E25E4840882C
:1011F000B0F5405F5ADD5C48408843F6FF71884295
:1012000054DA0125584840886FF44051084410B31F
:10121000012821D0022820D003281FD000254FF418
:10122000A660524908600820087306200871402112
:101230004E48417101218171FF21C171002101726C
:1012400041728172C17201F019FB474800210160AF
:101250004160816029E000BF00BF00BF4FF4A6607D
:101260004249086008200873072008713E484088FA
:10127000001208B1012100E000213C4841713A48C8
:10128000408808B1012100E0002138488171FF2128
:10129000C171017241728172C17201F0EFFA32487C
:1012A000002101604160816000BF78E22E484088E3
:1012B000B0F5804F7DDB2C48408844F2FF618842C6
:1012C00077DAFF24284840886FF4804108440628D4
:1012D00004D2DFE800F0204D779FC7F000254FF4DF
:1012E000A660224908600820087306200871402182
:1012F0001E48417101218171FF21C17100210172DC
:1013000041728172C17201F0B9FA1748002101607F
:1013100041608160F7E00125012002F02BFD0446C9
:10132000FF2C03D104201149087102E001200F496C
:1013300008714FF4A6600D49086008200873402129
:101340000A48417101218171FF21C171047200219C
:1013500041728172C17201F091FA0348002101606B
:1013600041608160CFE0000050000020400000207C
:101370000125022002F0FEFC0446FF2C03D10420CC
:10138000FE49087102E00120FC4908714FF4A66093
:10139000FA490860082008734021F8484171022189
:1013A0008171FF21C1710472002141728172C17289
:1013B00000E0AAE001F062FAF1480021016041601A
:1013C0008160A0E00125032002F0D4FC0446FF2C3C
:1013D00003D10420E949087102E00120E7490871BE
:1013E0004FF4A660E5490860082008734021E348EF
:1013F000417103218171FF21C17104720021417289
:101400008172C17201F03AFADD4800210160416049
:10141000816078E00125042002F0ACFC0446FF2C3A
:1014200003D10420D549087102E00120D349087195
:101430004FF4A660D1490860082008734021CF48C6
:10144000417104218171FF21C17104720021417237
:101450008172C17201F012FAC94800210160416035
:10146000816050E00125052002F084FC0446FF2C39
:1014700003D10420C149087102E00120BF4908716D
:101480004FF4A660BD490860082008734021BB489E
:10149000417105218171FF21C171047200214172E6
:1014A0008172C17201F0EAF9B54800210160416022
:1014B000816028E0FFE70125062002F05BFC04467E
:1014C000FF2C03D10420AD49087102E00120AB4993
:1014D00008714FF4A660A9490860082008734021EC
:1014E000A648417106218171FF21C171047200215A
:1014F00041728172C17201F0C1F9A14800210160FD
:101500004160816000BF00BF49E19D484088B0F55F
:101510008E4F7DDB9A48408844F6FF71884277DA27
:10152000974840886FF48E410844062804D2DFE8CB
:1015300000F0234F7DA9D5FD00254FF4A6608F490B
:10154000086008200873062008718D4881788B4850
:1015500041718B48817889488171FF21C1710021D7
:10156000017241728172C17201F088F984480021D0
:1015700001604160816010E101258148817901208D
:1015800003F076FB05461DB904207C49087102E092
:1015900001207A4908714FF4A66078490860082054
:1015A000087347217548417101218171FF21C17183
:1015B0007348817971480172002141728172C17250
:1015C00001F05CF96E480021016041608160E4E057
:1015D00001256B488179022003F04AFB05461DB9BD
:1015E00004206649087102E00120644908714FF443
:1015F000A660624908600820087347215F4841716E
:1016000002218171FF21C1715D4881795B4800E051
:10161000C4E00172002141728172C17201F02EF9A1
:1016200057480021016041608160B6E001255448BF
:101630008179032003F01CFB05461DB904204F49A6
:10164000087102E001204D4908714FF4A6604B4932
:1016500008600820087347214848417103218171BF
:10166000FF21C171464881794448017200214172CD
:101670008172C17201F002F94148002101604160AC
:1016800081608AE001253E488179042003F0F0FA68
:1016900005461DB904203949087102E00120374987
:1016A00008714FF4A6603549086008200873472187
:1016B0003248417104218171FF21C1713048817923
:1016C0002E480172002141728172C17201F0D6F878
:1016D0002B4800210160416081605EE001252848BF
:1016E0008179052003F0C4FA05461DB90420234979
:1016F000087102E00120214908714FF4A6601F49DA
:1017000008600820087347211C4841710521817138
:10171000FF21C1711A488179184801720021417274
:101720008172C17201F0AAF8154800E004E00021BE
:1017300001604160816030E0012511488179062017
:1017400003F096FA05461DB904200C49087102E021
:1017500001200A4908714FF4A66008490860082072
:10176000087347210548417106218171FF21C1712C
:101770000348817901480172002103E04000002004
:101780005000002041728172C17201F077F8064862
:10179000002101604160816000BF00E0002500F091
:1017A0005BFF284670BD00005000002010B50024EB
:1017B000264840886FF44051084410B3012821D0D6
:1017C000022820D003281FD000BF4FF4A660204974
:1017D0000860082008730620087140211C484171E8
:1017E00001218171FF21C171002101724172817259
:1017F000C17201F043F81548002101604160816029
:1018000020E01FE01EE01DE04FF4A66010490860D4
:1018100008200873072008710C484088001248719E
:101820000A4881780A488171FF21C17101724172B1
:101830008172C17201F022F8044800210160416008
:10184000816000BF00BF00F007FF10BD5000002006
:101850004000002070B50025F9484088B0F5804F61
:101860007EDDF748408844F2FF61884278DAFF2441
:10187000F34840886FF480410844062804D2DFE82A
:1018800000F0224A749CC4EC00254FF4A660ED4998
:10189000086008200873062008714021E94841715A
:1018A000E7488178E7488171FF21C1710472002106
:1018B00041728172C17200F0E1FFE14800210160D4
:1018C00041608160F1E00125012002F053FA0446F5
:1018D000FF2C03D10420DB49087102E00120D94923
:1018E00008714FF4A660D7490860082008734021AA
:1018F000D448417101218171FF21C171047200211D
:1019000041728172C17200F0B9FFCD4800210160BF
:1019100041608160C9E00125022002F02BFA0446F3
:10192000FF2C03D10420C749087102E00120C549FA
:1019300008714FF4A660C34908600820087340216D
:10194000C048417102218171FF21C17104720021DF
:1019500041728172C17200F091FFB948002100E02C
:10196000A5E00160416081609FE00125032002F055
:1019700001FA0446FF2C03D10420B249087102E0A9
:101980000120B04908714FF4A660AE4908600820F4
:1019900008734021AB48417103218171FF21C1715E
:1019A0000472002141728172C17200F067FFA44885
:1019B000002101604160816077E00125042002F090
:1019C000D9F90446FF2C03D104209E49087102E096
:1019D00001209C4908714FF4A6609A4908600820CC
:1019E000087340219748417104218171FF21C17121
:1019F0000472002141728172C17200F03FFF904871
:101A000000210160416081604FE00125052002F066
:101A1000B1F90446FF2C03D104208A49087102E081
:101A20000120884908714FF4A660864908600820A3
:101A3000087340218348417105218171FF21C171E3
:101A40000472002141728172C17200F017FF7C485C
:101A5000002101604160816027E00125062002F03D
:101A600089F90446FF2C03D104207649087102E06D
:101A70000120744908714FF4A6607249086008207B
:101A8000087340216F48417106218171FF21C171A6
:101A90000472002141728172C17200F0EFFE684849
:101AA000002101604160816000BF00BF48E16448DF
:101AB0004088B0F58E4F7DDD6148408844F6FF7167
:101AC000884277DA5E4840886FF48E4108440628E1
:101AD00004D2DFE800F0234F7DA9D9FD00254FF4A3
:101AE000A660584908600820087355484088000AD5
:101AF0000871534881785348417100218171FF2159
:101B0000C1710021017241728172C17200F0B6FE92
:101B10004B4800210160416081600FE10125484888
:101B20008179012003F0A4F805461DB90420454938
:101B3000087102E00120434908714FF4A660414951
:101B400008600820087347213E48417101218171D6
:101B5000FF21C1713A4881793A48017200214172EE
:101B60008172C17200F08AFE354800210160416037
:101B70008160E3E0012532488179022003F078F8A2
:101B800005461DB904202F49087102E001202D49A6
:101B900008714FF4A6602B4908600820087347219C
:101BA0002848417102218171FF21C1712448817946
:101BB000244800E0C3E00172002141728172C172C9
:101BC00000F05CFE1E480021016041608160B5E0CC
:101BD00001251B488179032003F04AF805461DB909
:101BE00004201849087102E00120164908714FF4D9
:101BF000A660144908600820087347211148417104
:101C000003218171FF21C1710D4881790D48017255
:101C1000002141728172C17200F030FE084800213B
:101C200001604160816089E00125054881790420D7
:101C300003F01EF805463DB904200249087106E08C
:101C4000500000204000002001203F4908714FF45F
:101C5000A6603D4908600820087347213A48417151
:101C600004218171FF21C1713848817936480172A0
:101C7000002141728172C17200F000FE33480021E0
:101C800001604160816059E001253048817905207B
:101C900002F0EEFF05461DB904202B49087102E051
:101CA0000120294908714FF4A660274908600820DF
:101CB000087347212448417105218171FF21C171B9
:101CC000224881792048017200214172817200E02E
:101CD00008E0C17200F0D2FD1C48002101604160A3
:101CE00081602BE0012519488179062002F0C0FFB0
:101CF00005461DB904201449087102E0012012496B
:101D000008714FF4A6601049086008200873472145
:101D10000D48417106218171FF21C1710B48817904
:101D200009480172002141728172C17200F0A6FD62
:101D30000648002101604160816000BF00E000258D
:101D400000F08AFC70BD0000400000205000002020
:101D500000B50448002101604160816000F07CFC16
:101D600000BD00005000002070B500240025AC48E4
:101D700040886FF40051084412280AD2DFE800F0CE
:101D8000292B4C797BACAEDBEEEDECEBEAE9E8E736
:101D9000E6E500244FF4A660A24908600820087315
:101DA000062008719E484088001248719C4881783E
:101DB0009C488171FF21C1710021017241728172C1
:101DC000C17200F05BFD96480021016041608160B6
:101DD00021E101241FE101F0B5FA4FF4A660914919
:101DE000086008200873012008718D48408800129F
:101DF00048718B4881788B488171FF21C171002126
:101E0000017241728172C17200F038FD8448002174
:101E1000016041608160FEE001F0AEF90446012CF2
:101E200002D18049087102E004207E4908714FF414
:101E3000A6607C4908600820087379484088001231
:101E400008B1012100E00021764841717448817891
:101E500074488171FF21C171002101724172817248
:101E6000C17200F00BFD6E4800210160416081608D
:101E7000D1E00124CFE06A4AD179907901F040FAAB
:101E80000446012C02D16749087102E0042065492B
:101E900008714FF4A6606349086008200873604821
:101EA0004088001248715E4881785E488171FF2148
:101EB000C1715B4881795B4801725948C1795948C1
:101EC000417200218172C17200F0D8FC5448002197
:101ED0000160416081609EE001249CE05049887966
:101EE00001F064F90546012D02D14E49087102E066
:101EF00004204C4908714FF4A6604A490860082044
:101F00000873474840880012487145488178454821
:101F10008171FF21C17142488179424801720021DB
:101F200041728172C17200F0A9FC3D48002101603C
:101F3000416081606FE03A49887901F097F8054681
:101F4000012D0CD1374908710CE062E05FE05CE0E4
:101F500059E056E053E050E04DE04AE022E0042032
:101F6000304908714FF4A6602E49086008200873B4
:101F70002B4840880012487129488178294881718E
:101F8000FF21C171264881792648017200214172E2
:101F90008172C17200F072FC214800210160416031
:101FA000816038E01E4AD179907900F0BBFE4FF491
:101FB000A6601C49086008200873012008711848B1
:101FC0004088001248711648817816488171FF21B7
:101FD000C1711348817913480172002141728172E5
:101FE000C17200F04BFC0E4800210160416081602D
:101FF00011E001240FE001240DE001240BE0012495
:1020000009E0012407E0012405E0012403E00124A4
:1020100001E0012400BF00BF00F01EFB70BD000006
:1020200050000020400000202DE9F04389B0044614
:102030000D4616461F46DDE910895948844259D19C
:1020400000F0E4F90121480601F08EFD00208DF832
:102050001E008DF81F008DF8200001208DF8210052
:1020600000208DF822008DF823008DF81A508DF88D
:102070001B608DF81C708DF81D80ADF8189006A9B6
:10208000204600F020FA00208DF812008DF8130091
:1020900001208DF81400434800884005000CADF87D
:1020A000080040480078002141EA405080B2ADF875
:1020B0000A000020ADF80C00ADF80E00ADF81000DD
:1020C00001208DF8150002A800F01CF90122022160
:1020D000204600F0EFF914208DF8040000208DF860
:1020E00005008DF8060001208DF8070001A801F019
:1020F000C9FC00BF2C4884424ED100F087F9012171
:10210000480601F031FD00208DF81E008DF81F00FB
:102110008DF820008DF821008DF8220001208DF827
:1021200023008DF81A508DF81B608DF81C708DF807
:102130001D80ADF8189006A9194800F0C4F90020D8
:102140008DF812008DF8130001208DF81400002086
:10215000ADF80800ADF80A00ADF80C00ADF80E00BF
:10216000ADF8100001208DF8150002A800F0CAF8A3
:10217000012202210A4800F09DF914208DF8040084
:1021800002208DF8050001208DF806008DF807006B
:1021900001A801F077FC00BF09B0BDE8F0830000A2
:1021A00000640040280000200068004010B504468C
:1021B00043480078092810D10820424908730F20AD
:1021C000087100213F4841718171C17101724172F2
:1021D0008172C17200F052FB71E039480078E0B9B9
:1021E0000120394988722088C0F30A000880207BCA
:1021F000E17A40EA012034494880607B0871A07B85
:102200004871E07B8871207CC871607C0872A07C7A
:10221000487201202A49087051E0012028490978B4
:1022200001EB4101284A02EB810188722088C0F34A
:102230000A002349097801EB410122F82100207BA3
:10224000E17A40EA01201E49097801EB410102EBE5
:1022500081014880607B1A49097801EB410102EB5A
:1022600081010871A07B1649097801EB410102EB5D
:1022700081014871E07B1249097801EB410102EBD1
:1022800081018871207C0E49097801EB410102EB44
:102290008101C871607C0A49097801EB410102EBB8
:1022A00081010872A07C0649097801EB410102EB2B
:1022B0008101487202480078401C0149087010BD35
:1022C00025000020400000205000002010B50446EA
:1022D0000B48844209D10121480601F055FC002138
:1022E0004FF0007001F050FC08E00121880601F079
:1022F0004BFC00214FF0806001F046FC10BD000057
:102300000064004010B50021837A012202FA03F133
:102310003D4A126842F001023B4B1A603A4A1C32B5
:1023200012688A43384B1C331A60027BCAB9364A9A
:102330000C3212688A43344B0C331A604288C388CB
:1023400042EA0343304A4032847A42F83430028809
:10235000838842EA03432C4A4032847A02EBC40267
:102360005360027B012A19D1274A0C3212680A43B2
:10237000254B0C331A604288038842EA0343224A01
:102380004032847A42F83430C288838842EA034378
:102390001D4A4032847A02EBC4025360C27A3AB9D1
:1023A000194A121D12688A43174B1B1D1A6006E05A
:1023B000154A121D12680A43134B1B1D1A6002892D
:1023C00032B9114A143212688A430F4B14331A601F
:1023D0000289012A06D10C4A143212680A430A4BB8
:1023E00014331A60427B012A06D1074A1C32126854
:1023F0000A43054B1C331A60034A126822F001029B
:10240000014B1A6010BD00000066004038B504465C
:102410002448844220D1FFF759FF0121042001F014
:10242000C3FBE014ADF8000048208DF80300032042
:102430008DF8020069461C4801F012F9A014ADF8AD
:10244000000018208DF8030003208DF80200694673
:10245000154801F005F900BF1448844220D1FFF768
:1024600035FF0121082001F09FFBA014ADF800000A
:1024700048208DF8030003208DF8020069460C48BF
:1024800001F0EEF86014ADF8000018208DF803009C
:1024900003208DF802006946054801F0E1F800BF0D
:1024A00038BD0000006400400008014000680040A2
:1024B000000C01401AB143690B43436102E04369D8
:1024C0008B434361704730B50246002000231468F7
:1024D00024F002041460146844F00104146000E065
:1024E0005B1C546804F001041CB94FF6FF74A3424E
:1024F000F6D1546804F001040CB900206CE08C792A
:10250000012C04D1146844F08004146003E01468C2
:1025100024F080041460CC79012C04D1146844F0B8
:102520004004146003E0146824F0400414600C7A42
:10253000012C04D1146844F02004146003E01468F2
:1025400024F0200414604C7A012C04D1146844F067
:102550001004146003E0146824F0100414608C7AF2
:10256000012C04D1146844F00804146003E01468DA
:1025700024F008041460CC7A012C04D1146844F0CF
:102580000404146003E0146824F0040414608C78DC
:10259000A407CD7844EA05640D7944EA05444D79F1
:1025A00044EA05540D886D1E2C43D461146824F050
:1025B00001041460002300E05B1C546804F0010473
:1025C0001CB14FF6FF74A342F6D1546804F0010425
:1025D0000CB1002000E0012030BD000010B51D4806
:1025E000008800F00F0149B900115138082805D2C0
:1025F000DFE800F0060D1115191D210A00241EE068
:102600000124FFF7A5FB1AE0FFF7D0F800BF012473
:10261000FFF7AAFB13E00124FFF71CF90FE00124E8
:10262000FEF7AEFC0BE00124FEF7AAFC07E0012454
:10263000FEF7A6FC03E00124FEF7A2FC00BF00BFEA
:1026400000F00AF8012C03D164210620FEF75EFB9E
:10265000204610BD50000020002012E000EB400199
:10266000144A02EB8102411C01EB4101114B03EBC7
:1026700081010B6813604B68536089689160411C4D
:10268000C8B20D4909788842E8DB0B49097800296E
:1026900004DD09490978491E074A1170411C01EB04
:1026A0004101044A02EB810100220A604A608A600B
:1026B00070470000500000202500002010B500F5F4
:1026C000D87303EB01131B6803F004031372137A2E
:1026D00053B900F5D87303EB01131B6840F2FF7484
:1026E00004EA5353136009E000F5D87303EB0113B8
:1026F0001B686FF0604404EAD303536000F5D8739D
:1027000003EB01131B6803F00203537200F5D87347
:1027100003EB01135B6803F00F03937200F5D873AA
:1027200003EB01135B681B0AD37400F5D87303EB4A
:1027300001139B68D37200F5D87303EB01139B68F8
:102740001C0A147300F5D87303EB01139B681C0C6F
:10275000547300F5D87303EB01139B681B0E93733E
:1027600000F5D87303EB0113DB68D37300F5D8735E
:1027700003EB0113DB681C0A147400F5D87303EB38
:102780000113DB681C0C547400F5D87303EB0113C0
:10279000DB681B0E937421B9C36843F02003C36048
:1027A00003E0036943F02003036110BD1CB504205E
:1027B000072108230022CDE9001001212C48FFF752
:1027C00033FC4FF4A0602B490860082008730A20EE
:1027D0000871AA212748417100218171AA21C17184
:1027E00000210172AA21417200218172AA21C172C5
:1027F00000F044F8642000F0D2FD1F480088B0F5D6
:10280000A06F2AD11C48408840F6AA21884222D1D4
:1028100019480079E8B918484079AA2817D116480C
:10282000807990B91448C079AA280CD11248007A4E
:1028300038B91148407AAA2801D101240EE00024B9
:102840000CE000240AE0002408E0002406E0002454
:1028500004E0002402E0002400E0002406480021F7
:10286000016041608160FFF7F7FE20461CBD00005B
:1028700000640040400000205000002070B586B089
:10288000054600242868019000208DF80C008DF882
:102890000D00287B8DF80E0000BF06E0281D015DAD
:1028A0000DF10F000155601C84B2287BA042F5DCBD
:1028B00001A90C4800F018F8064601E0601C84B23B
:1028C0003146084800F0A4F818B940F6FF70844279
:1028D000F4DB40F6FF70844202DB002006B070BDDE
:1028E0000120FBE70064004010B502460020936819
:1028F00003F08063B3F1806F00D110E0936803F0C0
:102900000063B3F1006F01D1012008E0936803F088
:102910008053B3F1805F01D1022000E0042004283D
:1029200074D002F5C07303EB00131B6803F00104BD
:1029300002F5C07303EB00131C600B7A7BB94B7A72
:102940000C8843EA445302F5C07404EB0014246875
:10295000234302F5C07404EB0014236010E00B7AEB
:102960004C6843EAC4034C7A234302F5C07404EB79
:1029700000142468234302F5C07404EB00142360A0
:102980008B7A03F00F038B7202F5C07303EB001315
:102990005B6823F00F0402F5C07303EB00135C6067
:1029A00002F5C07303EB00135B688C7A234302F5D6
:1029B000C07404EB001463608B7B1C064B7B44EA01
:1029C00003440B7B44EA0323CC7A234302F5C0740F
:1029D00004EB0014A3608B7C1C064B7C44EA03448C
:1029E0000B7C44EA0323CC7B234302F5C07404EB45
:1029F0000014E36002F5C07303EB00131B6843F09F
:102A0000010402F5C07303EB00131C6010BD00004D
:102A100010B50246002321B1012907D002290FD1A8
:102A200009E090681D4C00EA04030BE090681C4C20
:102A300000EA040306E090681A4C00EA040301E08F
:102A4000002300BF00BF184C181BA34216D007DCA0
:102A500083B16FF08060184470B1022818D111E082
:102A6000B0F5007F10D0114C204448B1B0F5003FC4
:102A70000ED10BE002230DE000230BE0002309E060
:102A8000002307E0012305E0012303E0012301E027
:102A9000002300BF00BFD8B210BD00000300000437
:102AA0000003000800000310000100080001FFF708
:102AB0001FB5304801F0ACFC0121042001F054F8AE
:102AC00048F6A040ADF8040041F28730ADF80800A8
:102AD0000020ADF80A00ADF8060001A9254801F074
:102AE0005BFE1E208DF8000000208DF80100012003
:102AF0008DF802008DF80300684600F0C3FF012244
:102B000011461C4801F089FD01211A4801F05FFCC3
:102B10004FF0804001F07CFC0121084601F024F8D0
:102B200048F6A040ADF8040040F2CF70ADF80800C0
:102B30000020ADF80A00ADF8060001A90D4801F02B
:102B40002BFE1C208DF8000001208DF801000020D4
:102B50008DF8020001208DF80300684600F092FF16
:102B600001221146900701F058FD0121880701F06C
:102B70002EFC1FBD000800400EB500F049F80121F1
:102B8000084601F011F80821012000F049FD4FF43A
:102B90008070019000208DF808000C208DF809004D
:102BA00001208DF80A0001A800F0E6FC17208DF83E
:102BB000000000208DF8010003208DF802000120A4
:102BC0008DF80300684600F05DFF0921012000F048
:102BD00027FD4FF40070019000208DF808000C20B4
:102BE0008DF8090001208DF80A0001A800F0C4FC4E
:102BF00017208DF8000001208DF8010000208DF8CD
:102C0000020001208DF80300684600F03BFF0EBD76
:102C100008B50121082000F0C7FF4FF44070ADF85F
:102C2000000004208DF803006946024800F018FDFA
:102C300008BD0000000C014008B501210C2000F087
:102C4000B3FF0121324800F097FD0121314800F027
:102C500093FD0121084600F0A7FF4FF44070ADF846
:102C6000000018208DF8030003208DF8020069464B
:102C7000294800F0F5FC8020ADF8000010208DF808
:102C8000030003208DF802006946234800F0E8FCA9
:102C90000120ADF8000010208DF8030003208DF80E
:102CA000020069461D4800F0DBFC0820ADF800007A
:102CB00010208DF8030003208DF8020069461748A4
:102CC00000F0CEFC0821154800F0A9FD1020ADF859
:102CD00000008DF8030003208DF8020069460F48BC
:102CE00000F0BEFC10210D4800F097FD00200C49BB
:102CF000087048708870C870087148718871C87110
:102D0000087248728872C8720873487308BD000060
:102D1000000230004000160000080140000C014095
:102D2000D600002070B504460D466248007A01289E
:102D300074D1002C37D05F488079012833D100F05E
:102D400001FB80215C4800F068FD01215B4800F038
:102D500064FD642000F023FB0121584800F05FFD72
:102D60008021554800F059FD322000F018FB002268
:102D70001146534801F01CFB01220421504801F088
:102D800017FB642000F00BFB012000F0F5F8002099
:102D9000484988710120C871642000F000FB284672
:102DA00000F004FA85E0002CFCD14248C0790128EB
:102DB0007FD100F0C7FA002000F0DEF880213E4805
:102DC00000F02BFD01213D4800F027FD642000F0BC
:102DD000E6FA8021384800F022FD0121374800F052
:102DE0001CFD322000F0DBFA00220421344801F0FF
:102DF000DFFA01220021324801F0DAFA642000F003
:102E0000CEFA012000F0B8F801202A49887100208C
:102E1000C871284600F0CAF94BE0FFE704BB012067
:102E2000244988710020C8718021234800F0F7FCF4
:102E30000121224800F0F1FC642000F0B0FA0022E9
:102E400004211F4801F0B4FA012200211C4801F0BE
:102E5000AFFA642000F0A3FA284600F0A7F91CE0BE
:102E60000020144988710120C8710121134800F025
:102E7000D6FC8021104800F0D0FC642000F08FFACE
:102E8000002211460E4801F093FA012204210C4859
:102E900001F08EFA642000F082FA012000F06CF854
:102EA000012004494870642000F079FA284600F0B7
:102EB0007DF970BDD600002000080140000C0140E3
:102EC000002C014000B587B0294801F0A1FA01218A
:102ED000C80200F069FEFFF7AFFE41F26F70ADF877
:102EE00014000020ADF81000ADF81200ADF8160087
:102EF0008DF8180004A91E4801F04EFC7020ADF8B2
:102F000000004FF4C870ADF806000120ADF80200D3
:102F10000020ADF804000220ADF808000020ADF854
:102F20000C006946124801F081FB0821104801F0AD
:102F3000C9FB4FF4C870ADF8060069460C4801F0B3
:102F4000CBFB08210A4801F019FC0121084801F0D7
:102F500023FA0121064801F040FA0121044801F05A
:102F600048FA4FF4C8700349888107B000BD0000DB
:102F7000002C0140C800002010B50446012C07D1E8
:102F80001021084800F04BFC01200749487010BD93
:102F90001021044800F041FC002003494870012042
:102FA000F5E70000000C0140D600002010B50446F3
:102FB000012C0CD100F01AF8642000F0F0F9012087
:102FC000FFF7DAFF642000F0EAF9012010BD0020CD
:102FD000FFF7D2FF642000F0E2F9002000F006F8CD
:102FE000642000F0DCF90120F0E7000010B5044691
:102FF000012C0AD108210B4800F00FFCC82000F07A
:10300000CEF901200849087010BD0821054800F0DC
:1030100006FCC82000F0C3F9002003490870012015
:10302000F2E70000000C0140D600002010B5044675
:10303000012C0AD101210B4801F0CFF9642000F0E6
:10304000AEF901200849087210BD0021054801F0C1
:10305000C4F9642000F0A3F900200349087201209C
:10306000F2E70000002C0140D600002070B50446B5
:10307000002540F6B8306043642190FBF1F086B241
:10308000002C6BDB642C69DC37488089002861DD0B
:103090003648007820B13548407808B1012000E07A
:1030A0000020012856D131498872084680790128CC
:1030B00025D10846C07910BB10E02B48808996388E
:1030C000294988810846808929490880C5EB05116E
:1030D000C1F5FA7000F063F9681CC5B22248808916
:1030E000B04205DD2048808940F6B8318842E4DBF3
:1030F00000201E49887201201E49087031E01B48DB
:10310000C07901282DD11948807910BB11E01648EB
:103110008089963814498881084680891449091D98
:103120000880C5EB0511C1F5FA7000F038F9681C8C
:10313000C5B20D488089B04205DD0B48808940F654
:10314000B8318842E3DB0020084988720120094930
:10315000087006E000200749087002E000200549D9
:1031600008700448007870BDC8000020D600002018
:10317000342C01403C00002010B5002009490870A3
:1031800000F0E0F80020FFF731FF0649087000204A
:103190000549087048708871C87108720873014841
:1031A000007810BD3C000020D600002070B5044619
:1031B000002540F6B8306043642190FBF1F086B200
:1031C000002C7CDD642C7ADC4948007820B148482A
:1031D000407808B1012000E0002001287DD144485A
:1031E0008079012838D14248C079A0BB01204049EC
:1031F00048724048808940F6B831884202DD08466E
:103200003C49888112E03B48808996303949888161
:10321000084680893849088005EB85014FF4FA7229
:10322000A2EB410000F0BBF8681CC5B23048407A00
:10323000012809D12F488089B04205DC2D488089BA
:1032400040F6B8318842DEDD00202949487201206D
:103250002A49087048E0FFE72548C079012843D192
:103260002348807968BB0120214948722148808920
:1032700040F6B831884202DD08461E49888113E0D5
:103280001C48808996301B498881084680891A49E4
:10329000091D088005EB85014FF4FA72A2EB41008D
:1032A00000F07DF8681CC5B21148407A01280DD1A4
:1032B00010488089B04209DC0E48808902E010E0A5
:1032C0000BE011E040F6B8318842D9DD0020084912
:1032D000487201200949087006E00020074908707B
:1032E00002E00020054908700448007870BD000025
:1032F000D6000020C8000020342C01403C000020F3
:1033000070B505460C46FFF7DDFD00200B4908703F
:103310000120FFF76BFE0949087021462846FFF798
:1033200001FD0120064908722046FFF73FFF642097
:1033300000F035F80148007870BD00003C00002026
:10334000D600002010B50520FFF790FE00220421D2
:103350000E4801F02DF8002211460C4801F028F823
:10336000642000F01CF88021094800F058FA01217F
:10337000084800F054FAC82000F011F80020FFF7C8
:10338000FBFD002004498871C87110BD002C01406C
:1033900000080140000C0140D6000020704718E0F2
:1033A00042F228324FF0E0235A6100229A61012252
:1033B0001A6100BF4FF0E022116901F001021AB159
:1033C00001F48032002AF5D000224FF0E0239A6108
:1033D000401E0028E4D100224FF0E0231A619A61D8
:1033E0007047000010B50A20FFF7D9FF4FF40050D6
:1033F00000F0AEF8012804D10449087004A001F0DF
:10340000BDFC4FF4005000F08BF810BD3D000020D3
:103410000D0A6D6F746F7220706F736974696F6ECF
:1034200020686967682074697267676572207375C0
:1034300063636565642E2E0D0A00000010B50A2036
:10344000FFF7ADFF042000F083F8012804D1044900
:10345000487004A001F092FC042000F061F810BD57
:103460003D0000200D0A6D6F746F7220706F7369DC
:1034700074696F6E206C6F7720746972676765720C
:1034800020737563636565642E2E0D0A00000000CD
:1034900010B50A20FFF783FF4FF4807000F058F852
:1034A00001280DD10020FFF7C1FD0020FFF77EFDB0
:1034B0000DA001F063FC4FF4807000F031F812E0D1
:1034C0004FF4007000F044F801280CD10020FFF701
:1034D000ADFD0020FFF76AFD0AA001F04FFC4FF49C
:1034E000007000F01DF810BD0D0A43757272656E14
:1034F0007431204558544920737563636565642EA3
:103500002E0D0A000D0A43757272656E74322045E5
:1035100058544920737563636565642E2E0D0A0047
:10352000014908607047000014040140002006496A
:103530000860091D0860091D0860091D086003482E
:10354000014914310860704700040140FFFF0F007B
:10355000014600200022074B1B6803EA0102054BCD
:1035600014331B680B4013B10AB1012000E00020A6
:103570007047000000040140002123498279002A9D
:103580003AD00A46126803689A430B461A600A1D2D
:10359000126803689A430B1D1A60027911440A6885
:1035A00003681A430A60184A0832126803689A438B
:1035B000154B08331A601A1D126803689A43124BA0
:1035C0000C331A604279102A0ED11A1F1268036850
:1035D0001A430D4B08331A601A1D126803681A4308
:1035E000094B0C331A600DE00749427911440A680F
:1035F00003681A430A6005E0027911440A68036807
:103600009A430A60704700000004014010B5012190
:10361000084600F0D9FA0021012000F0D5FA10BDCB
:1036200030B500228B071C0F0F2303FA04F20B4B5B
:103630008C1053F824309343084C8D1044F82530F7
:1036400023468C1053F824308C07240F00FA04F41E
:103650002343024C8D1044F8253030BD0800014052
:103660002DE9F04102460025002600200023002419
:10367000002791F803C00CF00F0591F803C00CF07F
:10368000100CBCF1000F03D091F802C04CEA050504
:1036900091F800C0BCF1000F31D0146800202BE07D
:1036A0004FF0010C0CFA00F3B1F800C00CEA03066D
:1036B0009E4220D183004FF00F0C0CFA03F7BC435D
:1036C00005FA03FC4CEA040491F803C0BCF1280F8E
:1036D00006D14FF0010C0CFA00FCC2F814C00AE04D
:1036E00091F803C0BCF1480F05D14FF0010C0CFA62
:1036F00000FCC2F810C0401C0828D1D31460B1F8F7
:1037000000C0BCF1FF0F34DD546800202EE000F152
:10371000080C4FF0010808FA0CF3B1F800C00CEAED
:1037200003069E4221D183004FF00F0C0CFA03F7E1
:10373000BC4305FA03FC4CEA040491F803C0BCF155
:10374000280F05D100F1080C08FA0CF8C2F8148013
:1037500091F803C0BCF1480F07D100F1080C4FF0FD
:10376000010808FA0CF8C2F81080401C0828CED3D3
:103770005460BDE8F0810000F0B50A460023002443
:103780000021002500F00046B6F1004F02D11D4E89
:10379000F16901E01B4E7168C0F3034583B200F488
:1037A0004016B6F5401F08D121F07061154E7668BD
:1037B00026F07066134F7E6012E000F48016B6F5B6
:1037C000801F06D1032606FA05F4A14341F070617B
:1037D00006E0460D360103FA06F6B14341F070618A
:1037E00022B1460D360103FA06F6314300F00046D9
:1037F000B6F1004F02D1034EF16101E0014E71605C
:10380000F0BD0000000001400246002093680B401C
:103810000BB1012000E00020704741617047016159
:10382000704700002DE9F05F04464FF00009CA46DA
:103830000723012211211E48FDF76AF90120FDF737
:1038400053FA01211A48FDF73FFA01250FE06420E1
:10385000FFF7A5FD00BF02211548FDF71DF900285F
:10386000F9D01348FDF714F98144681CC5B2A5428C
:10387000EDDB601EB9FBF0F94846FCF7ACFE834671
:10388000FCF7AEFE07464FF066320A4BFCF7B9FD77
:103890000546FCF7E9FE82465046FCF7A1FE0546C8
:1038A0002A460B4604A001F069FA5046BDE8F09F95
:1038B0000024014066664A3F0D0A2053544D3332BE
:1038C000206368697020567265662069733A202506
:1038D000322E33660D0A00002DE9F05F04464FF0EA
:1038E0000009CA460623012202211E48FDF710F9ED
:1038F0000120FDF7F9F901211A48FDF7E5F9012545
:103900000FE000BF02211748FDF7C6F80028F9D0E4
:103910001448FDF7BDF881443220FFF740FD681CD4
:10392000C5B2A542EDDB601EB9FBF0F94846FCF7D5
:1039300052FE8346FCF754FE07464FF066320A4BB0
:10394000FCF75FFD0546FCF78FFE82465046FCF70C
:1039500047FE05462A460B4604A001F00FFA5046E2
:10396000BDE8F09F0024014066664A3F0D0A204DE5
:103970006F746F722063757272656E74204F726916
:1039800067696E616C2069733A2025322E33660DAB
:103990000A0000002DE9FC5F82464FF0000B00207A
:1039A00001900723012211462148FDF7B1F80120BB
:1039B000FDF79AF901211E48FDF786F901240FE071
:1039C00000BF02211A48FDF767F80028F9D06420EB
:1039D000FFF7E5FC1648FDF75BF88344601CC4B2B2
:1039E0005445EDDBAAF10100BBFBF0FB5846FCF7A8
:1039F000F2FD0090FCF7F4FD06464FF066320D4BE9
:103A0000FCF7FFFC044600224FF08043FCF7F9FC72
:103A10008046FCF729FE01900198FCF7E1FD044681
:103A200022460B4604A001F0A9F90198BDE8FC9FCD
:103A30000024014066664A3F0D0A20355620706F0B
:103A400077657220766F6C746167652069733A20C0
:103A500025322E33660D0A0000BFFEE710B504467E
:103A6000012C04D10121044800F0B7FC03E000213F
:103A7000014800F0B2FC10BD0008004000BFFEE7A6
:103A80007047000070B5002100230F22C47804B3F2
:103A9000154C246804F4E064C4F5E064210AC1F123
:103AA0000403CA40447804FA03F1847814402143A3
:103AB00009010E4C0678A155047804F01F05012475
:103AC000AC4005786D11AD0005F1E025C5F8004169
:103AD00009E0047804F01F050124AC40044D067889
:103AE000761145F8264070BD0CED00E000E400E0E2
:103AF00080E100E002490143024A11607047000082
:103B00000000FA050CED00E07047000010B5FFF76B
:103B10007DFDFFF70BFD00F059FBFDF70BFA4FF4AD
:103B2000E131094800F0D6FF4FF4E131074800F0D9
:103B3000D1FFFFF721F801F0F5F8FEF7B9FFFCF728
:103B400005FFFFF7BFF910BD0038014000480040F5
:103B500001460020034A506820F44040084350606A
:103B6000704700000010024029B1064AD2690243A2
:103B7000044BDA6104E0034AD2698243014BDA6103
:103B8000704700000010024029B1064A1269024342
:103B9000044B1A6104E0034A12698243014B1A6123
:103BA000704700000010024029B1064A92690243A2
:103BB000044B9A6104E0034A92698243014B9A6183
:103BC000704700000010024029B1064AD268024343
:103BD000044BDA6004E0034AD2688243014BDA60A6
:103BE00070470000001002402DE9F0410021002242
:103BF000002500230026002400278C46DFF8608182
:103C0000D8F8048008F00C0121B1042907D0082954
:103C100059D109E0DFF84C81C0F8008058E0DFF8A6
:103C20004481C0F8008053E0DFF83481D8F8048084
:103C300008F47012DFF82881D8F8048008F4803581
:103C4000920C0D2A01D0921C00E0062235B9DFF853
:103C5000188102FB08F8C0F8008033E0DFF800812B
:103C6000D8F82C8008F48036DFF8F480D8F82C805F
:103C700008F00F0808F1010446B9DFF8E880B8FB46
:103C8000F4F808FB02F8C0F800801BE0DFF8D080F1
:103C9000D8F82C80C8F3031808F10107DFF8C080BA
:103CA000D8F82C80C8F3032808F1020CDFF8B480A0
:103CB000B8FBF7F808FB0CF8B8FBF4F808FB02F8BF
:103CC000C0F8008004E0DFF89C80C0F8008000BFEE
:103CD00000BFDFF88C80D8F8048008F0F0010909F3
:103CE000DFF8888018F80130D0F8008028FA03F84F
:103CF000C0F80480DFF86880D8F8048008F4E06138
:103D0000090ADFF8688018F80130D0F8048028FA32
:103D100003F8C0F80880DFF84880D8F8048008F479
:103D20006051C90ADFF8448018F80130D0F80480E7
:103D300028FA03F8C0F80C80DFF82480D8F8048053
:103D400008F44041890BDFF8288018F80130D0F8DA
:103D50000C80B8FBF3F8C0F81080BDE8F0810000DB
:103D60000010024000127A0000093D00000000200F
:103D70001000002070B504460025072C05D2DFE8AE
:103D800004F004060D141B222900FF2528E04FF43F
:103D900000711548FFF738FD054621E04FF48061BA
:103DA0001148FFF731FD05461AE04FF400610E4857
:103DB000FFF72AFD054613E04FF480510A48FFF74C
:103DC00023FD05460CE04FF400510748FFF71CFDAA
:103DD000054605E004210548FFF716FD054600BF2E
:103DE00000BF284670BD00000010014000140140D3
:103DF000704710B5FCF7EEFE012804D1FEF7D6FCA3
:103E000008B1012010BD0020FCE710B500F002F859
:103E100010BD00000CB50020019000903F480068E4
:103E200040F480303D49086000BF3C48006800F421
:103E3000003000900198401C0190009818B901983A
:103E4000B0F5A06FF1D13548006800F4003010B132
:103E50000120009001E000200090009801285CD132
:103E60002F48006840F010002D490860084600689F
:103E700020F0030008600846006840F00200086077
:103E8000264840682549486008464068486008461A
:103E9000406840F4806048600846C06A2149084094
:103EA0001E49C8620846C06A1F4908431B49C862C8
:103EB0000846006840F08060086000BF174800684E
:103EC00000F000600028F9D01448406820F47C100D
:103ED000124948600846406840F4E81048600846C7
:103EE000006840F08070086000BF0C48006800F077
:103EF00000700028F9D00948406820F00300074905
:103F000048600846406840F00200486000BF03482F
:103F1000406800F00C000828F9D10CBD00100240E8
:103F20000020024000F0FEFF14080100042808D120
:103F30004FF0E021096941F004014FF0E0221161E6
:103F400007E04FF0E021096921F004014FF0E02281
:103F500011617047012808D14FF0E021096941F053
:103F600001014FF0E02211610EE0811C41B94FF0D8
:103F7000E021096921F001014FF0E022116103E025
:103F800000214FF0E0229161704740B14FF0E021F5
:103F9000096941F002014FF0E022116107E04FF0A2
:103FA000E021096921F002014FF0E0221161704720
:103FB0004FF0E021486170471CB50024FFF7A6FDD3
:103FC000FFF717FF00281BD119E000210720FCF79D
:103FD0009DFE4FF4A0603D4908600820087306204C
:103FE00008710021394841718171C17101724172BA
:103FF0008172C172FEF742FC35A000F0BFFEE4E71B
:104000000420072108230022CDE90010114637487B
:10401000FEF70AF84FF496710420FCF777FE0120B2
:10402000FFF71CFD40F27D50284908600820087306
:104030007F2008710021254841718171C171017291
:1040400041728172C172FEF719FC29A000F096FE40
:1040500036E02FA000F092FE4FF4FA70FFF79FF9C0
:104060004FF496710820FCF751FE2D48008840F26D
:10407000AA5188421CD12A4840880121B1EB102F57
:1040800014D140F27D5011490860082008730120C6
:10409000087100210D4841718171C1710172417235
:1040A0008172C172FEF7EAFB012402E0002400E005
:1040B00000241B480021016041608160FEF7CCFABA
:1040C000002CC6D017A000F059FE1CBD40000020F7
:1040D0000D0A53797374656D2053656C664368658A
:1040E000636B206572726F720D0A000000640040FD
:1040F0000D0A53797374656D2053656C664368656A
:10410000636B20636F6D706C657465640D0A0000ED
:104110000D0A737475636B20696E2E2E2E0D0A00C6
:10412000500000200D0A2F2A2D2D2D2D2D2D2D2D47
:104130002D2D2D2D2D2D2053797374656D205374E5
:104140006172742E2E2E202D2D2D2D2D2D2D2D2DE9
:104150002D2D2D2D2D2D2D2D2D2D2D2F0D0A00002A
:1041600010B51648006840F0010014490860084680
:1041700040681349084011494860084600681149E1
:1041800008400E4908600846006820F48020086056
:104190000846406820F4FE0048600846006820F0A9
:1041A000A05008604FF47F0088600020C862FFF7CD
:1041B0002CFE4FF000600449086010BD0010024062
:1041C0000000FFF0FFFFF6FE08ED00E010B56FF015
:1041D0000400FFF7ABFE6FF00100FFF7BBFE00200D
:1041E000FFF7D3FE6FF00400FFF7A0FE0020FFF7FB
:1041F000B1FE42F22830FFF7DBFE0120FFF7AAFEF6
:1042000010BD000010B501210E4800F0F5F901289D
:1042100004D10D480068401C0B4908600A4800683A
:104220004FF6DC71884202D1002007490860064839
:10423000016806A000F0A2FD0121024800F0CAF8C2
:1042400010BD0000002C01403800002070756C7318
:1042500065203D2025640D0A0000000010B50020F7
:10426000174908730121880700F0C6F9012821D1F8
:104270000220FFF731FB0446FCF7A4F9114908605E
:10428000114910480068FCF715FA06D34FF07E512B
:104290000C480068FCF704FA08D20020FEF76CFE18
:1042A0000020FEF7C3FE01200549087300204FF0EF
:1042B000804188840121880700F08CF810BD00003F
:1042C000D6000020180000200000404010B5082152
:1042D000074800F091F9012808D10821044800F0AE
:1042E00079F804480068401C0249086010BD0000CD
:1042F000000400403400002010B501211C4800F0EB
:104300007BF9012808D1C1031A48FFF786FA1A4839
:104310000078401C184908701748007805281ED1FD
:1043200040F27D5015490860082008731448007851
:1043300008710021114841718171C171017241728E
:104340008172C172FEF79AFA4FF400410948FFF7F3
:1043500066FA0020084908700AA000F00FFD00204E
:104360000349243108800121014800F033F810BDD1
:1043700000080040000C0140140000204000002014
:10438000320000200D0A4865617274204265617434
:104390002E2E2E0D0A00000021B1028842F080026C
:1043A000028004E002884FF67F731A400280704753
:1043B00030B5002301248C40A3B2048C9C430484B8
:1043C000048C02FA01F5ADB22C43048430BDCA431B
:1043D00002827047CA430282704721B1028842F0CC
:1043E0000102028004E002884FF6FE731A40028048
:1043F000704731B1B0F8442042F40042A0F84420A4
:1044000005E0B0F84420C2F30E02A0F84420704743
:1044100010B504466848844208D10121C014FFF752
:10442000D3FB0021E014FFF7CFFBC4E0B4F1804FD1
:1044300008D101210846FFF7A7FB00210120FFF763
:10444000A3FBB8E05D48844208D101210220FFF7B8
:104450009BFB00210220FFF797FBACE05848844209
:1044600008D101210420FFF78FFB00210420FFF772
:104470008BFBA0E05348844208D101210820FFF7BC
:1044800083FB00210820FFF77FFB94E04E48844225
:1044900008D101211020FFF777FB00211020FFF742
:1044A00073FB88E04948844208D101212020FFF7AE
:1044B0006BFB00212020FFF767FB7CE0444884422F
:1044C00008D101214014FFF77FFB00216014FFF7A2
:1044D0007BFB70E03F48844209D10121C804FFF70B
:1044E00073FB00214FF40020FFF76EFB63E03A48B6
:1044F000844209D101210805FFF766FB00214FF432
:104500008010FFF761FB56E03448844209D1012155
:104510004805FFF759FB00214FF40010FFF754FB4B
:1045200049E02F48844208D101214020FFF72CFBAD
:1045300000214020FFF728FB3DE02A48844208D1B3
:1045400001218020FFF720FB00218020FFF71CFBCA
:1045500031E02548844208D101218015FFF714FB82
:104560000021A015FFF710FB25E02048844209D167
:1045700001210804FFF728FB00214FF48030FFF7EA
:1045800023FB18E01A48844209D101214804FFF7AF
:104590001BFB00214FF40030FFF716FB0BE0154822
:1045A000844208D101218804FFF70EFB00214FF45B
:1045B0008020FFF709FB10BD002C014000040040E3
:1045C00000080040000C00400010004000140040B3
:1045D00000340140004C01400050014000540140B3
:1045E00000180040001C0040002000400040014036
:1045F000004401400048014030B50246002000233D
:104600000024158A05EA0103958905EA010413B11E
:104610000CB1012000E0002030BD1AB183890B43AA
:10462000838102E083898B438381704770B50024C6
:1046300000220023058C4FF6FE7635400584028C5F
:104640008388048B4FF68F752C40B51E2C400D8847
:104650002C43751E2A400D892A434D882A43144D48
:10466000A8420BD0134DA84208D0134DA84205D044
:10467000124DA84202D0124DA84213D14FF6F77541
:104680002A404D892A434FF6FB752A408D882A43DC
:104690004FF6FF652B404FF6FF552B408D892B437E
:1046A000CD892B4383800483CD888586028470BDA9
:1046B000002C014000340140004001400044014012
:1046C000004801400A460021018B4FF6F77319405C
:1046D000114301837047000070B5002400220023BD
:1046E000058C4FF6EF7635400584028C8388048B69
:1046F00048F6FF752C404FF6FF452C400D884FF6CD
:10470000FF7606EA05252C434FF6DF752A400D8912
:1047100006EA05152A434D8806EA05152A43154D74
:10472000A84202D0144DA8421DD14FF67F752A40F1
:104730004D894FF6FF7606EA05152A434FF6BF75F9
:104740002A408D8806EA05152A434FF6FF352B408F
:104750004FF2FF752B408D8906EA85052B43CD89E5
:1047600006EA85052B4383800483CD880587028470
:1047700070BD0000002C0140003401400A460021B9
:10478000018B4FF2FF7319404FF6FF7303EA0223C8
:104790001943018370470000002202881D4B984294
:1047A0000ED01D4B98420BD0B0F1804F08D01B4B60
:1047B000984205D01A4B984202D01A4B984204D125
:1047C0004FF68F731A404B881A43174B984207D005
:1047D000164B984204D04FF6FF431A40CB881A4339
:1047E00002808B8883850B8803850A4B98420BD007
:1047F000094B984208D00E4B984205D00D4B984279
:1048000002D00D4B984201D10B7A0386012383829B
:1048100070470000002C01400034014000040040BB
:1048200000080040000C0040001000400014004050
:1048300000400140004401400048014010B540F2F2
:104840002551044800F07AF840F22551014800F063
:1048500011F810BD0038014010B540F22551044850
:1048600000F079F840F22551014800F003F810BD3E
:104870000048004001F40072B2F5007F00D100BF93
:10488000CA430280704721B1828942F4005282817A
:1048900004E082894DF6FF731A4082817047000060
:1048A00010B504462048844209D101218803FFF74E
:1048B0008BF900214FF48040FFF786F932E01B4866
:1048C000844209D101214804FFF75EF900214FF429
:1048D0000030FFF759F925E01548844209D101213C
:1048E0008804FFF751F900214FF48020FFF74CF9BD
:1048F00018E01048844209D10121C804FFF744F9A7
:1049000000214FF40020FFF73FF90BE00A488442F2
:1049100008D101210805FFF737F900214FF4801075
:10492000FFF732F910BD000000380140004400409C
:1049300000480040004C004000500040024600206B
:10494000B1F5007F00D100BF13880B400BB10120EF
:1049500000E00020704770B50246002400230025C7
:10496000002040F66A16B14200D100BFC1F34215E3
:1049700001F01F03012606FA03F3012D02D19689E7
:10498000334006E0022D02D1168A334001E0968AB8
:1049900033400C12012606FA04F41688344013B191
:1049A0000CB1012000E0002070BDF0B503460024EA
:1049B00000260025002040F66A17B94200D100BF4A
:1049C0001846C1F3421401F01F06012707FA06F545
:1049D000012C01D10C3004E0022C01D1103000E098
:1049E00014301AB107682F43076002E00768AF432D
:1049F0000760F0BD2DE9F04786B005460E4600245D
:104A0000A24600BFA1460027B08900B100BF2F46D3
:104A10002C8A4CF6FF700440F08804432C82AC8949
:104A20004EF6F3100440B088318908437189084379
:104A30000443AC81AC8A4FF6FF400440B089044384
:104A4000AC8201A8FFF7D0F81F48874202D1DDF8F9
:104A500010A001E0DDF80CA0A88900F4004040B1EE
:104A60000AEBCA0000EB0A1031684900B0FBF1F80C
:104A700007E00AEBCA0000EB0A1031688900B0FBBE
:104A8000F1F86420B8FBF0F004012009642101FB77
:104A90001089A88900F4004040B1322000EBC90021
:104AA000B0FBF1F000F00700044308E0322000EB17
:104AB00009106421B0FBF1F000F00F0004432C81D9
:104AC00006B0BDE8F087000000380140C1F30802DD
:104AD0008280704730B587B005460C465548854200
:104AE00054D1FFF7DDFE01210920FFF75DF8012118
:104AF0008803FFF759F801210420FEF73DFE40200E
:104B0000ADF8180018208DF81B0003208DF81A004E
:104B100006A94948FEF7A4FD8020ADF8180004203E
:104B20008DF81B0003208DF81A0006A94248FEF7F5
:104B300097FD02940C20ADF812000020ADF80C0097
:104B40006814ADF80E000020ADF81400ADF81000A8
:104B500002A92846FFF74EFF25208DF80400022009
:104B60008DF8050000208DF8060001208DF8070063
:104B700001A8FEF787FF012240F225512846FFF7E2
:104B800014FF01212846FFF77EFE51E02B488542A5
:104B90004ED1FFF785FE01210920FFF705F801211D
:104BA0008804FEF7E1FF2815ADF8180018208DF8ED
:104BB0001B0003208DF81A0006A91F48FEF750FDC0
:104BC000E814ADF8180004208DF81B0003208DF8C0
:104BD0001A0006A91848FEF743FD02940C20ADF810
:104BE00012000020ADF80C006814ADF80E00002093
:104BF000ADF81400ADF8100002A92846FFF7FAFE40
:104C000027208DF8040002208DF805008DF806009D
:104C100001208DF8070001A8FEF734FF012240F2C1
:104C200025512846FFF7C1FE01212846FFF72BFE3C
:104C300007B030BD00380140000C01400048004082
:104C400000BFFEE70020014908607047082C0040C3
:104C500010B57F2000F004F8FFF7F4FF10BD00004E
:104C600000F07F01014A116070470000002C0040F5
:104C700070B506460D46072E4DD2DFE806F04C040F
:104C8000101C2834400025B101212548FEF7C7FD3E
:104C900003E001212248FEF7C0FD01243DE025B1DB
:104CA00002211F48FEF7BBFD03E002211C48FEF76E
:104CB000B4FD012431E025B104211948FEF7AFFD10
:104CC00003E004211648FEF7A8FD012425E025B1E4
:104CD00008211348FEF7A3FD03E008211048FEF762
:104CE0009CFD012419E025B110210D48FEF797FD28
:104CF00003E010210A48FEF790FD01240DE025B1E4
:104D000020210748FEF78BFD03E020210448FEF731
:104D100084FD012401E0002400BF00BF204670BDD7
:104D20000010014008B501213020FEF73DFF4FF48F
:104D30007850ADF8000004208DF8030003208DF8B2
:104D4000020069460B48FEF78BFC0420ADF800001A
:104D500069460948FEF784FC3F20ADF800001020AA
:104D60008DF8030003208DF8020069460148FEF724
:104D700077FC08BD00100140001401400FB4054B42
:104D800010B503A9044A029800F0DAF810BC5DF8E7
:104D900014FB0000715600081C00002002E008C847
:104DA000121F08C1002AFAD170477047002001E0A5
:104DB00001C1121F002AFBD1704700002DE9FF5FDF
:104DC00082B00021DDE90430020DDDF840B003437C
:104DD00018D044F61050A2F2FF3242431514119835
:104DE00001281FD0A5EB0B00401C5FEA000A4FF022
:104DF00000064E4FDFF83891B046504615D5CAF13F
:104E0000000413E0119801244AA3012801D16FEA9C
:104E10000B010298119AC0E90031C0E9024206B0C4
:104E2000BDE8F09FCBF10000DFE704460021404AD7
:104E3000491842EB0450CDE9001012E0E00707D01A
:104E400032463B4640464946FBF7DBFA80468946F8
:104E500032463B4610461946FBF7D3FA06460F4644
:104E60006410002CEAD1DDE90401DDE90023BAF188
:104E7000000F06DAFBF7C5FA42464B46FBF7C1FACC
:104E800005E0FBF730FB42464B46FBF72CFB0446A4
:104E90000E460022284BFBF7CFFB03D84FF0FF3024
:104EA000014607E00022254B20463146FBF702FA77
:104EB000FBF716FD102409E0002C0ADB0A22002370
:104EC000FBF718FC039B30321A55641E50EA0102AE
:104ED000F2D1641C039AC4F111031444119A012AFB
:104EE00003D0012208430DD10AE0084304D000207A
:104EF0004FF0110B119072E7A3EB0B056D1E0DE047
:104F00005B4504DD4FF0000205F1010504E003DA22
:104F10004FF00002A5F10105002AECD0029811998A
:104F2000C0E90231C0E9004579E700000000144003
:104F30000000F03F300000000000F0430000E03FC0
:104F40002DE9FF4F95B09B468946064600250FE2A6
:104F5000252877D100242746F84A0121059400E04E
:104F6000044316F8013F203B01FA03F01042F7D149
:104F700030782A2811D06FF02F033078A0F130025A
:104F8000092A16D8059A44F0020402EB820203EBC8
:104F900042021044761C0590EFE759F8042B059265
:104FA000002A03DA504244F40054059044F002040D
:104FB000761C30782E2816D116F8010F44F0040420
:104FC0002A280DD06FF02F023078A0F13003092B82
:104FD00009D807EB870302EB4303C718761CF3E7F6
:104FE00059F8047B761C30786C280FD006DC4C28EE
:104FF00017D068280DD06A2814D104E0742810D086
:105000007A280FD10DE044F400140AE044F480142F
:1050100001E044F440147278824202D104F5801415
:10502000761C761C307866280BD013DC582877D095
:1050300009DC002875D04528F6D04628F4D047284A
:105040001AD19DE118E0632835D0642879D065280D
:1050500012D195E1702873D008DC6728F1D0692857
:105060006FD06E280DD06F2806D1B5E073282CD0F4
:10507000752875D0782874D05A46179990476D1CBA
:1050800075E1C4F30250022809D003280DD0D9F8E5
:10509000001004280DD00D6009F1040967E1D9F86A
:1050A0000010EA17C1E90052F6E7D9F800100D80A8
:1050B000F2E70D70F0E719F8041B8DF800100020DE
:1050C0008DF80100EA46012003E059F804AB4FF0E7
:1050D000FF3061074FF0000102D40DE008F101013B
:1050E0008846B9420FDA8045F8DB1AF80810002923
:1050F000F4D108E008F1010188468142FADB1AF890
:1051000008100029F6D105985B46A0EB0807214658
:105110003846179A00F094FA284400EB080507E097
:105120004DE029E10DE01AF8010B5A461799904716
:10513000B8F10108F7D25B4621463846179A13E1C9
:1051400042E00A220092C4F302524FF0000A022AFF
:1051500008D059F804CB032A4FEAEC710AD00DE0CD
:1051600029E02AE009F1070121F00702F2E802C173
:10517000914609E00FFA8CFC4FEAEC71042A03D146
:105180004FFA8CFC4FEAEC71002907DA0A4600213D
:10519000DCF1000C61EB02012D2202E0220504D5B6
:1051A0002B228DF80420012203E0E20701D0202207
:1051B000F7E7904659E00A2102E010220DE01021A5
:1051C0004FF0000A00910BE010224FF0000A44F06B
:1051D00004040827009203E008224FF0000A00921E
:1051E000C4F30252022A05D059F804CB0021032A45
:1051F00008D009E009F1070121F00702F2E802C135
:10520000914605E01FFA8CFC042A01D10CF0FF0C3A
:105210004FF00008220728D5702806D0009B83F0A5
:10522000100353EA0A0305D00EE040228DF8042053
:10523000012208E05CEA010206D030228DF8042049
:105240008DF8050002229046009B83F0080353EA84
:105250000A030AD15CEA010201D1620705D53022B6
:105260008DF804204FF001087F1E582804D034A088
:1052700003900EA802900DE036A0F9E75346604671
:10528000009AFBF737FA84460398825C0298401E26
:10529000029002705CEA0100F0D1029806A9081A97
:1052A00000F1200A600702D524F4803400E00127D1
:1052B000574502DDA7EB0A0000E0002000EB0A01E1
:1052C000009005984144401A0590E00306D45B46DF
:1052D0002146179A059800F0B3F90544002706E027
:1052E00001A85A46C05D179990476D1C7F1C474521
:1052F000F6DBE0030CD55B462146179A059800F0D3
:105300009FF9054404E030205A46179990476D1CD8
:105310000099481E00900029F5DC08E002980299E7
:105320005A460078491C0291179990476D1CBAF1B2
:105330000001AAF1010AF1DC65E100000928010081
:1053400030313233343536373839616263646566FB
:1053500000000000303132333435363738394142BD
:10536000434445460000000000F058F90544761C0F
:10537000307800287FF4ECAD19B02846BDE8F08FF6
:10538000620700D4062709F1070222F0070CFCE8A7
:105390000223E14603F000485FEA080C02D00FF256
:1053A000702C0DE05FEA045C02D50FF2682C07E078
:1053B0005FEAC47C02D00FF2602C01E0AFF2700C07
:1053C0004FF0FF3823F00043CDF850C065280CD0D3
:1053D00006DC452809D046281DD047283DD13DE0B0
:1053E000662818D067287ED138E00021112F01DB14
:1053F000112000E0781CCDE9000106A90EA8FFF7F6
:10540000DDFCDDE90F010E9A03910021009207F106
:10541000010A04914DE04FF000400097CDE90110E2
:1054200006A90EA8FFF7CAFCDDE90F0203920E9B46
:1054300011990022DDF80CA00093049211B9791C97
:1054400000EB010AB7EB0A0004D4C0F1FF3007F10A
:10545000010A0490AAEB0700019044E0012F00DA52
:1054600001270021112F01DD112000E03846CDE990
:10547000000106A90EA8FFF7A1FCDDE90F010E9AB5
:105480000391002104910092BA4621070CD403999C
:10549000514500DA8A46BAF1010F05DD009AAAF1FA
:1054A0000101515C302908D0B84202DA10F1040F32
:1054B00006DA0121CDE9011015E0AAF10101E9E7C1
:1054C000002805DC049901440491AAEB000102E0E4
:1054D000411C514500DD8A460499401A401C019048
:1054E0004FF000400290200704D40198504501DBA2
:1054F000CDF8048000208DF84F0002980DF14F0781
:10550000B0F1004F25D02B200E9002984FF00208EA
:1055100000280CDA404202902D200E9007E00A216C
:105520000298FBF7D1F83031029007F8011DB8F16D
:105530000001A8F10108F2DC02980028EFD1791EE1
:105540000E980870307800F0200040F0450007F811
:10555000020D12A8C01B00F107081498007800B1D2
:10556000012000EB0A01019801EBE071059841442C
:10557000401A401E0590E00306D45B462146179A68
:10558000059800F05DF805441498007818B15A4663
:10559000179990476D1CE00324D55B462146179A66
:1055A000059800F04DF805441CE00498002807DB3E
:1055B000DDE90301884203DD0098405C179901E0B2
:1055C000179930205A469047049805F10105401C70
:1055D00004900198401E019004D12E205A4617993C
:1055E00090476D1CBAF10001AAF1010ADDDC05E06B
:1055F00017F8010B5A46179990476D1CB8F1000136
:10560000A8F10108F4DC5B462146179A0598ABE641
:105610002D0000002B000000200000002DE9F041CB
:10562000044600251E461746880404D405E0394682
:105630002020B0476D1C641EF9D52846BDE8F081D6
:105640002DE9F041044600251E469046C80301D5C9
:10565000302700E02027880404D505E0414638467D
:10566000B0476D1C641EF9D52846BDE8F0810000E6
:1056700070B504460D46E1B20548FFF727FA00BFB2
:1056800080210348FFF75AF90028F9D0204670BD61
:1056900000380140FEF764FD4FF4A060FEF72AFADF
:1056A000FEF78AFC06E04FF4FA710520FBF72EFBAB
:1056B000FCF794FFF7E70000D85600080000002030
:1056C000400000009C4D00081857000840000020D2
:1056D000A8040000AC4D0008000000000102030413
:1056E000010203040607080902040608000000007E
:1056F00000000000000000000000000000000000AA
:10570000240300000000000000000500000000006D
:08571000000000000000000091
:04000005080001519D
:00000001FF
