:020000040800F2
:10000000E808002001010008250100082701000878
:100010002B0100082F010008330100080000000038
:100020000000000000000000000000003701000890
:1000300039010008000000003B010008011600081B
:100040001B0100081B0100081B0100081B01000820
:100050001B0100081B0100081B0100081B01000810
:100060001B0100081B0100081B0100081B01000800
:100070001B0100081B0100081B0100081B010008F0
:100080001B0100081B0100081B0100081B010008E0
:100090001B0100081B0100081B0100081B010008D0
:1000A0001B0100081B0100081B0100081B010008C0
:1000B0001B010008092600081B0100081B0100089D
:1000C0001B0100081B0100081B0100081B010008A0
:1000D0001B010008FB0200081B0100081B010008AF
:1000E0001B0100081B0100081B010008DFF80CD0F1
:1000F00004F02AFF0048004769010008E8080020D2
:100100000648804706480047FEE7FEE7FEE7FEE7B1
:10011000FEE7FEE7FEE7FEE7FEE7FEE787450008AD
:10012000ED000008704700BFFEE700BFFEE700BF1C
:10013000FEE700BFFEE770477047704710B54FF409
:10014000E13000F095F801F03BFD01F02EFC01F0EC
:10015000FBFD02F079FA01F0E0FE02F02FF94FF416
:100160007A7001F000FF10BD04F00DFA1949B1F1E9
:10017000807F00D31DE021F07F40401E4FF0E02241
:10018000506150170F22002807DA13071D0E124B7B
:1001900000F00F04241F1D5503E013071C0E0F4B26
:1001A0001C5400BF00204FF0E02290610720106136
:1001B00000BF01F099F801F0EAF8052001F06AFAB1
:1001C000FFF7BCFF06A004F00BFF01E000F067F9A9
:1001D000FCE700004019010018ED00E000E400E039
:1001E0006F6B206E6F770000014600BF704770B5DF
:1001F00004460D46FB48007801280BD100BF402182
:10020000F94804F0F7F80028F9D0E1B2F64804F014
:1002100083F82BE0F348007802280BD100BF40217F
:10022000F24804F0E7F80028F9D0E1B2EF4804F012
:1002300073F81BE0EB48007803280CD100BF402185
:10024000EB4804F0D7F80028F9D0EA480078401CC1
:10025000E84908700AE000BF4021E34804F0CAF80A
:100260000028F9D0E1B2E04804F056F8204670BD0D
:1002700038B50446012144F2040002F019FEDA48C0
:1002800003F00EFF4FF40070DB49088003208870F4
:100290001820C870D94802F04FFB4FF48060D6494F
:1002A00008800420C870D54802F046FBD44804609A
:1002B0000020D3498880C880088188810C2048812B
:1002C000C94803F030FF25208DF8000000208DF88C
:1002D000010003208DF8020001208DF8030068461C
:1002E00002F061FA012240F22551BF4803F0B3FF4A
:1002F0000121BD4803F0A3FF38BD10B540F22551E0
:10030000B94804F08DF8F0B1B74804F009F8C4B268
:1003100040F22551B44804F07AF8BA48007890B910
:10032000B948BA4909784454B8480078401CB749DC
:100330000870B7480078401CB54908700D2C02D1F0
:100340000120B049087010BD70B504460D46A7489D
:10035000844202D10A2001F088F94021204604F0AD
:1003600056F82946204603F0D7FF00BF402120461B
:1003700004F040F80028F9D070BD70B505460C4671
:1003800021122846FFF7E0FFE1B22846FFF7DCFF25
:1003900070BD70B505460E4634469448854202D17C
:1003A0000A2001F062F904E021782846FFF7CCFF2B
:1003B000641C20780028F7D170BD10B5044604E015
:1003C00021788A48FFF7C0FF641C20780028F7D105
:1003D00010BDFCB503461946002500950195002087
:1003E000002201240EE00D78302D0ADB0D78392D26
:1003F00007DC0D78303DEFB21546561C72B20DF891
:100400000570491C0D78002DEDD10DEB0205691E1C
:100410000CE00D7805FB0405A8B204EB84054FF64B
:10042000FF7606EA4504491E551E6AB2002AF0DC32
:10043000FCBD30B50246002300200AE014780D7898
:10044000AC4201D0012007E0521C491C5C1CE3B205
:1004500000201478002CF1D100BF14786CB90C780E
:1004600044B10C780A2C05D00C780D2C02D00C78F5
:10047000402C01D1002000E0012030BD002100BF50
:1004800009E0425C412A05DB425C5A2A02DC425CFC
:1004900020324254491C425C002AF2D170472DE9B7
:1004A000FC5F002400250FF26C18564800780128E4
:1004B00040F0ED86002053490870534956A004F0DF
:1004C0008FFD5148FFF7DAFF4F4955A0FFF7B1FF05
:1004D00060B958A004F084FD5BA004F081FD60A029
:1004E00004F07EFD63A004F07BFDCDE2464966A0EA
:1004F000FFF79FFF18B967A004F072FDF5E74249C6
:1005000069A0FFF796FF002839D169A004F068FDC3
:100510006DA004F065FD70A004F062FD72A004F00F
:100520005FFD75A004F05CFD77A004F059FD7AA092
:1005300004F056FD7CA004F053FD7EA004F050FDB5
:1005400080A004F04DFD82A004F04AFD84A004F0D8
:1005500047FD87A004F044FD89A004F041FD8CA074
:1005600004F03EFD8EA004F03BFD90A004F038FDA9
:1005700093A004F035FD95A004F032FDB5E72249C3
:1005800095A0FFF756FF18B997A004F029FDACE736
:100590001D4999A0FFF74DFF38B908219A4802F08C
:1005A00078FA9AA004F01CFD9FE717499CA0FFF77A
:1005B00040FF38B90821944802F06DFA9CA004F07D
:1005C0000FFD92E71049A0A0FFF733FF40B91021BB
:1005D0008D4802F05EFA04218B4802F05AFA3BE1A2
:1005E0003EE10000D80000200038014000440040F7
:1005F00000480040D7000020DA0000200008014039
:10060000D404002005000020E002002006000020A5
:10061000070000200000000025730D0A0000000004
:10062000666978747572655F696E666F726D617404
:10063000696F6E004E616D653A436F6E74726F6CD8
:1006400042726F61640D0A0056656E646F723A20E3
:10065000496E74656C6C6967656E740D0A00000004
:1006600048572056657273696F6E3A56302E310DB9
:100670000A00000053572056657273696F6E3A5630
:10068000302E310D0A000000666978747572655F5E
:1006900069640000466978747572652049443A4976
:1006A00041303030310D0A0068656C700000000088
:1006B000466978747572655F496E666F726D6174B4
:1006C000696F6E0D0A000000466978747572655F87
:1006D00049440D0A0000000052657365745F466965
:1006E00078747572650D0A003176385F706F7765C2
:1006F000725F6F6E0D0A00003176385F706F77653C
:10070000725F6F66660D0A003376335F706F7765D0
:10071000725F6F6E0D0A00003376335F706F77651E
:10072000725F6F66660D0A006D765F3176380D0A6E
:10073000000000006D765F7664645F6D61696E0D28
:100740000A0000006D635F3176380D0A000000007A
:100750006D635F7664645F6D61696E0D0A00000011
:10076000636F6E66696775726530610D0A0000001F
:10077000636F6E666967757265300D0A0000000070
:10078000636F6E666967757265310D0A000000005F
:10079000636F6E666967757265320D0A000000004E
:1007A00074656D705F726561640D0A0074656D70CB
:1007B0005F73656E736F725F73657475700D0A0099
:1007C000746573745F706173730D0A00746573747C
:1007D0005F6661696C0D0A0072657365745F6669B6
:1007E00078747572650000007265736574206669BF
:1007F00078747572650D0A003176385F706F7765B1
:10080000725F6F6E00000000000C014031763820EE
:10081000706F776572206F6E20706173730D0A00C0
:100820003176385F706F7765725F6F6666000000C3
:1008300031763820706F776572206F666620706140
:1008400073730D0A000000003376335F706F7765B5
:10085000725F6F6E00000000CCA004F0C1FB44E6A4
:10086000CF49D0A0FFF7E5FD38B91021D14802F0FB
:1008700012F9D1A004F0B4FB37E6C949D4A0FFF7C0
:10088000D8FD18B9D5A004F0ABFB2EE6C449D8A01A
:10089000FFF7CFFD18B9D9A004F0A2FB25E6C049A7
:1008A000DBA0FFF7C6FD18B9E0A004F099FB1CE639
:1008B000BB49E7A0FFF7BDFD18B9EBA004F090FB22
:1008C00013E6B749EFA0FFF7B4FD18B9F0A004F0A4
:1008D00087FB0AE6B249F2A0FFF7ABFD18B9F5A015
:1008E00004F07EFB01E6AE49F9A0FFF7A2FDF8B9DE
:1008F0000421FA4802F0CFF80221F84802F0CBF8C0
:100900000121F64802F0C7F80A2000F0C3FE4FF4B8
:10091000985148F2430001F068F80546284604F073
:1009200053F9064632460B46EDA004F059FBDCE5D0
:100930009B49EEA0FFF77DFD10BB0421E74802F0C4
:10094000AAF80221E54802F0A6F80121E34802F0E6
:10095000A0F80A2000F09EFE4FF4985148F24300A0
:1009600001F043F805460A2000F094FE284604F002
:100970002BF9064632460B46D9A004F031FBB4E50C
:100980008749DCA0FFF755FD68BB0221894802F0CA
:1009900082F80121874802F07EF84FF48051CF4859
:1009A00002F077F84FF40041CC4802F072F80A20C8
:1009B00000F070FE4FF4985148F2010001F015F874
:1009C0000546CF49284603F0CBFE8346CD4903F0C8
:1009D000F9FE824604F0F8F8064632460B46CAA0F5
:1009E00004F0FEFA81E56E49CAA0FFF722FD68BB5C
:1009F0000221704802F04FF801216E4802F049F8D8
:100A00004FF48071B54802F044F84FF40061B348E8
:100A100002F03FF80A2000F03DFE4FF4985148F2F2
:100A2000010000F0E2FF0546B549284603F098FEB4
:100A30008346B44903F0C6FE824604F0C5F8064674
:100A400032460B46B0A004F0CBFA4EE55449B3A0B1
:100A5000FFF7EFFC68B90A2001F058FE054628466A
:100A600004F0B2F8064632460B46AFA004F0B8FADE
:100A7000FCE34B49AFA0FFF7DCFC30B9642001F088
:100A800072FAAFA004F0ACFAF0E34549AEA0FFF76C
:100A9000D0FC002879D1642001F065FA032201A975
:100AA000002001F056FD12208DF8040034208DF84E
:100AB000050056208DF80600032201A9072001F049
:100AC00027FD032201A9072001F043FD9DF807003F
:100AD00000909DF806309DF805209DF804109DA01B
:100AE00004F07EFA40208DF80400012201A90420C0
:100AF00001F00EFD012201A9042001F02AFD0020D1
:100B00008DF80400012201A9104601F001FD012227
:100B100001A9104601F01DFD08208DF804000122F6
:100B200001A9022001F0F4FC012201A9022001F038
:100B300010FD04208DF80400012201A91B2001F002
:100B4000E7FC012201A91B2001F003FDBE2001F0FA
:100B5000BFFC002413E0032201A90A2001F0F9FCE4
:100B600001A801F0CFFA0546284604F02DF8064604
:100B700032460B467DA004F033FA601CC4B2142C3C
:100B8000E9DB7FA004F02CFA70E3FDE0337633203C
:100B9000706F776572206F6E20706173730D0A003D
:100BA000E00200203376335F706F7765725F6F66A7
:100BB00066000000000C014033763320706F7765CB
:100BC00072206F666620706173730D0A000000006A
:100BD0006164635F73657475700000004144432075
:100BE000736574757020706173730D0A00000000E6
:100BF0006164635F6D6F646573000000414443206E
:100C00004D6F64657320706173730D0A00000000FE
:100C100073747261696E5F676167655F646972654D
:100C200063745F636F75706C656400005374726108
:100C3000696E20476167652044697265637420436B
:100C40006F75706C656420706173730D0A0000002D
:100C500073747261696E5F676167655F6870665F14
:100C6000726561640000000053747261696E204710
:100C70006167652048504620526561642070617349
:100C8000730D0A006E74635F72656164000000009A
:100C90004E5443205265616420706173730D0A00E5
:100CA00074656D705F73656E736F725F7365747575
:100CB0007000000054656D702053656E736F722074
:100CC000536574757020706173730D0A0000000025
:100CD0006D765F7664645F6D61696E000008014047
:100CE00056783D25332E3266560D0A006D765F31FB
:100CF000763800006D635F7664645F6D61696E00D5
:100D000000007A440000484356783D25666D410D49
:100D10000A0000006D635F317638000074656D7005
:100D20005F7265616400000054656D703D25660D5D
:100D30000A0000006F757470757431303000000067
:100D4000706173730D0A0000636F6E666967757278
:100D50006532000072656365697665307830373DCD
:100D600025782578257825780D0A0000446174617E
:100D70005F46726F6D5F4144433D25660D0A00007A
:100D80007061737300000000F549F6A0FFF751FB96
:100D900000287DD1642001F0E6F8032201A900209B
:100DA00001F0D7FB12208DF8040034208DF80500E7
:100DB00056208DF80600032201A9072001F0A8FBA8
:100DC000032201A9072001F0C4FB9DF80700009051
:100DD0009DF806309DF805209DF80410AFF28C00B8
:100DE00004F0FEF820208DF80400012201A904205F
:100DF00001F08EFB012201A9042001F0AAFB0020D2
:100E00008DF80400012201A9104601F081FB0122A6
:100E100001A9104601F09DFB08208DF80400012275
:100E200001A9022001F074FB012201A9022001F0B6
:100E300090FB02208DF80400012201A91B2001F083
:100E400067FB012201A91B2001F083FBBE2001F0FA
:100E50003FFB002414E0032201A9092001F079FBE3
:100E600001A801F04FF90546284603F0ADFE0646FD
:100E700032460B46AFF20C1004F0B2F8601CC4B25C
:100E8000142CE8DBAFF2081004F0AAF8EEE1FFE75B
:100E9000B349B7A0FFF7CDFA00287DD1642001F057
:100EA00062F8032201A9002001F053FB12208DF803
:100EB000040034208DF8050056208DF8060003222A
:100EC00001A9072001F024FB032201A9072001F05A
:100ED00040FB9DF8070000909DF806309DF8052026
:100EE0009DF80410AFF2941004F07AF800208DF809
:100EF0000400012201A9042001F00AFB012201A93A
:100F0000042001F026FB00208DF80400012201A935
:100F1000104601F0FDFA012201A9104601F019FB6B
:100F200008208DF80400012201A9022001F0F0FA46
:100F3000012201A9022001F00CFB01208DF8040020
:100F4000012201A91B2001F0E3FA012201A91B20C3
:100F500001F0FFFABE2001F0BBFA002414E00322E6
:100F600001A9082001F0F5FA01A801F0CBF8054627
:100F7000284603F029FE064632460B46AFF21420FF
:100F800004F02EF8601CC4B2142CE8DBAFF2102081
:100F900004F026F86AE1FFE7714975A0FFF749FA06
:100FA000002879D1032201A901F0D3FA12208DF88B
:100FB000040034208DF8050056208DF80600032229
:100FC00001A9072001F0A4FA032201A9072001F0DA
:100FD000C0FA9DF8070000909DF806309DF80520A6
:100FE0009DF80410AFF2942003F0FAFF00208DF872
:100FF0000400012201A9042001F08AFA012201A9BA
:10100000042001F0A6FA00208DF80400012201A9B5
:10101000104601F07DFA012201A9104601F099FA6B
:1010200000208DF80400012201A9022001F070FACD
:10103000012201A9022001F08CFA01208DF80400A0
:10104000012201A91B2001F063FA012201A91B2042
:1010500001F07FFABE2001F03BFA002414E00322E5
:1010600001A9082001F075FA01A801F04BF8054626
:10107000284603F0A9FD064632460B46AFF214306F
:1010800003F0AEFF601CC4B2142CE8DBAFF21030EA
:1010900003F0A6FFEAE0FFE7314938A0FFF7C9F9FE
:1010A000C8B94FF48051374801F0F5FC1220364999
:1010B0004870342088705620C87003220F2001F039
:1010C00027FA4FF480512F4801F0E3FCAFF2503083
:1010D00003F086FFCAE022492CA0FFF7AAF9C8B99D
:1010E0004FF48051274801F0D6FC032226490F20F7
:1010F00001F02FFA2448C078009023488378427882
:10110000017824A003F06CFF4FF480511D4801F0DA
:10111000C0FCABE01249AFF2E430FFF78AF930B916
:10112000642000F020FF20A003F05AFF9EE00C494D
:1011300020A0FFF77EF930B9002000F014FF1FA0B7
:1011400003F04EFF92E006491FA0FFF772F9F8BBCB
:10115000034800F087FFAFF2D83003F041FF85E08D
:10116000E0020020636F6E6669677572653100008A
:10117000636F6E66696775726530000077726974B7
:1011800065330000000C01400000002072656164BE
:1011900033000000726563656976653D25782578C2
:1011A000257825780D0A00006F75747075743130DC
:1011B000300D0A006F757470757431006F7574703E
:1011C0007574310D0A00000073706977000000002B
:1011D000FFE7304930A0FFF72CF938B92D4800F06F
:1011E000EBFEAFF2644003F0FBFE3FE029492CA088
:1011F000FFF71FF958B92748FFF7EBF88146484633
:1012000000F01FFE494628A003F0EAFE2EE0214927
:1012100029A0FFF70EF980B94FF4A56148F2430009
:1012200000F0E3FB0546284603F0CEFC06463246B6
:101230000B4622A003F0D4FE18E0164922A0FFF7C7
:10124000F8F880B94FF4A56148F2010000F0CDFB39
:101250000546284603F0B8FC064632460B4617A062
:1012600003F0BEFE02E019A003F0BAFE002404E081
:10127000002008490855601CC4B218480078844210
:10128000F6DD00201549087015A003F0A9FEBDE8A1
:10129000FC9F0000E00200207370697200000000F3
:1012A00063757272656E740043757272656E743721
:1012B0003D2564560D0A00004144320056783D2514
:1012C00066560D0A0000000041443100436F6D6D09
:1012D000616E645F4552520D0A0000000600002056
:1012E000405F400D0A00000010B50121084601F0E2
:1012F000DFFD0121042001F0DBFD49F67F10B2493A
:101300000880032088701020C870B04801F014FBDA
:101310008020AD490880032088701420C870AB4835
:1013200001F00AFB0121082001F0C2FD40F2FF306C
:10133000A5490880032088701020C870A44801F0D7
:10134000FBFA4FF48050A0490880032088701420D5
:10135000C8709F4801F0F0FA0121102001F0A8FDAB
:1013600043F2FF7098490880032088701020C870ED
:10137000984801F0E1FA4FF4006093490880032097
:1013800088701020C870934801F0D6FA10BD08B5D7
:101390004FF4E06001F002FA25208DF800000020F3
:1013A0008DF8020001208DF80300684601F0FBF97A
:1013B00026208DF8000001208DF802008DF8030032
:1013C000684601F0F0F927208DF8000002208DF822
:1013D000020001208DF80300684601F0E4F908BD21
:1013E0002DE9FF5F83468A46BBF1010F41D10221FF
:1013F000774801F050FB0121754801F04CFBBAF130
:10140000190F09D0BAF1320F11D0BAF1640F19D007
:10141000BAF1C80F2CD120E04FF480516B4801F095
:101420003AFB4FF40041694801F035FB20E04FF4EE
:101430008051664801F02FFB4FF40041634801F0F2
:1014400028FB15E04FF48051604801F022FB4FF477
:1014500000415E4801F01FFB0AE04FF480515B48F9
:1014600001F017FB4FF40041584801F012FB00BF98
:1014700000BFBBF1020F41D10221554801F00BFB27
:101480000121534801F005FBBAF1190F09D0BAF157
:10149000320F11D0BAF1640F19D0BAF1C80F2CD1A4
:1014A00020E04FF48071494801F0F5FA4FF40061F3
:1014B000464801F0F0FA20E04FF48071434801F013
:1014C000EAFA4FF40061414801F0E3FA15E04FF405
:1014D00080713E4801F0DDFA4FF400613B4801F0B5
:1014E000DAFA0AE04FF48071384801F0D2FA4FF48A
:1014F0000061364801F0CDFA00BF00BF4FF49951AA
:1015000048F2010000F071FA0390039803F05CFBCD
:1015100006460022304B03F03AFA00222F4BCDE969
:10152000000103F0A6FA044600222D4B03F029FA2D
:10153000804603F05CFB4FF08041029003F010F90D
:101540000390039803F040FB044622460B4625A077
:1015500003F046FDBAF1190F09D0BAF1320F10D0DD
:10156000BAF1640F17D0BAF1C80F28D11DE01F4996
:10157000039803F027F904461D4903F0F1F803909E
:101580001DE01C49039803F01DF90446184903F0B7
:10159000E7F8039013E01849039803F013F90446A1
:1015A000134903F0DDF8039009E01449039803F0B0
:1015B00009F904460E4903F0D3F8039000BF00BFB9
:1015C000039804B0BDE8F09FDA0000200008014055
:1015D000000C014000100140000004400000704178
:1015E0000000F43F56783D25660D0A000000C84112
:1015F00000007A44000048420000C842000048430E
:1016000028480068401C2749086027480068401C9B
:101610002549086025480068401C24490860244882
:101620000068401E2249086008460068002801DA68
:10163000002008601F480068401E1E4908601A48C4
:101640000068022802D20020174908601548006887
:10165000B0F5FA7F08D31848006880F0800016497A
:10166000086000200F490860704700BF011EA0F10C
:10167000010290B2FAD1704706E0042100BF0A1EB1
:10168000A1F1010399B2FAD1021EA0F1010398B2AF
:10169000F3D170470749086000BF0649096800296F
:1016A000FBD17047E8000020EC000020F000002093
:1016B000F4000020E40000200C0801400EB5F7A261
:1016C00007CA8DE8070009226946012000F014FBD3
:1016D0000EBD30B502460B460021FF2012E012F885
:1016E000014B604000210BE000F0800424B107248E
:1016F00084EA4004E0B201E04406200E4C1CE1B252
:101700000829F1DB1C1EA3F10105EBB2E7D130BDC6
:10171000F7B582B00026002500200090019000243B
:1017200000270298C0B28DF80000039D00BF07E0BB
:10173000E8B20499091B0DF801002D12601CC4B217
:101740000498A042F4D8D848007860B10498401CAE
:10175000C1B26846FFF7BDFF0746F843C1B204981F
:10176000401C0DF80010D048007810B10498801C7F
:1017700001E00498401CC2B26946012000F0BCFAA6
:101780000646304605B0F0BD10B5C8480C3007C855
:10179000FFF7BEFF0446002C01DA204610BDC34807
:1017A000183007C8FFF7B4FF0446002C01DA2046C2
:1017B000F4E70020BC490870BC483C3007C8FFF77C
:1017C000A7FF0446002C01DA2046E7E7B748816D01
:1017D000B7A003F005FCB548543007C8FFF798FFE1
:1017E0000446002C01DA2046D8E7B048603007C82C
:1017F000FFF78EFF0446002C01DA2046CEE7AB4807
:101800006C3007C8FFF784FF0446002C01DA20463D
:10181000C4E7A648783007C8FFF77AFF0446002CD3
:1018200001DA2046BAE7A1488030001D07C8FFF75B
:101830006FFF0446002C01DA2046AFE79B4880305A
:10184000103007C8FFF764FF0446002C01DA204679
:10185000A4E7964880301C3007C8FFF759FF0446BC
:10186000002C01DA204699E790488030283007C8DC
:10187000FFF74EFF0446002C01DA20468EE78B4826
:101880008030343007C8FFF743FF0446002C01DAEC
:10189000204683E785488030403007C8FFF738FF8F
:1018A0000446002C01DA204678E7804880304C302E
:1018B00007C8FFF72DFF0446002C01DA20466DE72C
:1018C0007A488030583007C8FFF722FF0446002CC2
:1018D00001DA204662E7204660E72DE9FC41044634
:1018E000002600200090019000250027207840F07D
:1018F00040008DF800006C48007810B1A068401CD2
:1019000000E0A068401CC2B26946012000F006FA5F
:101910000646002E02DA3046BDE8FC8162480078B7
:1019200060B1207A401CC1B20DF10100FFF7D1FE79
:101930000746F32F02D04FF0FF30EDE70020606044
:10194000012509E06068000260601DF8051060680C
:1019500008446060681CC5B2A068401CA842F1D869
:101960003046D9E770B5044600260BE04F48FFF734
:10197000B4FF0546002D01DA284670BD4B480079BA
:10198000C0F3C01616B9601E041EEFD10CB10020C2
:10199000F3E74FF0FF30F0E770B5054643483030CD
:1019A000FFF79BFF0446204670BD10B51021444848
:1019B00001F071F8FFF782FE0120FFF756FE3B4869
:1019C0004830FFF78AFF3948C16C3EA003F008FB9E
:1019D000FFF7DAFE44B2002C02DA3FA003F000FB6E
:1019E0001021374801F055F810BD2DE9F04F93B0A4
:1019F00006468946282108A802F04DFE00200790DF
:101A00000024002529488665C0F8889010212C48BC
:101A100001F041F82548543007C8FFF779FE234804
:101A20008030001D07C8FFF773FE00BF0AE01F48A3
:101A30003030FFF752FF1D48406B08A941F82400E1
:101A4000601C44B20A2CF2DB10211D4801F021F881
:101A500000241FE0092519E008A850F82510681E89
:101A600008AA52F8200081420EDD681E08A951F82C
:101A70002000079008A850F82510681E42F8201092
:101A800008A9079841F82500681E45B2A542E3DC85
:101A9000601C44B20A2CDDDB01242DE0FFFFFFFFB8
:101AA000FFFFFFFFFF00000048020020F8000020B9
:101AB0004D6170315F6461743D253034580D0A000A
:101AC00000080140414443373137355F49443D25E3
:101AD0003034580D0A000000496E69745F41443784
:101AE0003137355F4661696C0000000008A850F886
:101AF00024008244601C44B2092CF7DB504603F0FA
:101B00002CF807460022134602F09AFE0022254BCD
:101B1000CDE9020102F0ADFFCDE9040103F067F861
:101B20000690069803F050F807461F4A1F4B02F034
:101B30002EFF00221E4BCDE9000102F09AFF1A4A47
:101B40001C4BCDE9020102F01CFFCDE9040103F0BA
:101B50004EF883464FF0804102F002FE0690069850
:101B600013B0BDE8F08F70B504460D461248846589
:101B7000C0F888501021114800F08DFF0E485430F5
:101B800007C8FFF7C5FD0C488030001D07C8FFF7E8
:101B9000BFFD09483030FFF7A0FE1021074800F0D4
:101BA00078FF70BD00002040FCA9F1D24D621040CA
:101BB000000070414D620040F80000200008014024
:101BC00008B50121042001F073F903208DF802000B
:101BD0001020ADF800008DF803006946434800F07E
:101BE000ABFE1021414800F054FF0820ADF8000082
:101BF00010208DF8030069463C4800F09DFE082146
:101C00003A4800F048FF4020ADF8000004208DF86D
:101C100003006946354800F08FFE2020ADF8000033
:101C200010208DF803006946304800F085FE202121
:101C30002E4800F02EFF08BD70B50446002500BFF9
:101C400021E00821294800F024FF0120FFF70DFDC5
:101C50000821264800F01FFF04F0800020B1202159
:101C6000224800F016FF03E02021204800F013FF77
:101C70000120FFF7FAFC08211C4800F00AFF60066B
:101C8000040E681CC5B2082DDBDB0120FFF7EDFC5C
:101C900070BD70B50025002400BF1FE06006040E73
:101CA0000821124800F0F5FE0120FFF7DEFC0821B4
:101CB0000E4800F0F0FE0120FFF7D7FC08210B488A
:101CC00000F0E7FE0120FFF7D0FC4021074800F0BC
:101CD000C6FE08B144F00104681CC5B2082DDDDB66
:101CE0000120FFF7C2FC204670BD00000008014043
:101CF00010B50446012010BD2DE9F04107460D4600
:101D00001646002400BF04E0285DFFF795FF601C25
:101D1000C4B2B442F8DB0120BDE8F0812DE9F04106
:101D200007460C46164600252078FFF785FF01255B
:101D300004E0FFF7AEFF6055681CC5B2B542F8DBA2
:101D40000120BDE8F081000010B540F682404A490C
:101D50000880032088701020C870484800F0ECFD0F
:101D60004FF48061454800F094FE4FF40061434811
:101D700000F08FFE0221414800F08BFE10BD2DE9DE
:101D8000F04105460E4600270024A0464FF480612E
:101D90003A4800F07EFE4FF40061384800F07BFEC8
:101DA0000120FFF777FC344630E0281910F8017C59
:101DB0004FF0000825E04FF48061304800F069FEE4
:101DC0001E20FFF752FC07F08000802804D102217A
:101DD0002A4800F05EFE03E00221284800F05BFE86
:101DE0001E20FFF742FC4FF48061244800F053FEB0
:101DF0001E20FFF73AFC7806070E08F1010000F0FC
:101E0000FF08B8F1080FD6DB601EC4B2002CCCDC92
:101E10004FF48061194800F03CFE1E20FFF725FCBE
:101E20004FF40061154800F034FE1E20FFF71DFC42
:101E30000221124800F02DFE0120FFF72BFCBDE827
:101E4000F08138B50446C4EB044041F2883190FB80
:101E5000F1F085B200208DF80200E8B28DF80000A4
:101E600028128DF8010003216846FFF788FF2146FC
:101E700003A003F0B5F838BDDA000020000C0140E3
:101E80004144353636302053657420566F6C74618A
:101E900067652069733A2025640D0A0070B5044611
:101EA000002625464021414800F0F3FD0420FFF7BD
:101EB000DCFB20213D4800F0ECFD0420FFF7D5FBC2
:101EC00020213A4800F0E7FD0420FFF7CEFB00BFD9
:101ED0001CE005F4004020B18021344800F0D9FD19
:101EE00003E08021314800F0D6FD0520FFF7BDFB5F
:101EF00040212E4800F0CFFD0520FFF7B6FB402122
:101F00002A4800F0C6FD6D00701CC6B2102EE0DB42
:101F10002021264800F0BDFD70BD10B54FF40450DF
:101F2000FFF7BCFF4FF48040FFF7B8FF4FF480404D
:101F3000FFF7B4FF4FF42450FFF7B0FF4FF4004019
:101F4000FFF7ACFF4FF40040FFF7A8FF4FF440400D
:101F5000FFF7A4FF4FF47040FFF7A0FF4FF40050CD
:101F6000FFF79CFF10BD2DE9F05F8146484602F067
:101F700005FE07460E4A0F4B02F009FD054602F02A
:101F80000AFE0446C4F30D0040F4804AC4F38D30C9
:101F900040F4804B4FF40050FFF780FF5046FFF7AE
:101FA0007DFF5846FFF77AFFBDE8F09F000C014027
:101FB00048AFBC9AF2D73A402DE9F04395B081463C
:101FC0000026674F002405E0601D6549085C085540
:101FD000601CC4B263480078C01EA042F4DC02E07A
:101FE000701CC6B2002760A1384602F05FFB01A951
:101FF00041F826000028F3D14FF480515B4800F0EF
:102000004AFD10220021019802F072FBC5B2284659
:1020100000F02BFA10220021029802F069FBC5B2F1
:102020004FF48051514800F034FD0A20FFF71DFBAA
:102030004FF480514D4800F02EFD002408E000F0E0
:102040002CFA804641464AA002F0CAFF601CC4B286
:10205000AC42F4DB4FF48051444800F01AFD15B057
:10206000BDE8F0832DE9F04196B0804600263C4F54
:10207000002405E0601D3A49085C0855601CC4B2A4
:1020800038480078C01EA042F4DC02E0701CC6B2E2
:10209000002735A1384602F009FB01A941F82600C6
:1020A0000028F3D100251DE04FF480512F4800F0A7
:1020B000F2FC01A951F825001022002102F018FBC2
:1020C000C0B215909DF8540000F0CFF99DF854105F
:1020D00027A002F085FF4FF48051244800F0D9FC7E
:1020E000681CC5B2B542DFDB16B0BDE8F08120F058
:1020F0007F40B0F5000F02D30146C843401C20F0DA
:102100007F4070472DE9F04705462C782402687817
:1021100004432402A878044300BF2046FFF7E7FFEA
:102120000646B6F5000F0ED306EB460002F010FD92
:102130008146124902F014FB80464FF0964102F0AE
:1021400041FB074609E006EB460002F001FD804630
:102150004FF0964102F036FB07463846BDE8F0875F
:10216000E002002006000020202C0000000C0140AE
:10217000646174613D25780D0A000000000080BF95
:1021800008B54FF44060ADF8000014208DF803004E
:1021900003208DF802006946854800F0CDFB08BD9C
:1021A00010B54FF40060834908800420C8700320F4
:1021B00088707F4800F0C0FB10BD10B54FF4006080
:1021C0007C4908801420C87003208870784800F08B
:1021D000B3FB10BD10B5FFF7F0FF4FF4006074497A
:1021E000103108600420FFF740FA4FF48060704916
:1021F000103108600420FFF738FA4FF400606C4992
:10220000143108600420FFF730FA4FF48060684909
:102210001431086010BD10B5FFF7CFFF4FF4006018
:102220006349143108600420FFF71FFA4FF48060FF
:102230005F49103108600420FFF717FA4FF400607F
:102240005B49103108600420FFF70FFA10BD10B58C
:102250000024FFF7A5FF4FF4806055491031086056
:102260000420FFF702FA01E0601CC4B25248006883
:10227000012801D1FA2CF7DB4FF480604C4914316E
:1022800008600420FFF7F1F910BD10B5FFF795FFC6
:102290004FF400604649143108600420FFF7E5F967
:1022A0004FF480604249103108600420FFF7DDF9E7
:1022B0004FF480603E49143108600420FFF7D5F9DF
:1022C00010BD10B5FFF779FF4FF4006038491031A9
:1022D00008600420FFF7C9F94FF4806034491031D9
:1022E00008600420FFF7C1F94FF4806030491431D1
:1022F000086010BD70B50446FFF75FFF4FF48060C3
:102300002B4914310860002519E0E0092A490860CA
:102310006006040E0420FFF7A8F94FF480602449FA
:10232000103108600420FFF7A0F94FF480602049C5
:10233000143108600420FFF798F9681CC5B2082D15
:10234000E3DB70BD70B50025FFF72AFF00242AE00B
:102350004FF480601649143108600420FFF785F9B6
:102360004FF40060124910310860002417E04FF468
:1023700080600F49103108600420FFF776F90E489D
:102380008038006840EA4500C5B24FF480600849D3
:10239000143108600420FFF768F9601CC4B2082CEF
:1023A000E5DB601CC4B2082CD2DB284670BD0000FF
:1023B000000C0140DA000020AC81214200B587B05A
:1023C0000121082000F074FD0121880300F07DFD4B
:1023D0000121084600F06CFD4FF46040ADF8180094
:1023E00018208DF81B0003208DF81A0006A96A48F2
:1023F00000F0A2FA4FF48050ADF8180010208DF8CC
:102400001B0003208DF81A0006A9634800F094FA17
:102410004FF48051604800F03CFB4FF48270ADF8FF
:1024200006000020ADF804000720ADF814000020DD
:10243000ADF808004FF40070ADF80E002020ADF8A4
:1024400010000020ADF81200ADF80A00ADF80C0045
:102450000720ADF8140001A9504800F0B3FD012198
:102460004E4800F054FE07B000BD10B5044600BF52
:1024700002214A4800F0CFFE0028F9D02146474803
:1024800000F076FE00BF0121444800F0C4FE0028A1
:10249000F9D0424800F06EFE10BD10B500BF022119
:1024A0003E4800F0B8FE0028F9D0FF213B4800F07C
:1024B0005FFE0120FFF7E0F800BF0121374800F080
:1024C000AAFE0028F9D0354800F054FEC0B210BD75
:1024D00010B504464FF480512F4800F0DAFA02207C
:1024E000FFF7C3F84FF480512B4800F0D4FA204690
:1024F000FFF7BBFF4FF48051274800F0CCFA0220D1
:10250000FFF7B3F84FF48051234800F0C2FA10BD32
:102510002DE9F04105460E4617464FF480511E48FE
:1025200000F0B9FAC02040EA4500C5B22846FFF7DE
:102530009CFF002404E0305DFFF797FF601CC4B2ED
:10254000BC42F8DB4FF48051134800F0A2FABDE81A
:10255000F0812DE9F04105460E4617464FF48051B3
:102560000D4800F098FAC02040EA4500401C00F0F9
:10257000FF084046FFF779FF002404E0FFF78DFFD6
:102580003055601CC4B2BC42F8DB4FF480510248A5
:1025900000F07FFABDE8F081000C014000380040F7
:1025A0007FB505460C460121022000F08EFCADF8F7
:1025B0000850ADF804400020ADF80A00ADF8060060
:1025C00001A91B4800F032FF01221146184801F012
:1025D000A4FA4FF4E06000F0E1F81D208DF800004F
:1025E00000208DF8010003208DF8020001208DF8F5
:1025F0000300684600F0D7F801210D4801F072FA97
:102600000CA002F0EDFC7FBD10B50121084801F0DF
:1026100032FD48B10121064801F03EFD074800683F
:1026200080F480500549086005A002F0D9FC10BD77
:102630000004004062620D0A000000000C0C014022
:1026400061610D0A0000000010B5FFF799FD10BD93
:102650002DE9F04104460025FFF7BCFD9220FFF76D
:1026600049FEFFF7F4FDE0B2FFF744FEFFF7EFFD90
:10267000FFF7D1FD3220FFF70DF8FFF7ABFD9320F8
:10268000FFF738FEFFF7E3FDFFF75CFE0646FFF7B6
:10269000FCFDFFF757FE0746FFF7F7FD4FF6FF700B
:1026A00000EA062646EA07052D09FFF7B4FD0A20D1
:1026B000FEF7F0FF2846BDE8F08170B504460D46F0
:1026C0001646FFF787FD9220FFF714FEFFF7BFFDC8
:1026D000E0B2FFF70FFEFFF7BAFDE8B2FFF70AFE20
:1026E000FFF7B5FDF0B2FFF705FEFFF7B0FDFFF70E
:1026F00092FD0A20FEF7CEFF70BD00F40062B2F535
:10270000006F02D10146C843401C70472DE9F04FCD
:1027100087B0824600200490A02278210120FFF794
:10272000CCFF0A20FEF7B6FF4FF0000B25E000209B
:10273000FFF78EFF05900598FFF7DFFF05900598DE
:1027400002F006FA019002F03FFA0022124BCDE9A6
:10275000020102F01CF904460D46049802F034FA16
:10276000064622462B4602F06BF8804602F03FFAFE
:1027700004900BF1010000F0FF0BD345D7DB50466E
:1027800002F0E6F904462146049802F01BF8049092
:10279000049807B0BDE8F08F0000B03F3149014315
:1027A000314A1160704770B5002100230F22C478B0
:1027B00004B32D4C246804F4E064C4F5E064210AF9
:1027C000C1F10403CA40447804FA03F18478144048
:1027D00021430901254C0678A155047804F01F0512
:1027E0000124AC4005786D11AD0005F1E025C5F878
:1027F000004109E0047804F01F050124AC401C4DA1
:102800000678761145F8264070BD1A4A0A40024300
:10281000154B1B1F1A60704739B1134A121D1268FD
:102820000243114B1B1D1A6006E00F4A121D12686D
:1028300082430D4B1B1D1A607047042808D14FF0CE
:10284000E021096941F004014FF0E022116107E045
:102850004FF0E021096921F004014FF0E0221161FD
:10286000704700000000FA050CED00E000E400E015
:1028700080E100E080FFFF1F10B50446CC48844291
:1028800008D10121042000F02DFB0021042000F0DC
:1028900029FB46E0C748844208D10121082000F006
:1028A00021FB0021082000F01DFB3AE0C2488442D1
:1028B00008D10121102000F015FB0021102000F0AC
:1028C00011FB2EE0BD48844208D10121202000F0F8
:1028D00009FB0021202000F005FB22E0B8488442DB
:1028E00008D10121402000F0FDFA0021402000F035
:1028F000F9FA16E0B348844208D10121802000F0A3
:10290000F1FA0021802000F0EDFA0AE0AE4884429E
:1029100007D10121801500F0E5FA0021A01500F093
:10292000E1FA10BD10B50121084600F0DBFA0021E4
:10293000012000F0D7FA10BD2DE9F0410246002534
:102940000026002000230024002791F803C00CF08B
:102950000F0591F803C00CF0100CBCF1000F03D070
:1029600091F802C04CEA050591F800C0BCF1000FD7
:1029700031D0146800202BE04FF0010C0CFA00F36A
:10298000B1F800C00CEA03069E4220D183004FF04C
:102990000F0C0CFA03F7BC4305FA03FC4CEA0404E1
:1029A00091F803C0BCF1280F06D14FF0010C0CFACE
:1029B00000FCC2F814C00AE091F803C0BCF1480F53
:1029C00005D14FF0010C0CFA00FCC2F810C0401CFD
:1029D0000828D1D31460B1F800C0BCF1FF0F34DD7A
:1029E000546800202EE000F1080C4FF0010808FAAE
:1029F0000CF3B1F800C00CEA03069E4221D183001B
:102A00004FF00F0C0CFA03F7BC4305FA03FC4CEA39
:102A1000040491F803C0BCF1280F05D100F1080CA3
:102A200008FA0CF8C2F8148091F803C0BCF1480F02
:102A300007D100F1080C4FF0010808FA0CF8C2F8B1
:102A40001080401C0828CED35460BDE8F0814FF6BA
:102A5000FF710180022181700421C170704702461C
:102A6000002093680B400BB1012000E0002070476C
:102A70000146886880B2704702460020D3680B4048
:102A80000BB1012000E0002070470146C86880B209
:102A9000704701617047416170470AB1016100E010
:102AA00041617047C16070474FF480320A438261D0
:102AB0008161826182698269704702460020434BCE
:102AC00018684FF68073184040EA021008433F4BE5
:102AD000186070473E49C8617047F0B50A46002348
:102AE00000240021002500F00046B6F1004F02D17D
:102AF000364EF16901E0354E7168C0F3034583B28B
:102B000000F44016B6F5401F08D121F070612F4E39
:102B1000766826F070662D4F7E6012E000F4801615
:102B2000B6F5801F06D1032606FA05F4A14341F04D
:102B3000706106E0460D360103FA06F6B14341F036
:102B4000706122B1460D360103FA06F6314300F0FA
:102B50000046B6F1004F02D11C4EF16101E01B4E60
:102B60007160F0BD30B500228B071C0F0F2303FAF4
:102B700004F2164B08338C1053F824309343134C53
:102B800008348D1044F8253023468C1053F8243037
:102B90008C07240F00FA04F423430C4C08348D10E6
:102BA00044F8253030BD0A49DC3108607047000028
:102BB00000080140000C01400010014000140140D9
:102BC00000180140001C01400020014000000140AD
:102BD00000002042DF48006840F00100DD49086045
:102BE00008464068DC490840DA4948600846006801
:102BF000DA490840D74908600846006820F4802078
:102C000008600846406820F4FE0048604FF41F004A
:102C100088607047CF49096821F48031CD4A11603E
:102C20001146096821F480211160B0F5803F03D07E
:102C3000B0F5802F0ED106E0C649096841F4803115
:102C4000C44A116007E0C349096841F4A021C14AA0
:102C5000116000E000BF00BF704710B501460022C0
:102C6000002300204A11012A02D1BA4C236806E051
:102C7000022A02D1B74C236A01E0B64C636A01F024
:102C80001F02012494401C400CB1012000E00020F0
:102C900010BD38B5002000900024002500BF312071
:102CA000FFF7DBFF05460098401C00900098B0F548
:102CB000A06F01D0002DF2D03120FFF7CEFF08B178
:102CC000012400E00024204638BD01460020A14A2E
:102CD000106820F0F80040EAC10010607047A04979
:102CE00008607047024600209A4B586820F47C1018
:102CF00042EA01031843974B5860704798490866A9
:102D0000704701460020934A506820F003000843B2
:102D1000506070478F48406800F00C0070470146D3
:102D200000208C4A506820F0F00008435060704743
:102D300001460020874A506820F4E0600843506054
:102D4000704701460020834A506820F4605040EAF2
:102D5000C1005060704729B17E4A527A02437D4BD0
:102D60005A7204E07B4A527A82437A4B5A72704715
:102D70007B49D8310860704701460020754A506889
:102D800020F440400843506070470021714A2032CF
:102D90001170704A82F82010012802D004280AD14C
:102DA00004E001216B4A2032117005E00521694AD7
:102DB0002032117000E000BF00BF70476949086011
:102DC00070476449096A0143624A11627047654964
:102DD00044390860704730B50021002200240023E8
:102DE0005C4D6D6805F00C0121B1042905D008295E
:102DF00023D105E05C4D056022E05B4D05601FE0DE
:102E0000544D6D6805F47012524D6D6805F48034B0
:102E1000022505EB92421CB9544D554305600BE069
:102E20004C4D6D6805F400351DB1504D554305609E
:102E300002E04D4D5543056002E04B4D056000BF7B
:102E400000BF444D6D6805F0F0010909484D6B5C09
:102E50000568DD4045603F4D6D6805F4E061090A95
:102E6000434D6B5C4568DD4085603A4D6D6805F407
:102E70006051C90A3E4D6B5C4568DD40C560354D0B
:102E80006D6805F44041890B3A4D6B5CC568B5FB34
:102E9000F3F5056130BD29B12E4A526902432D4B2D
:102EA0005A6104E02B4A526982432A4B5A617047A7
:102EB00029B1284A92690243264B9A6104E0254AC7
:102EC00092698243234B9A61704729B1214AD269A2
:102ED0000243204BDA6104E01E4AD26982431D4B53
:102EE000DA61704729B11B4AD2680243194BDA6094
:102EF00004E0184AD2688243164BDA60704729B161
:102F0000144A12690243134B1A6104E0114A126910
:102F10008243104B1A61704712494039086070476C
:102F20000F49C86470470B49C87170470948406A27
:102F300040F0807007494862704701460020054A0A
:102F400092680A400AB1012000E000207047014960
:102F500088727047001002400000FFF8FFFFF6FE85
:102F6000000042428004424200127A0000093D0003
:102F7000490200205902002010B50446BE48844290
:102F800008D101218014FFF7ADFF0021A014FFF745
:102F9000A9FF16E0B948844208D101210014FFF7C7
:102FA000AEFF00212014FFF7AAFF0AE0B4488442D4
:102FB00007D10121C013FFF7A2FF0021E013FFF7A3
:102FC0009EFF10BD10B50022028802F441520B880A
:102FD0004C8823438C882343CC8823430C89234388
:102FE0004C8923438C892343CC8923431A43028091
:102FF000838B4FF2FF74234083830B8A038210BDBF
:103000002DE9F04F85B005460C464FF00009022728
:103010004FF000084FF0010B0026B246A88B4FF28C
:1030200040010840A88302202884B5F81C90A068BD
:10303000022801D100BF38E0A08810B94FF0010B81
:1030400001E04FF0020B8D48854200D100E000BF47
:103050006846FFF7C0FEDDF800A0E088B0F5007F0D
:103060000AD14FEA1A2000EB80004000A168B0FBB3
:10307000F1F0401D86B20BE04FEA4B10BAFBF0F0C6
:1030800000EB80004000A168B0FBF1F0401D86B26B
:103090000A20B6FBF0F606F00108A6EB0800C0F324
:1030A0004F074FF6FF7000EA0828022F01DBFF2FC1
:1030B00002DD02274FF00008E08840EA08003843AC
:1030C0002884A088A189084361880843218808438F
:1030D00040F4006040EA0909A5F81C9005B0BDE87D
:1030E000F08F0021018041808180C1800181418178
:1030F0008181C181072101827047002101804180C7
:103100008180C1800221816000218181704721B1CD
:10311000028842F04002028004E002884FF6BF734A
:103120001A400280704721B1828B42F48062828310
:1031300004E0828B4FF6FF331A408283704730B52C
:10314000002400230C110125A540ABB21AB18588DB
:103150001D43858002E085889D43858030BD1AB17E
:1031600083880B43838002E083888B43838070478E
:10317000818170470146888970474FF6FF6291420E
:1031800004D0028842F48072028004E002884FF684
:10319000FF631A400280704721B1828842F0040226
:1031A000828004E082884FF6FB731A408280704769
:1031B00002884FF2FF731A40028002880A4302809D
:1031C0007047018841F480510180704721B1028825
:1031D00042F40052028004E002884DF6FF731A4068
:1031E0000280704702460020012901D0108B00E0C8
:1031F000908A70470146088A7047B1F5804F04D124
:10320000028842F48042028004E002884BF6FF7399
:103210001A40028070470246002013890B400BB110
:10322000012000E000207047CA4302817047F0B5DA
:103230000246002000240023002501F00F0701268C
:10324000BE40B4B20B1101269E40B3B2968806EA86
:1032500003051689264016B10DB1012000E00020BB
:10326000F0BD10B5002201F00F040123A3409AB273
:10327000D343038110BD00000030014000380040FE
:10328000003C004010B50446FE48844208D10121AC
:10329000C014FFF727FE0021E014FFF723FEC4E06F
:1032A000B4F1804F08D101210846FFF728FE002124
:1032B0000120FFF724FEB8E0F348844208D1012141
:1032C0000220FFF71CFE00210220FFF718FEACE0F1
:1032D000EE48844208D101210420FFF710FE0021AE
:1032E0000420FFF70CFEA0E0E948844208D1012148
:1032F0000820FFF704FE00210820FFF700FE94E0FD
:10330000E448844208D101211020FFF7F8FD002194
:103310001020FFF7F4FD88E0DF48844208D1012146
:103320002020FFF7ECFD00212020FFF7E8FD7CE0E6
:10333000DA48844208D101214014FFF7D3FD00216F
:103340006014FFF7CFFD70E0D548844209D1012118
:10335000C804FFF7C7FD00214FF40020FFF7C2FDAE
:1033600063E0D048844209D101210805FFF7BAFD86
:1033700000214FF48010FFF7B5FD56E0CA488442A3
:1033800009D101214805FFF7ADFD00214FF40010E0
:10339000FFF7A8FD49E0C548844208D1012140203B
:1033A000FFF7ADFD00214020FFF7A9FD3DE0C0483B
:1033B000844208D101218020FFF7A1FD0021802057
:1033C000FFF79DFD31E0BB48844208D10121801503
:1033D000FFF795FD0021A015FFF791FD25E0B64808
:1033E000844209D101210804FFF77CFD00214FF43C
:1033F0008030FFF777FD18E0B048844209D1012101
:103400004804FFF76FFD00214FF40030FFF76AFD1D
:103410000BE0AB48844208D101218804FFF762FD2C
:1034200000214FF48020FFF75DFD10BD00220288CF
:10343000944B98420ED0994B98420BD0B0F1804FEC
:1034400008D0914B984205D0904B984202D0904BB7
:10345000984204D14FF68F731A404B881A438D4B14
:10346000984207D08C4B984204D04FF6FF431A4045
:10347000CB881A4302808B8883850B880385814B18
:1034800098420BD0854B984208D08B4B984205D080
:103490008A4B984202D08A4B984201D10B7A03861C
:1034A00001238382704770B5002400220023058C1D
:1034B0004FF6FE7635400584028C8388048B4FF6E8
:1034C0008F752C40B51E2C400D882C43751E2A404C
:1034D0000D892A434D882A436A4DA8420BD06F4D6F
:1034E000A84208D0744DA84205D0744DA84202D01D
:1034F000734DA84213D14FF6F7752A404D892A43E0
:103500004FF6FB752A408D882A434FF6FF652B4006
:103510004FF6FF552B408D892B43CD892B4383805C
:103520000483CD888586028470BD70B50024002296
:103530000023058C4FF6EF7635400584028C838896
:10354000048B48F6FF752C404FF6FF452C400D8844
:103550004FF6FF7606EA05252C434FF6DF752A4025
:103560000D8906EA05152A434D8806EA05152A4302
:10357000444DA84202D0494DA8421DD14FF67F7557
:103580002A404D894FF6FF7606EA05152A434FF685
:10359000BF752A408D8806EA05152A434FF6FF3588
:1035A0002B404FF2FF752B408D8906EA85052B4392
:1035B000CD8906EA85052B4383800483CD88058762
:1035C000028470BD70B5002400220023058C4FF6E4
:1035D000FF6635400584028C8388848B4FF68F7597
:1035E0002C404FF6FC752C400D882C434FF6FF55B0
:1035F0002A400D894FF6FF7606EA05252A434D88B5
:1036000006EA05252A431F4DA84202D0234DA842B1
:103610001DD14FF2FF752A404D894FF6FF7606EA1D
:1036200005252A434FF6FF352A408D8806EA0525F1
:103630002A434EF6FF752B404DF6FF752B408D89C2
:1036400006EA05152B43CD8906EA05152B43838031
:103650008483CD888587028470BD70B500220023E5
:103660000024058C4EF6FF7635400584038C848853
:10367000828B48F6FF752A404FF6FF452A400D8899
:1036800020E00000002C0140000400400008004041
:10369000000C0040001000400014004000340140C5
:1036A000004C01400050014000540140001800400F
:1036B000001C004000200040004001400044014048
:1036C000004801404FF6FF7606EA05252A434DF6ED
:1036D000FF752B400D8906EA05352B434D8806EA18
:1036E00005352B43FA4DA84202D0FA4DA84208D125
:1036F0004BF6FF752C408D894FF6FF7606EA85154F
:103700002C4384808283CD88A0F84050038470BD10
:10371000828B4FF2FF331A408283828B4FF6FF7306
:1037200003EA01231A4382837047F0B50C4615461D
:10373000002200210026078C4EF6FF7C07EA0C07CA
:103740000784828B018C4FF6FF7707EA043640F638
:10375000FF473A404FF6FF7707EA05273A434FF60F
:10376000FF7707EA03373A43D94FB8420ED0D94F13
:10377000B8420BD0B0F1804F08D0D74FB84205D037
:10378000D64FB84202D0D64FB84206D14DF6FF7799
:10379000394046F48057394305E047F6FF57394032
:1037A00044F48057394382830184F0BD828B4FF605
:1037B000F3731A408283828B0A4382837047F0B589
:1037C0000C461546002200210026078C4FF6FF6CA0
:1037D00007EA0C070784828B018C4FF6FF7707EA14
:1037E00004264FF60C773A404FF6FF7707EA0317A7
:1037F0002F433A43B64FB8420ED0B64FB8420BD023
:10380000B0F1804F08D0B44FB84205D0B34FB842A2
:1038100002D0B34FB84206D14FF6FF57394046F4B5
:103820008077394305E04FF2FF57394044F4807701
:10383000394382830184F0BD028B4FF2FF331A407B
:103840000283028B4FF6FF7303EA01231A430283BC
:103850007047F0B50C461546002200210026078C63
:103860004FF6EF7C07EA0C070784028B018C4FF6BA
:10387000FF7707EA041640F6FF473A404FF6FF7716
:1038800007EA03373A434FF6FF7707EA05273A433B
:103890008F4FB8420ED08F4FB8420BD0B0F1804F4F
:1038A00008D08D4FB84205D08C4FB84202D08C4F13
:1038B000B84206D14FF6DF77394046F0100739435A
:1038C00005E04FF65F77394044F010073943028333
:1038D0000184F0BD028B4FF6F3731A400283028B12
:1038E0000A4302837047F0B50C46154600220021BA
:1038F000068C4FF6FE773E400684028B018C4FF615
:103900000C7632407E1C06EA03162E433243704E7C
:10391000B0420ED06F4EB0420BD0B0F1804F08D005
:103920006D4EB04205D06D4EB04202D06C4EB042EA
:1039300006D14FF6FD76314044F00106314305E0F3
:103940004FF6F576314044F001063143028301849D
:10395000F0BD70B505460C465D4885420ED05D4809
:1039600085420BD0B5F1804F08D05B48854205D029
:103970005A48854202D05A48854200D100E000BF33
:10398000208850B92389A28861882846FFF7ABFFB9
:10399000E1882846FFF79EFF25E0208804280AD109
:1039A0002389A28861882846FFF753FFE1882846CB
:1039B000FFF742FF17E0208808280AD12389A28850
:1039C00061882846FFF7FBFEE1882846FFF7EEFEF8
:1039D00009E02389A28861882846FFF7A6FEE188CE
:1039E0002846FFF795FE70BD2DE9F04105460C46CF
:1039F00000260127608808B9022600E00026A0887A
:103A0000012801D1022700E001272088A0B92389DD
:103A1000A28861882846FFF766FFE1882846FFF7FD
:103A200059FF23893A4631462846FFF712FFE188BD
:103A30002846FFF701FF13E02389A2886188284602
:103A4000FFF707FFE1882846FFF7F6FE23893A468D
:103A500031462846FFF747FFE1882846FFF73AFF3F
:103A6000BDE8F0810A884B881A438B881A43CB88BB
:103A70001A430B891A434B891A438B891A43A0F8BE
:103A8000442070474FF6FF71818000210180C18082
:103A90004180017270470021018041808180C18096
:103AA000018141818181C181704700210180418074
:103AB000012181800021C1800181704700210180A6
:103AC00041808180C18001814181818170470000F6
:103AD000002C014000340140000400400008004078
:103AE000000C004021B1028842F00102028004E093
:103AF00002884FF6FE731A400280704731B1B0F869
:103B0000442042F40042A0F8442005E0B0F84420EC
:103B1000C2F30E02A0F8442070471AB183890B4308
:103B2000838102E083898B43838170478182704760
:103B300041EA0203A0F8483070471AB183890B4369
:103B4000838102E083898B438381704701894FF62B
:103B5000F8721140018170470A46002101894FF631
:103B60008F73194011430181704730B504460D46EB
:103B700029462046FFF7F0FF208940F0070020810A
:103B800030BD2DE9F04104460D4616461F46602D16
:103B900006D13B46012231462046FFF75AFE05E09A
:103BA0003B46012231462046FFF79DFE294620462E
:103BB000FFF7D2FF208940F007002081BDE8F081A7
:103BC00030B50C4600210189C9B24FF6FF7505EAF0
:103BD0000325154325432943018130BD2DE9F041DB
:103BE00005460E4617469846002443463A46314657
:103BF0002846FFF7E5FF2C894FF6F870044044F0A3
:103C000007044FF68F70044044F070042C81BDE827
:103C1000F081F0B504460D4616461F463B46324637
:103C200029462046FFF7CCFF208940F480402081C0
:103C3000F0BD0185828270470A46002101884FF657
:103C40008F731940114301807047F0B50C4615463B
:103C50001E460021002200230189028B038C4FF6AF
:103C6000F877394021434FF6FC473A4040F20117BC
:103C70003A434FF6DD773B404FF6FF7707EA0617EA
:103C80002F433B43018102830384F0BD0A46002198
:103C9000018B4FF68F7319401143018370470A4619
:103CA0000021018B48F6FF7319404FF6FF7303EABA
:103CB00002231943018370470A460021818B4FF686
:103CC0008F7319401143818370470A460021818B0D
:103CD00048F6FF7319404FF6FF7303EA02231943B6
:103CE0008183704721B1028842F08002028004E0A3
:103CF00002884FF67F731A400280704721B1828894
:103D000042F00402828004E082884FF6FB731A407E
:103D10008280704721B1828842F00802828004E0EC
:103D200082884FF6F7731A408280704721B18288EB
:103D300042F00102828004E082884FF6FE731A404E
:103D4000828070470A460021018B4FF6F7731940B5
:103D50001143018370470A460021018B4FF2FF7324
:103D600019404FF6FF7303EA02231943018370479A
:103D70000A460021818B4FF6F77319401143818366
:103D800070470A460021818B4FF2FF7319404FF6AE
:103D9000FF7303EA02231943818370470A46002117
:103DA000018B4FF6FB7319401143018370470A469C
:103DB0000021018B4FF6FF3319404FF6FF7303EAE2
:103DC00002231943018370470A460021818B4FF675
:103DD000FB7319401143818370470A460021818B90
:103DE0004FF6FF3319404FF6FF7303EA02231943DE
:103DF000818370470A460021018B4FF67F7319407B
:103E00001143018370470A460021018BC1F30E0163
:103E10004FF6FF7303EA02231943018370470A46F2
:103E20000021818B4FF67F731940114381837047C6
:103E30000A460021818BC1F30E014FF6FF7303EA9E
:103E400002231943818370470A460021018C4FF6F3
:103E5000FD7319401143018470470A460021018C0B
:103E60004FF6F77319401143018470470A46002149
:103E7000018C4FF6DF7319404FF6FF7303EA02130C
:103E80001943018470470A460021018C4FF67F7365
:103E900019404FF6FF7303EA021319430184704778
:103EA0000A460021018C4FF6FF5319404FF6FF736D
:103EB00003EA02231943018470470A460021018C5A
:103EC0004FF2FF7319404FF6FF7303EA02231943C1
:103ED000018470470A460021018C4DF6FF7319409A
:103EE0004FF6FF7303EA023319430184704730B57C
:103EF000002301248C40A3B2048C9C430484048CD2
:103F000002FA01F5ADB22C43048430BD30B5002374
:103F100004248C40A3B2048C9C430484048C02FAD5
:103F200001F5ADB22C43048430BD70B503460020CA
:103F300000241846183001258D40ACB21D8CA543D5
:103F40001D8409B1082909D100EB6100056825F03D
:103F5000700505600568154305600EE00D1FC5F38B
:103F60004E052844056825F4E045056005684FF6D0
:103F7000FF7606EA02263543056070BD21B102884E
:103F800042F00202028004E002884FF6FD731A40FC
:103F90000280704721B1028842F00402028004E0EE
:103FA00002884FF6FB731A400280704721B1828865
:103FB00042F08002828004E082884FF67F731A40CC
:103FC0008280704702884FF6F7731A400280028899
:103FD0000A430280704782884FF68F731A408280AE
:103FE00082880A438280704702894FF6F8731A402C
:103FF000028102890A430281704702894FF67F736A
:104000001A40028102890A43028170478184704705
:104010008185704781867047018770478187704727
:10402000A0F84010704702884FF6FF431A40028004
:1040300002880A43028070470146888E7047014615
:10404000088F70470146888F70470146B1F84000DD
:1040500070470146888C70470146088D70470246BC
:104060000020138A0B400BB1012000E000207047B4
:10407000CA430282704730B5024600200023002464
:10408000158A05EA0103958905EA010413B10CB10B
:10409000012000E0002030BDCA43028270470000CA
:1040A00010B50446FB48844209D101218803FEF77C
:1040B00019FF00214FF48040FEF714FF32E0F6486C
:1040C000844209D101214804FEF719FF00214FF471
:1040D0000030FEF714FF25E0F048844209D10121A9
:1040E0008804FEF70CFF00214FF48020FEF707FF45
:1040F00018E0EB48844209D10121C804FEF7FFFE15
:1041000000214FF40020FEF7FAFE0BE0E548844260
:1041100008D101210805FEF7F2FE00214FF48010BE
:10412000FEF7EDFE10BD2DE9F04786B005460E46C0
:104130000024A24600BFA1460027B08900B100BFFD
:104140002F462C8A4CF6FF700440F08804432C82E2
:10415000AC894EF6F3100440B08831890843718968
:1041600008430443AC81AC8A4FF6FF400440B08959
:104170000443AC8201A8FEF72EFEC648874202D156
:10418000DDF810A001E0DDF80CA0A88900F40040E3
:1041900040B10AEBCA0000EB0A1031684900B0FBDD
:1041A000F1F807E00AEBCA0000EB0A103168890059
:1041B000B0FBF1F86420B8FBF0F0040120096421A1
:1041C00001FB1089A88900F4004040B1322000EBC7
:1041D000C900B0FBF1F000F00700044308E0322012
:1041E00000EB09106421B0FBF1F000F00F00044374
:1041F0002C8106B0BDE8F0874FF416510160002114
:104200008180C18001810C21418100218181704721
:1042100010B502460020108A4FF2FF0318400B88A9
:104220004C8823438C882343CC8823431843108233
:1042300010BD0021018041808180C180704721B183
:10424000828942F40052828104E082894DF6FF7334
:104250001A4082817047F0B50346002400260025ED
:10426000002040F66A17B94200D100BF1846C1F3DA
:10427000421401F01F06012707FA06F5012C01D1AF
:104280000C3004E0022C01D1103000E014301AB1DF
:1042900007682F43076002E00768AF430760F0BD7F
:1042A0001AB1838A0B43838202E0838A8B43838221
:1042B0007047028A4FF6F0731A400282028A0A435C
:1042C0000282704782894FF2FF731A40828182898D
:1042D0000A438281704721B1828942F002028281C1
:1042E00004E082894FF6FD731A4082817047028A8A
:1042F0004FF6DF731A400282028A0A430282704735
:1043000021B1028A42F48042028204E0028A4BF622
:10431000FF731A4002827047C1F30802828070471F
:1043200001468888C0F308007047818941F0010187
:1043300081817047028BD2B20283028B42EA012252
:1043400002837047028B02F47F420283028B0A438E
:104350000283704721B1828A42F02002828204E007
:10436000828A4FF6DF731A408282704721B1828AB7
:1043700042F01002828204E0828A4FF6EF731A4004
:104380008282704721B1828A42F00802828204E070
:10439000828A4FF6F7731A408282704721B1828970
:1043A00042F40042828103E08289C2F30E028281DC
:1043B000704721B1828A42F40062828204E0828ADC
:1043C0004FF2FF731A4082827047828A4FF6FB7366
:1043D0001A408282828A0A438282704721B1828A8D
:1043E00042F00202828204E0828A4FF6FD731A4094
:1043F0008282704702460020B1F5007F00D100BFE5
:1044000013880B400BB1012000E00020704701F43D
:104410000072B2F5007F00D100BFCA43028070472E
:1044200070B50246002400230025002040F66A16DD
:10443000B14200D100BFC1F3421501F01F030126B4
:1044400006FA03F3012D02D19689334006E0022DCE
:1044500002D1168A334001E0968A33400C120126BD
:1044600006FA04F41688344013B10CB1012000E0C0
:10447000002070BD10B50022002340F66A14A1424E
:1044800000D100BF0A1201249440A3B2DC4304808F
:1044900010BD0000003801400044004000480040CA
:1044A000004C0040005000400CB5002001900090EE
:1044B0006C48006840F480306A49086000BF694871
:1044C000006800F4003000900198401C01900098B2
:1044D00018B90198B0F5A06FF1D16248006800F4F6
:1044E000003010B10120009001E000200090009801
:1044F000012843D15C48006840F010005A49086028
:104500000846006820F0030008600846006840F094
:1045100002000860534840685249486008464068B5
:1045200048600846406840F480604860084640683B
:1045300020F47C1048600846406840F4E810486069
:104540000846006840F08070086000BF4548006879
:1045500000F000700028F9D04248406820F00300C5
:10456000404948600846406840F00200486000BF8B
:104570003C48406800F00C000828F9D10CBD10B58B
:10458000FFF792FF10BD10B53648006840F00100FB
:104590003449086008464068344908403149486059
:1045A00008460068324908402E49086008460068FD
:1045B00020F4802008600846406820F4FE0048602F
:1045C0004FF41F008860FFF7DAFF4FF000602949C1
:1045D000086010BD10B5002100200022214B5B684F
:1045E00003F00C0121B1042906D0082928D107E0E5
:1045F000214B224C236027E01F4B204C236023E0FB
:10460000184B5B6803F47010164B5B6803F4803240
:10461000022303EB904022B9194B4343174C23600C
:104620000DE0104B5B6803F4003323B1144B43439C
:10463000124C236003E0104B4343104C236003E013
:104640000D4B0E4C236000BF00BF064B5B68C3F3ED
:1046500003130C4CE15C094B1B68CB40074C2360F7
:1046600010BD000000100240002002400000FFF8D2
:10467000FFFFF6FE08ED00E000127A006002002065
:1046800000093D0064020020D2B201E000F8012BD5
:10469000491EFBD270470022F6E710B513460A46C2
:1046A00004461946FFF7F0FF204610BD70B50F4DC8
:1046B00000B92868002412E00A4602E09E4203D0B6
:1046C000521C1378002BF9D1DAB2224305D02BB15A
:1046D00024B1002100F8011B04E00446401C0678C8
:1046E000002EE9D12860204670BD00007402002031
:1046F0002DE9F04791460F4680460446002614F8FF
:10470000015B2DB100F008FB0068405DC007F6D1E9
:104710002B2D02D02D2D18D0641E4A463946204636
:1047200000F0FEFA27B13968A14201D1C7F8008034
:1047300071054FF002040BD54042002803DD00F064
:104740005FFC0460A007BDE8F08746F48066E4E7FC
:104750000028F8DA00F054FC04606FF00040F2E743
:1047600080EA010210B502F00043400022D04A0066
:104770001FD0010E01EB1261C0F35600C2F35602C6
:1047800040F4000042F40002A0FB022000047F3944
:10479000140400D0401C50EA124001D44000491ECD
:1047A000C2B20C0604EBD010401C4008802A02D094
:1047B00003E0002010BD20F00100002900DA0020F5
:1047C000184310BD30B480EA010202F0004530F019
:1047D000004221F0004013D090B1C30DD40DC2F3BC
:1047E0001601C0F31600E41A41F4000140F400027F
:1047F0007D34914201D3641C00E04900002C02DAB0
:1048000030BC002070474FF400000023914201D3D8
:10481000891A034340084FEA4101F7D151B191424F
:1048200002D14FF0004105E002D24FF0010101E05A
:104830006FF0010103EBC450284430BC00F0BFBA54
:104840002DE9FE4F804681EA0300C00F0C46009020
:1048500021F0004123F00045B8EB0200A94105D248
:104860004046214690461C460B46024623F0004037
:10487000104347D0270DC7F30A00C3F30A51029033
:10488000401A019040286BDAC3F3130040F4801BF8
:104890000098924620B10023D2EB030A63EB0B0B86
:1048A00001985946C0F14002504600F003FA06460E
:1048B0000D4650465946019A00F01BFA10EB0800CD
:1048C0006141002487EA115284EAE7731A4340D019
:1048D000009A62B3019A012A4FEA075215DC001BC5
:1048E00061EB02014FF0004202EA0752CDE90042BB
:1048F000001C41F5801132462B4600F0A6FA03B0A9
:10490000BDE8F08F40462146F9E7001B61EB02014C
:10491000001C41F5801300185B412018A2F5001718
:1049200047EB030140EAD570B6196D4111E06D08FF
:104930004FEA360645EAC0754FEA0752001B61EBA5
:104940000201001C41F5801149084FEA30000019AE
:10495000514132462B4603B0BDE8F04F00F066BA35
:104960000098012240000023D0EB020263EBE073C9
:10497000009821464FEAE074B8EB000061EB0401B7
:10498000E9E783F000435BE781F0004158E72DE958
:10499000FE4F81EA030404F0004421F0004100943A
:1049A0004FF0000B23F0004350EA01045ED052EABE
:1049B00003045BD0C3F30A54C1F30A552C44A4F298
:1049C000F3340194A0FB0254C1F3130141F48011AC
:1049D000C3F3130343F4801301FB024400FB034EB3
:1049E000840A970A44EA815447EA8357A4FB07687C
:1049F00002958D0A05FB07854FEA932C04FB0C54A6
:104A00002705029D4FEA065847EA1637B5EB080519
:104A10006EEB070C870E920E47EA811742EA83126B
:104A2000A7FB0201B6EB0B0164EB00042B0D43EA7C
:104A30000C335E1844EB1C50DA465146E7FB02018A
:104A4000C5F313044FEA0B3343EA14534FEA04321D
:104A5000019C43EA0603A4F10C040294009CCDE9F6
:104A600000B400F0F2F903B0BDE8F08F0020014679
:104A7000F9E72DE9F04D81EA030404F0004B21F041
:104A8000004514464FF0000A23F0004150EA0502A9
:104A900020D054EA01021DD0C5F30A570246C5F3DF
:104AA0001303C1F31300C1F30A5640F4801543F415
:104AB0008013A7EB0608101BD64608F2FD3873EBEF
:104AC000050002D308F1010801E092185B41B8F13A
:104AD000000F03DA00200146BDE8F08D00204FF4FE
:104AE0008011064684460EE0171B73EB050705D3BD
:104AF000121B63EB050306434CEA010C49084FEA1D
:104B0000300092185B4150EA0107EDD152EA0300F0
:104B100012D082EA040083EA0501084305D0101B85
:104B2000AB4106D20122002306E000224FF00043F1
:104B300002E06FF0010253101AEB06004CEB085133
:104B400010EB0A0041EB0B01BDE8F04D00F06EB92F
:104B500096230022114600F03BB90EB5C10F80EA42
:104B6000E0700844CA07002140F233438DE80E008C
:104B70000A460B4600F069F903B000BD0EB540F2DD
:104B8000334102910021CDE900110A460B4600F0A5
:104B90005CF903B000BDC1F30A5210B5C1F31301B3
:104BA00040F2FF3341F480119A4201DA002010BD37
:104BB00040F233439A42A2F2334203DC524200F005
:104BC00088F810BD904010BD00F0004230F0004069
:104BD0000AD0C10D01F56071C0F3160042EA01511F
:104BE000C20840071143704700200146704701F09A
:104BF000004330B421F0004150EA010206D00A0D12
:104C0000A2F56072C1F31301002A02DC30BC00205F
:104C10007047440F44EAC104C100E01830BC00EB07
:104C2000C25000F0CCB830B50B460146002020221F
:104C3000012409E021FA02F59D4205D303FA02F5A9
:104C4000491B04FA02F52844151EA2F10102F1DC09
:104C500030BD2DE9F05F0546002092469B46884610
:104C60000646814640241BE02846414647462246E8
:104C700000F02FF853465A46C01A914110D31146FE
:104C80001846224600F016F82D1A67EB01084F4629
:104C900022460120002100F00DF817EB00094E41DB
:104CA000201EA4F10104DFDC484631462A46434673
:104CB000BDE8F09F202A04DB203A00FA02F1002030
:104CC00070479140C2F1200320FA03F3194390404A
:104CD0007047202A04DB203A21FA02F000217047B5
:104CE00021FA02F3D040C2F1200291400843194654
:104CF0007047202A06DBCB17203A41FA02F043EA3C
:104D0000E07306E041FA02F3D040C2F12002914084
:104D10000843194670470000004870475C59000876
:104D20002DE9F05F82460078002715468B460AF190
:104D30000104B946302801D09DB113E014F8010BED
:104D40000127782803D0582801D045B10AE00DB1D9
:104D5000102D07D10027102514F8010B02E00825BB
:104D600000E00A250026B0460EE005FB080005FB22
:104D700006F1012701EB10461FFA80F8B6F5803FD7
:104D800000D3B94614F8010B294600F0EFF80028CB
:104D9000EBDABBF1000F05D00FB1641E00E0544602
:104DA000CBF80040B9F1000F06D000F029F902213C
:104DB0000160C81EBDE8F09F48EA0640FAE70029F6
:104DC000A8BF7047401C490008BF20F00100704791
:104DD00010B4B0FA80FC00FA0CF050EA010404BFF1
:104DE00010BC704749B1CCF1200421FA04F411FA47
:104DF0000CF118BF012121430843A3EB0C01CB1D8B
:104E00004FEA00614FEA102042BF002010BC7047FB
:104E100000EBC35010440029A4BF10BC7047401CD5
:104E2000490008BF20F0010010BC704710B5141EE7
:104E300073F1000408DA401C41F1000192185B4153
:104E40001A4301D120F0010010BD2DE9F04D92462A
:104E50009B4611B1B1FA81F202E0B0FA80F2203241
:104E60009046FFF727FF04460F4640EA0A0041EA52
:104E70000B0153465A46084313D0114653EA01002A
:104E800019D0C8F140025046FFF723FF05460E46F1
:104E9000504659464246FFF70DFF084305D0012012
:104EA00004E020463946BDE8F08D0020054346EA7F
:104EB000E0762C4337430A986305E40AA0EB080028
:104EC0000022FD0A44EA47540A3002D50020014678
:104ED000E9E7010510196941DDE908450019694153
:104EE000BDE8F04DA2E7C1F30A52C1F3130140F24D
:104EF000FF3341F480119A4202DA002001467047E4
:104F000040F233439A42A2F2334202DC5242FFF7AC
:104F1000E0BEFFF7CFBE000030B5041E71F1000403
:104F200004DB4FF00044404264EB0101141E73F1B6
:104F3000000405DB1C464FF00043524263EB0403C0
:104F4000994208BF904230BD064C074D06E0E0682C
:104F500040F0010394E8070098471034AC42F6D3C0
:104F6000FBF7C8F860590008805900083A2800D2B9
:104F7000303820F02002412A01D3A2F137008842C4
:104F800001D34FF0FF30704770B58C1810F8015BFB
:104F900015F0070301D110F8013B2A1106D110F8D2
:104FA000012B03E010F8016B01F8016B5B1EF9D1D6
:104FB0002B0705D40023521E0DD401F8013BFAE75C
:104FC00010F8013BCB1A921C03E013F8015B01F8C7
:104FD000015B521EF9D5A142D8D3002070BD00005C
:104FE0000FB4054B10B503A9044A029800F0DEF88F
:104FF00010BC5DF814FB0000EF010008E000002089
:10500000004870477802002002E008C8121F08C15B
:10501000002AFAD170477047002001E001C1121F39
:10502000002AFBD1704700002DE9FF5F82B000210C
:10503000DDE90430020DDDF840B0034318D044F63A
:105040001050A2F2FF3242431514119801281FD0CC
:10505000A5EB0B00401C5FEA000A4FF000064E4F24
:10506000DFF83891B046504615D5CAF1000413E078
:10507000119801244AA3012801D16FEA0B0102987B
:10508000119AC0E90031C0E9024206B0BDE8F09FC4
:10509000CBF10000DFE704460021404A491842EB0B
:1050A0000450CDE9001012E0E00707D032463B463D
:1050B00040464946FFF76BFC8046894632463B46F0
:1050C00010461946FFF763FC06460F466410002C95
:1050D000EAD1DDE90401DDE90023BAF1000F06DAC7
:1050E000FFF755FC42464B46FFF751FC05E0FFF742
:1050F000C0FC42464B46FFF7BCFC04460E4600226D
:10510000284BFFF709FF03D84FF0FF30014607E0B7
:105110000022254B20463146FFF792FBFFF7E3FEC6
:10512000102409E0002C0ADB0A220023FFF791FD7E
:10513000039B30321A55641E50EA0102F2D1641CFE
:10514000039AC4F111031444119A012A03D00122D5
:1051500008430DD10AE0084304D000204FF0110BA2
:10516000119072E7A3EB0B056D1E0DE05B4504DDAE
:105170004FF0000205F1010504E003DA4FF00002F0
:10518000A5F10105002AECD002981199C0E902317D
:10519000C0E9004579E70000000014400000F03F3E
:1051A000300000000000F0430000E03F2DE9FF4F19
:1051B00095B09B468946064600250FE2252877D103
:1051C00000242746F84A0121059400E0044316F81C
:1051D000013F203B01FA03F01042F7D130782A2832
:1051E00011D06FF02F033078A0F13002092A16D8C1
:1051F000059A44F0020402EB820203EB42021044DF
:10520000761C0590EFE759F8042B0592002A03DA83
:10521000504244F40054059044F00204761C307867
:105220002E2816D116F8010F44F004042A280DD0B8
:105230006FF02F023078A0F13003092B09D807EB6B
:10524000870302EB4303C718761CF3E759F8047B86
:10525000761C30786C280FD006DC4C2817D06828D4
:105260000DD06A2814D104E0742810D07A280FD108
:105270000DE044F400140AE044F4801401E044F426
:1052800040147278824202D104F58014761C761C98
:10529000307866280BD013DC582877D009DC00283A
:1052A00075D04528F6D04628F4D047281AD19DE17C
:1052B00018E0632835D0642879D0652812D195E1AB
:1052C000702873D008DC6728F1D069286FD06E2869
:1052D0000DD06F2806D1B5E073282CD0752875D075
:1052E000782874D05A46179990476D1C75E1C4F31D
:1052F0000250022809D003280DD0D9F80010042844
:105300000DD00D6009F1040967E1D9F80010EA1722
:10531000C1E90052F6E7D9F800100D80F2E70D70F0
:10532000F0E719F8041B8DF8001000208DF801003B
:10533000EA46012003E059F804AB4FF0FF30610763
:105340004FF0000102D40DE008F101018846B94296
:105350000FDA8045F8DB1AF808100029F4D108E0CC
:1053600008F1010188468142FADB1AF80810002989
:10537000F6D105985B46A0EB080721463846179AF8
:1053800000F094FA284400EB080507E04DE029E11D
:105390000DE01AF8010B5A4617999047B8F1010829
:1053A000F7D25B4621463846179A13E142E00A22BB
:1053B0000092C4F302524FF0000A022A08D059F8B2
:1053C00004CB032A4FEAEC710AD00DE029E02AE071
:1053D00009F1070121F00702F2E802C1914609E054
:1053E0000FFA8CFC4FEAEC71042A03D14FFA8CFCC3
:1053F0004FEAEC71002907DA0A460021DCF1000CC3
:1054000061EB02012D2202E0220504D52B228DF84A
:105410000420012203E0E20701D02022F7E79046B2
:1054200059E00A2102E010220DE010214FF0000A9D
:1054300000910BE010224FF0000A44F0040408270A
:10544000009203E008224FF0000A0092C4F30252D7
:10545000022A05D059F804CB0021032A08D009E01C
:1054600009F1070121F00702F2E802C1914605E0C7
:105470001FFA8CFC042A01D10CF0FF0C4FF000083D
:10548000220728D5702806D0009B83F0100353EA2A
:105490000A0305D00EE040228DF80420012208E026
:1054A0005CEA010206D030228DF804208DF8050058
:1054B00002229046009B83F0080353EA0A030AD1B4
:1054C0005CEA010201D1620705D530228DF8042083
:1054D0004FF001087F1E582804D034A003900EA876
:1054E00002900DE036A0F9E753466046009AFFF7B8
:1054F000B0FB84460398825C0298401E02900270C2
:105500005CEA0100F0D1029806A9081A00F1200A0D
:10551000600702D524F4803400E00127574502DDFE
:10552000A7EB0A0000E0002000EB0A0100900598BC
:105530004144401A0590E00306D45B462146179A81
:10554000059800F0B3F90544002706E001A85A4683
:10555000C05D179990476D1C7F1C4745F6DBE00343
:105560000CD55B462146179A059800F09FF9054433
:1055700004E030205A46179990476D1C0099481E48
:1055800000900029F5DC08E0029802995A4600785C
:10559000491C0291179990476D1CBAF10001AAF1BC
:1055A000010AF1DC65E100000928010030313233E5
:1055B000343536373839616263646566000000004F
:1055C0003031323334353637383941424344454639
:1055D0000000000000F058F90544761C30780028DF
:1055E0007FF4ECAD19B02846BDE8F08F620700D417
:1055F000062709F1070222F0070CFCE80223E14626
:1056000003F000485FEA080C02D00FF2702C0DE0A6
:105610005FEA045C02D50FF2682C07E05FEAC47C05
:1056200002D00FF2602C01E0AFF2700C4FF0FF38A7
:1056300023F00043CDF850C065280CD006DC452887
:1056400009D046281DD047283DD13DE0662818D016
:1056500067287ED138E00021112F01DB112000E006
:10566000781CCDE9000106A90EA8FFF7DDFCDDE9F5
:105670000F010E9A03910021009207F1010A049193
:105680004DE04FF000400097CDE9011006A90EA8AB
:10569000FFF7CAFCDDE90F0203920E9B119900226D
:1056A000DDF80CA00093049211B9791C00EB010AFB
:1056B000B7EB0A0004D4C0F1FF3007F1010A0490EF
:1056C000AAEB0700019044E0012F00DA0127002136
:1056D000112F01DD112000E03846CDE9000106A9B7
:1056E0000EA8FFF7A1FCDDE90F010E9A039100213E
:1056F00004910092BA4621070CD40399514500DA6F
:105700008A46BAF1010F05DD009AAAF10101515C48
:10571000302908D0B84202DA10F1040F06DA01216C
:10572000CDE9011015E0AAF10101E9E7002805DC47
:10573000049901440491AAEB000102E0411C514587
:1057400000DD8A460499401A401C01904FF0004049
:105750000290200704D40198504501DBCDF8048065
:1057600000208DF84F0002980DF14F07B0F1004F67
:1057700025D02B200E9002984FF0020800280CDA5A
:10578000404202902D200E9007E00A210298FFF778
:105790004AFA3031029007F8011DB8F10001A8F172
:1057A0000108F2DC02980028EFD1791E0E980870EB
:1057B000307800F0200040F0450007F8020D12A8F4
:1057C000C01B00F107081498007800B1012000EB1D
:1057D0000A01019801EBE07105984144401A401E0E
:1057E0000590E00306D45B462146179A059800F021
:1057F0005DF805441498007818B15A4617999047F7
:105800006D1CE00324D55B462146179A059800F0ED
:105810004DF805441CE00498002807DBDDE903018E
:10582000884203DD0098405C179901E01799302009
:105830005A469047049805F10105401C04900198D0
:10584000401E019004D12E205A46179990476D1C96
:10585000BAF10001AAF1010ADDDC05E017F8010B3D
:105860005A46179990476D1CB8F10001A8F101083C
:10587000F4DC5B462146179A0598ABE62D00000044
:105880002B000000200000002DE9F0410446002517
:105890001E461746880404D405E039462020B04748
:1058A0006D1C641EF9D52846BDE8F0812DE9F04154
:1058B000044600251E469046C80301D5302700E067
:1058C0002027880404D505E041463846B0476D1CC2
:1058D000641EF9D52846BDE8F081004040404040B4
:1058E00040404040414141414140404040404040B3
:1058F00040404040404040404040400502020202DB
:1059000002020202020202020202022020202020E1
:105910002020202020020202020202029090909099
:105920009090101010101010101010101010101077
:1059300010101010101002020202020288888888DB
:1059400088880808080808080808080808080808D7
:10595000080808080808020202024000DB58000894
:1059600080590008000000207C020000884F0008D9
:10597000185A00087C0200206C060000185000082D
:10598000F100085D010203040506070962640928A5
:105990008D590411228032022904412908720329F9
:1059A000089A040C42064A082469C7290C2A1028C0
:1059B00059485A1158290C9A120C9A130C2A20048F
:1059C0001951290C9A210C9A220C9A230C42284A2C
:1059D000050C9A290C9A2A0C9A2B0C52303A80B456
:1059E0009A310C9A320C9A330C52383A500C9A393C
:1059F0000C9A3A0C9A3B0C5AFF0C29D0512D0102FB
:105A000003040440090607080902040608ACA24A78
:085A1000041F291B81000000A6
:04000005080000ED02
:00000001FF
