:020000040800F2
:10000000D808002045010008690100086B010008BC
:100010006F0100087301000877010008000000006C
:100020000000000000000000000000007B0100084C
:100030007D010008000000007F010008ED0C0008B1
:100040005F0100085F0100085F0100085F01000810
:100050005F0100085F0100085F0100085F01000800
:100060005F0100085F0100085F0100085F010008F0
:100070005F0100085F0100085F0100085F010008E0
:100080005F0100085F0100085F0100085F010008D0
:100090005F0100085F0100085F0100085F010008C0
:1000A0005F0100085F0100085F0100085F010008B0
:1000B0005F0100085F0100085F0100085F010008A0
:1000C0005F0100085F0100085F0100085F01000890
:1000D0005F0100080B04000859040008B904000877
:1000E0005F0100085F0100085F0100085F01000870
:1000F0005F0100085F0100085F0100085F01000860
:100100005F0100085F0100085F0100085F0100084F
:100110005F0100085F0100085F0100085F0100083F
:100120005F0100085F0100085F0100085F0100082F
:10013000DFF80CD002F0C2FC00480047990100082B
:10014000D80800200648804706480047FEE7FEE73B
:10015000FEE7FEE7FEE7FEE7FEE7FEE7FEE7FEE777
:100160005F22000831010008704700BFFEE700BFB2
:10017000FEE700BFFEE700BFFEE77047704770472D
:1001800010B54FF4E13000F08DF801F063F800F0A5
:100190007CFF01F023F910BD02F061F81A49B1F1BA
:1001A000807F00D31DE021F07F40401E4FF0E02211
:1001B000506150170F22002807DA13071D0E134B4A
:1001C00000F00F04241F1D5503E013071C0E104BF5
:1001D0001C5400BF00204FF0E02290610720106106
:1001E00000BF00F0EDFB00F042FC052000F0C3FD75
:1001F000FFF7C6FF07A002F09FFC04E000F02BFA17
:10020000C82000F0B8FDF9E74019010018ED00E042
:1002100000E400E06F6B206E6F770000014600BFC6
:10022000704770B504460D46F648007801280BD19A
:1002300000BF4021F44801F049FF0028F9D0E1B2A5
:10024000F14801F0D5FE2BE0EE48007802280BD1F2
:1002500000BF4021ED4801F039FF0028F9D0E1B29C
:10026000EA4801F0C5FE1BE0E648007803280CD1FF
:1002700000BF4021E64801F029FF0028F9D0E548F9
:100280000078401CE34908700AE000BF4021DE48C6
:1002900001F01CFF0028F9D0E1B2DB4801F0A8FE14
:1002A000204670BD38B50446012144F2040001F037
:1002B000FFFCD54801F060FD4FF40070D64908807E
:1002C000032088701820C870D44801F035FA4FF424
:1002D0008060D14908800420C870D04801F02CFA11
:1002E000CF4804600020CE498880C880088188817A
:1002F0000C204881C44801F082FD25208DF80000C3
:1003000000208DF8010003208DF8020001208DF8F7
:100310000300684601F047F9012240F22551BA482E
:1003200001F005FE0121B84801F0F5FD38BD10B51A
:1003300004460121042001F0BBFC0121480401F026
:10034000C4FC0420B4490880032088701820C870B9
:10035000B24801F0F1F90820AF4908800420C870C4
:10036000AE4801F0E9F9A94801F006FDAC48046087
:100370000020AB498880C880088188810C20488192
:10038000A24801F03CFD012240F225519F4801F0B6
:10039000CEFD01219D4801F0BEFD10BD10B5044603
:1003A0000121042001F084FC0121880401F08DFC6E
:1003B000042099490880032088701820C870974845
:1003C00001F0BAF90820944908800420C8709348C5
:1003D00001F0B2F98E4801F0CFFC91480460002092
:1003E0008F498880C880088188810C20488188488E
:1003F00001F005FD012240F22551854801F097FDED
:100400000121834801F087FD10BD10B540F2255150
:100410007D4801F071FEF0B17B4801F0EDFDC4B202
:1004200040F22551784801F05EFE7E48007890B990
:100430007D487E49097844547C480078401C7B49BB
:1004400008707B480078401C794908700D2C02D157
:1004500001207449087010BD10B540F225516B4859
:1004600001F04AFE38B3694801F0C6FDC4B27148D4
:100470000078D8B9704871490978445400785328F5
:1004800014D16D486D49097844546C480078401C7B
:100490006A4908706A480078401C694908706748D2
:1004A0000078022802D101206249087040F22551EB
:1004B000564801F018FE10BD10B540F225515448C1
:1004C00001F01AFE002837D0514801F095FDC4B262
:1004D0005C48007858BB5C485C4909784454007813
:1004E000EE2824D15948007804281BDD5648574986
:1004F0000978405CFF2815D154480078401E5249C5
:10050000085CFF280ED151480078801E085CFC284A
:1005100008D14E480078C01E085CFF2802D1012097
:100520004849087049480078401C4849087040F222
:100530002551374801F0D7FD10BD70B504460D4672
:100540003248844202D10A2000F0FFFB40212046BD
:1005500001F0C9FD2946204601F04AFD00BF4021B7
:10056000204601F0B3FD0028F9D070BD70B50546F6
:100570000C4621122846FFF7E0FFE1B22846FFF7BC
:10058000DCFF70BD70B505460E4634461F488542F7
:1005900002D10A2000F0D9FB04E021782846FFF7B9
:1005A000CCFF641C20780028F7D170BD10B504463C
:1005B00004E021781548FFF7C0FF641C207800286C
:1005C000F7D110BD30B50246002300200AE01478B0
:1005D0000D78AC4201D0012007E0521C491C5C1C84
:1005E000E3B200201478002CF1D100BF14787CBB5A
:1005F0000C782CB10C780A2C02D00C780D2C28D158
:10060000002027E0D30000200038014000440040D3
:1006100000480040D2000020D40000200008014023
:10062000C404002000000020D002002001000020AF
:100630000200002004000020980300200500002094
:1006400006000020070000206E00002008000020A7
:1006500000E0012030BD2DE9F041002400257E4856
:10066000007801287ED100207B4908707B497CA05E
:1006700002F062FA79497EA0FFF7A4FF30B94FF487
:10068000487148F2160000F0C0FDD4E0734979A02B
:10069000FFF798FF38B90821794801F0FAF879A0F6
:1006A00002F04AFAC7E06D497BA0FFF78BFF38B92B
:1006B0000821734801F0EFF87BA002F03DFABAE0A0
:1006C00066497EA0FFF77EFF38B910216C4801F023
:1006D000E0F87DA002F030FAADE060497FA0FFF7BE
:1006E00071FF38B91021664801F0D5F87FA002F0FB
:1006F00023FAA0E0594982A0FFF764FF70B9C8212E
:10070000012000F0DDF90546284602F06CF80646A7
:1007100032460B467DA002F00FFA8CE04F497FA0D5
:10072000FFF750FF70B96421012000F0C9F90546B8
:10073000284602F058F8064632460B4673A002F0EF
:10074000FBF978E0454978A0FFF73CFF80B93221FA
:10075000012000F0B5F90546284602F044F80646A7
:10076000324600E075E00B4668A002F0E5F962E071
:100770003A4970A0FFF726FF70B91921012000F057
:100780009FF90546284602F02EF8064632460B46EB
:100790005EA002F0D1F94EE0304969A0FFF712FFE8
:1007A00038B940F6C41000F091FE68A002F0C4F918
:1007B00041E02A4968A0FFF705FF38B94FF4FA6015
:1007C00000F084FE61A002F0B7F934E0234965A08F
:1007D000FFF7F8FE38B94FF47A7000F077FE64A0A6
:1007E00002F0AAF927E01D4964A0FFF7EBFE38B933
:1007F0004FF4FA7000F06AFE63A002F09DF91AE06F
:10080000164964A0FFF7DEFE30B9C82000F05EFE96
:100810005DA002F091F90EE0104961A0FFF7D2FE51
:1008200030B9642000F052FE57A002F085F902E0D2
:100830005EA002F081F9002404E000200749085579
:10084000601CC4B25D4800788442F6DD00205B493C
:100850000870BDE8F081000000000020D0020020F8
:10086000436F6D6D616E643D25730D0A00000000DD
:1008700041440000706F776572315638206F6E000A
:10088000000C0140706F776572315638206F6E2012
:10089000706173730D0A0000706F7765723156389E
:1008A000206F666600000000706F77657231563801
:1008B000206F666620706173730D0A00506F776554
:1008C00072335633204F6E00706F77657233563334
:1008D000206F6E20706173730D0A0000706F776572
:1008E00072335633206F666600000000706F7765C4
:1008F00072335633206F666620706173730D0A0081
:1009000075415F746573745F323030004375727285
:10091000656E743D25666D410D0A000075415F747A
:100920006573745F3130300075415F746573745F57
:100930003530000075415F746573745F32350000B7
:1009400043757272656E74300000000043757272F8
:10095000656E74310D0A000043757272656E7431F4
:100960000000000043757272656E74320000000072
:1009700043757272656E74320D0A000043757272AF
:10098000656E74330000000043757272656E7433D7
:100990000D0A000043757272656E74340000000029
:1009A00043757272656E743500000000436F6D6DA3
:1009B000616E645F4552520D0A0000000100002084
:1009C00010B50121084601F073F90121B84800F083
:1009D00084FF0121042001F06BF949F67F10B5492D
:1009E0000880032088701020C870B34800F0A4FE6F
:1009F0008020B0490880032088701020C870AE485D
:100A000000F09AFE0121082001F052F940F2FB307B
:100A1000A8490880032088701020C870A74800F0FB
:100A20008BFE4FF48050A349088003208870142067
:100A3000C870A24800F080FE0121102001F038F9B2
:100A400043F2FF709B490880032088701020C87013
:100A50009B4800F071FE4FF4006096490880032027
:100A600088701020C870964800F066FE10BD08B56A
:100A70004FF4E06000F092FD25208DF8000000208A
:100A80008DF8020001208DF80300684600F08BFD10
:100A900026208DF8000001208DF802008DF803005B
:100AA000684600F080FD27208DF8000002208DF8B8
:100AB000020001208DF80300684600F074FD08BDB7
:100AC0002DE9FF5F83468A46BBF1010F41D1022128
:100AD0007A4800F0E0FE0121784800F0DCFEBAF12F
:100AE000190F09D0BAF1320F11D0BAF1640F19D031
:100AF000BAF1C80F2CD120E04FF480516E4800F0BD
:100B0000CAFE4FF400416C4800F0C5FE20E04FF4EF
:100B10008051694800F0BFFE4FF40041664800F084
:100B2000B8FE15E04FF48051634800F0B2FE4FF478
:100B30000041614800F0AFFE0AE04FF480515E488A
:100B400000F0A7FE4FF400415B4800F0A2FE00BF9A
:100B500000BFBBF1020F41D10221584800F09BFEBB
:100B60000121564800F095FEBAF1190F09D0BAF1EB
:100B7000320F11D0BAF1640F19D0BAF1C80F2CD1CD
:100B800020E04FF480714C4800F085FE4FF4006186
:100B9000494800F080FE20E04FF48071464800F0A4
:100BA0007AFE4FF40061444800F073FE15E04FF404
:100BB0008071414800F06DFE4FF400613E4800F046
:100BC0006AFE0AE04FF480713B4800F062FE4FF489
:100BD0000061394800F05DFE00BF00BF4FF499513D
:100BE00048F2010000F071FA044601F0C3FD0390E1
:100BF000039801F0F8FD06460022324B01F0D9FCC3
:100C00000022314BCDE9000101F045FD04460022F0
:100C10002E4B01F0C8FC804601F0F8FD4FF08041FA
:100C2000029001F0AFFB0390039801F0DCFD044655
:100C300022460B4626A001F07FFFBAF1190F09D01A
:100C4000BAF1320F10D0BAF1640F17D0BAF1C80F51
:100C500028D11DE02049039801F0C6FB04461F4936
:100C600001F090FB03901DE01D49039801F0BCFBCF
:100C700004461A4901F086FB039013E019490398D2
:100C800001F0B2FB0446154901F07CFB039009E03A
:100C90001549039801F0A8FB0446104901F072FBC6
:100CA000039000BF00BF039804B0BDE8F09F0000B0
:100CB00000023000D400002000080140000C014078
:100CC0000010014000000440000070410000F43FAB
:100CD00056783D25660D0A000000C84100007A44A0
:100CE000000048420000C84200004843264800680F
:100CF000401C2549086025480068401C23490860BD
:100D000023480068401C2249086022480068401EB1
:100D10002049086008460068002801DA00200860C1
:100D20001D480068401E1C490860184800680228D9
:100D300002D200201549086013480068B0F5FA7F18
:100D400002D3002010490860704706E0052100BF6B
:100D50000A1EA1F1010399B2FAD1021EA0F101030A
:100D600098B2F3D170470146642000BF021EA0F183
:100D70000100FBD170470849086000BF06490968B7
:100D80000029FBD170470000E0000020E4000020B3
:100D9000E8000020EC000020DC0000200EB5F7A2E7
:100DA00007CA8DE8070009226946012000F0EEFA23
:100DB0000EBD30B502460B460021FF2012E012F8AE
:100DC000014B604000210BE000F0800424B10724B7
:100DD00084EA4004E0B201E04406200E4C1CE1B27B
:100DE0000829F1DB1C1EA3F10105EBB2E7D130BDF0
:100DF000F7B582B000260025002000900190002465
:100E000000270298C0B28DF80000039D00BF07E0E4
:100E1000E8B20499091B0DF801002D12601CC4B240
:100E20000498A042F4D8D848007860B10498401CD7
:100E3000C1B26846FFF7BDFF0746F843C1B2049848
:100E4000401C0DF80010D048007810B10498801CA8
:100E500001E00498401CC2B26946012000F096FAF5
:100E60000646304605B0F0BD10B5C8480C3007C87E
:100E7000FFF7BEFF0446002C01DA204610BDC34830
:100E8000183007C8FFF7B4FF0446002C01DA2046EB
:100E9000F4E70020BC490870BC483C3007C8FFF7A5
:100EA000A7FF0446002C01DA2046E7E7B748816D2A
:100EB000B7A001F041FEB548543007C8FFF798FFCE
:100EC0000446002C01DA2046D8E7B048603007C855
:100ED000FFF78EFF0446002C01DA2046CEE7AB4830
:100EE0006C3007C8FFF784FF0446002C01DA204667
:100EF000C4E7A648783007C8FFF77AFF0446002CFD
:100F000001DA2046BAE7A1488030001D07C8FFF784
:100F10006FFF0446002C01DA2046AFE79B48803083
:100F2000103007C8FFF764FF0446002C01DA2046A2
:100F3000A4E7964880301C3007C8FFF759FF0446E5
:100F4000002C01DA204699E790488030283007C805
:100F5000FFF74EFF0446002C01DA20468EE78B484F
:100F60008030343007C8FFF743FF0446002C01DA15
:100F7000204683E785488030403007C8FFF738FFB8
:100F80000446002C01DA204678E7804880304C3057
:100F900007C8FFF72DFF0446002C01DA20466DE755
:100FA0007A488030583007C8FFF722FF0446002CEB
:100FB00001DA204662E7204660E72DE9FC4104465D
:100FC000002600200090019000250027207840F0A6
:100FD00040008DF800006C48007810B1A068401CFB
:100FE00000E0A068401CC2B26946012000F0E0F9B0
:100FF0000646002E02DA3046BDE8FC8162480078E1
:1010000060B1207A401CC1B20DF10100FFF7D1FEA2
:101010000746F32F02D04FF0FF30EDE7002060606D
:10102000012509E06068000260601DF80510606835
:1010300008446060681CC5B2A068401CA842F1D892
:101040003046D9E770B5044600260BE04F48FFF75D
:10105000B4FF0546002D01DA284670BD4B480079E3
:10106000C0F3C01616B9601E041EEFD10CB10020EB
:10107000F3E74FF0FF30F0E770B5054643483030F6
:10108000FFF79BFF0446204670BD10B51021444871
:1010900000F001FCFFF782FE0120FFF756FE3B48FF
:1010A0004830FFF78AFF3948C16C3EA001F044FD8B
:1010B000FFF7DAFE44B2002C02DA3FA001F03CFD5B
:1010C0001021374800F0E5FB10BD2DE9F04F8FB03F
:1010D00006468946282105A801F049F90020049018
:1010E0000024002529488665C0F8889010212C48E6
:1010F00000F0D1FB2548543007C8FFF779FE23489C
:101100008030001D07C8FFF773FE00BF0AE01F48CC
:101110003030FFF752FF1D48406B05A941F824000D
:10112000601C44B20A2CF2DB10211D4800F0B1FB18
:1011300000241FE0092519E005A850F82510681EB5
:1011400005AA52F8200081420EDD681E05A951F85B
:101150002000049005A850F82510681E42F82010C1
:1011600005A9049841F82500681E45B2A542E3DCB4
:10117000601C44B20A2CDDDB01242DE0FFFFFFFFE1
:10118000FFFFFFFFFF00000040020020F0000020F2
:101190004D6170315F6461743D253034580D0A0033
:1011A00000080140414443373137355F49443D250C
:1011B0003034580D0A000000496E69745F414437AD
:1011C0003137355F4661696C0000000005A850F8B2
:1011D00024008244601C44B2092CF7DB504601F025
:1011E000D2FA07460022134601F03CF90022164BC2
:1011F000CDE9000101F04FFACDE9020101F0D4FA86
:10120000834658460FB0BDE8F08F70B504460D46D2
:101210000E488465C0F8885010210D4800F03BFB53
:101220000A48543007C8FFF7E3FD08488030001D26
:1012300007C8FFF7DDFD05483030FFF7BEFE10217F
:10124000034800F026FB70BD00002040F0000020A5
:101250000008014008B50121042000F029FD032009
:101260008DF802001020ADF800008DF803006946EB
:10127000434800F061FA1021414800F00AFB0820C1
:10128000ADF8000010208DF8030069463C4800F0DE
:1012900053FA08213A4800F0FEFA4020ADF8000069
:1012A00004208DF803006946354800F045FA2020F7
:1012B000ADF8000010208DF803006946304800F0BA
:1012C0003BFA20212E4800F0E4FA08BD70B5044630
:1012D000002500BF21E00821294800F0DAFA0120AA
:1012E000FFF733FD0821264800F0D5FA04F080000E
:1012F00020B12021224800F0CCFA03E02021204830
:1013000000F0C9FA0120FFF720FD08211C4800F079
:10131000C0FA6006040E681CC5B2082DDBDB012094
:10132000FFF713FD70BD70B50025002400BF1FE05E
:101330006006040E0821124800F0ABFA0120FFF706
:1013400004FD08210E4800F0A6FA0120FFF7FDFC7D
:1013500008210B4800F09DFA0120FFF7F6FC402120
:10136000074800F07CFA08B144F00104681CC5B2DB
:10137000082DDDDB0120FFF7E8FC204670BD0000F2
:101380000008014010B50446012010BD2DE9F041D0
:1013900007460D461646002400BF04E0285DFFF70F
:1013A00095FF601CC4B2B442F8DB0120BDE8F081B7
:1013B0002DE9F04107460C46164600252078FFF738
:1013C00085FF012504E0FFF7AEFF6055681CC5B23C
:1013D000B542F8DB0120BDE8F081000010B5012125
:1013E000042000F065FCB0204D490880032088707F
:1013F0001020C8704B4800F09FF92021494800F0A8
:1014000048FA1021474800F044FA8021454800F08E
:1014100040FA10BD2DE9F04105460E460027002494
:10142000A04620213F4800F034FA10213D4800F04A
:1014300032FA0120FFF79FFC34462EE0281910F8FD
:10144000017C4FF0000823E02021364800F021FA0B
:101450001E20FFF77AFC07F08000802804D180214D
:10146000304800F016FA03E080212E4800F013FA0D
:101470001E20FFF76AFC20212A4800F00CFA1E20EB
:10148000FFF763FC7806070E08F1010000F0FF0883
:10149000B8F1080FD8DB601EC4B2002CCEDC2021CE
:1014A000204800F0F6F91E20FFF74FFC10211D48E0
:1014B00000F0EFF91E20FFF748FC8021194800F0EA
:1014C000E8F90120FFF757FCBDE8F08170B504464C
:1014D000C4EB044041F2883190FBF1F04FF6FF710C
:1014E00001EA40050020104988700D7028124870EC
:1014F00003210D48FFF78EFF21460CA001F01CFBD5
:101500000948017810A001F017FB0748417815A0A1
:1015100001F012FB0448817819A001F00DFB70BDA9
:10152000D40000200008014041020020414435362B
:1015300036302053657420566F6C7461676520697E
:10154000733A2025640D0A00414435363630204276
:101550007566665B305D2069733A2020253032580D
:101560000D0A000041443536363020427566665B10
:10157000315D2069733A20253032580D0A00000091
:1015800041443536363020427566665B325D2069EF
:10159000733A2020253032580D0A000031490143AA
:1015A000314A1160704770B5002100230F22C478C2
:1015B00004B32D4C246804F4E064C4F5E064210A0B
:1015C000C1F10403CA40447804FA03F1847814405A
:1015D00021430901254C0678A155047804F01F0524
:1015E0000124AC4005786D11AD0005F1E025C5F88A
:1015F000004109E0047804F01F050124AC401C4DB3
:101600000678761145F8264070BD1A4A0A40024312
:10161000154B1B1F1A60704739B1134A121D12680F
:101620000243114B1B1D1A6006E00F4A121D12687F
:1016300082430D4B1B1D1A607047042808D14FF0E0
:10164000E021096941F004014FF0E022116107E057
:101650004FF0E021096921F004014FF0E02211610F
:10166000704700000000FA050CED00E000E400E027
:1016700080E100E080FFFF1F10B50446CC488442A3
:1016800008D10121042000F02DFB0021042000F0EE
:1016900029FB46E0C748844208D10121082000F018
:1016A00021FB0021082000F01DFB3AE0C2488442E3
:1016B00008D10121102000F015FB0021102000F0BE
:1016C00011FB2EE0BD48844208D10121202000F00A
:1016D00009FB0021202000F005FB22E0B8488442ED
:1016E00008D10121402000F0FDFA0021402000F047
:1016F000F9FA16E0B348844208D10121802000F0B5
:10170000F1FA0021802000F0EDFA0AE0AE488442B0
:1017100007D10121801500F0E5FA0021A01500F0A5
:10172000E1FA10BD10B50121084600F0DBFA0021F6
:10173000012000F0D7FA10BD2DE9F0410246002546
:101740000026002000230024002791F803C00CF09D
:101750000F0591F803C00CF0100CBCF1000F03D082
:1017600091F802C04CEA050591F800C0BCF1000FE9
:1017700031D0146800202BE04FF0010C0CFA00F37C
:10178000B1F800C00CEA03069E4220D183004FF05E
:101790000F0C0CFA03F7BC4305FA03FC4CEA0404F3
:1017A00091F803C0BCF1280F06D14FF0010C0CFAE0
:1017B00000FCC2F814C00AE091F803C0BCF1480F65
:1017C00005D14FF0010C0CFA00FCC2F810C0401C0F
:1017D0000828D1D31460B1F800C0BCF1FF0F34DD8C
:1017E000546800202EE000F1080C4FF0010808FAC0
:1017F0000CF3B1F800C00CEA03069E4221D183002D
:101800004FF00F0C0CFA03F7BC4305FA03FC4CEA4B
:10181000040491F803C0BCF1280F05D100F1080CB5
:1018200008FA0CF8C2F8148091F803C0BCF1480F14
:1018300007D100F1080C4FF0010808FA0CF8C2F8C3
:101840001080401C0828CED35460BDE8F0814FF6CC
:10185000FF710180022181700421C170704702462E
:10186000002093680B400BB1012000E0002070477E
:101870000146886880B2704702460020D3680B405A
:101880000BB1012000E0002070470146C86880B21B
:10189000704701617047416170470AB1016100E022
:1018A00041617047C16070474FF480320A438261E2
:1018B0008161826182698269704702460020434BE0
:1018C00018684FF68073184040EA021008433F4BF7
:1018D000186070473E49C8617047F0B50A4600235A
:1018E00000240021002500F00046B6F1004F02D18F
:1018F000364EF16901E0354E7168C0F3034583B29D
:1019000000F44016B6F5401F08D121F070612F4E4B
:10191000766826F070662D4F7E6012E000F4801627
:10192000B6F5801F06D1032606FA05F4A14341F05F
:10193000706106E0460D360103FA06F6B14341F048
:10194000706122B1460D360103FA06F6314300F00C
:101950000046B6F1004F02D11C4EF16101E01B4E72
:101960007160F0BD30B500228B071C0F0F2303FA06
:1019700004F2164B08338C1053F824309343134C65
:1019800008348D1044F8253023468C1053F8243049
:101990008C07240F00FA04F423430C4C08348D10F8
:1019A00044F8253030BD0A49DC310860704700003A
:1019B00000080140000C01400010014000140140EB
:1019C00000180140001C01400020014000000140BF
:1019D00000002042DF48006840F00100DD49086057
:1019E00008464068DC490840DA4948600846006813
:1019F000DA490840D74908600846006820F480208A
:101A000008600846406820F4FE0048604FF41F005C
:101A100088607047CF49096821F48031CD4A116050
:101A20001146096821F480211160B0F5803F03D090
:101A3000B0F5802F0ED106E0C649096841F4803127
:101A4000C44A116007E0C349096841F4A021C14AB2
:101A5000116000E000BF00BF704710B501460022D2
:101A6000002300204A11012A02D1BA4C236806E063
:101A7000022A02D1B74C236A01E0B64C636A01F036
:101A80001F02012494401C400CB1012000E0002002
:101A900010BD38B5002000900024002500BF312083
:101AA000FFF7DBFF05460098401C00900098B0F55A
:101AB000A06F01D0002DF2D03120FFF7CEFF08B18A
:101AC000012400E00024204638BD01460020A14A40
:101AD000106820F0F80040EAC10010607047A0498B
:101AE00008607047024600209A4B586820F47C102A
:101AF00042EA01031843974B5860704798490866BB
:101B0000704701460020934A506820F003000843C4
:101B1000506070478F48406800F00C0070470146E5
:101B200000208C4A506820F0F00008435060704755
:101B300001460020874A506820F4E0600843506066
:101B4000704701460020834A506820F4605040EA04
:101B5000C1005060704729B17E4A527A02437D4BE2
:101B60005A7204E07B4A527A82437A4B5A72704727
:101B70007B49D8310860704701460020754A50689B
:101B800020F440400843506070470021714A2032E1
:101B90001170704A82F82010012802D004280AD15E
:101BA00004E001216B4A2032117005E00521694AE9
:101BB0002032117000E000BF00BF70476949086023
:101BC00070476449096A0143624A11627047654976
:101BD00044390860704730B50021002200240023FA
:101BE0005C4D6D6805F00C0121B1042905D0082970
:101BF00023D105E05C4D056022E05B4D05601FE0F0
:101C0000544D6D6805F47012524D6D6805F48034C2
:101C1000022505EB92421CB9544D554305600BE07B
:101C20004C4D6D6805F400351DB1504D55430560B0
:101C300002E04D4D5543056002E04B4D056000BF8D
:101C400000BF444D6D6805F0F0010909484D6B5C1B
:101C50000568DD4045603F4D6D6805F4E061090AA7
:101C6000434D6B5C4568DD4085603A4D6D6805F419
:101C70006051C90A3E4D6B5C4568DD40C560354D1D
:101C80006D6805F44041890B3A4D6B5CC568B5FB46
:101C9000F3F5056130BD29B12E4A526902432D4B3F
:101CA0005A6104E02B4A526982432A4B5A617047B9
:101CB00029B1284A92690243264B9A6104E0254AD9
:101CC00092698243234B9A61704729B1214AD269B4
:101CD0000243204BDA6104E01E4AD26982431D4B65
:101CE000DA61704729B11B4AD2680243194BDA60A6
:101CF00004E0184AD2688243164BDA60704729B173
:101D0000144A12690243134B1A6104E0114A126922
:101D10008243104B1A61704712494039086070477E
:101D20000F49C86470470B49C87170470948406A39
:101D300040F0807007494862704701460020054A1C
:101D400092680A400AB1012000E000207047014972
:101D500088727047001002400000FFF8FFFFF6FE97
:101D6000000042428004424200127A0000093D0015
:101D7000440200205402002010B50446FB4884426F
:101D800009D101218803FFF7ADFF00214FF4804006
:101D9000FFF7A8FF32E0F648844209D10121480448
:101DA000FFF7ADFF00214FF40030FFF7A8FF25E05B
:101DB000F048844209D101218804FFF7A0FF0021E7
:101DC0004FF48020FFF79BFF18E0EB48844209D1D5
:101DD0000121C804FFF793FF00214FF40020FFF713
:101DE0008EFF0BE0E548844208D101210805FFF78A
:101DF00086FF00214FF48010FFF781FF10BD2DE911
:101E0000F04786B005460E460024A24600BFA14614
:101E10000027B08900B100BF2F462C8A4CF6FF7016
:101E20000440F08804432C82AC894EF6F310044041
:101E3000B08831890843718908430443AC81AC8A76
:101E40004FF6FF400440B0890443AC8201A8FFF77D
:101E5000C2FEC648874202D1DDF810A001E0DDF8DD
:101E60000CA0A88900F4004040B10AEBCA0000EBC6
:101E70000A1031684900B0FBF1F807E00AEBCA002C
:101E800000EB0A1031688900B0FBF1F86420B8FB60
:101E9000F0F004012009642101FB1089A88900F4F5
:101EA000004040B1322000EBC900B0FBF1F000F07F
:101EB0000700044308E0322000EB09106421B0FB66
:101EC000F1F000F00F0004432C8106B0BDE8F0876C
:101ED0004FF41651016000218180C18001810C21E5
:101EE000418100218181704710B502460020108A8F
:101EF0004FF2FF0318400B884C8823438C88234300
:101F0000CC8823431843108210BD002101804180FA
:101F10008180C180704721B1828942F40052828160
:101F200004E082894DF6FF731A4082817047F0B554
:101F30000346002400260025002040F66A17B94217
:101F400000D100BF1846C1F3421401F01F0601275B
:101F500007FA06F5012C01D10C3004E0022C01D166
:101F6000103000E014301AB107682F43076002E018
:101F70000768AF430760F0BD1AB1838A0B438382C1
:101F800002E0838A8B4383827047028A4FF6F073A4
:101F90001A400282028A0A430282704782894FF203
:101FA000FF731A40828182890A438281704721B17E
:101FB000828942F00202828104E082894FF6FD7339
:101FC0001A4082817047028A4FF6DF731A400282FC
:101FD000028A0A430282704721B1028A42F4804297
:101FE000028204E0028A4BF6FF731A4002827047B5
:101FF000C1F308028280704701468888C0F3080058
:102000007047818941F0010181817047028BD2B212
:102010000283028B42EA012202837047028B02F4A0
:102020007F420283028B0A430283704721B1828A76
:1020300042F02002828204E0828A4FF6DF731A4067
:102040008282704721B1828A42F01002828204E0CB
:10205000828A4FF6EF731A408282704721B1828ADA
:1020600042F00802828204E0828A4FF6F7731A4037
:102070008282704721B1828942F40042828103E06A
:102080008289C2F30E028281704721B1828A42F4B2
:102090000062828204E0828A4FF2FF731A408282D9
:1020A0007047828A4FF6FB731A408282828A0A4303
:1020B0008282704721B1828A42F00202828204E069
:1020C000828A4FF6FD731A408282704702460020D2
:1020D000B1F5007F00D100BF13880B400BB1012088
:1020E00000E00020704701F40072B2F5007F00D1DB
:1020F00000BFCA430280704770B502460024002327
:102100000025002040F66A16B14200D100BFC1F39D
:10211000421501F01F03012606FA03F3012D02D137
:102120009689334006E0022D02D1168A334001E041
:10213000968A33400C12012606FA04F416883440BD
:1021400013B10CB1012000E0002070BD10B50022D9
:10215000002340F66A14A14200D100BF0A120124F4
:102160009440A3B2DC43048010BD0000003801405D
:102170000044004000480040004C00400050004037
:102180000CB50020019000906C48006840F480304D
:102190006A49086000BF6948006800F40030009098
:1021A0000198401C0190009818B90198B0F5A06FF3
:1021B000F1D16248006800F4003010B101200090B5
:1021C00001E0002000900098012843D15C4800689D
:1021D00040F010005A4908600846006820F00300EB
:1021E00008600846006840F00200086053484068F4
:1021F000524948600846406848600846406840F4D4
:10220000806048600846406820F47C1048600846BA
:10221000406840F4E81048600846006840F080706C
:10222000086000BF4548006800F000700028F9D041
:102230004248406820F00300404948600846406832
:1022400040F00200486000BF3C48406800F00C00CD
:102250000828F9D10CBD10B5FFF792FF10BD10B5DD
:102260003648006840F0010034490860084640687C
:1022700034490840314948600846006832490840FE
:102280002E4908600846006820F48020086008464F
:10229000406820F4FE0048604FF41F008860FFF79C
:1022A000DAFF4FF000602949086010BD10B5002129
:1022B00000200022214B5B6803F00C0121B10429AE
:1022C00006D0082928D107E0214B224C236027E0C3
:1022D0001F4B204C236023E0184B5B6803F4701005
:1022E000164B5B6803F48032022303EB904022B963
:1022F000194B4343174C23600DE0104B5B6803F40C
:10230000003323B1144B4343124C236003E0104BC2
:102310004343104C236003E00D4B0E4C236000BF81
:1023200000BF064B5B68C3F303130C4CE15C094B25
:102330001B68CB40074C236010BD0000001002401A
:10234000002002400000FFF8FFFFF6FE08ED00E06D
:1023500000127A005802002000093D005C020020B3
:10236000D2B201E000F8012B491EFBD270470022D7
:10237000F6E710B513460A4604461946FFF7F0FF84
:10238000204610BD80EA010210B502F00043400073
:1023900022D04A001FD0010E01EB1261C0F356009B
:1023A000C2F3560240F4000042F40002A0FB0220F7
:1023B00000047F39140400D0401C50EA124001D4BC
:1023C0004000491EC2B20C0604EBD010401C40086D
:1023D000802A02D003E0002010BD20F00100002977
:1023E00000DA0020184310BD30B480EA010202F088
:1023F000004530F0004221F0004013D090B1C30DF1
:10240000D40DC2F31601C0F31600E41A41F4000122
:1024100040F400027D34914201D3641C00E0490085
:10242000002C02DA30BC002070474FF4000000237B
:10243000914201D3891A034340084FEA4101F7D181
:1024400051B1914202D14FF0004105E002D24FF06C
:10245000010101E06FF0010103EBC450284430BCDE
:1024600000F068BA2DE9FE4F804681EA0300C00FF4
:102470000C46009021F0004123F00045B8EB02002B
:10248000A94105D24046214690461C460B460246CD
:1024900023F00040104347D0270DC7F30A00C3F3D1
:1024A0000A510290401A019040286BDAC3F31300DE
:1024B00040F4801B0098924620B10023D2EB030A1F
:1024C00063EB0B0B01985946C0F14002504600F0F7
:1024D00000FA06460D4650465946019A00F018FA91
:1024E00010EB08006141002487EA115284EAE77387
:1024F0001A4340D0009A62B3019A012A4FEA075268
:1025000015DC001B61EB02014FF0004202EA0752AA
:10251000CDE90042001C41F5801132462B4600F007
:102520004FFA03B0BDE8F08F40462146F9E7001BA3
:1025300061EB0201001C41F5801300185B4120187B
:10254000A2F5001747EB030140EAD570B6196D41BB
:1025500011E06D084FEA360645EAC0754FEA0752AA
:10256000001B61EB0201001C41F5801149084FEA94
:1025700030000019514132462B4603B0BDE8F04F00
:1025800000F00FBA0098012240000023D0EB0202B5
:1025900063EBE073009821464FEAE074B8EB00006B
:1025A00061EB0401E9E783F000435BE781F0004160
:1025B00058E72DE9FE4F81EA030404F0004421F0BE
:1025C000004100944FF0000B23F0004350EA010457
:1025D0005ED052EA03045BD0C3F30A54C1F30A5538
:1025E0002C44A4F2F3340194A0FB0254C1F3130170
:1025F00041F48011C3F3130343F4801301FB02443D
:1026000000FB034E840A970A44EA815447EA835741
:10261000A4FB076802958D0A05FB07854FEA932CFA
:1026200004FB0C542705029D4FEA065847EA16376B
:10263000B5EB08056EEB070C870E920E47EA811783
:1026400042EA8312A7FB0201B6EB0B0164EB000424
:102650002B0D43EA0C335E1844EB1C50DA4651460E
:10266000E7FB0201C5F313044FEA0B3343EA1453AB
:102670004FEA0432019C43EA0603A4F10C040294DD
:10268000009CCDE900B400F09BF903B0BDE8F08FE9
:1026900000200146F9E72DE9F04D81EA030404F03A
:1026A000004B21F0004514464FF0000A23F0004192
:1026B00050EA050220D054EA01021DD0C5F30A57A2
:1026C0000246C5F31303C1F31300C1F30A5640F4E5
:1026D000801543F48013A7EB0608101BD64608F2BA
:1026E000FD3873EB050002D308F1010801E09218F0
:1026F0005B41B8F1000F03DA00200146BDE8F08D20
:1027000000204FF48011064684460EE0171B73EB41
:10271000050705D3121B63EB050306434CEA010CC6
:1027200049084FEA300092185B4150EA0107EDD1A9
:1027300052EA030012D082EA040083EA050108434A
:1027400005D0101BAB4106D20122002306E0002277
:102750004FF0004302E06FF0010253101AEB060045
:102760004CEB085110EB0A0041EB0B01BDE8F04DBA
:1027700000F017B9C10F80EAE0700844CA07962339
:10278000002100F0E0B80EB5C10F80EAE070084407
:10279000CA07002140F233438DE80E000A460B467B
:1027A00000F00EF903B000BD70B5C1F30A5201F09C
:1027B00000450024C1F3130140F2FF3341F48011BE
:1027C0009A4201DA002070BD40F233439A42A2F2ED
:1027D000334203DC524200F08BF800E090402C437F
:1027E000F1D0404270BD00F0004230F000400AD00D
:1027F000C10D01F56071C0F3160042EA0151C20833
:1028000040071143704700200146704701F0004324
:1028100030B421F0004150EA010206D00A0DA2F5C1
:102820006072C1F31301002A02DC30BC0020704743
:10283000440F44EAC104C100E01830BC00EBC250B0
:1028400000F078B830B50B46014600202022012464
:1028500009E021FA02F59D4205D303FA02F5491B6E
:1028600004FA02F52844151EA2F10102F1DC30BD84
:102870002DE9F05F0546002092469B4688460646B5
:10288000814640241BE0284641464746224600F048
:102890002FF853465A46C01A914110D31146184694
:1028A000224600F016F82D1A67EB01084F46224623
:1028B0000120002100F00DF817EB00094E41201E09
:1028C000A4F10104DFDC484631462A464346BDE810
:1028D000F09F202A04DB203A00FA02F10020704722
:1028E0009140C2F1200320FA03F31943904070474E
:1028F000202A04DB203A21FA02F00021704721FA55
:1029000002F3D040C2F120029140084319467047BB
:10291000202A06DBCB17203A41FA02F043EAE073A3
:1029200006E041FA02F3D040C2F120029140084390
:10293000194670470029A8BF7047401C490008BFCE
:1029400020F00100704710B4B0FA80FC00FA0CF0DF
:1029500050EA010404BF10BC704749B1CCF1200417
:1029600021FA04F411FA0CF118BF012121430843A4
:10297000A3EB0C01CB1D4FEA00614FEA102042BFD0
:10298000002010BC704700EBC35010440029A4BFC6
:1029900010BC7047401C490008BF20F0010010BC6B
:1029A000704710B5141E73F1000408DA401C41F1A1
:1029B000000192185B411A4301D120F0010010BDC3
:1029C0002DE9F04D92469B4611B1B1FA81F202E039
:1029D000B0FA80F220329046FFF77BFF04460F46A4
:1029E00040EA0A0041EA0B0153465A46084313D015
:1029F000114653EA010019D0C8F140025046FFF7D2
:102A000077FF05460E46504659464246FFF761FF9E
:102A1000084305D0012004E020463946BDE8F08D8A
:102A20000020054346EAE0762C4337430A986305C5
:102A3000E40AA0EB08000022FD0A44EA47540A30E9
:102A400002D500200146E9E7010510196941DDE9D9
:102A5000084500196941BDE8F04DA2E7C1F30A52EB
:102A6000C1F3130140F2FF3341F480119A4202DABC
:102A700000200146704740F233439A42A2F23342AB
:102A800002DC5242FFF734BFFFF723BF30B5041E0C
:102A900071F1000404DB4FF00044404264EB01019B
:102AA000141E73F1000405DB1C464FF00043524234
:102AB00063EB0403994208BF904230BD064C074DBA
:102AC00006E0E06840F0010394E8070098471034FE
:102AD000AC42F6D3FDF730FB2C3400084C34000830
:102AE00070B58C1810F8015B15F0070301D110F8D0
:102AF000013B2A1106D110F8012B03E010F8016BFD
:102B000001F8016B5B1EF9D12B0705D40023521E7F
:102B10000DD401F8013BFAE710F8013BCB1A921CE7
:102B200003E013F8015B01F8015B521EF9D5A142E5
:102B3000D8D3002070BD00000FB4054B10B503A919
:102B4000044A029800F0DAF810BC5DF814FB0000AB
:102B500023020008D800002002E008C8121F08C1A4
:102B6000002AFAD170477047002001E001C1121F0E
:102B7000002AFBD1704700002DE9FF5F82B00021E1
:102B8000DDE90430020DDDF840B0034318D044F60F
:102B90001050A2F2FF3242431514119801281FD0A1
:102BA000A5EB0B00401C5FEA000A4FF000064E4FF9
:102BB000DFF83891B046504615D5CAF1000413E04D
:102BC000119801244AA3012801D16FEA0B01029850
:102BD000119AC0E90031C0E9024206B0BDE8F09F99
:102BE000CBF10000DFE704460021404A491842EBE0
:102BF0000450CDE9001012E0E00707D032463B4612
:102C000040464946FFF7D5FC8046894632463B465A
:102C100010461946FFF7CDFC06460F466410002CFF
:102C2000EAD1DDE90401DDE90023BAF1000F06DA9B
:102C3000FFF7BFFC42464B46FFF7BBFC05E0FFF742
:102C40002AFD42464B46FFF726FD04460E4600226B
:102C5000284BFFF71BFF03D84FF0FF30014607E07A
:102C60000022254B20463146FFF7FCFBFFF7F6FE1E
:102C7000102409E0002C0ADB0A220023FFF7F8FDEC
:102C8000039B30321A55641E50EA0102F2D1641CD3
:102C9000039AC4F111031444119A012A03D00122AA
:102CA00008430DD10AE0084304D000204FF0110B77
:102CB000119072E7A3EB0B056D1E0DE05B4504DD83
:102CC0004FF0000205F1010504E003DA4FF00002C5
:102CD000A5F10105002AECD002981199C0E9023152
:102CE000C0E9004579E70000000014400000F03F13
:102CF000300000000000F0430000E03F2DE9FF4FEE
:102D000095B09B468946064600250FE2252877D1D7
:102D100000242746F84A0121059400E0044316F8F0
:102D2000013F203B01FA03F01042F7D130782A2806
:102D300011D06FF02F033078A0F13002092A16D895
:102D4000059A44F0020402EB820203EB42021044B3
:102D5000761C0590EFE759F8042B0592002A03DA58
:102D6000504244F40054059044F00204761C30783C
:102D70002E2816D116F8010F44F004042A280DD08D
:102D80006FF02F023078A0F13003092B09D807EB40
:102D9000870302EB4303C718761CF3E759F8047B5B
:102DA000761C30786C280FD006DC4C2817D06828A9
:102DB0000DD06A2814D104E0742810D07A280FD1DD
:102DC0000DE044F400140AE044F4801401E044F4FB
:102DD00040147278824202D104F58014761C761C6D
:102DE000307866280BD013DC582877D009DC00280F
:102DF00075D04528F6D04628F4D047281AD19DE151
:102E000018E0632835D0642879D0652812D195E17F
:102E1000702873D008DC6728F1D069286FD06E283D
:102E20000DD06F2806D1B5E073282CD0752875D049
:102E3000782874D05A46179990476D1C75E1C4F3F1
:102E40000250022809D003280DD0D9F80010042818
:102E50000DD00D6009F1040967E1D9F80010EA17F7
:102E6000C1E90052F6E7D9F800100D80F2E70D70C5
:102E7000F0E719F8041B8DF8001000208DF8010010
:102E8000EA46012003E059F804AB4FF0FF30610738
:102E90004FF0000102D40DE008F101018846B9426B
:102EA0000FDA8045F8DB1AF808100029F4D108E0A1
:102EB00008F1010188468142FADB1AF8081000295E
:102EC000F6D105985B46A0EB080721463846179ACD
:102ED00000F094FA284400EB080507E04DE029E1F2
:102EE0000DE01AF8010B5A4617999047B8F10108FE
:102EF000F7D25B4621463846179A13E142E00A2290
:102F00000092C4F302524FF0000A022A08D059F886
:102F100004CB032A4FEAEC710AD00DE029E02AE045
:102F200009F1070121F00702F2E802C1914609E028
:102F30000FFA8CFC4FEAEC71042A03D14FFA8CFC97
:102F40004FEAEC71002907DA0A460021DCF1000C97
:102F500061EB02012D2202E0220504D52B228DF81F
:102F60000420012203E0E20701D02022F7E7904687
:102F700059E00A2102E010220DE010214FF0000A72
:102F800000910BE010224FF0000A44F004040827DF
:102F9000009203E008224FF0000A0092C4F30252AC
:102FA000022A05D059F804CB0021032A08D009E0F1
:102FB00009F1070121F00702F2E802C1914605E09C
:102FC0001FFA8CFC042A01D10CF0FF0C4FF0000812
:102FD000220728D5702806D0009B83F0100353EAFF
:102FE0000A0305D00EE040228DF80420012208E0FB
:102FF0005CEA010206D030228DF804208DF805002D
:1030000002229046009B83F0080353EA0A030AD188
:103010005CEA010201D1620705D530228DF8042057
:103020004FF001087F1E582804D034A003900EA84A
:1030300002900DE036A0F9E753466046009AFFF78C
:1030400017FC84460398825C0298401E029002702E
:103050005CEA0100F0D1029806A9081A00F1200AE2
:10306000600702D524F4803400E00127574502DDD3
:10307000A7EB0A0000E0002000EB0A010090059891
:103080004144401A0590E00306D45B462146179A56
:10309000059800F0B3F90544002706E001A85A4658
:1030A000C05D179990476D1C7F1C4745F6DBE00318
:1030B0000CD55B462146179A059800F09FF9054408
:1030C00004E030205A46179990476D1C0099481E1D
:1030D00000900029F5DC08E0029802995A46007831
:1030E000491C0291179990476D1CBAF10001AAF191
:1030F000010AF1DC65E100000928010030313233BA
:103100003435363738396162636465660000000023
:10311000303132333435363738394142434445460D
:103120000000000000F058F90544761C30780028B3
:103130007FF4ECAD19B02846BDE8F08F620700D4EB
:10314000062709F1070222F0070CFCE80223E146FA
:1031500003F000485FEA080C02D00FF2702C0DE07B
:103160005FEA045C02D50FF2682C07E05FEAC47CDA
:1031700002D00FF2602C01E0AFF2700C4FF0FF387C
:1031800023F00043CDF850C065280CD006DC45285C
:1031900009D046281DD047283DD13DE0662818D0EB
:1031A00067287ED138E00021112F01DB112000E0DB
:1031B000781CCDE9000106A90EA8FFF7DDFCDDE9CA
:1031C0000F010E9A03910021009207F1010A049168
:1031D0004DE04FF000400097CDE9011006A90EA880
:1031E000FFF7CAFCDDE90F0203920E9B1199002242
:1031F000DDF80CA00093049211B9791C00EB010AD0
:10320000B7EB0A0004D4C0F1FF3007F1010A0490C3
:10321000AAEB0700019044E0012F00DA012700210A
:10322000112F01DD112000E03846CDE9000106A98B
:103230000EA8FFF7A1FCDDE90F010E9A0391002112
:1032400004910092BA4621070CD40399514500DA43
:103250008A46BAF1010F05DD009AAAF10101515C1D
:10326000302908D0B84202DA10F1040F06DA012141
:10327000CDE9011015E0AAF10101E9E7002805DC1C
:10328000049901440491AAEB000102E0411C51455C
:1032900000DD8A460499401A401C01904FF000401E
:1032A0000290200704D40198504501DBCDF804803A
:1032B00000208DF84F0002980DF14F07B0F1004F3C
:1032C00025D02B200E9002984FF0020800280CDA2F
:1032D000404202902D200E9007E00A210298FFF74D
:1032E000B1FA3031029007F8011DB8F10001A8F1E0
:1032F0000108F2DC02980028EFD1791E0E980870C0
:10330000307800F0200040F0450007F8020D12A8C8
:10331000C01B00F107081498007800B1012000EBF1
:103320000A01019801EBE07105984144401A401EE2
:103330000590E00306D45B462146179A059800F0F5
:103340005DF805441498007818B15A4617999047CB
:103350006D1CE00324D55B462146179A059800F0C2
:103360004DF805441CE00498002807DBDDE9030163
:10337000884203DD0098405C179901E017993020DE
:103380005A469047049805F10105401C04900198A5
:10339000401E019004D12E205A46179990476D1C6B
:1033A000BAF10001AAF1010ADDDC05E017F8010B12
:1033B0005A46179990476D1CB8F10001A8F1010811
:1033C000F4DC5B462146179A0598ABE62D00000019
:1033D0002B000000200000002DE9F04104460025EC
:1033E0001E461746880404D405E039462020B0471D
:1033F0006D1C641EF9D52846BDE8F0812DE9F04129
:10340000044600251E469046C80301D5302700E03B
:103410002027880404D505E041463846B0476D1C96
:10342000641EF9D52846BDE8F08100004C34000840
:10343000000000206C020000E02A0008E0340008D0
:103440006C0200206C060000682B0008A100085DDB
:103450000102030405060709626409258A5904115B
:10346000228032022904412908720329089A040C97
:1034700042064A082469C4290C2A102859485A11BE
:1034800058290C9A120C9A130C2A20041951290C51
:103490009A210C9A220C9A230C42284A050C9A294C
:1034A0000C9A2A0C9A2B0C52303A80B49A310C9A0E
:1034B000320C9A330C52383A500C9A390C9A3A0C16
:1034C0009A3B0C5AFF0C29D0812D010203040410F1
:1034D000090607080902040608ACA24A041C2918B8
:0400000508000131BD
:00000001FF
