:020000040800F2
:1000000028060020C1010008C9010008CB01000832
:10001000CF010008D3010008D7010008000000004C
:10002000000000000000000000000000DD010008EA
:10003000DB01000800000000DF010008E10100080A
:10004000E3010008E5010008E7010008E9010008F4
:10005000EB010008ED010008EF010008F1010008C4
:10006000F3010008F5010008F7010008F901000894
:10007000FB010008FD010008FF0100080102000863
:100080000302000805020008070200080902000830
:100090000B0200080D0200080F0200081102000800
:1000A00013020008150200081702000819020008D0
:1000B0001B0200088D0300089D030008AD03000823
:1000C000AF030008B1030008B3030008B50300083C
:1000D000B7030008B9030008F5030008F703000898
:1000E000F9030008FB030008FD030008FF030008F4
:1000F00001040008030400080504000807040008C0
:10010000090400080B0400080D0400080F0400088F
:10011000110400081304000815040008170400085F
:10012000190400081B0400081D0400081F0400082F
:10013000DFF80CD002F0E8F9004800476D22000813
:100140002806002030BF704720BF704740BF70476F
:10015000BFF36F8F7047BFF34F8F7047BFF35F8F51
:10016000704701DF7047EFF31480704780F3148805
:10017000BFF36F8F7047EFF30980704780F30988F2
:100180007047EFF30880704780F30888704762B6C5
:10019000704772B67047EFF31080704771B67047C2
:1001A00061B67047EFF31380704780F31188704792
:1001B000EFF31280704740BA704700BA70470000F2
:1001C0000048004731010008704700BFFEE700BF4C
:1001D000FEE700BFFEE700BFFEE7704770477047CD
:1001E0007047704770477047704770477047704757
:1001F0007047704770477047704770477047704747
:100200007047704770477047704770477047704736
:100210007047704770477047704710B50421804899
:1002200000F033FA00287CD104217D4800F047FA21
:100230007C480068401C7B4908607B4800680128B6
:1002400037D17A480068401E78490860084600683F
:10025000002819D176480068401C75490860084696
:1002600000687449096888420FD273487049096868
:1002700050F821006D49086070486D49096830F8F0
:1002800011004FF08041C86274E069480068401E68
:10029000674908606948096830F811004FF08041EB
:1002A000C862022060490860654800685F490860CC
:1002B00060E05D480068022813D15C480068401E79
:1002C0005A49086008460068002853D1032056495F
:1002D000086059485649096850F821005349086098
:1002E00048E05148006803282AD150480068401E61
:1002F0004E4908600846006808BB4D480068A8B130
:100300004B480068401E4A4908604B48096850F84D
:1003100021004649086049484549096830F81100FC
:1003200000E023E04FF08041C86223E04FF08040BE
:1003300000684FF6FE7108404FF08041086019E0F8
:1003400039480068042815D138480068401E3749EC
:1003500008600846006868B94FF0804000684FF6B2
:10036000FE7108404FF08041086003E004212C48F2
:1003700000F0A7F9012081074862800700694FF665
:10038000FE7108404FF08041086110BD00202D49EA
:10039000086001202B4914310860704700202A4969
:1003A0000860012028491431086070477047704781
:1003B000704770477047704710B540F22551234889
:1003C00001F020FD58B140F22551204801F040FDD8
:1003D0001E48001D0188001F01F0B1FC09E040210A
:1003E0001A4801F003FD012803D14021174801F00C
:1003F00006FD10BD704770477047704770477047E3
:100400007047704770477047704770477047704734
:100410007047704770477047704770477047704724
:1004200000080140100000202800002018000020D3
:100430001C0000202000002030000020C00100200F
:100440002400002010040040100800400038014043
:100450001049096801F038010E4A11601146096817
:100460000143116070470B49096821F00801094AEE
:100470001160114609680143116070470549096818
:1004800021F01001034A116011460968014311600F
:10049000704700000020024010B50446C549601AAC
:1004A0008C422FD009DCC448201810D0B0F5806FE2
:1004B00016D0B0F5006F4AD11BE0B0F5806F2AD09E
:1004C000B0F5006F30D0B0F5406F40D135E001217C
:1004D000042000F0EDFC0021042000F0E9FC37E0EE
:1004E0000121082000F0E4FC0021082000F0E0FCDD
:1004F0002EE00121102000F0DBFC0021102000F094
:10050000D7FC25E00121202000F0D2FC0021202092
:1005100000F0CEFC1CE00121402000F0C9FC0021CD
:10052000402000F0C5FC13E00121802000F0C0FC59
:100530000021802000F0BCFC0AE00121080200F04C
:10054000B7FC00214FF4807000F0B2FC00E000BF67
:1005500000BF10BD10B50121084600F0A9FC002124
:10056000012000F0A5FC10BD2DE9F0410246002558
:100570000026002000230024002791F803C00CF07F
:100580000F0591F803C01CF0100F03D091F802C0C2
:100590004CEA050591F800C0BCF1000F31D0146899
:1005A00000202BE04FF0010C0CFA00F3B1F800C072
:1005B0000CEA03069E4220D183004FF00F0C0CFA88
:1005C00003F7BC4305FA03FC4CEA040491F803C0AA
:1005D000BCF1280F06D14FF0010C0CFA00FCC2F858
:1005E00014C00AE091F803C0BCF1480F05D14FF0E8
:1005F000010C0CFA00FCC2F810C0401C0828D1D332
:100600001460B1F800C0BCF1FF0F34DD5468002065
:100610002EE000F1080C4FF0010808FA0CF3B1F8D5
:1006200000C00CEA03069E4221D183004FF00F0C5C
:100630000CFA03F7BC4305FA03FC4CEA040491F8F6
:1006400003C0BCF1280F05D100F1080C08FA0CF822
:10065000C2F8148091F803C0BCF1480F07D100F133
:10066000080C4FF0010808FA0CF8C2F81080401C82
:100670000828CED35460BDE8F0814FF6FF710180A9
:10068000022181700421C1707047024600209368E6
:100690000B4201D0012000E000207047014688682D
:1006A00080B2704702460020D3680B4201D001207F
:1006B00000E0002070470146C86880B270470161C1
:1006C0007047416170470AB1016100E041617047C4
:1006D000C16070474FF480320A4382618161826158
:1006E00082698269704702460020344B18684FF6D1
:1006F0008073184040EA02100843304B186070477E
:100700002F49C8617047F0B50A4600230024002134
:1007100000252A4E7168C0F3034583B200F44016E9
:10072000B6F5401F08D121F07061244E766826F09E
:100730007066224F7E6012E000F48016B6F5801FCE
:1007400006D1032606FA05F4A14341F0706106E0E4
:10075000460D360103FA06F6B14341F0706122B14D
:10076000460D360103FA06F63143144E7160F0BDB2
:1007700030B500228B071C0F0F2303FA04F20F4B36
:1007800008338C1053F8243093430C4C08348D10EC
:1007900044F8253023468C1053F824308C07240F5E
:1007A00000FA04F42343054C08348D1044F8253036
:1007B00030BD00000014014000F8FEBF0000014001
:1007C000000020420020411EEE4A11606FF070428E
:1007D000ED49C1F884204FF0FF314FF0E022C2F81C
:1007E00080126FF07042E9490A6000BF04E0002205
:1007F000E74941F82020401C0F28F8D3704700201B
:100800004FF02061E34A11600021121D1160E2499E
:10081000121D11600021121D1160121D116000BF18
:1008200005E00022DB49143141F82020401C032858
:10083000F7D30021D74A20321160491E121D1160E2
:10084000121D1160121D11607047D3490143D14A36
:10085000083211607047F0B5002100220023002506
:100860000F24C678002E36D0CA4E0836366806F4F5
:10087000E066C6F5E066310AC1F10405CC40467871
:1008800006FA05F186782640314309010678B60755
:10089000F60EB140BE4E0778BF1056F827200678F6
:1008A000B607F70EFF2606FA07F39A4319400A43E4
:1008B000B74E0778BF1046F82720067806F01F07C6
:1008C0000126BE4007787F114FF0E02C0CEB870724
:1008D000C7F800610BE0067806F01F070126BE404E
:1008E000A84F90F800C04FEA6C1C47F82C60F0BD90
:1008F0000021017041708170C170704710B5FFF721
:1009000048FC10BD10B5FFF742FC10BD10B5FFF755
:1009100045FC10BD10B5FFF743FC10BD10B50446F3
:100920002001FFF742FC10BD10B5FFF741FC10BDE0
:1009300098480068C0F30930704710B501460020A0
:10094000002201F01F04012303FA04F28D4B8033CF
:100950004C1153F824301340934201D1012000E0A0
:10096000002010BD8D490860704700F01F02012172
:100970009140864A121F431142F823107047854860
:100980000068C0F30900704710B50146002000223E
:1009900001F01F04012303FA04F27C4B7C334C1159
:1009A00053F824301340934201D1012000E000208D
:1009B00010BD7848001F00687047794A0A4002431A
:1009C000744B1B1D1A6070477348001D7149083134
:1009D000086070477048401C6E49083108607047D5
:1009E00039B16C4A0C32126802436A4B0C331A60FC
:1009F00006E0684A0C3212688243664B0C331A6078
:100A0000704710B5002200F01F04012303FA04F21E
:100A100039B1604B20331B6813435E4C2034236094
:100A200006E05C4B20331B6893435A4C2034236010
:100A300010BDF0B503460C4615460020FF220026E7
:100A40000021544F08373F6807F4E067C7F5E067B7
:100A5000390AC1F10400CA4004FA00F105EA0207AC
:100A60003943090103F0C0008009C3F30122D70014
:100A7000B9404FEAC20CFF2707FA0CF6454F14376E
:100A800057F82070B743DFF80CC10CF1140C4CF888
:100A90002070674657F820700F434CF82070F0BD67
:100AA00010B50246002000230021910A01F00F0139
:100AB000012404FA01F1374C2034246804EA0103CC
:100AC0008B4201D1012000E0002010BD002100F088
:100AD0001F01304A126801238B401A432D4B1A60C4
:100AE000704710B5002100F01F012A4A12684B1E02
:100AF00001249C402243274B1A6010BD10B50246CA
:100B0000002000230021C2F38331012404FA01F103
:100B1000204C2034246804EA01038B4201D10120D7
:100B200000E0002010BD30B5014600200022002367
:100B3000C1F38142C1F301531AB9164C283420681D
:100B400011E0012A0CD1134C24342468DD0024FA6E
:100B500005F0022B02D000F00F0004E0C0B202E06A
:100B60000C4C2C34206830BD014600200022C1F31B
:100B700080521AB9074B3033186802E0054B343302
:100B80001868704780E100E000E100E084E200E0E6
:100B900000E400E004ED00E00000FA0500EF00E0F2
:100BA00080FFFF1FDE48006840F00100DC4908605C
:100BB00008464068DB490840D94948600846006853
:100BC000D9490840D64908600846006820F48020CA
:100BD00008600846406820F4FE00486000208860F5
:100BE0007047CF49096821F48031CD4A1160114620
:100BF000096821F480211160B0F5803F03D0B0F581
:100C0000802F0ED106E0C649096841F48031C44AFC
:100C1000116007E0C249096841F4A021C04A11608F
:100C200000E000BF00BF704710B50146002200235E
:100C300000204A11012A02D1B94C236806E0022A99
:100C400002D1B74C236A01E0B54C636A01F01F0280
:100C5000012494401C4201D0012000E0002010BD7E
:100C600010B5002400BF3120FFF7DEFFAF49087048
:100C7000AF480068401CAE490860AC48007828B90D
:100C800008460068A0F58071FF39ECD13120FFF7EC
:100C9000CBFF08B1012400E00024204610BD01462E
:100CA00000209F4A106820F0F80040EAC100106060
:100CB0007047A0490860704702460020984B58686A
:100CC00020F47C1042EA01031843954B58607047AA
:100CD00098490866704701460020914A506820F004
:100CE00003000843506070478D48406800F00C00D6
:100CF0007047014600208A4A506820F0F0000843FF
:100D00005060704701460020854A506820F4E0603A
:100D100008435060704701460020814A506820F423
:100D2000605040EAC1005060704729B17C4A527A55
:100D300002437B4B5A7204E0794A527A8243784BE1
:100D40005A7270477C490860704701460020744A17
:100D5000506820F440400843506070470021774AB3
:100D600011706F4A82F82010012802D0042808D19F
:100D700003E00121714A117004E005216F4A1170EE
:100D800000E000BF00BF70476D49086070476449CC
:100D9000096A0143624A116270476949443908602F
:100DA000704730B500210022002400235C4D6D689F
:100DB00005F00C0121B1042905D0082923D105E053
:100DC000604D056022E05F4D05601FE0544D6D6889
:100DD00005F47012022505EB9242514D6D6805F441
:100DE00080341CB9584D554305600BE04C4D6D687F
:100DF00015F4003F03D0544D5543056002E0514DBA
:100E00005543056002E04F4D056000BF00BF444DF3
:100E10006D6805F0F00109094C4D6B5C0568DD401B
:100E200045603F4D6D6805F4E061090A474D6B5C14
:100E30004568DD4085603A4D6D6805F46051C90A2A
:100E4000424D6B5C4568DD40C560354D6D6805F40D
:100E50004041890B3E4D6B5CC568B5FBF3F5056100
:100E600030BD29B12E4A526902432D4B5A6104E02C
:100E70002B4A526982432A4B5A61704729B1284A4A
:100E800092690243264B9A6104E0254A92698243A3
:100E9000234B9A61704729B1214AD2690243204B02
:100EA000DA6104E01E4AD26982431D4BDA61704761
:100EB00029B11B4AD2680243194BDA6004E0184A90
:100EC000D2688243164BDA60704729B1144A12691E
:100ED0000243134B1A6104E0114A12698243104B1A
:100EE0001A61704716494039086070471149C86453
:100EF00070470B49C87170470948406A40F08070DC
:100F000007494862704701460020054A92680A4234
:100F100001D0012000E0002070470149887270472D
:100F2000001002400000FFF8FFFFF6FE0400002062
:100F30000000002000004242D8004242201002403F
:100F40008004424200127A0000093D007C2500081E
:100F50008C25000810B50446F749601A8C4245D02C
:100F60000CDCB4F1804F1DD0F448201823D0B0F52C
:100F7000806F29D0B0F5006F54D12EE0B0F5806FAE
:100F80003DD0B0F58E3F03D0B0F5923F4AD13FE05F
:100F90000121C802FFF78CFF00214FF40060FFF72A
:100FA00087FF40E001210846FFF78FFF0021012065
:100FB000FFF78BFF37E001210220FFF786FF0021BA
:100FC0000220FFF782FF2EE001210420FFF77DFFC2
:100FD00000210420FFF779FF25E001210820FFF719
:100FE00074FF00210820FFF770FF1CE00121102092
:100FF000FFF76BFF00211020FFF767FF13E00121CF
:101000002020FFF762FF00212020FFF75EFF0AE0AB
:1010100001214803FFF74CFF00214FF40050FFF778
:1010200047FF00E000BF00BF10BD028802F08F0242
:101030000280CA884B881A4303881A4302808A8830
:1010400082850A88028501228282BD4A904202D0AE
:10105000BC4A904201D10A7A0286704770B50024DA
:1010600000220023058C4FF6FE7635400584028C65
:101070008388048B4FF68F752C400D882C43751E8A
:101080002A400D892A434D882A43CD888586AC4D58
:10109000A84202D0AB4DA84213D14FF6F7752A40B3
:1010A0004D892A434FF6FB752A408D882A4347F61F
:1010B000FF652B4047F6FF552B408D892B43CD898B
:1010C0002B4383800483028470BD70B5002400220A
:1010D0000023058C4FF6EF7635400584028C83881B
:1010E000048B48F6FF752C400D884FF6FF7606EA14
:1010F00005252C434FF6DF752A400D8906EA0515B4
:101100002A434D8806EA05152A43CD8805878C4D6C
:10111000A84202D08B4DA8421DD14FF67F752A40C0
:101120004D894FF6FF7606EA05152A434FF6BF753F
:101130002A408D8806EA05152A4347F6FF352B40DD
:1011400047F2FF752B408D8906EA85052B43CD8933
:1011500006EA85052B4383800483028470BD70B545
:10116000002400220023058C4FF6FF6635400584DD
:10117000028C8388848B4FF68F752C400D882C430E
:101180004FF6FF552A400D894FF6FF7606EA0525F2
:101190002A434D8806EA05252A43CD888587684D70
:1011A000A84202D0674DA8421DD14FF2FF752A40D8
:1011B0004D894FF6FF7606EA05252A434FF6FF359F
:1011C0002A408D8806EA05252A4346F6FF752B40FE
:1011D00045F6FF752B408D8906EA05152B43CD8911
:1011E00006EA05152B4383808483028470BD70B5A5
:1011F000002400220023058C4EF6FF76354005843E
:10120000028C8388848B48F6FF752C400D884FF63E
:10121000FF7606EA05252C434DF6FF752A400D8919
:1012200006EA05352A434D8806EA05352A43CD8866
:10123000A0F84050424DA84202D0424DA84207D1EA
:10124000C3F30D038D894FF6FF7606EA85152B4310
:1012500083808483028470BD828B4FF2FF331A40F7
:101260008283828B4FF6FF7303EA01231A43828342
:101270007047F0B50C461546002100220026078C69
:101280004EF6FF7C07EA0C070784818B028C4FF631
:10129000FF7707EA043640F6FF4739404FF6FF77FD
:1012A00007EA05274FF6FF7C0CEA033C47EA0C07E8
:1012B00039434DF6FF773A4046F480573A438183ED
:1012C0000284F0BD828B4FF6F3731A408283828BC7
:1012D0000A4382837047F0B50C4615460021002270
:1012E0000026078C4FF6FF6C07EA0C070784818BFA
:1012F000028C4FF6FF7707EA04264FF60C77394049
:101300004FF6FF7707EA03172F4339434FF6FF578E
:101310003A4046F480773A4381830284F0BD028BE1
:101320004FF2FF331A400283028B4FF6FF7303EA3A
:1013300001231A43028370470010004000FCFFBFE6
:10134000002C014000340140F0B50C461546002148
:1013500000220026078C4FF6EF7C07EA0C07078473
:10136000018B028C4FF6FF7707EA041640F6FF4721
:1013700039404FF6FF7707EA033739434FF6FF77D7
:1013800007EA052739434FF6DF773A4046F0100762
:101390003A4301830284F0BD028B4FF6F3731A4087
:1013A0000283028B0A4302837047F0B50C46154650
:1013B00000210022068C4FF6FE773E400684018B0A
:1013C000028C4FF60C7631407E1C06EA03162E4343
:1013D00031437E1E324044F00106324301830284D1
:1013E000F0BD70B505460C46208850B92389A28807
:1013F00061882846FFF7D9FFE1882846FFF7CCFF30
:1014000025E0208804280AD12389A28861882846FB
:10141000FFF79AFFE1882846FFF781FF17E0208851
:1014200008280AD12389A28861882846FFF753FF3C
:10143000E1882846FFF746FF09E02389A2886188F2
:101440002846FFF716FFE1882846FFF705FF70BD25
:101450002DE9F04105460C4600260127608808B9B1
:10146000022600E00026A088012801D1022700E022
:1014700001272088A0B92389A28861882846FFF720
:1014800094FFE1882846FFF787FF23893A463146D3
:101490002846FFF759FFE1882846FFF740FF13E091
:1014A0002389A28861882846FFF74EFFE1882846F5
:1014B000FFF735FF23893A4631462846FFF775FF87
:1014C000E1882846FFF768FFBDE8F0810A884B886D
:1014D0001A438B881A43CB881A430B891A434B89CA
:1014E0001A438B891A43A0F8442070474FF6FF71C6
:1014F000818000210180C1804180017270470021FC
:10150000018041808180C180018141818181C181CF
:101510007047002101804180012181800021C1802C
:10152000018170470021018041808180C18001815B
:1015300041818181704721B1028842F0010202801D
:1015400004E0028840F2FE331A400280704731B155
:10155000B0F8442042F40042A0F8442005E0B0F87E
:101560004420C2F30E02A0F8442070471AB18389C8
:101570000B43838102E083898B438381704781829F
:10158000704741EA0203A0F8483070471AB18389D6
:101590000B43838102E083898B43838170470189F8
:1015A0004FF6F8721140018170470A460021018907
:1015B0004FF68F73194011430181704730B50446CF
:1015C0000D4629462046FFF7F0FF208940F007002E
:1015D000208130BD2DE9F04104460D4616461F46D8
:1015E000602D06D13B46012231462046FFF7ACFE76
:1015F00005E03B46012231462046FFF7D6FE29464C
:101600002046FFF7D2FF208940F007002081BDE887
:10161000F08170B50C4600210189C9B244EA020587
:101620004FF6FF7606EA032635432943018170BD54
:101630002DE9F04105460E461746984600244346DC
:101640003A4631462846FFF7E4FF2C894FF6F870FA
:10165000044044F007044FF68F70044044F07004D7
:101660002C81BDE8F081F0B504460D4616461F46B4
:101670003B46324629462046FFF7CBFF208940F4FF
:1016800080402081F0BD0185828270470A4600219A
:10169000018840F28F331940114301807047F0B543
:1016A0000C4615461E460021002200230189028BAC
:1016B000038C4FF6F877394021434FF6FC473A4008
:1016C00040F201173A434FF6DD773B404FF6FF7784
:1016D00007EA06172F433B43018102830384F0BDD1
:1016E0000A460021018B4FF68F7319401143018385
:1016F00070470A460021018B48F6FF7319404FF6E8
:10170000FF7303EA02231943018370470A4600214D
:10171000818B4FF68F7319401143818370470A46BE
:101720000021818B48F6FF7319404FF6FF7303EADF
:10173000022319438183704721B1028842F080025D
:10174000028004E0028840F27F331A400280704732
:1017500021B1828842F00402828004E082884FF640
:10176000FB731A408280704721B1828842F00802E0
:10177000828004E082884FF6F7731A4082807047B7
:1017800021B1828842F00102828004E082884FF613
:10179000FE731A40828070470A460021018B4FF683
:1017A000F77319401143018370470A460021018BEA
:1017B0004FF2FF7319404FF6FF7303EA02231943F8
:1017C000018370470A460021818B4FF6F773194059
:1017D0001143818370470A460021818B4FF2FF73CA
:1017E00019404FF6FF7303EA0223194381837047C0
:1017F0000A460021018B4FF6FB7319401143018308
:1018000070470A460021018B4FF6FF3319404FF60F
:10181000FF7303EA02231943018370470A4600213C
:10182000818B4FF6FB7319401143818370470A4641
:101830000021818B4FF6FF3319404FF6FF7303EA07
:1018400002231943818370470A460021018B4FF61A
:101850007F7319401143018370470A460021018BB1
:10186000C1F30E014FF6FF7303EA0223194301830C
:1018700070470A460021818B4FF67F731940114350
:10188000818370470A460021818BC1F30E014FF618
:10189000FF7303EA02231943818370470A4600213C
:1018A000018C4FF6FD7319401143018470470A46BD
:1018B0000021018C4FF6F7731940114301847047E2
:1018C0000A460021018C4FF6DF7319404FF6FF7373
:1018D00003EA02131943018470470A460021018C70
:1018E0004FF67F7319404FF6FF7303EA0213194353
:1018F000018470470A460021018C4FF6FF531940BE
:101900004FF6FF7303EA02231943018470470A4626
:101910000021018C4FF2FF7319404FF6FF7303EA69
:1019200002231943018470470A460021018C4DF6B9
:10193000FF7319404FF6FF7303EA02331943018422
:10194000704710B5038C01248C40A3430384038C9F
:1019500002FA01F4A4B22343038410BD10B5038C32
:1019600004248C40A3430384038C02FA01F4A4B240
:101970002343038410BD30B5038C01248C40A34362
:10198000038409B1082912D100F1180303EB6103A4
:101990001B684FF68F74234000F1180404EB6104B8
:1019A000236000F1180303EB61031A6018E00B1FBA
:1019B000C3F34E0400F118031B5948F6FF7423408B
:1019C0000C1FC4F34E0500F1180463514FF6FF736A
:1019D00003EA02240B1FC3F34E0500F118035C5108
:1019E00030BD21B1028842F00202028004E0028888
:1019F00040F2FD331A400280704721B1028842F064
:101A00000402028004E0028840F2FB331A400280A4
:101A1000704721B1828842F08002828004E082888F
:101A20004FF67F731A4082807047028840F2F73386
:101A30001A40028002880A430280704782884FF66B
:101A40008F731A40828082880A438280704702899D
:101A50004FF6F8731A40028102890A4302817047E7
:101A600002894FF67F731A40028102890A4302817C
:101A700070478184704781857047818670470187F0
:101A8000704781877047A0F8401070470288D2B233
:101A9000028002880A43028070470146888E7047A0
:101AA0000146088F70470146888F70470146B1F89C
:101AB000400070470146888C70470146088D70478A
:101AC00002460020138A0B4201D0012000E00020D2
:101AD0007047CA430282704730B502460020002397
:101AE0000024158A05EA0103958905EA010413B16A
:101AF0000CB1012000E0002030BDCA4302827047D3
:101B000010B50446D749601A8C422BD006DCD64863
:101B1000201813D0B0F5806F38D119E0B0F5806F80
:101B20002AD0B0F56C4F31D101218803FFF7C0F9FD
:101B300000214FF48040FFF7BBF928E00121480461
:101B4000FFF7C3F900214FF40030FFF7BEF91EE0A4
:101B500001218804FFF7B9F900214FF48020FFF735
:101B6000B4F914E00121C804FFF7AFF900214FF4E4
:101B70000020FFF7AAF90AE001210805FFF7A5F9FF
:101B800000214FF48010FFF7A0F900E000BF00BF74
:101B900010BD2DE9F04786B005460E460024A2464A
:101BA00000BF00BF00272F462C8A4CF6FF70044070
:101BB000F08804432C82AC894EF6F3100440B088C0
:101BC00031890843718908430443AC81AC8A4FF6DC
:101BD000FF400440B0890443AC8201A8FFF7E1F85C
:101BE000A248874202D1DDF810A001E0DDF80CA088
:101BF0000AEBCA0000EB0A1031688900B0FBF1F86B
:101C00006420B8FBF0F004012009642101FB108975
:101C1000322000EB0910B0FBF1F000F00F0004439C
:101C20002C8106B0BDE8F0874FF416510160002109
:101C30008180C18001810C21418100218181704717
:101C400010B502460020108A4FF2FF0318400B889F
:101C50004C8823438C882343CC8823431843108229
:101C600010BD0021018041808180C180704721B179
:101C7000828942F40052828104E082894DF6FF732A
:101C80001A4082817047F0B50346002400260025E3
:101C900000201846C1F3421401F01F06012707FA7D
:101CA00006F5012C01D10C3004E0022C01D11030DA
:101CB00000E014301AB107682F43076002E007689C
:101CC000AF430760F0BD1AB1838A0B43838202E001
:101CD000838A8B4383827047028A4FF6F0731A40DF
:101CE0000282028A0A430282704782894FF2FF739E
:101CF0001A40828182890A438281704721B1828998
:101D000042F00202828104E082894FF6FD731A409C
:101D100082817047028A4FF6DF731A400282028A7C
:101D20000A430282704721B1028A42F48042028251
:101D300004E0028A4BF6FF731A4002827047C1F337
:101D400008028280704701468888C0F30800704707
:101D5000818941F0010181817047028BD2B20283F7
:101D6000028B42EA012202837047028B02F47F4217
:101D70000283028B0A430283704721B1828A42F0B8
:101D80002002828204E0828A4FF6DF731A40828248
:101D9000704721B1828A42F01002828204E0828A76
:101DA0004FF6EF731A408282704721B1828A42F067
:101DB0000802828204E0828A4FF6F7731A40828218
:101DC0007047828A4FF6FB731A408282828A0A43E6
:101DD0008282704721B1828A42F00202828204E04C
:101DE000828A4FF6FD731A408282704702460020B5
:101DF00013880B4201D0012000E000207047CA4345
:101E00000280704770B502460B4600240021002571
:101E10000020C3F3421503F01F01012606FA01F169
:101E2000012D02D19689314006E0022D02D1168A99
:101E3000314001E0968A31401C12012606FA04F472
:101E40001688344011B10CB1012000E0002070BDB3
:101E500010B5002200230A1201249440A3B2DC43EF
:101E6000048010BD004C004000BCFFBF00380140A2
:101E700007E041F65E7100BF0A00A1F1010399B2CB
:101E8000FAD10200A0F1010398B2F2D1704770B507
:101E900004460D46E1B2FE48FFF751FF00BF402166
:101EA000FB48FFF7A3FF0028F9D0204670BD2DE9BD
:101EB000FC5F05460E4691461F46B5F50A7F01D8E0
:101EC00040F22925F348864200D90646F2480560CB
:101ED000F2480660701B3221B0FBF1FA322099FB08
:101EE000F0FB584600F0B8FA8046002434E0EA4897
:101EF0000068EB49B1FBF0F0EA4921F81400E6482C
:101F0000006800F0B2FA4146009000F02FFA8346D4
:101F1000E54900F061FA019000F0ACFAE34908608D
:101F200008460068E24941F82400DB480068504454
:101F3000D94908602CB9DD480068DE4941F8240021
:101F400009E0601EDB4951F82000D84909680844BF
:101F5000D84941F82400641C322CC8D33220D64919
:101F600008600DE0D348D449096850F82100B0EB6F
:101F7000570F00D208E0D0480068401ECE490860E4
:101F8000CD4800680028EDD100BFCB48006858B3A9
:101F9000C9480068401EC74951F82000A7EB40001F
:101FA000C64908600120C64908600020C54908608C
:101FB000BF48096850F82100BC4908600020C149A9
:101FC0000860C1490860B748BE49096830F8110087
:101FD0004FF08041C8624FF6FE70486208460088A4
:101FE00040F00100088019E0B04807600420B449BF
:101FF00008600020B3490860B3490860A948B149A6
:10200000096830F811004FF08041C8624FF6FE7049
:1020100048620846008840F001000880BDE8FC9F47
:102020000EB54FF40270ADF804000120ADF80000C9
:102030000020ADF80600ADF8020069464FF0804080
:10204000FEF7F3FF01218807FFF776FB0122114617
:102050009007FFF78BFA01218807FFF73AFD00216F
:102060004FF08040FFF767FA0EBD00B587B0002043
:10207000ADF80400ADF806004FF40070ADF80800AC
:102080000020ADF80A0001A98148FFF7D9FD4FF4FF
:10209000E13003900020ADF81000ADF81200ADF86B
:1020A0001400ADF818000C20ADF8160003A978480C
:1020B000FFF76FFD20217648FFF7A1FE012240F2D5
:1020C00025517348FFF7DFFD01217148FFF7CFFD70
:1020D00007B000BD08B500214FF00060FEF76DFCB1
:1020E0004FF4C060FEF7B1FB1C208DF8000000200B
:1020F0008DF801008DF8020001208DF8030068467C
:10210000FEF7A9FB1D208DF8000000208DF80100CE
:102110008DF802008DF803006846FEF79CFB1E2038
:102120008DF8000000208DF801008DF802008DF878
:1021300003006846FEF78FFB25208DF80000002085
:102140008DF801008DF8020001208DF8030068462B
:10215000FEF781FB08BD08B54FF6FF70ADF8000033
:1021600018208DF8030003208DF8020069465748B7
:10217000FEF7FAF969465648FEF7F6F969465548FA
:10218000FEF7F2F969465448FEF7EEF9FC20ADF887
:10219000000010208DF8030003208DF8020069462E
:1021A0004D48FEF7E1F940F6FF00ADF800001020C1
:1021B0008DF8030003208DF8020069464348FEF7BE
:1021C000D3F94FF40070ADF8000018208DF803002B
:1021D00003208DF8020069463C48FEF7C5F94FF42C
:1021E0008060ADF8000004208DF803006946374890
:1021F000FEF7BAF908BD10B5FEF7D4FC4FF48030F5
:10220000FEF7EFFCFEF72CFD0446012C24D1002044
:10221000FEF76FFD0020FEF77EFDA002FEF772FDC7
:102220000220FEF715F91020FEF728F94FF4E0110F
:102230002004FEF741FD0120FEF74AFD00BF3920D2
:10224000FEF7F2FC0028FAD00220FEF744FD00BFA2
:10225000FEF74AFD0828FBD1012146F63D00FEF7B6
:102260000DFE01211D48FEF716FE10BD08B5FFF753
:10227000C2FFFFF770FFFFF72DFFFFF7F6FEFFF736
:10228000CFFE17A000F052F916A000F04FF92DE094
:102290000038014040190100080000200C00002017
:1022A00000512502C001002000007A4418000020DF
:1022B00030000020F8000020200000202400002032
:1022C000280000201C000020100000200008014011
:1022D000000C0140001001400014014007000010F4
:1022E0000D0A000072657365740D0A0012A000F0FB
:1022F0001DF91FE04FF4FA70FFF7BAFD002044F615
:1023000020633C224EF6602100904FF47A60FFF784
:10231000CEFD12A000F00AF900BF4FF08040008807
:1023200010F0010FF9D10FA000F000F94FF4FA708E
:10233000FFF79EFDDEE70000BEB9C8BBC4DCCFD40A
:10234000CABED6D0CEC4A3BF20E0E6A3ACBBB9D3EF
:10235000D0D5E2B2D9D7F7A3BF0D0A00737461726A
:10236000740D0A006F7665720D0A000080EA0102A2
:1023700010B502F00043400026D04A0023D04FEAB7
:10238000106101EB1261C0F35600C2F3560240F433
:10239000000042F40002A0FB0220A1F17F014FEAFD
:1023A0000040140401D000F1010050EA124001D4B1
:1023B0004000491EC2B20C0604EBD010401C40087D
:1023C000802A02D003E0002010BD20F00100002987
:1023D00000DA0020184310BD30B480EA010202F098
:1023E000004530F0004221F0004015D0A0B1C0F30C
:1023F000C753C2F3C754C2F31601C0F31600E41A60
:1024000041F4000140F400027D34914201D3641C88
:1024100000E04900002C02DA30BC002070474FF485
:1024200000000023914201D3891A034340084FEA78
:102430004101F7D151B1914202D14FF0004105E085
:1024400002D24FF0010101E06FF0010103EBC45033
:10245000284430BC00F022B8C10F80EAE070084484
:10246000CA079623002100F022B8962300221146C5
:1024700000F01DB820F00040C10DC0F3160040F47C
:1024800000007F2901DA00207047962903DCC1F1A2
:102490009601C84070479639884070470029A8BF08
:1024A0007047401C490008BF20F00100704710B47D
:1024B000B0FA80FC00FA0CF050EA010404BF10BC32
:1024C000704749B1CCF1200421FA04F411FA0CF15F
:1024D00018BF012121430843A3EB0C01CB1D0106CA
:1024E000000A002BBEBF002010BC704700EBC35099
:1024F00010440029A4BF10BC7047401C490008BF0D
:1025000020F0010010BC7047064C074D06E0E06863
:1025100040F0010394E8070098471034AC42F6D32A
:10252000FDF70AFE90250008B0250008014A02497F
:1025300000F013B88F1E00082C00002002E008C82D
:10254000121F08C1002AFAD170477047002001E02D
:1025500001C1121F002AFBD170472DE9F041164638
:102560000F460446002503E03946B0476D1C641C45
:1025700020780028F8D12846BDE8F081000000004E
:102580000102030401020304060708090204060805
:10259000B025000800000020300000003C250008A5
:1025A000E025000830000020F80500004C25000858
:1025B000000000000000000000000000000000001B
:1025C000000000000000000000000000000000000B
:1025D00000000000000000000000000000000000FB
:0400000508000131BD
:00000001FF
