:040000000C9438061E
:040048000C945A15A5
:14008C00210A410A440A520A570A920A9B0AD60ADF0A360B94
:1400A0008D0BC50B270C490C8D0CA00CB20C920DC20D260EB7
:1400B4002D0EF10E290F610F9B0FCC0FFD0FD41400000000DD
:1400C8000000000000000000000000000000000000000041E3
:1400DC0000000000000020406669787475726520696E666FDD
:1400F000726D6174696F6E0068656C700072657365742066B0
:1401040069787475726500636F6465207665722E006F7065CC
:140118006E206E6F727468206D61676E65746963206669655E
:14012C006C6400636C6F7365206E6F727468206D61676E6566
:14014000746963206669656C64006F70656E20736F75746842
:14015400206D61676E65746963206669656C6400636C6F735A
:140168006520736F757468206D61676E65746963206669650F
:14017C006C64006D61676E65746963206669656C642075702E
:14019000006D61676E65746963206669656C6420646F776E17
:1401A4000073657420636F696C2063757272656E7400736539
:1401B800742063757272656E74206F666673657400736574A9
:1401CC00206669787475726520726174696F0063616C6375B1
:1401E0006C617465206669787475726520726174696F00728D
:1401F4006561642064617461007265616420636F696C20632D
:14020800757272656E7400726561640073616D706C652031D3
:14021C000073616D706C650073616D706C65206D61676E65A2
:14023000746963005265616420436F6D7061737320646174AF
:14024400610073657420610073657420620073657420646179
:140258000073657420696E666F0073657420646174650073FD
:14026C00657420736E00757000646F776E0074657374310016
:14028000746573743200000000000000803B4500007A4400BA
:1402940000003F0000C03F0000803F000000430000003F4691
:1402A80069787475726520496E666F726D6174696F6E0D0AE4
:1402BC000048656C700D0A00526573657420466978747572E9
:1402D000650D0A00436F6465205645522E0D0A004F70656E3F
:1402E400204E6F727468204D61676E65746963204669656CF3
:1402F800640D0A00436C6F7365204E6F727468204D61676EB3
:14030C0065746963204669656C640D0A004F70656E20536FA9
:14032000757468204D61676E65746963204669656C640D0A15
:1403340000436C6F736520536F757468204D61676E657469A7
:1403480063204669656C640D0A004D61676E65746963204695
:14035C0069656C642055700D0A004D61676E65746963204665
:1403700069656C6420446F776E0D0A0053657420436F696C39
:140384002043757272656E7420585858582E58580D0A00539A
:1403980065742043757272656E74204F66667365742058581E
:1403AC00582E58580D0A00536574204669787475726520524B
:1403C0006174696F20585858582E58580D0A0043616C63751F
:1403D4006C617465204669787475726520526174696F0D0A32
:1403E800005265616420446174610D0A005265616420436F86
:1403FC00696C2043757272656E740D0A00526561640D0A006B
:1404100053616D706C6520310D0A0053616D706C652078789C
:1404240078787820283530302D3230303030290D0A0053616C
:140438006D706C65206D61676E657469630D0A005265616407
:14044C0020436F6D7061737320646174610D0A00466978743A
:140460007572652049443A20205032205154322074657374BC
:140474002073746174696F6E0D0A00466978747572652049EB
:14048800443A0046697874757265204E616D653A5154320D3C
:14049C000A005368656E7A68656E20496E74656C6C69676542
:1404B0006E740D0A0046572056657273696F6E3A2056312E8D
:1404C40030300D0A00436F6465205645522E3D312E30300DEE
:1404D8000A00416C74657220446174653A20323031352F36E9
:1404EC002F31310D0A0000401C4500803B4500000040000073
:14050000164400000048000000450000000000007A44000042
:14051400803F00409C4500FF7F47000016430000664300002C
:140528008C430000844300000000286E756C6C2070747220B0
:14053C0070617373656429000000803F000040420000204160
:14055000CDCCCC3D0000000000000000002020202020202015
:140564002020303030303020202020202020202020202020B3
:140578002020202020904040404040404040404040404040BF
:14058C00400C0C0C0C0C0C0C0C0C0C404040404040400909D1
:1405A000090909090101010101010101010101010101010113
:1405B400010101014040404040400A0A0A0A0A0A020202026B
:1405C8000202020202020202020202020202020240404040FF
:1405DC002000000000000000000000000000000000000000EB
:1405F0000000000000000000000000000000000000000000F7
:140604000000000000000000000000000000000000000000E2
:140618000000000000000000000000000000000000000000CE
:14062C000000000000000000000000000000000000000000BA
:140640000000000000000000000000000000000000000000A6
:14065400000000000000000000F304B53F288DA641A6E3E69C
:14066800406D4C6C3D0000003F3BAAB83F0000803F00000002
:14067C0000FFFF7F7F1872B1420000000050ACAEC200000085
:1406900000000000000000000000000000000000001872319B
:1406A4003F4D11D43F4E1154402642653F0000803FF30435A8
:1406B8003FFFFF7FFF000000000000803F00000000000000B4
:1406CC00000000804E0000803F0000003F000000000000004E
:1406E0000066746F61206572726F723A206E756D626572200F
:1406F400746F6F206269670066746F61206572726F723A2000
:140708006E756D62657220746F6F20736D616C6C0066746F60
:14071C0061206572726F723A20756E6578706563746564206F
:140730006572726F72000000003F17B7D13800002041000014
:14074400803F000080BF00000000405F4000546869732063A9
:140758006F6D6D616E6420697320696C6C6567616C2C706C13
:14076C006561736520636865636B20697420616761696E00A0
:1407800000646F776E0D0A0075700D0A00736F7574680D0A50
:14079400006E6F7274680D0A00405F400032346330322025C0
:1407A800730D0A005365742044412025332E32660053657478
:1407BC0020422025332E32660053657420412025332E3266BE
:1407D0000043757272656E7420636F6D706173732069732000
:1407E40025640D0A0053616D706C65206D61676E6574696397
:1407F8002070617373002056616C75652069733A202564001A
:14080C0053616D706C652025642050617373004E4D535F7356
:14082000616D706C655B325D3A25640D0A004E4D535F7361D0
:140834006D706C655B315D3A25640D0A004E4D535F73616DB1
:14084800706C655B305D3A25640D0A0041445F73616D706C98
:14085C00655B325D3A25640D0A0041445F73616D706C655B9E
:14087000315D3A25640D0A0041445F73616D706C655B305DBE
:140884003A25640D0A00666978747572655F726174696F3AC7
:1408980025332E32660D0A0063757272656E745F6F66667307
:1408AC0065743A25332E32660D0A006D61676E657469635F49
:1408C0006F66667365743A25332E32660D0A006D61676E6526
:1408D4007469635F726174696F3A25332E32660D0A0043752B
:1408E8007272656E742069733A25332E32666D410D0A004474
:1408FC006174612069733A25332E31660D0A0043616C637560
:140910006C617465204669787475726520526174696F204F98
:140924004B2C20446174612069732025332E32660D0A00530A
:140938006574204669787475726520526174696F204F4B2CC6
:14094C0020446174612069732025640D0A005365742043753D
:140960007272656E74204F6666736574204F4B2C20446174B2
:14097400612069732025332E32660A0053657420436F696CF7
:140988002043757272656E74204F4B2C2044617461206973DC
:14099C002025332E316600536574204D61676E657469632076
:1409B0004669656C6420506173732C446174612069733A2597
:1409C400332E316600436C6F736520536F757468204D6167C9
:1409D8006E657469632050617373004F70656E20536F7574E4
:1409EC0068204D61676E65746963204669656C6420506173FF
:140A0000730D0A00436C6F7365204E6F727468204D61676E94
:140A140065746963204669656C642050617373005A2061781B
:140A2800697320636F6D706173733A25640D0A00592061789C
:140A3C00697320636F6D706173733A25640D0A005820617889
:140A5000697320636F6D706173733A25640D0A004F70656E34
:140A6400204E6F727468204D61676E65746963204669656C6B
:140A78006420506173730D0A00436F6465205645522E3D3114
:140A8C002E30560052657365742066697874757265205061A7
:140AA000737300534E3A2030303030310D0A00446174653AA1
:140AB40020323031362D31322D32300D0A0056656E646F72A1
:140AC8003A20496E74656C6C6967656E740D0A0050726F7485
:140ADC006F636F6C3A2056322E310D0A00485720537570709A
:140AF0006F72743A2056312E300D0A0025730D0A00466520CD
:140B04002D2050726F746F32202D20515432202D2056322EE3
:140B1800310D0A0053454E534F5220494943204552524F5208
:140B2C000D0A0000000000000000000000000000000000009E
:140B40000000000000000000000000000000000000000000A1
:140B540000000000000000000000000000000000000000008D
:140B6800000000000000000000000000000000000000000079
:140B7C00000000000000000000000000000000000000000065
:140B9000000000000000000000000000000000000000000051
:140BA40000000000000000000000000000000000000000003D
:140BB800000000000000000000000000000000000000000029
:140BCC00000000000000000000000000000000000000000015
:140BE000000000000000000000000000000000000000000001
:140BF4000000000000000000000000000000000000000000ED
:140C08000000000000000000000000000000000000000000D8
:140C1C000000000000000000000000000000000000000020A4
:140C30000001422069733A25660D0A00412069733A25660D86
:140C44000A0041445338333230204661696C656420746F2065
:140C5800696E697469616C697A650D0A0049443D3078257830
:030C6C000D0A006E
:140C7000CFEFD0E1CDBFDEBFCE51D0400AEA08830024E1E243
:140C8400F6E017E0E835F10711F00192FBCF0083EEE4F7E0F0
:140C9800A0E0B1E01CE000E00BBFEF36F10721F0C89531963F
:140CAC000D92F9CF0E944911FFCF809161008C7F8093610012
:140CC00080EC87B9222426B880E888B920928E0008950E9428
:140CD4000327AA24BB24CC24DD24369A349BFECF349AC4B096
:140CE800DD2425B03324322C2224C228D32800EE10E00E94C2
:140CFC008E261801290186010E94D1283A932A931A930A93F7
:140D1000810192010E94F22A0E949F2858010C94E6260E94EC
:140D2400FD26649784EC90E0FE0104E110E0FA93EA939A93B2
:140D38008A930E94BC27EE24FF246627CC24DD24AA24BB24A5
:140D4C0087E886B944270FC0BEDFCE01E42FFF27EE0FFF1FEB
:140D6000E80FF91F1183008304E610E00E94400743954A3044
:140D740078F3222426B8442749C069E03EC0CE01E62FFF2717
:140D88003197EE0FFF1FE80FF91F20803180CE01E62FFF270A
:140D9C00EE0FFF1FE80FF91F408051802414350408F026C039
:140DB000CE01E62FFF273197EE0FFF1FE80FF91FE080F18062
:140DC400CE01E62FFF27EE0FFF1FE80FF91F20803180CE01C7
:140DD800E62FFF273197EE0FFF1FE80FF91F31822082CE01B6
:140DEC00E62FFF27EE0FFF1FE80FF91FF182E0826A95242E68
:140E00003324462E5524241435040CF4BACF43954A3008F452
:140E1400B4CF41E00CC0CE01E42FFF27EE0FFF1FE80FF91F28
:140E280020803180C20CD31C4395493090F386010E94D128B2
:140E3C00180129010CED10E00E948E263A932A931A930A934C
:140E5000810192010E9456281801290108ED10E00E948E26DB
:140E64003A932A931A930A93810192010E94FE280E949F2860
:140E7800580164960C94F2264A935A930AC046E356E002C0A6
:140E8C004150504040304507D9F7015010400030010799F73C
:140EA0005991499108950CC000000000000000000000000011
:140EB4000000000000000000015010400030010789F7089534
:140EC8008FEF8ABB87BB88B38F7088BB8FEF84BB81BB82B960
:140EDC0080936100809364008AB3897F8ABB8BB386608BBB23
:140EF00080916400887F8093640084B38C7F84BB8091650004
:140F040087608093650085B3836085BB08954A93F8942224D3
:140F18002CBED6DF00E012EC21E030E00E9432152224209256
:140F2C006D0025BE20926C0020926A002ABE29BE84E087BFAE
:140F400020927D007894442709C081EE94E0E42FFF27E80F1B
:140F5400F91F2224208243954035A8F349910895E199FECFE3
:140F68001FBB0EBB2DBBE29A86E08CBB0895E199FECF1FBB03
:140F7C000EBBE09A0DB308954A935A934427552714C0FA0141
:140F9000E00FF11F20803324822D813450F08AE5821538F085
:140FA4001A01200E311EF1018081805E80834F5F5F4FFA0176
:140FB800E00FF11F2080222031F75991499108954A938091CD
:140FCC00620088608093620000000000000000000000000052
:140FE00000000000000000000000000000000000809162008A
:140FF4008460809362008091620080618093620000000000C7
:141008000000000000000000000000000000000000000000D4
:14101C00000000000000809162008F7E8093620000000000CB
:141030000000000000000000000000000000000000000000AC
:141044000000000000000000442734C017FF06C080916200EA
:1410580084608093620005C0809162008B7F80936200809163
:14106C006200877F8093620000000000000000000000000093
:1410800000000000000000000000000000000000000000005C
:14109400000000000000000000000000000000000000000048
:1410A80080916200886080936200000F111F4395483108F4D8
:1410BC00C9CF00008091620080618093620080916200877F46
:1410D000809362000000499108950DE00E94CD150AE00E9423
:1410E400CD1500E011E00C94D1150E9412276C8149C0F801F5
:1410F80020803324822D8134C8F08AE58215B0F0F90126907B
:14110C003324822D813680F08AE7821568F02690F801808192
:14112000805E821529F40F5F1F4F2F5F3F4F2CC001E031C073
:14113400F801408155274136C0F08AE78417A8F0F9014691D5
:141148005527413480F08AE5841768F02690F801808180524E
:14115C00821529F40F5F1F4F2F5F3F4F0FC001E014C0F90155
:141170002690F8013080321429F40F5F1F4F2F5F3F4F02C0EF
:1411840001E007C0462F55276150442309F0B1CF00270C9466
:1411980017270E940827219741EE54E083E1888324EE30E088
:1411AC008A019FDF002311F401E020C184E0888328EF30E0A6
:1411C0008A0195DF002311F402E016C18DE088832DEF30E097
:1411D4008A018BDFA02E002311F403E00BC189E088832BE0EE
:1411E80031E08A0180DFA02E002311F404E000C189E18883E8
:1411FC0025E131E08A0175DFA02E002311F405E0F5C08AE1EE
:1412100088832FE231E08A016ADFA02E002311F406E0EAC043
:1412240089E188832AE431E08A015FDFA02E002311F407E07C
:14123800DFC08AE1888324E631E08A0154DFA02E002311F4BE
:14124C0008E0D4C081E188832FE731E08A0149DFA02E0023DA
:1412600011F409E0C9C083E1888321E931E08A013EDFA02E03
:14127400002311F40AE0BEC080E1888325EA31E08A0133DFAD
:14128800A02E002311F40BE0B3C082E1888326EB31E08A01E3
:14129C0028DFA02E002311F40CE0A8C081E1888329EC31E05A
:1412B0008A011DDFA02E002311F40DE09DC087E188832BEDD8
:1412C40031E08A0112DFA02E002311F40EE092C089E08883DF
:1412D80023EF31E08A0107DFA02E002311F40FE087C081E1E0
:1412EC0088832DEF31E08A01FCDEA02E002311F400E17CC03E
:141300002090C30628822FE032E08A01F0DEA02E002311F446
:1413140001E170C02090C306288224E132E08A01E4DEA02E5E
:14132800002311F402E164C08FE0888324E232E08A01D9DEAE
:14133C00A02E002311F404E159C086E088832DE132E08A018D
:14135000CEDEA02E002311F403E14EC081E1888324E332E06F
:141364008A01C3DEA02E002311F405E143C085E0888326E4F0
:1413780032E08A01B8DEA02E002311F406E138C085E08883E9
:14138C002CE432E08A01ADDEA02E002311F407E12DC088E0E2
:1413A000888329E532E08A01A2DEA02E002311F409E122C041
:1413B40088E0888322E632E08A0197DEA02E002311F40AE1B7
:1413C80017C086E0888322E532E08A018CDEA02E002311F4C5
:1413DC0008E10CC086E088832BE632E08A0181DEA02E0023D9
:1413F00011F40BE101C008EC21960C940D270E94FD26A02E25
:14140400A7974A2D55274130E0E05E070CF428C68BE190E043
:141418008417950764F08CE890E0FA013197EE0FFF1FE80F7C
:14142C00F91F27903690F1010994483CE0E05E0709F40EC60E
:1414400011C603EB14E00E94BF369E012E5F3F4F0EEA14E0A2
:141454000E94BF360BE914E00E94BF360AE814E00E94BF36F1
:1414680004E714E00E94BF3601E614E00E94BF3605E514E0AA
:14147C000E94BF36F1C50E94F115EEC581E08093E30522270F
:1414900003E50E940C17C598C49802E414E00E94BF36E0C5CC
:1414A40003E314E00E94BF36DBC521E00EE40E940C1704E681
:1414B80010E0E2DC0E94901202E114E00E94BF364090B90631
:1414CC005090BA062090B7063090B8064882598291010EEF4D
:1414E00013E00E94BF364090B5065090B6062090B30630901E
:1414F400B4064882598291010AEE13E00E94BF364090B106EA
:141508005090B2062090AF063090B00648825982910106ED32
:14151C0013E00E94BF36A0C522270EE40E940C1706EB13E0E8
:141530000E94BF3697C521E003E50E940C1704E610E09EDCB2
:141544000E94901205E913E00E94BF364090B9065090BA06A8
:141558002090B7063090B8064882598291010EEF13E00E94CB
:14156C00BF364090B5065090B6062090B3063090B4064882A2
:14158000598291010AEE13E00E94BF364090B1065090B20649
:141594002090AF063090B00648825982910106ED13E00E94A9
:1415A800BF365CC5222703E50E940C170BE713E00E94BF36A7
:1415BC0053C581E08093E30500270E94D71E10933606009377
:1415D000350630933806209337061801290103E912E00E9418
:1415E4008E263A932A931A930A93810192010E945628109393
:1415F800360600933506309338062093370685E396E00FE80F
:14160C0012E00E948E269A938A930E94182B64F40FE812E012
:141620000E948E2610933606009335063093380620933706C2
:1416340081E0888320913706309138060091350610913606A0
:141648000E945417409037065090380620903506309036066F
:14165C0048825982910105E513E00E94BF36FCC481E080939B
:14167000E30500270E94D71E10933606009335063093380612
:14168400209337061801290103E912E00E948E263A932A9361
:141698001A930A93810192010E9479281093360600933506EF
:1416AC00309338062093370685E396E00FE812E00E948E261C
:1416C0009A938A930E94182B64F40FE812E00E948E261093AD
:1416D400360600933506309338062093370681E088832091EA
:1416E80037063091380600913506109136060E94541740902C
:1416FC00370650903806209035063090360648825982910161
:1417100005E513E00E94BF36A5C481E08093E30544270FC052
:1417240082EF94E0E42FFF27E80FF91F2080CE010296E42F6A
:14173800FF27E80FF91F20824395463078F3CE0102965C0149
:14174C008C010E94CF2D1093360600933506309338062093FD
:14176000370681E088830E94541740903706509038062090E4
:1417740035063090360648825982910102E313E00E94BF3684
:141788006DC444270FC084EF94E0E42FFF27E80FF91F208013
:14179C00CE010296E42FFF27E80FF91F20824395463078F32F
:1417B000CE0102965C018C010E94CF2D109336060093350689
:1417C40030933806209337062883398398010CE013E00E949F
:1417D800BF3600E10E94D71E109332060093310630933406EE
:1417EC00209333062091370630913806009135061091360667
:1418000081E396E09A938A930E943F281093360600933506FA
:14181400309338062093370628833983980100E10E94A91E85
:1418280081E08093E30500270E94D71E1093360600933506E5
:14183C00309338062093370681E088830E9454170BC401EE70
:1418500014E04BD41801442455243092630620926206509250
:14186400650640926406910106E00E94801E409064065090F7
:141878006506209062063090630648825982910109EE12E090
:14188C000E94BF36E9C30BE812E00E948E2610933606009358
:1418A0003506309338062093370600270E94D71E109332066F
:1418B400009331063093340620933306209137063091380680
:1418C800009135061091360681E396E09A938A930E94F52880
:1418DC00109332060093310630933406209333062883398303
:1418F000980104E110E00E943B1F40903306509034062090A7
:141904003106309032064882598291010DEB12E00E94BF36E8
:14191800A5C300270E94D71E109336060093350630933806E7
:14192C00209337062883398398010DEA12E00E94BF3692C3E2
:141940000E94B9191093360600933506309338062093370681
:1419540028833983980108E912E00E94BF3680C308E110E0E9
:141968000E94541F08E110E00E94541F1093360600933506BB
:14197C0030933806209337060CE110E00E94541F1093320699
:14199000009331063093340620933306409037065090380665
:1419A400209035063090360648825982910101E812E00E9494
:1419B800BF364090330650903406209031063090320648825A
:1419CC005982910109E612E00E94BF3600E10E94D71E109307
:1419E0003606009335063093380620933706288339839801F8
:1419F40002E512E00E94BF3604E110E00E94541F10933606A6
:141A08000093350630933806209337062883398398010CE31C
:141A1C0012E00E94BF3600E210E00E941F1F1093E10600935E
:141A3000E00602E210E00E941F1F6801D092DF06C092DE0622
:141A440004E210E00E941F1F6801D092DD06C092DC06209145
:141A5800E0063091E1060AE212E00E94BF362091DE06309121
:141A6C00DF0608E112E00E94BF362091DC063091DD0606E0F2
:141A800012E00E94BF3688EE8093D80683E08093D90680E0AD
:141A94008093DA068093DB0688EB8093D4068BE08093D5069E
:141AA80080E08093D6068093D7068CEA8093D0068DE080930C
:141ABC00D10680E08093D2068093D3064090DA065090DB0697
:141AD0002090D8063090D90648825982910103EF11E00E9419
:141AE400BF364090D6065090D7062090D4063090D5064882A1
:141AF8005982910100EE11E00E94BF364090D2065090D30696
:141B0C002090D0063090D1064882598291010DEC11E00E94E5
:141B2000BF36A0C20E9490124090B9065090BA062090B7067A
:141B34003090B8064882598291010EEF13E00E94BF36409091
:141B4800B5065090B6062090B3063090B40648825982910118
:141B5C000AEE13E00E94BF364090B1065090B2062090AF066F
:141B70003090B00648825982910106ED13E00E94BF3670C205
:141B840001EE14E0B0D26801160144245524309263062092AA
:141B980062065092650640926406609167067727603067074E
:141BAC0049F06130E0E07E0799F06230E0E07E07E9F027C0F6
:141BC000209162063091630608E010E00E94071F80916706B0
:141BD4008F5F8093670619C020916206309163060AE010E099
:141BE8000E94071F809167068F5F809367060BC02091620651
:141BFC00309163060CE010E00E94071F2224209267064090D2
:141C1000640650906506209062063090630648825982910193
:141C24000EEB11E00E94BF364090640650906506209062068E
:141C38003090630648825982910100EB11E00E94BF360CC2F7
:141C4C000E940C1B0BE911E00E94BF3605C208E110E00E94FD
:141C6000541F109336060093350630933806209337060CE172
:141C740010E00E94541F109332060093310630933406209302
:141C8800330600270E94191A0E94DE2810932E0600932D06CE
:141C9C003093300620932F0680E08093AB068093AC06809357
:141CB000AD068093AE0680E08093A7068093A8068093A90603
:141CC4008093AA0680E08093A3068093A4068093A50680939F
:141CD800A60680E080939F068093A0068093A1068093A20606
:141CEC0080E080939B0680939C0680939D0680939E0680E04E
:141D000080939706809398068093990680939A06209137061B
:141D14003091380600913506109136068DE296E09A938A93E4
:141D28000E94E82A1093360600933506309338062093370655
:141D3C0081E396E09A938A930E943F280E949F2810936D06E7
:141D500000936C0630936F0620936E0684EF9BE0A0E0B0E01D
:141D640018012901081719072A073B0764F48CE79BE0A0E0B0
:141D7800B0E080179107A207B3071CF4C49AC59802C0C4984C
:141D8C00C59A88EC90E0A0E0B0E040906E0650906F062090A7
:141DA0006C0630906D06281639064A065B064CF480E08093A9
:141DB4006C0680936D0680936E0680936F0640906E065090F0
:141DC8006F0620906C0630906D0648825982910103E811E02A
:141DDC000E94BF3641C144270FC087EE94E0E42FFF27E80F07
:141DF000F91F2080CE010296E42FFF27E80FF91F20824395FE
:141E0400463078F3CE0102965C018C010E94CF2D109336061B
:141E180000933506309338062093370628833983980107E709
:141E2C0011E00E94BF36409037065090380620903506309044
:141E4000360648825982910108E110E00E943B1F09C1442711
:141E54000FC087EE94E0E42FFF27E80FF91F2080CE01029673
:141E6800E42FFF27E80FF91F20824395463078F3CE0102965C
:141E7C005C018C010E94CF2D1093360600933506309338061C
:141E9000209337062883398398010BE611E00E94BF36409005
:141EA4003706509038062090350630903606488259829101B1
:141EB8000CE110E00E943B1FD1C081E08093E30544270FC016
:141ECC0088EE94E0E42FFF27E80FF91F2080CE010296E42FB6
:141EE000FF27E80FF91F20824395463078F3CE0102965C019A
:141EF4008C010E94CF2D10933606009335063093380620934E
:141F080037062883398398010EE511E00E94BF364090370600
:141F1C0050903806209035063090360648825982910104E091
:141F30000E94A91E97C044270FC08AEE94E0E42FFF27E80F87
:141F4400F91F2080CE010296E42FFF27E80FF91F20824395A8
:141F5800463178F386E190E09983888320E430E08E010E5F85
:141F6C001F4F0E94692086E190E09983888320E430E08E0127
:141F80000E5F1F4F0E94E1209E012E5F3F4F03E511E00E949A
:141F9400BF3666C044270FC08AEE94E0E42FFF27E80FF91FB0
:141FA8002080CE010296E42FFF27E80FF91F208243954A30E2
:141FBC0078F38AE090E09983888326E530E08E010E5F1F4F20
:141FD0000E9469208AE090E09983888326E530E08E010E5FBA
:141FE4001F4F0E94E1209E012E5F3F4F03E511E00E94BF36AE
:141FF80035C044270FC088EE94E0E42FFF27E80FF91F2080D4
:14200C00CE010296E42FFF27E80FF91F20824395463078F3B6
:1420200086E090E09983888320E630E08E010E5F1F4F0E948D
:14203400692086E090E09983888320E630E08E010E5F1F4F92
:142048000E94E1209E012E5F3F4F03E511E00E94BF3604C0F3
:14205C0004E011E00E94D115442709C081EE94E0E42FFF27C3
:14207000E80FF91F2224208243958091C3068E5F481790F3E4
:14208400A7960C94F226AA92CA92AA24CC248091C506813070
:1420980029F580E08093390680933A0680933B0680933C0668
:1420AC002090C306222051F40FE411E00E94D11522242092BC
:1420C000C5062092C3060EC068D8A02E01E010E00E94400730
:1420D4000A2D93D900D822242092C5062092C306C990A990AD
:1420E80008950E94382758012597A50186E892E0FE0105E0C7
:1420FC0010E0FA93EA939A938A930E94BC27AA24BB246627CD
:1421100081E090E06C011CC0FA0120803324822D8033A0F0BD
:1421240089E3821588F0262E332427FC3094622D6F5FCE016E
:14213800E22DFF27E7FDF095E80FF91FDA018C918053808318
:14214C004F5F5F4FFA012080222001F7CE010197462F5527F6
:1421600047FD5095480F591F11C0FA010081112796010E94B5
:14217400A226A00EB11E0AE010E096010E94A226680141503D
:1421880050406A952224261664F3850125960C944127809181
:14219C006006909161060196909361068093600688E893E1C3
:1421B00020906006309061068215930598F4222433243092C4
:1421C40061062092600620906606222029F481E0809366062D
:1421D800969A04C02224209266069698089598990FC00AE0E6
:1421EC0010E00E94400798993FC021E00EE40E940C1707E433
:1422000011E00E94D11536C099990FC00AE010E00E94400797
:1422140099992EC021E003E50E940C170FE311E00E94D1157D
:1422280025C02090630021FC0FC00AE010E00E94400720904B
:14223C00630021FC19C00E94F2170AE311E00E94D11512C052
:142250002090630020FC0EC00AE010E00E94400720906300A7
:1422640020FC06C00E94D41803E311E00E94D1152090630084
:1422780021FE03C022242092F1062090630020FE03C0222447
:14228C002092F006089504E610E00E9440070E9489070E9462
:1422A000C1160E94EC1D0E945D110E94671D03C074DFEBDE93
:1422B40098DFFCCF0895AA9221E00BE0D8D022E10AE0D5D0D5
:1422C80022270BE0D2D022270CE0CFD022270FE0CCD02FE174
:1422DC000AE0C9D002E1DFD00093830601E1DBD00093820615
:1422F00000E1D7D0A02EA092810621E00BE0B9D022E10AE069
:14230400B6D022270BE0B3D022270CE0B0D022270FE0ADD01E
:1423180003EA12E00E948E2618012901009181061127005891
:14232C0010400E94D3283A932A931A930A93810192010E9425
:14234000F22A180129010FE912E00E948E263A932A931A93B3
:142354000A93810192010E94FE28180129010BE912E00E9430
:142368008E263A932A931A930A93810192010E945628109301
:14237C008D0600938C0630938F0620938E0603EA12E00E9475
:142390008E2618012901009181061127005810400E94D328AD
:1423A4003A932A931A930A93810192010E94F22A180129013B
:1423B8000FE912E00E948E263A932A931A930A9381019201E8
:1423CC000E94FE28180129010BE912E00E948E263A932A932C
:1423E0001A930A93810192010E945628109389060093880617
:1423F40030938B0620938A0603EA12E00E948E2618012901C6
:14240800009181061127005810400E94D3283A932A931A93F4
:14241C000A93810192010E94F22A180129010FE912E00E946D
:142430008E263A932A931A930A93810192010E94FE2818011A
:1424440029010BE912E00E948E263A932A931A930A938101C8
:1424580092010E94562810938506009384063093870620936F
:14246C008606A9900895AA92CA92A22EC02E0E94CF1608E134
:142480000E94D8160C2D0E94D8160A2D0E94D8160E94081767
:1424940001E010E00E944007C990A9900895AA92A02E0E949F
:1424A800CF1608E10E94D8160A2D0E94D8160E94CF1609E18A
:1424BC000E94D81600270E94EF16A02E0E9408170A2DA990AF
:1424D0000895AA9222E10AE0CCDF02E0E2DF00FF1DC003E025
:1424E400DEDF0093780604E0DADFA02EA092790605E0D5DF61
:1424F800A02EA0927A0606E0D0DFA02EA0927B0607E0CBDFA9
:14250C00A02EA0927C0608E0C6DFA02EA0927D06A990089553
:142520000E940827249721E030E00EE1E5D007E912E00E94E2
:142534008E261801290100919406109195060E94D3283A93CB
:142548002A931A930A93810192010E94F22A8CE896E09A938E
:14255C008A930E94E82A0E949F281093B8060093B7063093BD
:14257000BA062093B90607E912E00E948E2618012901009119
:142584009206109193060E94D3283A932A931A930A9381017E
:1425980092010E94F22A88E896E09A938A930E94E82A0E9458
:1425AC009F281093B4060093B3063093B6062093B50607E9CE
:1425C00012E00E948E261801290100919006109191060E947B
:1425D400D3283A932A931A930A93810192010E94F22A84E8E5
:1425E80096E09A938A930E94E82A0E949F281093B006009316
:1425FC00AF063093B2062093B106409196065527403045078C
:1426100029F04130E0E05E07B9F169C04090B9065090BA0605
:142624002090B7063090B8063092AC062092AB065092AE064A
:142638004092AD064090B5065090B6062090B3063090B406FF
:14264C003092A8062092A7065092AA064092A9064090B10611
:142660005090B2062090AF063090B0063092A4062092A3062C
:142674005092A6064092A506809196068F5F8093960633C00A
:142688004090B9065090BA062090B7063090B8063092A006BC
:14269C0020929F065092A2064092A1064090B5065090B606A9
:1426B0002090B3063090B40630929C0620929B0650929E06F6
:1426C40040929D064090B1065090B2062090AF063090B00693
:1426D800309298062092970650929A06409299062224209254
:1426EC0096060027112724960C940D270E94F7250E94FD26CE
:142700006697002411241F860E868FEF9FEF998B888B1D8650
:142714000C861B8A0A8A9D8B8C8B66277727AA24BB246C0162
:14272800EE24FF2480E0888389838A838B8380E08C838D8357
:14273C008E838F8380E0888789878A878B87442705C10E94F1
:142750007E1F20901007309011073D862C86609112077091B9
:142764001307E0901407F09015070E841F848101021413043C
:142778001CF401011F860E860C841D84088919890016110671
:14278C0014F4198A088A2C843D84442437FC4094552447FC60
:1427A0005094688079808A809B80620C731C841C951C688203
:1427B40079828A829B822E843F84442437FC4094552447FC4D
:1427C8005094088119812A813B81021913092409350928883D
:1427DC003988442437FC4094552447FC5094021913092409B5
:1427F000350988A1992702971C01442437FC4094552447FCCD
:1428040050945A924A923A922A920E942A26109395060093C9
:1428180094060A881B880616170614F47B8B6A8B0C881D8868
:14282C006015710514F47D8B6C8B1B01442437FC40945524A2
:1428400047FC50946C807D808E809F80620C731C841C951CF9
:142854006C827D828E829F822A883B88442437FC40945524F5
:1428680047FC50940C811D812E813F810219130924093509F9
:14287C002C883D88442437FC4094552447FC50940219130989
:142890002409350988A1992702971C01442437FC4094552442
:1428A40047FC50945A924A923A922A920E942A26109393067B
:1428B80000939206AE14BF040CF45701EC14FD040CF467019B
:1428CC001701442437FC4094552447FC5094688479848A84DA
:1428E0009B84620C731C841C951C688679868A869B86150143
:1428F400442437FC4094552447FC5094088519852A853B8527
:1429080002191309240935091601442437FC4094552447FCD7
:14291C005094021913092409350988A1992702971C0144241A
:1429300037FC4094552447FC50945A924A923A922A920E94FA
:142944002A2610939106009390060AA11BA10E9440074395A4
:1429580008A0401508F4F7CE80911207909113078931E9E1C4
:14296C009E07A9F42224332430929506209294063092930674
:142980002092920630929106209290060EEC14E00E94BF36D3
:142994000027112702C00027112766960E94F22624960895A2
:1429A8004A93402F2090540730905507222011F4332021F0FD
:1429BC004A3011F40DE0F2DF5D9BFECF4CB9042F11274991BB
:1429D00008950E94F7254A935A934427552780E895E2A0E088
:1429E400B0E02A803B804C805D80281639064A065B0611F40E
:1429F80047E42FC080E09BE4A0E0B0E02A803B804C805D80B4
:142A0C00281639064A065B0619F443E250E01FC080E091EE68
:142A2000A0E0B0E02A803B804C805D80281639064A065B0656
:142A340019F44BE050E00FC080E092ECA1E0B0E02A803B8003
:142A48004C805D80281639064A065B0611F445E050E08A01BE
:142A5C0059914991249608950E94F725F89422242AB82BB8F6
:142A7000088119812A813B81ACDFC801892F992790708093E9
:142A84009000088119812A813B81A1DFC801907089B988E928
:142A98008AB986E080939500789422242092BF062092C10697
:142AAC002092C006249608950A921A922A923A924A925A92AF
:142AC0006A927A928A929A920A931A932A933A938A939A9394
:142AD400AA93BA93EA93FA930FB60A924A934CB14830D9F4DA
:142AE8002090C306222009F43CC0042F52D001EE15E053D0CA
:142AFC008091C30681508093C30681EE94E0E091C306FF27FC
:142B1000E80FF91F22242082042F3FD026C04D3021F04A308A
:142B240011F04D3041F40DE036D00AE034D081E08093C506CA
:142B380018C0042F2ED02090C3063324822D8F5F8093C30637
:142B4C0081EE94E0E22DFF27E80FF91F40838CE32090C306A3
:142B6000821518F481E08093C506499109900FBEF991E9913B
:142B7400B991A991999189913991299119910991999089907B
:142B88007990699059904990399029901990099018955D9B0C
:142B9C00FECF0CB908950E9408275801A50105C0FA010081E5
:142BB000F4DF4F5F5F4FFA0120802220B9F70C940D270E94DF
:142BC40008275801A50105C0FA010691E4DF4F5F5F4FFA015E
:142BD80026902220B9F70C940D2707EA12E0EDDF0DEB12E0D4
:142BEC00EADF04EC12E0E7DF04ED12E0E4DF00EE12E0E1DF1E
:142C00000CEF12E0DEDF09E113E0DBDF05E313E0D8DF02E506
:142C140013E0D5DF06E613E0D2DF0CE713E0CFDF07E913E0FE
:142C2800CCDF03EB13E0C9DF0FEC13E0C6DF09EE13E0C3DF45
:142C3C0005EF13E0C0DF09E014E0BDDF00E114E0BADF0BE12B
:142C500014E0B7DF06E314E0B4DF08E414E0B1CF0BE814E02F
:142C6400AEDF0EE914E0ABDF05EB14E0A8DF09EC14E0A5DF82
:142C78000AED14E0A2CF02C00150104022243324201631067F
:142C8C00CCF3089580916100806180936100809161008460BB
:142CA000809361008091610088608093610008950E94FD267C
:142CB400E22E680144276627809162008860809362008091BA
:142CC800620080618093620001E010E0D4DF809162008F7E3C
:142CDC0080936200AE2C2CC0EA2DFF27EC0DFD1D31974081D0
:142CF000662721C080916200886080936200842F807880382F
:142D040031F48091620084608093620005C0809162008B7F88
:142D18008093620001E010E0AEDF80916200877F80936200E6
:142D2C0001E010E0A6DF440F63956830E8F2AA9480E08A1543
:142D400088F28091620080618093620004E110E096DF0C9452
:142D5400F22613C02090740027FE05C0002711270000000013
:142D68000BC00F5F1F4F0000000080ED97E08017910708F4A1
:142D7C0001C0ECCF089522242092740084E68093700020921F
:142D900071002092720084E080937400089584EA809374001D
:142DA40000000000D6DF000000000895AA92A02EA09273001A
:142DB80084E880937400CBDF0000000000917100087FA990A8
:142DCC00089584E880937400C0DF00000091730008950E9481
:142DE0002A27C02ECC2019F040E450E002C044275527CA01E3
:142DF40084688093740000000000ABDFA0907300CC2009F442
:142E080003D00A2D0C94312784E98093740008954A936A9349
:142E1C00422F602F25978091E305813089F400270E94D71E01
:142E300009831A832B833C8381E0888309811A812B813C81FE
:142E440031D022242092E3056E3499F4413059F481E0809338
:142E5800EE06C698C79804EF11E00E944007C69A1BC0222467
:142E6C002092EE06C698C79815C0633599F4413061F481E0CE
:142E80008093EE06C698C79804EF11E00E944007C79AC69AEC
:142E940005C022242092EE06C698C798259669914991089590
:142EA8000E94F7250E9403272697AE84CE010A9606E215E051
:142EBC000E948E269A938A930E94182B5CF4809162008F77B4
:142ED0008093620080916500877F8093650036C0CE010A9620
:142EE40002E215E00E948E269A938A930E94182B5CF480911B
:142EF80062008F77809362008091650088608093650020C033
:142F0C00CE010A960EE115E00E948E269A938A930E94182BD9
:142F20005CF48091620080688093620080916500877F8093EE
:142F340065000AC0809162008068809362008091650088602C
:142F48008093650004E00E94D71E0A831B832C833D830AE1FD
:142F5C0015E00E948E26180129010A851B852C853D85CE0162
:142F700002969A938A930E944928810192010E94F22A18016C
:142F8400290106E115E00E948E263A932A931A930A93810187
:142F980092010E94FE280E949F28680122242092CA06160119
:142FAC00232C33242092C906C092C80623E008EC16E00E943B
:142FC0005816AA2051F02A843B844C845D844882598291012F
:142FD40000270E94A91E26960E94E626249608950E940827C7
:142FE80029974091F10655274030450751F04130E0E05E073E
:142FFC00D1F04230E0E05E0709F47BC0CCC081E08093E30549
:1430100000270E94D71E1093CD060093CC063093CF062093C8
:14302400CE068091F1068F5F8093F106B8C04090CE065090C8
:14303800CF062090CC063090CD0602E115E00E948E263A939F
:14304C002A931A930A93810192010E94562809831A832B835D
:143060003C8329803A804B805C803092CD062092CC06509298
:14307400CF064092CE063092CD062092CC065092CF0640922B
:14308800CE068CEC96E00EE015E00E948E269A938A930E944D
:14309C00182B64F40EE015E00E948E261093CD060093CC0671
:1430B0003093CF062093CE0681E088832091CE063091CF0666
:1430C4000091CC061091CD06EDDE04EF11E00E944007809178
:1430D800CB068F5F8093CB0683E02090CB06821508F05BC0B3
:1430EC0022242092CB068091F1068F5F8093F10652C002E310
:1431000010E00E9440074090CE065090CF062090CC06309047
:14311400CD0602E115E00E948E263A932A931A930A93810150
:1431280092010E9456280D831E832F8338872D803E804F8004
:14313C0058843092CD062092CC065092CF064092CE0630926B
:14315000CD062092CC065092CF064092CE068CEC96E00EE0DB
:1431640015E00E948E269A938A930E94182B64F40EE015E0A2
:143178000E948E261093CD060093CC063093CF062093CE06F3
:14318C0081E088832091CE063091CF060091CC061091CD06D1
:1431A00083DE29960C940D274A935A9329974091F00655275A
:1431B4004030450751F04130E0E05E07D1F04230E0E05E071C
:1431C80009F47DC0CEC081E08093E30500270E94D71E10936E
:1431DC00CD060093CC063093CF062093CE068091F0068F5F93
:1431F0008093F006BAC04090CE065090CF062090CC063090AD
:14320400CD0602E115E00E948E263A932A931A930A9381015F
:1432180092010E94792809831A832B833C8329803A804B8008
:14322C005C803092CD062092CC065092CF064092CE0630927A
:14324000CD062092CC065092CF064092CE0602E115E00E944C
:143254008E263A932A931A930A93810192010E94232B64F481
:1432680002E115E00E948E261093CD060093CC063093CF06B1
:14327C002093CE0681E088832091CE063091CF060091CC06CD
:143290001091CD0609DE04EF11E00E9440078091CB068F5F32
:1432A4008093CB0683E02090CB06821508F05BC022242092AC
:1432B800CB068091F0068F5F8093F00652C002E310E00E94AA
:1432CC0040074090CE065090CF062090CC063090CD0602E156
:1432E00015E00E948E263A932A931A930A93810192010E9404
:1432F40079280D831E832F8338872D803E804F8058843092AB
:14330800CD062092CC065092CF064092CE063092CD062092B6
:14331C00CC065092CF064092CE068CEC96E00EE015E00E94FB
:143330008E269A938A930E94182B64F40EE015E00E948E2615
:143344001093CD060093CC063093CF062093CE0681E088830F
:143358002091CE063091CF060091CC061091CD069FDD299634
:14336C005991499108952C972090EE06222069F40AE015E007
:143380000E948E26088319832A833B83088119812A813B81C7
:143394004CC00E94671D02E010E00E94400700E10E94D71EC0
:1433A8000C831D832E833F830E948F1D0E94D128088319835F
:1433BC002A833B8306E015E00E948E26CE019A938A930E94A6
:1433D000E82A1801290102E015E00E948E263A932A931A9330
:1433E4000A93810192010E94FE28CE0104969A938A930E9406
:1433F8003F28088319832A833B83CE010EEF14E00E948E26B2
:14340C009A938A930E94182B44F40AE015E00E948E26088385
:1434200019832A833B83088119812A813B812C9608950E9406
:143434000827402FE097413049F421E003E5EADC04E610E038
:143448000E9440070E949012413049F421E00EE4DFDC04E6FD
:14345C0010E00E9440070E9490124090A1065090A206209090
:143470009F063090A0068090AD069090AE066090AB06709005
:14348400AC066218730884089508688679868A869B86409076
:143498009D0650909E0620909B0630909C068090A906909067
:1434AC00AA066090A7067090A80662187308840895086C8601
:1434C0007D868E869F864090990650909A06209097063090C0
:1434D40098068090A5069090A6066090A3067090A406621802
:1434E800730884089508688A798A8A8A9B8A80E08093AB06DA
:1434FC008093AC068093AD068093AE0680E08093A706809337
:14351000A8068093A9068093AA0680E08093A3068093A4069B
:143524008093A5068093A60680E080939F068093A006809332
:14353800A1068093A20680E080939B0680939C0680939D069E
:14354C0080939E0680E080939706809398068093990680932E
:143560009A060AEF14E00E948E26088319832A833B83088555
:1435740019852A853B850E94DE280E94A2340C8B1D8B2E8B1E
:143588003F8B0AEF14E00E948E26088319832A833B830C85FF
:14359C001D852E853F850E94DE280E94A234088F198F2A8FEA
:1435B0003B8F0AEF14E00E948E26088319832A833B830889D7
:1435C40019892A893B890E94DE280E94A2340C8F1D8F2E8FB6
:1435D8003F8F0C891D892E893F89CE0148969A938A930E94BE
:1435EC003F28CE014C969A938A930E943F280E9467350E9480
:143600009F280C831D832E833F830C811D812E813F81E0963D
:143614000C940D270E940127AA9704E110E00E94541F0A8748
:143628001B872C873D8708E010E00E941F1F180144245524C3
:14363C002A823B824C825D820CE010E00E941F1F1801442427
:1436500055242E823F824886598688EE8A8383E08B8380E07B
:143664008C838D838CEA8E838DE08F8380E0888789870A8123
:143678001B812C813D810E94DC28CE010A969A938A930E9436
:14368C00F5280E949F280A831B832C833D830E811F8128852E
:1436A00039850E94DC28CE010A969A938A930E94F5280E9498
:1436B4009F280E831F832887398706EF14E00E948E26CE018B
:1436C8000A969A938A930E94F5280E949F280A8B1B8B2C8BEA
:1436DC003D8B2A813B8100E210E00E94071F2E813F8102E2BE
:1436F00010E00E94071F2A893B8904E210E00E94071F2A804F
:143704003B803092E1062092E0062A883B883092DF062092E7
:14371800DE062E803F803092DD062092DC0622242092E30533
:14372C0028820A811B812C813D810E94DC28B6DB01E079DEDE
:143740000E8B1F8B288F398F222428820E811F812885398529
:143754000E94DC28A7DB01E06ADE0E8F1F8F28A339A302EF2D
:1437680014E00E948E26180129016E887F88888C998C0E8DEF
:14377C001F8D28A139A106191709280939090E94DC283A93C5
:143790002A931A930A93810192010E94FE280E871F87288B53
:1437A400398B0EE015E00E948E26180129016E847F848888CC
:1437B80099880E891F89288D398D0E94DC283A932A931A9345
:1437CC000A93830194010E94FD2A810192010E9479280A8F79
:1437E0001B8F2C8F3D8F2E843F844888598848825982910147
:1437F4000EEE15E00E94BF362A8C3B8C4C8C5D8C4882598256
:14380800910104EE15E00E94BF362E843F84488859884882AC
:14381C005982910108E110E00E943B1F2A8C3B8C4C8C5D8C18
:143830004882598291010CE110E00E943B1F81E08093E30518
:14384400AA960C94EB268AB38A608ABBD2988BB38E608BBB37
:1438580008950E941C27AA24BB24D998DB9821C0D99A0000F5
:14386C000000CA9B03C061E070E002C06627772760306707A4
:1438800021F4D9980000000011C0842F8F5F482F4A3041F416
:14389400442708EF15E00E94D115002711271EC0D998000093
:1438A8000000DECF442714C0D99A00000000CA9B03C061E044
:1438BC0070E002C0662777271501220C331C262A372A510125
:1438D000D998000000004395403150F3DB9A85010C94232702
:1438E4000E94F7250E94FD26B901249780E0888389838A8354
:1438F8008B83CC24DD244FEF5FEFAA24BB24EE241DC0A7DF0F
:14390C005801C016D10608F46501A416B50608F4A501150112
:1439200044245524688079808A809B80620C731C841C951C5E
:14393400688279828A829B828B010E944007E3940E84E014FF
:1439480000F3160144245524088119812A813B8102191309BF
:14395C00240935091A01442455240219130924093509802DA1
:14397000992702971C01442437FC4094552447FC50945A92D2
:143984004A923A922A920E942A2624960E94F226249608950E
:14399800289781E0888380E089838A838B83288039804A803E
:1439AC005B802C823D824E825F8281E090E0A0E0B0E02C8081
:1439C0003D804E805F80281A390A4A0A5B0A288239824A821A
:1439D4005B822C803D804E805F8088942220320442045204BC
:1439E800F1F628960895D298D3DFCA9B03C0D29A01E002C036
:1439FC00D29A00270895DA9AC9DFD99AC7DFDA98C5DFD998CB
:143A1000C3DF00270895D998BFDFDA98BDDFD99ABBDFDA9A9E
:143A2400B9CFD998B7DFDA98B5DFD99AB3DFD998B1CFD99892
:143A3800AFDFD99AADDFDA9AABDFD998A9CFD998A7DFDA9A9B
:143A4C00A5DFD99AA3DFCDDF002319F0D998002702C0D9984A
:143A600001E00895AA924A93A02ED99844270CC0D99892DF63
:143A7400A7FE02C0DA9A01C0DA98AA0C8BDFD99A89DF43955D
:143A8800483090F3D998AFDF002311F0002701C001E0499169
:143A9C00A99008954A936A93DA9A442766270BC0440FD9986B
:143AB00073DFD99A71DF9BDF002309F04160D99863956830B5
:143AC40098F3042F6991499108950E94CF1602E90E94D816BD
:143AD8000EE80E94D8160C9408170E9401270E94CF1603E958
:143AEC000E94D81601E00E94EF16E02EFF2401E00E94EF16F5
:143B0000C02EDD2401E00E94EF16A02EBB245701BA2CAA2481
:143B1400AC0CBD1C85010C94EB260E942A27442710C0DDDFEB
:143B280082EF96E0E42FFF27EE0FFF1FE80FF91F1183008328
:143B3C000AE010E00E94530743954D3070F341E03CC082EF59
:143B500096E0E42FFF27EE0FFF1FE80FF91FA080B180C42E45
:143B640014C082EF96E0EC2DFF273197EE0FFF1FE80FF91F61
:143B780020803180EC2DFF27EE0FFF1FE80FF91F318220822A
:143B8C00CA9480E08C1570F482EF96E0EC2DFF273197EE0F77
:143BA000FF1FE80FF91F20803180A214B304D8F282EF96E075
:143BB400EC2DFF27EE0FFF1FE80FF91FB182A08243954D30EA
:143BC80008F4C1CF00910007109101070C943127229700E388
:143BDC00A5D00F36E0E01E07F9F00EE215E00E948E26288367
:143BF0003983980104E0ADD00EE215E00E948E262883398369
:143C0400980100E1A4D00AE215E00E948E2628833983980187
:143C180000279BD02FE630E000E36ED000E310E00AD10F36CD
:143C2C00E0E01E0759F122273327002763D02227332706E0CF
:143C40005FD00EE215E00E948E2628833983980104E110E031
:143C540010D10EE215E00E948E2628833983980108E110E067
:143C680006D10EE215E00E948E262883398398010CE110E059
:143C7C00FCD02FE630E000E310E0C3D0229608950E94F725CA
:143C90000E941C276CE077E0CE0106965C0144270BC0E42F87
:143CA400FF27EA0DFB1D2080E42FFF27E60FF71F2082439579
:143CB800443098F30E94232724960895AA92BA9228972CE063
:143CCC0037E0CE015C0100270BC0E02FFF27E20FF31F2080D7
:143CE000E02FFF27EA0DFB1D20820395043098F30881198170
:143CF4002A813B812896B990A99008950E9403276901A02E74
:143D080096010A2D11270F5F1F4F0E94B2079601232F332727
:143D1C000A2D11270E94B2070C94E6260E940327C02E0C2D2A
:143D300011270E94BB075801BA2CAA240C2D11270F5F1F4F89
:143D44000E94BB07A02AB12A85010C94E6263A932A93AA926A
:143D5800A02E09811A812B813C8194DF20910C0733270A2D33
:143D6C0011270E94B20720910D0733270A2D11270F5F1F4F46
:143D80000E94B20720910E0733270A2D11270E5F1F4F0E94C8
:143D9400B20720910F0733270A2D11270D5F1F4F0E94B2079D
:143DA800A990229608950E940327A02E24970A2D11270E9413
:143DBC00BB0700930C070A2D11270F5F1F4F0E94BB07009349
:143DD0000D070A2D11270E5F1F4F0E94BB076801C0920E074D
:143DE4000A2D11270D5F1F4F0E94BB075801A0920F0766DF38
:143DF800088319832A833B83088119812A813B8124960C9441
:143E0C00E6260E9403276901580122971601232C33242092DF
:143E20000C07C0920D0782E090E09983888395010CE017E0A3
:143E34000E94692022960C94E626AA92BA925801229782E0EF
:143E480090E09983888395010CE017E00E94E120A0900C0770
:143E5C00BB24BA2CAA2420900D073324A228B32885012296C1
:143E7000B990A99008953A932A93AA92BA92580122970C816E
:143E84001D812E813F8100DF84E090E09983888395010CE0C1
:143E980017E00E9469202296B990A99022960895AA92BA92DD
:143EAC005801269784E090E09983888395010CE017E00E94D6
:143EC000E12000DF0A831B832C833D830A811B812C813D81E2
:143ED4002696B990A990089521E00BE066D026E10AE063D0B9
:143EE800002775D000932307202F332707E116E00C94BF3681
:143EFC0021E00BE056D026E10AE053D002E065D00023E1F37E
:143F10007AC021E00BE04BD022270AE048D020E40CE045D00C
:143F240028E10AE042D002E054D00023E1F369D022270CE019
:143F38003AD022270AE037D021E00BE034D0209010073090BA
:143F4C001107C1018833EFEF9E074CF188EC90E082159305F9
:143F600024F180911207909113078833EFEF9E07E4F088EC4D
:143F740090E02090120730901307821593059CF0809114073F
:143F8800909115078038E3EF9E075CF080EE9CEF20901407A9
:143F9C00309015078215930514F0002701C001E00895AA9260
:143FB000CA92A22EC02E0E94CF1608E10E94D8160C2D0E9408
:143FC400D8160A2D0E94D8160E940817C990A9900895AA9208
:143FD800A02E0E94CF1608E10E94D8160A2D0E94D8160E949E
:143FEC00CF1609E10E94D81600270E94EF16A02E0E94081705
:144000000A2DA99008954A9326970E94CF1608E10E94D81605
:1440140003E00E94D8160E94CF1609E10E94D81644270AC0EF
:1440280001E00E94EF16CE01E42FFF27E80FF91F008343958A
:14403C004530A0F300270E94EF160D830E94081728803980E8
:1440500030921107209210072A803B803092130720921207AD
:144064002C803D8030921507209214072696499108950E945F
:1440780038276901A801A88466270E94CF16062F00560E9455
:14408C00D8160831A1F48601012F11270E94D8160C2D0E940A
:1440A000D81607C0FA0100810E94D8164F5F5F4FAA9480E051
:1440B4008A15B0F303C081E080932B070E94081706E010E0B6
:1440C8000E9440078A010C9441270E94F7250E94FD2669017B
:1440DC002197EF84F88827E030E086010E94A1275801003094
:1440F0000107E1F0C50101961C014424552440E850E060E0F0
:1441040070E05A924A923A922A928A019B010E94B22618014D
:1441180029013601882499242618370848085908510105C084
:14412C0080E890E05C01AC18BD08AE14BF0458F0E8829601F3
:144140000B851C8598DF20902B07222009F434C033C0A88291
:1441540096010B851C858DDF1C870B8720902B07222009F0D1
:1441680027C0EA18FB08CA0CDB1C15C080E8888396010B851B
:14417C001C857BDF1C870B8720902B07222009F015C0C70145
:14419000805890407C01C60180589F4F6C01C7018038E0E0BC
:1441A4009E0730F78030890729F0E88296010B851C855FDF72
:1441B80021960E94F226249608950E9438276901A80168852A
:1441CC007985AA240E94CF160A2D00560E94D816083131F510
:1441E0008601012F11270E94D8160C2D0E94D8160E94CF16FC
:1441F4000A2D0F550E94D81609C001E00E94EF16FA010083BD
:144208004F5F5F4F6150704081E090E08617970790F300272F
:14421C000E94EF16A02EFA01A0824F5F5F4F03C081E0809369
:144230002B070E9408170C9441270E94F7250E94FD266C97F9
:14424400002411241F8A0E8AB7C4E8A5F9A58081853259F025
:144258000081EEA1FFA10E944A278E899F8901969F8B8E8B76
:14426C00A2C4002411241D8A0C8A8FEF9FEF998F888FAA2429
:14428000BB244CE257E060E288A599A5019699A788A7CC2443
:14429400DD24E8A5F9A5E080FF248E2D9F2D8032E0E09E07C9
:1442A80051F18332E0E09E0799F08032E0E09E077CF18E2DDE
:1442BC009F2D8B32E0E09E07A9F08D32E0E09E0759F0803347
:1442D000E0E09E07D9F020C08A2D9B2D8160A82EB92E1EC0D1
:1442E4008A2D9B2D8460A82EB92E18C08A2D9B2D8860A82E91
:1442F800B92E6BE211C08A2D9B2D8860A82EB92E60E20AC07D
:14430C008A2D9B2D8061A82EB92E04C081E090E0C82ED92EEE
:14432000CC2011F4DD2009F006C088A599A5019699A788A76B
:14433400B0CFE8A5F9A5008111270E940F3100300107C1F047
:1443480008A519A50E944E2B1D8B0C8B05C088A599A50196D5
:14435C0099A788A7E8A5F9A5008111270E940F31C02ED12E2B
:144370000030010781F716C0E8A5F9A580818A3289F48AA51F
:144384009BA502969BA78AA7E82FF92F3297208031803D8ABA
:144398002C8A88A599A5019699A788A7E8A5F9A580818E32FE
:1443AC0009F040C08E2F9F2F019699A788A7E82FF92F0081B3
:1443C00011270E940F31C02ED12E00300107D1F008A519A57E
:1443D4000E944E2BC02ED12ED98EC88E05C088A599A5019649
:1443E80099A788A7E8A5F9A5008111270E940F31C02ED12E9F
:1443FC000030010781F716C0E8A5F9A580818A3289F48AA593
:144410009BA502969BA78AA7E82FF92F329720803180398E2D
:14442400288E88A599A5019699A788A7E8A5F9A580818C366F
:1444380051F48E2F9F2F019699A788A78A2D9B2D8260A82E63
:14444C00B92EE8A5F9A5C080DD248C2D9D2D8335E0E09E0769
:1444600009F4B3C183E58C159D056CF08C2D9D2D8534E0E0D4
:144474009E0709F447C38734E0E09E0709F44BC345C08C2D9F
:144488009D2D8835E0E09E0709F485C08835E0E09E070CF4D0
:14449C0039C08C2D9D2D8336E0E09E0709F468C18436E0E0D2
:1444B0009E0709F43AC08536E0E09E0709F421C38636E0E0DF
:1444C4009E0709F422C38736E0E09E0709F420C38936E0E0DC
:1444D8009E0739F18F36E0E09E0709F45CC08037E0E09E07A2
:1444EC0009F457C08337E0E09E0709F432C28537E0E09E0777
:1445000009F44DC08837E0E09E0709F448C000C0E8A5F9A589
:144514000081EEA1FFA10E944A278E899F8901969F8B8E8BB7
:1445280044C3A1FE21C08AA59BA504969BA78AA7E82FF92F3D
:14453C00349720803180428053802C863D864E865F868AE022
:1445500090E09B838A832C843D844E845F8448825982222DA2
:14456400332D042F152F0E942C2CDEC08AA59BA502969BA78B
:144578008AA7E82FF92F3297208031803B8E2A8E8AE090E04A
:14458C0099838883222D332D042F152F0E94A52BC7C0A1FE36
:1445A00011C08AA59BA504969BA78AA7E82FF92F3497208010
:1445B4003180428053802C863D864E865F860CC08AA59BA544
:1445C80002969BA78AA7E82FF92F3297208031803B8E2A8EFA
:1445DC00E8A5F9A580818537F1F4A1FE11C08AE090E09B8396
:1445F0008A832C843D844E845F8448825982222D332D042FFD
:14460400152F0E94FA2C90C08AE090E0998388832A8D3B8DC6
:14461800042F152F0E94762D85C0E8A5F9A580818F3631F576
:14462C00A0FE06C080E3E42FF52F81934E2F5F2FA1FE11C0ED
:1446400088E090E09B838A832C843D844E845F844882598298
:14465400222D332D042F152F0E94FA2C65C088E090E099834B
:1446680088832A8D3B8D042F152F0E94762D5AC0E8A5F9A5B3
:14467C008081803749F480E3E42FF52F819388E781934E2F87
:144690005F2F10C0A0FE0EC080E3E42FF52F81934E2F5F2F93
:1446A400E8A5F9A52080E42FF52F21924E2F5F2FA1FE11C0D2
:1446B80080E190E09B838A832C843D844E845F844882598227
:1446CC00222D332D042F152F0E94FA2C0AC080E190E0998335
:1446E00088832A8D3B8D042F152F0E94762DE8A5F9A5808154
:1446F4008835D1F48CE297E0E82EF92E10C0EE2DFF2D008176
:1447080011270E943931C02ED12EEE2DFF2DC0828E2D9F2D5C
:14471C000196E82EF92EEE2DFF2D2080222059F78CE297E057
:14473000E82EF92E888D998D8F3FEFEF9E0721F4002411243E
:14474400198E088E088C198C002019F4112009F417C10CE2CA
:1447580017E00E94EB25C02ED12EDB8ECA8E088C198C0C149D
:14476C001D040CF009C10C2C1D2C198E088E04C18AA59BA560
:1447800002969BA78AA7E82FF92F3297208031802A8681E0B0
:1447940090E00C881D888015910554F4198E088E22242B86C1
:1447A8008C2F9D2F0A96E82EF92EE8C00A85EEA1FFA10E9491
:1447BC004A278E899F8901969F8B8E8BF4C18AA59BA50296A3
:1447D0009BA78AA7E82FF92F3297C080D180888D998D8F3FC0
:1447E400EFEF9E0721F400241124198E088E0C881D8800203A
:1447F80011F4112061F00C2D1D2D0E94412B402F512F2C88F2
:14480C003D88201A310A3D8A2C8A088C198C002051F4112012
:1448200041F40C2D1D2D0E94412B402F512F598F488F0C887C
:144834001D88002011F4112039F0A3FE05C0802D912D0197E3
:144848009D8B8C8BA4FE26C0A3FE0AC0062FEEA1FFA10E9424
:14485C004A278E899F8901969F8B8E8BA2FC50C00FC000E35E
:14487000EEA1FFA10E944A278E899F8901969F8B8E8B8C89C4
:144884009D8901979D8B8C8B222433240C881D8820143104E4
:1448980054F338C0A2FC17C00FC000E2EEA1FFA10E944A2765
:1448AC008E899F8901969F8B8E8B8C899D8901979D8B8C8BCD
:1448C000222433240C881D882014310454F3A3FE1DC0062FAB
:1448D400EEA1FFA10E944A278E899F8901969F8B8E8B12C0A3
:1448E800EC2DFD2DC895002DEEA1FFA10E944A278E899F896E
:1448FC0001969F8B8E8B8C2D9D2D0196C82ED92EEC2DFD2D74
:14491000C895002051F0488D598D842F952F0197998F888FCC
:1449240040304507F9F6A2FE42C10FC000E2EEA1FFA10E94AF
:144938004A278E899F8901969F8B8E8B8C899D8901979D8BE6
:14494C008C8B222433240C881D882014310454F32AC18AA5A0
:144960009BA502969BA78AA7E82FF92F3297E080F180EE2011
:1449740039F4FF2029F482E395E0C82ED92E2DCF888D998DB8
:144988008F3FEFEF9E0721F400241124198E088E0C881D88E6
:14499C00002011F4112061F00E2D1F2D0E94EB25C02ED12E3A
:1449B0002C883D88201A310A3D8A2C8A088C198C002051F4EA
:1449C400112041F40E2D1F2D0E94EB25C02ED12ED98EC88E96
:1449D8000C881D88002011F4112039F0A3FE05C0802D912D42
:1449EC0001979D8B8C8BA4FE26C0A3FE0AC0062FEEA1FFA189
:144A00000E944A278E899F8901969F8B8E8BA2FC4FC00FC0FA
:144A140000E3EEA1FFA10E944A278E899F8901969F8B8E8B50
:144A28008C899D8901979D8B8C8B222433240C881D8820145E
:144A3C00310454F337C0A2FC17C00FC000E2EEA1FFA10E94FC
:144A50004A278E899F8901969F8B8E8B8C899D8901979D8BCD
:144A64008C8B222433240C881D882014310454F3A3FE1CC024
:144A7800062FEEA1FFA10E944A278E899F8901969F8B8E8B9A
:144A8C0011C0EE2DFF2D0081EEA1FFA10E944A278E899F89FC
:144AA00001969F8B8E8B8E2D9F2D0196E82EF92EEE2DFF2D86
:144AB4002080222051F0688D798D862F972F0197998F888F7E
:144AC8006030670701F7A2FE70C00FC000E2EEA1FFA10E9492
:144ADC004A278E899F8901969F8B8E8B8C899D8901979D8B41
:144AF0008C8B222433240C881D882014310454F358C061E0BC
:144B040070E00BC062E070E008C06627772705C063E070E0A5
:144B180002C064E070E08AA59BA504969BA78AA7E82FF92F78
:144B2C0034972080318042805380288A398A4A8A5B8A888D81
:144B4000998D8F3FEFEF9E0721F486E090E0998F888F088C2C
:144B5400198C198608860C881D881F820E82BD82AC822888F4
:144B680039884A885B88288239824A825B82262F372F0CE20C
:144B7C0017E00E94F836602F712FE62EF72E0EC0EE2DFF2DE1
:144B90000191EE2EFF2EEEA1FFA10E944A278E899F8901961E
:144BA4009F8B8E8BEE2DFF2D2080222069F788A599A501962F
:144BB80099A788A7E8A5F9A52080222009F043CB0E891F8927
:144BCC006C960E94F22624960895E02FF12FAA27BB2701904F
:144BE000002011F01196FBCF0A2F1B2F08953A932A931A93D8
:144BF4000A9308950F920990002031F035952795179507952A
:144C08000A94F8CF0F900895689401C0E894EA92FA928A9399
:144C1C00EE24FF2480E1000F111FEE1CFF1CE216F30618F091
:144C3000E21AF30A03958A95A1F716F40E2D1F2D8991F990F4
:144C4400E9900895E89401C0689430D0CC2409C0E89401C017
:144C580068942AD037FD0E945327B7FD52D077248824992428
:144C6C00AA24BB2442D0C1F045D0B1F0E8E2000F111F221FC4
:144C8000331F771C881C991CAA1CBB1C88169906AA06BB0697
:144C940028F0881A990AAA0ABB0A0395EA9559F726F4082D80
:144CA800192D2A2D3B2D13C07A928A929A92AA92BA92CA92E8
:144CBC00EA938A939A93AA93BA938B859C85AD85BE85C32EFC
:144CD0000EF0CB260895C7FC0E945327B991A991999189919D
:144CE400E991C990B990A99099908990799024960895E02FB6
:144CF800E12BE22BE32B0895E82FE92BEA2BEB2B08958095DC
:144D0C009095A095B0958F5F9F4FAF4FBF4F0895EA93FA9365
:144D20000A92E02FF12FD895002D3196D895102D3196D89575
:144D3400202D3196D895302D0990F991E99108950A921A920B
:144D48008A939A93029FC001129F900D039F900D8C01999167
:144D5C0089911990099008950E945C277A920E94752759F191
:144D700077240E947B2719F48C019D0124C00A921A92089F45
:144D8400B02CA12C289F902C812C189FA00C911C871C099FE7
:144D9800A00C911C871C199F900C811C0A9F900C811C389F61
:144DAC00800C299F800C1A9F800C0B9F800C199009900B2D1E
:144DC0001A2D292D382D79900C946A27A990B990C990D9905F
:144DD4000895A990B990C990D990E990F9900895A990B990C9
:144DE800C990D990E990F990499159916991799108957A9381
:144DFC006A935A934A93FA92EA92DA92CA92BA92AA920895E7
:144E10005A934A93BA92AA920895A990B990499159910895BC
:144E24007A936A935A934A93089549915991699179910895A4
:144E38007A936A935A934A93BA92AA920895A990B990499111
:144E4C0059916991799108955A934A93DA92CA92BA92AA92AD
:144E60000895A990B990C990D9904991599108957A936A93F2
:144E74005A934A93DA92CA92BA92AA920895A990B990C99098
:144E8800D990499159916991799108950A92C8950A923196EC
:144E9C00C895F02DE9910990099400951095209530950F5FB6
:144EB0001F4F2F4F3F4F08958A929A92AA92BA92EA938A936D
:144EC4009A93AA93BA9389859A85AB85BC850895B991A99164
:144ED80099918991E991B990A9909990899024960895EE27D8
:144EEC00E02BE12BE22BE32B0895EE27E82BE92BEA2BEB2B7C
:144F00000895EA93FA930A92E02FF12FC895002D3196C8957D
:144F1400102D3196C895202D3196C895302D0990F991E991BD
:144F280008950F920990002031F0000F111F221F331F0A94ED
:144F3C00F8CF0F900895222321F0169507952A95FACF08959C
:144F50000A921A92002411240030010741F01695079510F4F8
:144F6400020E131E220F331FF5CF002D112D19900990089567
:144F7800AA93BA93EA93FA930A92AF81B885ED81FE8100306B
:144F8C00010731F0D8950D92319601501040F7CF0990F9918B
:144FA000E991B991A99124960895689401C0E8940E94772A2C
:144FB4000E94092A09F448C0E62CD52CC42CB32EA22E912E9C
:144FC800802E00811181228133810E94092A09F444C0842D36
:144FDC00952D8C199D09B9F072F49095809501964C2C5D2CD3
:144FF0008831B8F535952795179507950197D1F708C0883198
:1450040018F5B594A794979487940197D1F766242EF0080DA4
:14501800191D2A1D3B1D09C0801A910AA20AB30A082D192DCD
:14502C002A2D3B2D332322F40E94532780E8682E0E94322A2D
:1450400002C00E94672A0E94862A089500811181228133810E
:14505400C6F70E94112AA9F380E83827F2CF082D192D2A2DB8
:145068003B2D4C2C5D2C6E2C33233AF70E94532780E8682E90
:14507C00E2CFFA93EA93EA81FB810E94D727E991F991229622
:145090000895FA93EA93EA81FB810E94D727E991F99139831E
:1450A40028831A930A930895FA93EA93EC2FFD2F32960E94AB
:1450B800D727E991F99124960895FA93EA93EC2FFD2F329672
:1450CC000E94D727E991F9913B832A83198308830895FA9370
:1450E000EA93EA81FB810E94D527E991F99122960895FA93D4
:1450F400EA93EC2FFD2F32960E94D527E991F9912496089523
:14510800FA93EA93EA81FB810E94D527E991F9913983288399
:14511C001A930A930895FA93EA93EC2FFD2F32960E94D527E1
:14513000E991F9913B832A831983088308954A925A926A9274
:145144008A930E94192A11F15520E2F08FE14816C0F487E122
:145158004816D1F058F4419489EE481A05C035952795179533
:14516C0007954A94D1F70EC087E1481A000F111F221F331F83
:145180004A94D1F705C03FE7232F132F032F04C0662011F079
:145194000E94532789916990599049900895689401C0E89440
:1451A8002227332746F017FD209517FD309503C0689401C0F8
:1451BC00E8944A925A926A928A9387E1482E5524662436F07B
:1451D000332322F40E94532780E8682E0E94322A8991699034
:1451E400599049900895FA93EA93EA81FB8127D0E991F9916C
:1451F80022960895FA93EA93EC2FFD2F32961DD0E991F99144
:14520C0024960895FA93EA93EA81FB8114D0E991F9913983A2
:1452200028831A930A930895FA93EA93EC2FFD2F329607D0F8
:14523400E991F9913B832A831983088308950A921A922A922F
:145248003A920E94772A3A932A931A930A93008111812281B9
:14525C0033810E94192A09F457C0E62CD52CC42CB32EA22EDD
:14527000912E802E09911991299139910E94192AA1F16E24EC
:145284004C185D0880E8481653060CF033C081E848168FEFFA
:1452980058060CF436C080E23324232E122E012E302F22278D
:1452AC001127002726941794079437952795000F111F221F87
:1452C000331F001C111C221C331C28F0081819082A083B08E4
:1452D40004C0080C191C2A1C3B1C0AF001608A9551F70E94B8
:1452E800322A0E94862A399029901990099008950FEF102F66
:1452FC002FE73FE7662099F30E945327F0CF0027102F202FC0
:14531000302FEBCF0991199129913991EDCF0E94772AAA936C
:14532400BA930E94192AA1F1E62CD52CC42CA22E912E802E71
:1453380000811181228133810E94192A39F16E244C0C5D1C85
:14534C0080E8481653062CF581E848168FEF58062CF188E1E4
:14536000782E88279927AA27BB27BB2EB695A79597958795B9
:1453740027951795079520F4880D991DAA1DBB1D7A9491F78D
:145388003B2F2A2F192F082F0E94322AB991A9910E94862AFB
:14539C0008950FEF102F2FE73FE7F6CF0027102F202F302F0E
:1453B000F1CFFA93EA93EA81FB810E948F29E991F991229622
:1453C4000895FA93EA93EC2FFD2F32960E948F29E991F991C1
:1453D80024960895FA93EA93EA81FB810E948F29E991F9911B
:1453EC00398328831A930A930895FA93EA93EC2FFD2F329646
:145400000E948F29E991F9913B832A831983088308950FD02C
:1454140029F0662011F00E94532798940895002329F411238B
:1454280019F4222309F433230895F7DF99F08A93632E80E8B9
:14543C006822220F331F432E8FE7481A55248827580A2695C1
:1454500030E8232B332789919894089544245524662408959D
:14546400DEDF09F40895AA93BA93D2019A938A938EE790E051
:14547800332349F03695279517950795A817B907CCF41196DC
:14548C00F5CF8095909501962223BAF0000F111F221FA81749
:1454A000B90714F01197F6CF00271127222733278991999181
:1454B4002D01B991A991089533270FEF102F2FE7322F89916D
:1454C80099912D0102C0AA93BA93A7DF49F0D201A158BF4F93
:1454DC002D01342D220F369527953629B991A99108954A9219
:1454F0005A926A927A928A929A92AA92BA92CA92DA92EA92A0
:14550400FA928A939A93089599918991F990E990D990C99018
:14551800B990A99099908990799069905990499008950E94B8
:14552C00772AAA93BA930E94192AE1F1E62CD52CC42CB32EA5
:14554000A22E912E802E00811181228133810E94192A71F169
:145554006E244C0C5D1C80E84816530664F581E848168FEF23
:1455680058066CF1A29EB12DA02D919E912D802DA09E800D24
:14557C00911DA31FB31F829E800D911DA31FB31F929E900D1D
:14559000A11DB31FA19E900DA11DB31F2B2F1A2F092F880F99
:1455A400001F111F221F331F0E94322AB991A9910E94862A3D
:1455B80008950FEF102F2FE78FE7482EF5CF0027102F202F8A
:1455CC00302FF0CFFA93EA93EA81FB810E94952AE991F99157
:1455E00022960895FA93EA93EC2FFD2F32960E94952AE9916E
:1455F400F99124960895FA93EA93EC2FFD2F32960E94952A48
:14560800E991F9913B832A831983088308950E94D527332367
:14561C003AF00E94112A11F001E00895002708950FEF089595
:14563000FA93EA93EA81FB810E940B2BE991F99122960023BE
:145644000895FA93EA93EC2FFD2F32960E940B2BE991F991C0
:145658002496002308950E94112A21F00F9300E830270F9155
:14566C000895A02FB12FE22FF32FC89531960D920020D9F7F8
:145680000895E02FF12FAA27BB27C895002019F031961196A3
:14569400FACF0A2F1B2F08950E941C27A02EB12E05C08A2D0B
:1456A8009B2D0196A82EB92EEA2DFB2D008111270E942B31DC
:1456BC000030010791F766277727EA2DFB2D80818D3239F4C3
:1456D00061E08E2F9F2F0196A82EB92E0AC0EA2DFB2D80819C
:1456E4008B3229F48E2F9F2F0196A82EB92E4427552712C040
:1456F8000AE010E0242F352F0E94A827402F512FEA2DFB2D6E
:14570C002190AE2EBF2E3324420D531D40535040EA2DFB2D97
:14572000008111270E940F310030010729F76030670739F05B
:14573400042F152F009510950F5F1F4F02C0042F152F0C94FB
:1457480023270E94F7250E94FD26422F532FEE84FF84A42EC6
:14575C00B52EAA2059F4BB2049F480E3EA85FB85808322248C
:1457700021820E2F1F2F6CC04030E0E05E0784F48E2D9F2D37
:145784008A30E0E09E0751F4CC24C3948A2D9B2D80959095AD
:145798000196A82EB92E01C0CC246A857B852E2D3F2D0A2D0B
:1457AC001B2D0E940826402F512F89E090E0801791074CF09E
:1457C000842F952FC096E62FF72F81936E2F7F2F09C0842FF2
:1457D400952F895A9F4FE62FF72F81936E2F7F2F2E2D3F2DCB
:1457E8000A2D1B2D0E940A26A02EB12EAA20B9F6BB20A9F6BC
:1457FC00CC2031F08DE2E62FF72F81936E2F7F2F462E572E8A
:14581000615070402224E42DF52D2082AA84BB8412C0EA2DB2
:14582400FB2DC080E62FF72F2080EA2DFB2D2192AE2EBF2E72
:14583800262E372E61507040E22DF32DC082A616B70658F30D
:14584C000A851B850E94F226249608950E94F7250E94FD2685
:145860002497288839884A885B88288239824A825B82288895
:1458740039884A885B888894222032044204520449F480E3DA
:14588800EE85FF858083222421820E2F1F2FA9C040E050E0E5
:14589C0060E070E0288839884A885B88241635064606570624
:1458B000ECF48C899D898A30A0E09A07B9F4AA24A39441E01B
:1458C40050E060E070E0288039804A805B80209430944094BE
:1458D8005094240E351E461E571E288239824A825B8201C0AB
:1458EC00AA24CE84DF842C883D88442437FC4094552447FC81
:145900005094088119812A813B815A924A923A922A920E9433
:145914002626E02EF12E89E090E0801791074CF08E2D9F2D3B
:14592800C096EC2DFD2D8193CE2EDF2E09C08E2D9F2D895A82
:14593C009F4FEC2DFD2D8193CE2EDF2E2C883D88442437FCF5
:145950004094552447FC5094088119812A813B815A924A927D
:145964003A922A920E942426088319832A833B8328803980C8
:145978004A805B808894222032044204520409F0B4CFAA2000
:14598C0031F08DE2EC2DFD2D8193CE2EDF2E4C2C5D2C842D65
:1459A000952D0197C82ED92E2224E42DF52D2082EE84FF848C
:1459B40015C0EE2DFF2DA080EC2DFD2D2080EE2DFF2D2192C6
:1459C800EE2EFF2E2C2C3D2C822D932D0197C82ED92EE22DAE
:1459DC00F32DA082EC14FD0440F30E851F8524960E94F22696
:1459F000249608953A932A930E94FD26A02EB12ECE84DF849B
:145A04004A2D5B2D2C2C3D2C442437FC4094552447FC5094BF
:145A18000A851B852C853D855A924A923A922A920E9426269A
:145A2C00602F712F89E090E0801791074CF0862F972FC09622
:145A4000E42FF52F81934E2F5F2F09C0862F972F895A9F4FE7
:145A5400E42FF52F81934E2F5F2F2C2C3D2C442437FC4094B8
:145A6800552447FC50940A851B852C853D855A924A923A9254
:145A7C002A920E9424260A871B872C873D872A843B844C8487
:145A90005D848894222032044204520409F0B4CF442E552E80
:145AA400415050402224E42DF52D2082CA2CDB2C12C0EC2DCA
:145AB800FD2DE080E42FF52F2080EC2DFD2D2192CE2EDF2E7A
:145ACC00242E352E41505040E22DF32DE082C416D50658F35F
:145AE0000A2D1B2D0E94F226229608950E94FD26C22ED32E6E
:145AF400A02EB12EEA84FB844A2D5B2D2E2D3F2D0C2D1D2DBB
:145B08000E940826602F712F89E090E0801791074CF0862F91
:145B1C00972FC096E42FF52F81934E2F5F2F09C0862F972FBF
:145B3000895A9F4FE42FF52F81934E2F5F2F2E2D3F2D0C2D3A
:145B44001D2D0E940A26C02ED12ECC20B9F6DD20A9F6442E9B
:145B5800552E415050402224E42DF52D2082CA2CDB2C12C0AB
:145B6C00EC2DFD2DE080E42FF52F2080EC2DFD2D2192CE2EB9
:145B8000DF2E242E352E41505040E22DF32DE082C416D506E8
:145B940058F30A2D1B2D0C94F2260E94FD26C02ED12E28970A
:145BA80004E515E00E948127088319832A833B8300E515E055
:145BBC000E9481270C831D832E833F8340E280E2A82E662702
:145BD000772705C08C2D9D2D0196C82ED92EEC2DFD2D008183
:145BE40011270E942B310030010791F7EC2DFD2D80818D32B4
:145BF80021F44191CE2EDF2E42C0EC2DFD2D80818B3209F0AD
:145C0C003CC08E2F9F2F0196C82ED92E36C00CE415E00E94EC
:145C200081278C2F9D2F9A938A930E94D929202E312E422E36
:145C3400532EEC2DFD2D0191CE2EDF2E11270E94D3283A935B
:145C48002A931A930A93022D132D242D352D0E945628202EB1
:145C5C00312E422E532E08E415E00E9481273A932A931A9382
:145C70000A93022D132D242D352D0E947928088319832A834A
:145C84003B83EC2DFD2D008111270E940F310030010709F03F
:145C9800C0CFEC2DFD2D80818E3209F03BC08E2F9F2F01964F
:145CAC00C82ED92E35C0288039804A805B80EC2DFD2D019117
:145CC000CE2EDF2E1127005310400E94D3288C2F9D2F04962E
:145CD4009A938A930E94EE29022D132D242D352D0E94562877
:145CE800088319832A833B832C803D804E805F800CE415E01B
:145CFC000E9481273A932A931A930A93022D132D242D352D54
:145D10000E94FE280C831D832E833F83EC2DFD2D0081112719
:145D24000E940F31E02EF12E0030010709F0BFCFEC2DFD2D5A
:145D3800008111270E943931E02EF12E0534E0E01E0709F04E
:145D4C0068C08C2D9D2D0196C82ED92EE82FF92F80818D3205
:145D600021F4A190CE2EDF2E1DC0EC2DFD2D80818B32C1F44D
:145D74008E2F9F2F0196C82ED92E12C00AE010E0262F372F95
:145D88000E94A827602F712FEC2DFD2D2190CE2EDF2E332413
:145D9C00620D731D60537040EC2DFD2D008111270E940F31B3
:145DB000E02EF12E0030010719F78A2D8D32C1F4262F372F84
:145DC4000AE010E03DD0288039804A805B803A932A931A93A7
:145DD8000A93022D132D242D352D0E94FE28088319832A835C
:145DEC003B8317C0262F372F0AE010E025D0288039804A8059
:145E00005B803A932A931A930A93022D132D242D352D0E941B
:145E1400E329088319832A833B834D3251F4088119812A814A
:145E28003B810E942F2B088319832A833B83088119812A814E
:145E3C003B8128960C94F2260E942A27A22EB32EC02ED12E8F
:145E5000249704E415E00E948127088319832A833B8344275F
:145E6400552718C0288039804A805B800C2D1D2D0E94D328B0
:145E78003A932A931A930A93022D132D242D352D0E94E32972
:145E8C00088319832A833B834F5F5F4F4A155B052CF30881AD
:145EA00019812A813B8124960C9431270E94F7250E94FD26B8
:145EB4006497CAA0DBA022243324EC2DFD2D318220822E8C0B
:145EC8003F8C48A059A008E515E00E9481273A932A931A93B7
:145EDC000A93022D132D242D352D0E94232B79F480E3809320
:145EF00045078EE28093460780E38093470722242092480777
:145F040005E417E085C12E8C3F8C48A059A0288639864A86C0
:145F18005B8687E190E0088519852A853B858A930E94FC2542
:145F2C00802F99278F579040A82EB92E4FEF5FEF6FEF70E045
:145F4000288439844A845B842422352246225722EF93E42D26
:145F5400E0684E2EEF91288A398A4A8A5B8A80E08C838D8348
:145F68008E838F8380E08C878D878E878F878A2D9B2D8F3111
:145F7C00E0E09E074CF08EEF9FEFEC2DFD2D918380830027E4
:145F9000112740C18A2D9B2D893EEFEF9E074CF48FEF9FEFAF
:145FA400EC2DFD2D918380830027112731C18A2D9B2D873107
:145FB800A0E09A076CF04797088919892A893B898A930E9411
:145FCC0095270C871D872E873F874AC08A2D9B2D8030A0E09A
:145FE0009A0754F187E190E08A199B09088919892A893B89FE
:145FF4008A930E94FC250C871D872E873F878A2D9B2D0196F1
:14600800088919892A893B898A930E949527202E312E422E42
:14601C00532E4FEF5FEF6FEF70E024223522462257222C8289
:146030003D824E825F821AC04FEF5FEF6FEF70E008891989A5
:146044002A893B8904231523262337238A2D9B2D01968095A4
:1460580090958F5F9F4F8A930E94FC250C831D832E833F83B1
:14606C0085E497E0A82EB92E40E050E060E070E0288439843A
:146080004A845B84241635064606570634F48DE2EA2DFB2D6B
