:020000040800F2
:1000000000500020852600086D2300086F2300089B
:100010007123000873230008752300080000000006
:10002000000000000000000000000000772300082E
:1000300079230008000000007B2300087D230008CE
:10004000CD260008CD260008CD260008CD260008C4
:10005000CD260008CD260008CD260008CD260008B4
:10006000CD260008CD260008CD26000881230008F3
:10007000CD260008CD260008CD260008CD26000894
:10008000CD2600088D23000899230008CD260008FE
:10009000CD260008CD260008CD260008CD26000874
:1000A000CD260008A5230008CD260008CD2600088F
:1000B000CD260008B1230008CD260008BD23000886
:1000C000C9230008CD260008CD260008CD2600084B
:1000D000CD260008CD260008CD260008CD26000834
:1000E000CD260008CD260008CD260008000000001F
:1000F0000000000000000000000000000000000000
:0C01000000000000000000005FF808F1A3
:10010C0010B5054C237833B9044B13B10448AFF345
:10011C0000800123237010BD0C00002000000000A3
:10012C002827000808B5034B1BB103490348AFF35C
:10013C00008008BD000000001000002028270008E7
:10014C0038B50E4B054618784FF47A73B3FBF0F3C1
:10015C000B4A1068B0FBF3F000F02CFA044658B9C7
:10016C000F2D09D8024629464FF0FF3000F0E2F976
:10017C00044B20461D6038BD012038BD0000002016
:10018C000800002004000020074A08B5136803206B
:10019C0043F01003136000F0BBF90020FFF7D0FF11
:1001AC0002F0B8F8002008BD00200240034A044BBE
:1001BC0011681B780B441360704700BF28000020A7
:1001CC0000000020014B1868704700BF2800002079
:1001DC0070477047036810B55A680446900627D5D7
:1001EC001A68910724D5A26AD2065EBFA26A42F4AD
:1001FC000072A2629A6802F46022B2F5602F10D1EC
:10020C00E26872B95A6822F020025A60A36A23F499
:10021C008073A362A36ADB045EBFA36A43F001038D
:10022C00A3622046FFF7D4FF6FF0120223681A6016
:10023C0023685A68100630D51A6851072DD5A26A62
:10024C00D2065EBFA26A42F40052A2629A6802F41D
:10025C00E042B2F5E04F0AD05A68500516D49A68BD
:10026C0002F46022B2F5602F10D1E26872B95A68BC
:10027C0022F080025A60A36A23F48053A362A36A1B
:10028C00D9055EBFA36A43F00103A362204600F0C8
:10029C003DF96FF00C0223681A6023685A68520605
:1002AC000DD51B68DB070AD5A36A204643F48033BF
:1002BC00A362FFF78EFF6FF0010223681A6010BD76
:1002CC00002373B5019390F82430012B74D00123D3
:1002DC004D6880F82430062D02684FEA85030C68BF
:1002EC0025D82B441F25566B053B9D4026EA05055A
:1002FC0004FA03F32B435363092C4FEA44038D6830
:10030C002FD907262344D1681E3B9E4021EA0601C3
:10031C0005FA03F30B43D360A4F11003012B2BD983
:10032C000023002280F82420184602B070BD0C2D4A
:10033C000BD82B441F25166B233B9D4026EA050545
:10034C0004FA03F32B431363D6E72B441F25D66A19
:10035C00413B9D4026EA050504FA03F32B43D36287
:10036C00CAE70726116923449E4021EA060105FAD3
:10037C0003F30B431361CFE7104B9A4216D19368EA
:10038C001B02CDD49368102C43F400039360C7D1A7
:10039C000B4B0C4A1B68B3FBF2F20A235343019339
:1003AC00019B002BBCD0019B013BF8E7836A43F017
:1003BC00200383620123B4E70223B5E70024014044
:1003CC000800002040420F0038B5036804469A68C4
:1003DC00D20701D4002038BD9A6822F001029A603D
:1003EC00FFF7F0FE054623689B68DB07F2D5FFF7A5
:1003FC00E9FE401B0228F6D9A36A012043F0100342
:10040C00A362E36A43F00103E36238BD70B50446AE
:10041C00002871D0836A23B9C36280F8243001F0BC
:10042C0009FE2046FFF7D0FFA36A13F0100FA36A52
:10043C0064D1002862D1E16923F48853626823F007
:10044C00020343F002030A43A168A362E368B1F517
:10045C00807F42EA430238D0012914BF06464FF48C
:10046C0080766569012D07D1002B30D1A369013B42
:10047C0046EA433545F400662368B1F5807F5D6834
:10048C0025F4694545EA06055D609E681D4D05EA43
:10049C00060545EA02059D6001D0012920D121699C
:1004AC0001390905DD6A25F470052943D96299687B
:1004BC00154B0B409A4215D10023E362A36A23F03B
:1004CC00030343F00103A36270BD0E46C9E7A36AA0
:1004DC0043F02003A362E36A43F00103E362CBE73A
:1004EC000021DFE7A36A23F0120343F01003A36299
:1004FC00E36A43F00103E362012070BD43F0100393
:10050C00A362F9E7FDF7E1FFFE0E1FFF7047000045
:10051C00074A0002D36800F4E06023F4E0631B0494
:10052C001B0C43F0BF6343F400330343D3607047A9
:10053C0000ED00E0174B30B5DC68C4F30224C4F1C5
:10054C000703251D042B28BF0423062D4FF001059E
:10055C0098BF002405FA03F303F1FF3388BF033C73
:10056C001940A14005FA04F4013C2240002842EA5B
:10057C0001024FEA0212AFBF00F16040064B00F0DF
:10058C000F00D2B2A5BFD2B200F561401A5480F868
:10059C00002330BD00ED00E014ED00E00123420922
:1005AC0000F01F0003FA00F0014B43F822007047E3
:1005BC0000E100E00138B0F1807F0AD2F021064B57
:1005CC00064A586082F823100020072298601A60AF
:1005DC0070470120704700BF10E000E000ED00E024
:1005EC0010B530B314220168134B84680B44B3FB71
:1005FC00F2F39B000364114B0A68C363436822F453
:10060C007F522343C46822F03002234304692343FE
:10061C004469234384692343C469234313430B6014
:10062C000122002380F82120836380F820301846B3
:10063C0010BD012010BD00BFF8FFFDBF000002403F
:10064C0090F8213010B5022B03D0042383630120D2
:10065C0010BD03681A6822F00E021A601A6822F0A4
:10066C0001021A60184A93421FD0143293421ED0D2
:10067C00143293421DD0143293421DD01432934243
:10068C001DD0143293420CBF4FF480134FF0807383
:10069C000E4A00245360012380F82130436B80F80C
:1006AC0020407BB19847204610BD0123F0E7102372
:1006BC00EEE74FF48073EBE74FF48053E8E74FF429
:1006CC008033E5E7184610BD0800024000000240E8
:1006DC0070B40425C66B026C3468036895402542DF
:1006EC00196832D04D0730D51A6896065EBF1A6865
:1006FC0022F004021A603E4A934219D014329342FB
:10070C0018D01432934217D01432934217D01432AB
:10071C00934217D0143293420CBF4FF480034FF026
:10072C008063344A5360C36A002B5ED070BC184798
:10073C000423F6E74023F4E74FF48063F1E74FF42A
:10074C008043EEE74FF48023EBE7022595402542EA
:10075C0035D08D0733D51A68940606D41A6822F062
:10076C000A021A60012280F82120214A934219D0F2
:10077C001432934218D01432934217D0143293424D
:10078C0017D01432934217D0143293420CBF4FF44B
:10079C0000134FF00073174A5360002380F8203089
:1007AC00836AC1E70223F6E72023F4E74FF40073D2
:1007BC00F1E74FF40053EEE74FF40033EBE7082575
:1007CC009540254211D009070FD5196821F00E016B
:1007DC001960012303FA02F27260836380F82130FE
:1007EC00002380F82030036B9EE770BC704700BF7D
:1007FC0008000240000002402DE9F74F0022164687
:10080C00654BDFF8A4E1DFF8A4C14FF001080C68D8
:10081C0008FA06F808EA0404A0457FD14D68122DA9
:10082C0000F0AF8000F28880022D00F0A7807CD809
:10083C00002D00F08E80012D00F09E804FF00F09EE
:10084C00FF2C93BF824606F18045083DD0F800B0DE
:10085C0092BFB500D0F804B0AD0009FA05F82BEA48
:10086C00080802FA05F588BF00F1040A48EA0505F4
:10087C00CAF80050D1F804A01AF0805F4ED0474D52
:10088C00464FAD6926F0030845F00105BD61BD6911
:10089C0008F1804805F00105019508F5803806F04F
:1008AC00030B019D4FEA8B0BD8F8085009FA0BF992
:1008BC0025EA09093A4DA84268D005F58065A84299
:1008CC0066D005F58065A84264D005F58065A84220
:1008DC000CBF0325042505FA0BF545EA0905C8F8F4
:1008EC0008501D681AF4803F14BF2543A5431D60B2
:1008FC005D681AF4003F14BF2543A5435D609D68F5
:10090C001AF4801F14BF2543A5439D60DD681AF4BB
:10091C00001F14BF2C4325EA0404DC600136102EA2
:10092C007FF473AF03B0BDE8F08F032D22D0112DEF
:10093C0084D1CA68043281E71A4FBD4209D012D85B
:10094C00DFF86C904D4504D009F580394D457FF4A6
:10095C0075AF8A68C2B1012A0CBFC0F81080C0F80C
:10096C00148008226AE77545F3D06545F1D0DFF8AD
:10097C004490EBE7002261E7CA685FE7CA68083277
:10098C005CE7CA680C3259E7042257E70025A2E756
:10099C000125A0E702259EE700040140001002405B
:1009AC00000801400000211000003110000032103E
:1009BC00000011100000221038B5044608B90120BF
:1009CC0038BD90F83D3003F0FF021BB980F83C2095
:1009DC0001F0F8FB2423226884F83D30136823F0DF
:1009EC000103136000F0AEFF63682F4A934230D8C6
:1009FC002E4A9042E3D92E4A2168B0FBF2F24A60AB
:100A0C0001320A62284A0138934232D85B00B0FBAB
:100A1C00F3F0431CC3F30B03042B38BF0423CB614B
:100A2C00226AE369002013430B60E26823691343D5
:100A3C008B60A26963691343CB600B6843F00103BD
:100A4C000B602023206484F83D30206384F83E0042
:100A5C0038BD184A9042B2D9154D4FF49672B0FB7E
:100A6C00F5F521686A434D604FF47A75B2FBF5F2E7
:100A7C00C6E7A26852B903EB4303B0FBF3F0431C87
:100A8C00C3F30B036BB143F40043C8E71922534380
:100A9C00B0FBF3F0431CC3F30B0313B143F440431B
:100AAC00BDE70123BBE700BFA08601007F841E00C9
:100ABC0040420F00FF083D00704770477047704779
:100ACC0070477047704770477047704790F83D30DB
:100ADC0010B5293B012B0446036839D80022026368
:100AEC00282280F83D201A6822F400621A605A68A5
:100AFC0012F4006254D05A68606B22F400625A609F
:100B0C0090F82130012B394B31D04363FFF798FD1E
:100B1C0050B12268606B136823F00103136020232B
:100B2C0084F83D30436B984794F83D30282B0ED118
:100B3C00236C5B070BD52E4B2022E362002320464F
:100B4C00236384F83D2084F83E30FFF7BAFF10BDD4
:100B5C0090F83D20602A05D05A6812055CBF20220F
:100B6C0080F83D200022226384F83E20BBE7A06B76
:100B7C004363FFF765FD0028D6D0226853695806F9
:100B8C0004D5636A1269591C61621A702268A06BE1
:100B9C00136823F001031360202384F83D30C1E770
:100BAC0094F83D10602914D1202184F83D10226462
:100BBC005A69510604D5626A1B69511C6162137033
:100BCC0022682046136823F001031360FFF77DFFB2
:100BDC00AAE75A69520604D5626A1B69511C616204
:100BEC0013702046FFF770FF9EE700BF111400083A
:100BFC000000FFFF0368F0B59D6959695A6890F8C9
:100C0C003E408DB0E4B2102C02D0402C40F0568205
:100C1C0011F0011F66D0970564D590F83E40402C2A
:100C2C0043D1046D002C3BD1446C04F0FE041C61D8
:100C3C00944E954C2E400C40002E00F0A281934D0A
:100C4C000D40002D00F06981550540F16681002CA6
:100C5C0040F0638190F83D20058D90F83E10D2B2A3
:100C6C00C9B2C46A002D40F01781212A40F01681C8
:100C7C00042C00F06F81082C00F06C8114F5803F7F
:100C8C0000F068815A6822F4E0625A601123036311
:100C9C0080F83E50202380F83D30FFF70DFF18E11F
:100CAC00446C44F00104E4B2C1E70469B4F5804F2C
:100CBC0005D190F83D40212C446CF2D1B5E7046D80
:100CCC0034B9446CE41104F0060444F0F004AEE7CB
:100CDC00046D012CACD1446CE41104F0060444F016
:100CEC00F104A4E76A4C0C401CB1960501D5446C88
:100CFC00D9E7684C0C40002C9AD0940598D590F804
:100D0C003E40C66AD0F830E090F83D70E4B2222F35
:100D1C0040F0AF80076D47B9402C06D100975C6955
:100D2C0000949C690094009C82E7046D8CB907695F
:100D3C00B7F5404F0DD101945C6901949C69019405
:100D4C00019C1C6844F480741C60046D01340465BF
:100D5C006EE7448DA4B254B902945C6902949C6908
:100D6C000294029C1C6844F400741C6019E0448DCD
:100D7C00A4B2012C42D116F5803F1BD11C6824F47F
:100D8C0080641C605C6814F400640CD01C6824F44F
:100D9C0080641C60002403945C6903949C69039434
:100DAC00039C0024D3E704945C6904949C69049428
:100DBC00049CD7E7042E15D0082E13D0BEF1120FC9
:100DCC0010D0C46A022C1C6814BF24F4806444F450
:100DDC0080641C60002405945C6905949C690594EE
:100DEC00059CDEE71C6824F480641C6000240694D7
:100DFC005C6906949C690694069CB3E7448DA4B286
:100E0C00022C23D1C46A0026022C1C6814D044F492
:100E1C0000641C6007965C6907949C690794079CA6
:100E2C001C6824F480641C605C682705B9D55C6878
:100E3C0044F480545C60B4E744F480641C6008960D
:100E4C005C6908949C690894089CEDE71C6844F460
:100E5C0080641C605C68260542BF5C6844F4805466
:100E6C005C60002409945C6909949C690994099C50
:100E7C0097E700240A945C690A949C690A940A9C7A
:100E8C00D6E600BF04001000040001008000010041
:100E9C000800010002000100212A03D0402918D1CA
:100EAC00222A16D1428D92B222B95A6822F480625B
:100EBC005A600EE090F83E20402A28D1026D82B98B
:100ECC00C26C012A826C06D1D2B21A61036D023354
:100EDC0003650DB0F0BDC2F307221A61036D013337
:100EEC00F6E7026D012A02D1826CD2B2F5E7026DEF
:100EFC00022AEED190F83D20222A04D11A6842F43D
:100F0C0080721A60E5E790F83D20212AE1D1426A0F
:100F1C00511C416212781A6199E0002CD9D09405C9
:100F2C00D7D5C16A90F83D20212AD2D1428D92B2F8
:100F3C00002AECD104290DD008290BD011F5803FE3
:100F4C0008D0596821F4E06159601123036380F8DB
:100F5C003E209FE65A6822F4E0625A601A6842F416
:100F6C0000721A6000232022036380F83D2090F861
:100F7C003E2080F83E30402A7FF48FAEFFF7A2FD72
:100F8C00A7E78F4D0D40002D46D0510544D5002CC0
:100F9C0042D190F83D20222A9BD1428D92B2032A55
:100FAC0005D9426A1B69511C416213704FE0023A29
:100FBC00012AC26A0DD8022A1A681DBF22F4806267
:100FCC001A601A6842F4806218BF42F400621A6018
:100FDC006BE7022A1A6814BF22F4806242F4806222
:100FEC001A605A6822F4E0625A60426A1B69511C0A
:100FFC0041621370438D013B9BB24385202380F8E3
:10100C003D300023036390F83E2080F83E30402AA8
:10101C0051D1FFF758FD5CE7002C3FF45AAF970510
:10102C007FF557AFC26A418D89B20329416A13D14A
:10103C00042A04D0082A02D012F5803F03D11A6882
:10104C0022F480621A601B694A1C42620B70438D49
:10105C00013B9BB243853CE7448DA4B2022CF2D1F8
:10106C00042A1FD0082A1DD012F5803F1AD0022A5C
:10107C001A6814BF22F4806242F480621A605A68C3
:10108C0022F440725A601B694A1C42620B70438DF9
:10109C00013B9BB24385436A5A1C42620268126947
:1010AC001A70A7E75A6822F440725A601A6842F420
:1010BC0000721A60E7E7FFF700FD0AE7414C0C40AD
:1010CC0074B196050CD599699B6981F004011D06D4
:1010DC00C1F3800154BF8289028BFFF7F1FCF8E663
:1010EC00394C0C40002C73D0940571D590F83D20F0
:1010FC005968D2B221F4E061596000210B91596911
:10110C000B91196841F0010119600B99196821F4D0
:10111C0080611960596809050CD590F83D10222999
:10112C0003D090F83D102A2929D1816B09684968B0
:10113C0089B24185418D89B2E1B159694F0708D512
:10114C00416A1B694C1C44620B70438D013B9BB282
:10115C00438501684B695E0608D5436A09695C1CC6
:10116C0044621970438D013B9BB24385036C43F081
:10117C0004030364036C23B1FFF7A8FCA9E6416BDD
:10118C00D4E7A2F1280102290AD8104AC26220220F
:10119C00036380F83D2080F83E30FFF792FC98E620
:1011AC00036B222B02D0222A7FF493AE0023202241
:1011BC00036380F83D2080F83E30FFF780FC88E622
:1011CC004000010002000100100001000000FFFFC0
:1011DC00394E3A4C2E400C40002E36D0384D0D4036
:1011EC003DB3550525D524BB90F83D10428DC9B2B1
:1011FC0092B2002A3FF46DAE426A541C44621278DB
:10120C001A61428D013A92B24285428D92B2002A05
:10121C007FF45FAE29297FF45CAE5A6822F48062B9
:10122C005A6021230363282380F83D30FFF746FCE6
:10123C004FE6002C3FF44DAE94057FF54AAE428D3F
:10124C0092B2002A7FF463AE43E61E4D0D4035B3D7
:10125C00510524D51CBB90F83D20418DD2B289B2EA
:10126C0000293FF436AE416A1B694C1C44620B707A
:10127C00438D013B9BB24385438D9BB2002B7FF486
:10128C0028AE2A2A7FF425AE0268536823F48063C3
:10129C00536022230363282380F83D308DE7002C14
:1012AC003FF417AE92057FF514AE428D92B2002A30
:1012BC007FF477AE0DE600BF0400100004000100BF
:1012CC008000010040000100F8B503684B4A5E69DC
:1012DC00044616425D680CD0E8050AD5226C42F033
:1012EC00010222646FF480725A611A6842F400425F
:1012FC001A6016F4813F08D0E90506D5226C42F03D
:10130C00020222646FF400725A6116F4823F36D0E6
:10131C00EA0534D594F83E70618D94F83D20202F69
:10132C0089B2D2B2206B58D1002956D102F0F70104
:10133C00212903D0282A50D121284ED194F83D20C0
:10134C00E16AD2B2042901D008292CD1282A2AD149
:10135C002B4A2046E2625A6822F4E0625A606FF42B
:10136C0080625A611A6822F480621A60002320227B
:10137C00236384F83D2084F83E30FFF7A2FB16F47B
:10138C00843F09D0EB0507D56FF40062236C43F062
:10139C000803236423685A61236C73B32046BDE8A9
:1013AC00F840FFF793BB212A23D115492046E1626F
:1013BC002263202284F83D20002284F83E205A68C3
:1013CC0022F4E0625A606FF480625A611A6822F467
:1013DC0080621A60FFF772FBD1E7226C42F00402C4
:1013EC00226494F83E20102A02BF1A6842F400725C
:1013FC001A606FF480625A61C1E7F8BD0001010008
:10140C000000FFFF406A08B50368416B1A6822F4BC
:10141C0080621A60002242854A63816B4A6390F8AD
:10142C003D1060294FF0200180F83D1080F83E20DF
:10143C0007D102641A6822F001021A60FFF745FB1B
:10144C0008BD1A6822F001021A60FFF73DFB08BDC7
:10145C0003682DE9F341DB07054610D42B689F0781
:10146C005ED42B68190700F195802B685A0700F1A0
:10147C00BF80EA69002A40F02D81002014E0904CD6
:10148C00636803F00C03042B07D0636803F00C03B0
:10149C00082B0CD16368DE0309D523689C03DDD5CA
:1014AC006B68002BDAD1012002B0BDE8F0816B68CB
:1014BC00B3F5803F10D1236843F480332360FEF7EB
:1014CC0081FE064623689803C8D4FEF77BFE801B7A
:1014DC006428F7D90320E7E79BB9236823F480330A
:1014EC002360236823F480232360FEF76BFE0646FB
:1014FC0023689903B2D5FEF765FE801B6428F7D9E3
:10150C00E8E7B3F5A02F236803D143F480232360CD
:10151C00D1E723F480332360236823F48023CDE7C1
:10152C00674C636813F00C0F07D0636803F00C036F
:10153C00082B10D16368DA030DD423689B0702D5FE
:10154C002B69012BAFD123686A6923F0F80343EAB6
:10155C00C203236085E72A695A4B6AB101221A60DB
:10156C00FEF730FE064623689F07ECD4FEF72AFEF2
:10157C00801B0228F7D9ADE71A60FEF723FE06465A
:10158C00236898077FF56DAFFEF71CFE801B0228C1
:10159C00F6D99FE7AA694A4C4B4BDAB101221A6083
:1015AC00FEF710FE0646636A9B070DD54FF4FA5200
:1015BC00464B1B68B3FBF2F3019300BF019B5A1E11
:1015CC000192002BF9D150E7FEF7FCFD801B02289D
:1015DC00E9D97FE71A60FEF7F5FD0646636A9F07B7
:1015EC007FF543AFFEF7EEFD801B0228F6D971E7BD
:1015FC00334CE369D80024D40127E36943F08053CA
:10160C00E361E36903F080530093009B304E336831
:10161C00D90518D5EB68012B26D1236A43F00103B9
:10162C002362FEF7CFFD41F288368046236A9B0782
:10163C003FD5002F3FF41DAFE36923F08053E361E6
:10164C0017E70027E2E7336843F480733360FEF753
:10165C00B9FD80463368DA05DCD4FEF7B3FDA0EBA8
:10166C0008006428F6D935E7ABB9236A41F288380B
:10167C0023F001032362236A23F004032362FEF7A1
:10168C00A1FD0646236A9807D3D5FEF79BFD801B68
:10169C004045F7D91EE7052B236A03D143F0040319
:1016AC002362BAE723F001032362236A23F00403C5
:1016BC00B6E7FEF787FDA0EB0800B042B6D909E704
:1016CC000010024000004242800442420800002008
:1016DC0000700040224C636803F00C03082B3FF4AD
:1016EC00E2AE00231F4E022A33602BD1FEF76AFDB7
:1016FC000746236899011FD42B6AB3F5803F05D1A7
:10170C006268A96822F400320A436260696A6268FE
:10171C000B4322F474121343636001233360FEF70E
:10172C0051FD054623689A013FF5A7AEFEF74AFD29
:10173C00401B0228F6D9CDE6FEF744FDC01B02285B
:10174C00D7D9C7E6FEF73EFD054623689B017FF51A
:10175C0094AEFEF737FD401B0228F6D9BAE600BF5F
:10176C00001002406000424230B5194B87B002AC09
:10177C0003F11005224618685968083303C2AB42BE
:10178C001446F7D101238DF80430022311498DF84A
:10179C0005304B6803F00C02082A17D1C3F38342BF
:1017AC0006A80244DB0312F8102C0CD54B680A482F
:1017BC00C3F34043504306AA134413F8143CB0FB44
:1017CC00F3F007B030BD05485043FAE70248F8E79C
:1017DC00402700080010024000127A0000093D006A
:1017EC00544A2DE9F0411368054603F007038B4278
:1017FC000E462AD329688C0734D4CA0747D44D4ADD
:10180C00136803F007039E42C0F082802A684A4C9A
:10181C0012F0040F40F08780130706D563682A691D
:10182C0023F4605343EAC2036360FFF79DFF6368D0
:10183C00424AC3F30313D35CD840414B18600020D9
:10184C00FEF77EFC0020BDE8F081136823F007034F
:10185C000B431360136803F007039942CAD00120AD
:10186C00BDE8F081344B11F0040F1EBF5A6842F4EE
:10187C00E0625A60080742BF5A6842F460525A60EC
:10188C005A68A86822F0F00202435A60B5E76A6809
:10189C00294C012A23681CD113F4003FDFD0636864
:1018AC0041F2883823F0030313436360FEF78AFC8C
:1018BC006B680746012B14D1636803F00C03042BEF
:1018CC009DD0FEF77FFCC01B4045F5D90320BDE839
:1018DC00F081022A02D113F0007FDFE713F0020F30
:1018EC00DCE7022B0FD1636803F00C03082B86D0C6
:1018FC00FEF768FCC01B4045F5D9E7E7FEF762FC34
:10190C00C01B4045E2D8636813F00C0FF6D176E7A4
:10191C00136823F0070333431360136803F00703C2
:10192C009E429CD172E76368E96823F4E0630B4341
:10193C00636071E70020024000100240502700084D
:10194C0008000020044B054A5B68C3F30223D35CF8
:10195C00034A1068D8407047001002406027000806
:10196C000800002003682DE9F341D907054620D56E
:10197C00354CE369DA0032D40127E36943F0805334
:10198C00E361E36903F080530193019B2F4E3368AD
:10199C00DB0526D5236A13F4407336D1236A6A68B3
:1019AC0023F44073134323621FB1E36923F0805384
:1019BC00E3612868830706D5234AA968536823F492
:1019CC0040430B43536010F010001BD01E4AE968D3
:1019DC005368002023F480030B43536012E000276C
:1019EC00D4E7336843F480733360FEF7EBFB804637
:1019FC003368D805CED4FEF7E5FBA0EB08006428CD
:101A0C00F6D9032002B0BDE8F0816A6802F4407296
:101A1C009342C3D001200E4A236A1060002023F4A5
:101A2C00407110602162D907B8D5FEF7CBFB41F2AB
:101A3C0088380646236A9A07B0D4FEF7C3FB801B8E
:101A4C004045F7D9DDE700BF0010024000700040B0
:101A5C0040044242036A70B523F001030362036A37
:101A6C00446882690D6822F073022A438D6823F062
:101A7C0002032B430A4DA8420BD1CD6823F0080377
:101A8C002B438E694D6924F44074354323F00403D1
:101A9C002C43446082614A684263036270BD00BF9C
:101AAC00002C0140036A70B523F480730362036A4F
:101ABC004468C2690D6822F073022A438D6823F4CE
:101ACC00007343EA05230B4DA8420DD1CD6823F4D6
:101ADC00006343EA05238E694D6924F44054354371
:101AEC0023F4806344EA05144460C2614A68C2630B
:101AFC00036270BD002C0140036A30B523F480539F
:101B0C000362036A4468C2690D6822F4E64242EA41
:101B1C0005228D6823F4005343EA0533064DA84291
:101B2C0002BF4D6924F4804444EA85144460C261C8
:101B3C004A680264036230BD002C014003684868A7
:101B4C009A6830B522F070020C68024322F007024A
:101B5C00224350289A6021D002D8402810D030BDA2
:101B6C0060282DD070283DD1CA688C6898680969A6
:101B7C00224320F47F4042EA012202439A6030BDA6
:101B8C00186A1A6A096922F001021A629A6922F02B
:101B9C00F00242EA01129A61186230BD88680D6940
:101BAC00196A1C6A21F00A0124F001041C629A696A
:101BBC00014322F0F00242EA05129A61196230BD2B
:101BCC00186A8C6820F010000D69186299691A6AFD
:101BDC0021F4704122F0A00241EA053142EA0412DC
:101BEC0099611A6230BD704738B590F83C300446A4
:101BFC00012B4FF0020315D0012580F83D3080F801
:101C0C003C50FFF79BFF00202368DA6822F040026B
:101C1C00DA60DA6822F48042DA6084F83D5084F8A5
:101C2C003C0038BD184638BD704770477047704748
:101C3C007047036810B51A69044691070ED5DA6827
:101C4C0092070BD56FF002021A6101229B69027791
:101C5C009B0777D0FFF7EAFF0023237723681A69E5
:101C6C00500710D5DA6851070DD56FF004021A61D0
:101C7C0002229B69227713F4407F204668D0FFF73D
:101C8C00D5FF0023237723681A6912070FD5DA686A
:101C9C0010070CD56FF008021A610422DB69227759
:101CAC00990720465AD0FFF7C1FF002323772368FA
:101CBC001A69D20610D5DA68D0060DD56FF010026D
:101CCC001A610822DB69227713F4407F20464BD03F
:101CDC00FFF7ACFF0023237723681A69D10708D5D7
:101CEC00DA68D20705D56FF0010220461A61FFF7BA
:101CFC009BFF23681A69100608D5DA68110605D50A
:101D0C006FF0800220461A6100F045F923681A69C9
:101D1C00520608D5DA68500605D56FF04002204609
:101D2C001A61FFF785FF23681A69910622D5DA68D4
:101D3C0092061FD56FF020022046BDE810401A61B4
:101D4C0000F028B9FFF771FF2046FFF770FF83E71B
:101D5C00FFF76BFF2046FFF76AFF92E7FFF765FF7F
:101D6C002046FFF764FFA0E7FFF75FFF2046FFF771
:101D7C005EFFAFE710BD00001A4A036890420AD01C
:101D8C00B0F1804F07D0A2F59432904203D002F507
:101D9C008062904215D14A6823F070031343114AB4
:101DAC0090420AD0B0F1804F07D0A2F59432904205
:101DBC0003D002F58062904203D1CA6823F44073C9
:101DCC0013434A6923F08003134303608B68C36297
:101DDC000B688362034B984204BF0B6903630123B6
:101DEC0043617047002C014010B50446A0B190F837
:101DFC003D3003F0FF021BB980F83C2000F00AFBD9
:101E0C000223206884F83D30211DFFF7B5FF012324
:101E1C00002084F83D3010BD012010BD10B50446E3
:101E2C00A0B190F83D3003F0FF021BB980F83C20C4
:101E3C00FFF7D9FE0223206884F83D30211DFFF7FF
:101E4C009BFF0123002084F83D3010BD012010BD04
:101E5C00036A70B523F010030362036A4468826955
:101E6C000D6822F4E64242EA05228D6823F0200335
:101E7C0043EA05130B4DA8420DD1CD6823F0800326
:101E8C0043EA05138E694D6924F44064354323F00D
:101E9C00400344EA8504446082614A6882630362B9
:101EAC0070BD00BF002C014038B590F83C300446A2
:101EBC00012B4FF0020018D0012384F83D0084F868
:101ECC003C301D460C2A0BD8DFE802F0070A0A0A40
:101EDC00100A0A0A140A0A0A18002068FFF7BAFD49
:101EEC00002084F83D5084F83C0038BD2068FFF792
:101EFC00AFFFF5E72068FFF7D5FDF1E72068FFF7A6
:101F0C00FBFDEDE790F83C30012B1FD0CB688A68C5
:101F1C0023F4407313434A6823F4806313430A6821
:101F2C0023F4006313430A6923F4805313434A696F
:101F3C0023F4005313438A6923F440431343026888
:101F4C005364002380F83C301846704702207047D9
:101F5C0090F83C3010B5012B4FF0020318D080F8EC
:101F6C003D3003680C685A68496822F070025A6068
:101F7C005A6822435A609A6822F080029A609A68E2
:101F8C000A439A60012380F83D30002380F83C30EE
:101F9C00184610BD704770472448254B30B5036078
:101FAC004FF4807383604FF4002300240125C36138
:101FBC00042385B0019402940394C5604461446089
:101FCC000361FEF723FA08B100F0A2F9052301A979
:101FDC001648019402950393FEF772F908B100F0CC
:101FEC0097F901230193022301A910480293FEF7EC
:101FFC0067F908B100F08CF910230193032301A9B0
:10200C000A480293FEF75CF908B100F081F911233C
:10201C000193042305480DEB03010293FEF750F9DD
:10202C0008B100F075F905B030BD00BF2C000020E0
:10203C000024014030B5054687B01022002102A8CB
:10204C0000F064FB2A68204B9A423AD103F56C43AA
:10205C009A691E4842F400729A619A6902A902F4C4
:10206C0000720092009A9A69194C42F004029A612B
:10207C009B6903F004030193019B032302930393D5
:10208C00FEF7BAFB8022E2604FF48072114B2261A2
:10209C0023604FF48062002320466360A36062617A
:1020AC00A361E361FEF79CFA08B100F031F92C62F0
:1020BC001220032201216562FEF73CFA1220FEF782
:1020CC006DFA07B030BD00BF00240140000801408C
:1020DC005C000020080002400E4B07B55A69002135
:1020EC0042F001025A615B69022203F00103019381
:1020FC000B20019BFEF71EFA0B20FEF74FFA032272
:10210C0000211120FEF716FA1120FEF747FA03B052
:10211C005DF804FB00100240102200B589B00DEBF5
:10212C000200002100F0F2FA134B04A99A6913483B
:10213C0042F020029A619A6902F020020192019AFF
:10214C009A6942F004029A619A6902F004020292BE
:10215C00029A9A6942F008029A619B6903F008039B
:10216C000393039B4FF410630493054B0593FEF705
:10217C0043FB09B05DF804FB00100240000C014069
:10218C000000211008B50C480C4BDFF834E04FF47C
:10219C00804280E80840002302618360C360436191
:1021AC008361C3610362FEF707FC18B1BDE8084008
:1021BC0000F0AEB808BD00BFA000002000540040E5
:1021CC00A086010030B5054687B01022002102A878
:1021DC0000F09CFA2A68234B9A4240D1224C2348A7
:1021EC00A36902A943F00803A361A36903F00803E0
:1021FC000093009BC02302931223039303230593A4
:10220C00FEF7FAFAE369802243F40013E361E36911
:10221C00174C03F400130193019B164B20462360CB
:10222C000023E2606360A36023616361A361E361E7
:10223C00FEF7D6F908B100F06BF801221F20114609
:10224C00AC636562FEF776F91F20FEF7A7F9202034
:10225C0000220121FEF76EF92020FEF79FF907B04E
:10226C0030BD00BF0054004000100240000C014083
:10227C00F400002080000240282210B594B00DEB31
:10228C000200002100F042FA142200210DEB0200A2
:10229C0000F03CFA0021102201A800F037FA0123CB
:1022AC000A930E934FF4803302244FF4A02212931E
:1022BC004FF4E0130AA80B9213931194FFF7C8F88C
:1022CC000F234FF4806205930023214605A8079342
:1022DC00089209930694FFF783FA4FF4004301A880
:1022EC0001940393FFF73EFB14B010BD08B5FDF746
:1022FC004BFFFFF7C1FFFFF70FFFFFF7EDFE00F0FD
:10230C00F7F8FFF749FEFFF73DFF00F069F9FEE72C
:10231C0070470000104B07B59A69052042F0010286
:10232C009A619A6902F001020092009ADA6942F00D
:10233C008052DA61DB6903F080530193019BFEF755
:10234C00E7F8064A536823F0E06343F08073536068
:10235C0003B05DF804FB00BF001002400000014018
:10236C007047FEE7FEE7FEE7FEE7704770477047F1
:10237C00FDF71CBF0148FEF7ABB900BF5C000020A5
:10238C000148FEF7A5B900BFF40000200148FDF795
:10239C0021BF00BF2C0000200148FFF74ABC00BF42
:1023AC00780100200148FFF744BC00BF3801002031
:1023BC000148FEF71FBC00BFA00000200148FEF73B
:1023CC0083BF00BFA00000200F4B1A6842F001022F
:1023DC001A6059680D4A0A405A601A6822F08472D1
:1023EC0022F480321A601A6822F480221A605A6829
:1023FC0022F4FE025A604FF41F029A604FF0006202
:10240C00034B9A60704700BF001002400000FFF8B9
:10241C0000ED00E007B50368154A934214D1154B43
:10242C0019209A6942F400629A6102229B69114652
:10243C0003F400630093009BFEF77CF81920FEF771
:10244C00ADF803B05DF804FB0B4A9342F9D1094B8C
:10245C001D20DA6942F00202DA610322DB691146BF
:10246C0003F002030193019BFEF764F81D20E6E7DD
:10247C00002C0140001002400004004010B504463E
:10248C0086B01022002102A800F040F92368144AFB
:10249C00934216D1134B9A6942F004029A619B69DC
:1024AC0003F004030093009B4FF4E06302930223B8
:1024BC000393012302A90C480593FEF79DF906B07E
:1024CC0010BD0A4A9342FAD1064B9A6942F00402B3
:1024DC009A619B6903F004030193019B4023E5E798
:1024EC00002C014000100240000801400004004094
:1024FC0010B5002496B01422002103A800F006F9B0
:10250C001C22214608A80194029400F0FFF81C221A
:10251C0021460FA800F0FAF80A232F482F4A8460AE
:10252C0080E80C00FF230461C36044618461FFF701
:10253C005BFC08B1FFF7ECFE2748FFF76FFC08B116
:10254C00FFF7E6FE0623002403A923480393049413
:10255C00FFF74AFB08B1FFF7DBFE01A91E48019407
:10256C000294FFF7F5FC08B1FFF7D2FE00220C2312
:10257C0008A91948089209930A920B920C920D9291
:10258C000E92FFF791FC08B1FFF7C2FE042208A9D6
:10259C001148FFF789FC08B1FFF7BAFE082208A919
:1025AC000D48FFF781FC08B1FFF7B2FE00234FF492
:1025BC0000520FA908480F93109311931293139381
:1025CC0014921593FFF79EFC08B1FFF7A1FE024889
:1025DC00FFF754FF16B010BD78010020002C01400D
:1025EC0010B58EB01422002102A8002400F08EF841
:1025FC001C2221460DEB02000094019400F086F899
:10260C001B481C4B846080E81800C4600461846122
:10261C00FFF7EAFB08B1FFF77BFE1548FFF7FEFB5F
:10262C0008B1FFF775FE0623002402A91048029397
:10263C000394FFF7D9FA08B1FFF76AFE69460C4814
:10264C0000940194FFF784FC08B1FFF761FE0022AF
:10265C0007A907480792089209920B92FFF724FCEE
:10266C0008B1FFF755FE0248FFF708FF0EB010BD8A
:10267C003801002000040040002103E00B4B5B58A4
:10268C00435004310A480B4B42189A42F6D30A4A7B
:10269C0002E0002342F8043B084B9A42F9D3FFF7BF
:1026AC0093FE00F00FF8FFF721FE7047702700082B
:1026BC00000000200C0000200C000020B8010020BD
:1026CC00FEE7000070B500250C4E0D4CA41BA410A9
:1026DC00A54209D100F022F800250A4E0A4CA41B91
:1026EC00A410A54205D170BD56F825309847013588
:1026FC00EEE756F8253098470135F2E768270008D1
:10270C0068270008682700086C2700080346024465
:10271C00934200D1704703F8011BF9E7F8B500BFED
:10272C00F8BC08BC9E467047F8B500BFF8BC08BCA6
:04273C009E467047FE
:1027400002030405060708090A0B0C0D0E0F1010F2
:102750000000000000000000010203040607080951
:08276000000000000102030467
:042768003101000833
:04276C000D01000853
:0C277000010000001000000000A24A045C
:040000050800268544
:00000001FF
